:1000000012C01FC01EC01DC01CC01BC01AC01AC019
:1000100018C017C016C015C014C013C012C011C03C
:1000200010C00FC00EC011241FBECFEDCDBF10E019
:10003000A0E6B0E001C01D92A936B107E1F743D0B8
:100040004FC1DECF1F920F920FB60F9211242F9344
:100050008F939F93EF93FF93DF93CF93CDB7DEB74B
:10006000ECE2F0E080818093660080916700882355
:10007000A9F080916800882F90E020916600FC0133
:10008000E05AFF4F2083809168008F5F8093680063
:1000900080916800853011F41092670080916600AD
:1000A000813829F481E08093670010926800CF9135
:1000B000DF91FF91EF919F918F912F910F900FBE44
:1000C0000F901F901895DF93CF93CDB7DEB7A7E3BE
:1000D000B0E0E7E3F0E080818F618C93A1E3B0E0D2
:1000E000E1E3F0E080818C678C93AAE3B0E0EAE37F
:1000F000F0E0808183608C93E2E2F0E01082E9E23C
:10010000F0E089E18083EBE2F0E082E68083EAE2DE
:10011000F0E088E18083E3E2F0E086E88083AAE211
:10012000B0E0EAE2F0E0808180688C937894A8E304
:10013000B0E0E8E3F0E08081807E8C9380E690E0A0
:1001400001D0FCCFDF93CF9300D000D0CDB7DEB786
:100150009C838B831982B9C08981282F30E08B81E1
:100160009C81FC01E20FF31F8081882F90E0817059
:100170009070882341F0ABE3B0E0EBE3F0E08081E6
:100180008E7F8C9307C0ABE3B0E0EBE3F0E08081BF
:1001900081608C938981282F30E08B819C81FC01C8
:1001A000E20FF31F8081882F90E08270907000979B
:1001B00041F0ABE3B0E0EBE3F0E080818D7F8C9326
:1001C00007C0ABE3B0E0EBE3F0E0808182608C93AA
:1001D00082E08A8344C08981282F30E08B819C8112
:1001E000FC01E20FF31F8081282F30E08A81882FE5
:1001F00090E0A90102C0559547958A95E2F7CA019A
:10020000817090708823A9F0A2E3B0E0E2E3F0E00F
:100210008081482F8A81282F30E081E090E0022EF3
:1002200002C0880F991F0A94E2F7809584238C936B
:1002300013C0A2E3B0E0E2E3F0E08081482F8A81BE
:10024000282F30E081E090E0022E02C0880F991F35
:100250000A94E2F7842B8C938A818F5F8A838A8148
:10026000873008F4B8CFA8E3B0E0E8E3F0E080819D
:10027000482F8981282F30E081E090E0022E02C0D3
:10028000880F991F0A94E2F7842B8C931A8203C07B
:100290008A818F5F8A838A818536D0F3A8E3B0E0B4
:1002A000E8E3F0E08081482F8981282F30E081E069
:1002B00090E0022E02C0880F991F0A94E2F7809501
:1002C00084238C9389818F5F89838981853008F4A9
:1002D00043CF0F900F900F900F90CF91DF91089523
:0402E000F894FFCFC0
:00000001FF
