:1000000012C02AC029C028C027C026C025C025C0CC
:1000100023C022C021C020C01FC01EC01DC01CC0E4
:100020001BC01AC019C011241FBECFEDCDBF10E0F8
:10003000A0E6B0E0E8EEF6E002C005900D92A23630
:10004000B107D9F710E0A2E6B0E001C01D92A637D3
:10005000B107E1F7B0D046C3D3CF1F920F920FB6CE
:100060000F9211242F933F934F938F939F93EF936E
:10007000FF93DF93CF9300D0CDB7DEB7ECE2F0E093
:1000800080818093720080917300882309F44BC0B3
:1000900080917400882F90E020917200FC01EE594D
:1000A000FF4F2083809174008F5F80937400809154
:1000B00074008330C1F580917300882F90E09C011B
:1000C0002150304040916200C901880F991F820F72
:1000D000931FFC01EB59FF4F408380917300882FE1
:1000E00090E09C012150304040916300C901880F8D
:1000F000991F820F931FFC01EA59FF4F40838091A3
:100100007300882F90E09C012150304040916400A2
:10011000C901880F991F820F931FFC01E959FF4FF6
:1001200040831092730080917200282F30E03A8350
:10013000298389819A8186369105E1F029813A8166
:100140002736310534F489819A818536910561F02D
:1001500022C029813A812736310591F089819A811F
:100160008836910599F017C081E080937300109252
:10017000740011C082E080937300109274000BC071
:1001800083E0809373001092740005C084E0809334
:100190007300109274000F900F90CF91DF91FF9138
:1001A000EF919F918F914F913F912F910F900FBEA3
:1001B0000F901F901895DF93CF93CDB7DEB7A1E3D3
:1001C000B0E0E1E3F0E0808184608C93AAE3B0E0EA
:1001D000EAE3F0E0808181608C93AAE3B0E0EAE397
:1001E000F0E0808182608C93A1E3B0E0E1E3F0E095
:1001F000808180628C93A1E3B0E0E1E3F0E0808154
:1002000080618C93A1E3B0E0E1E3F0E0808188605D
:100210008C93A7E3B0E0E7E3F0E0808180618C930A
:10022000A7E3B0E0E7E3F0E0808188608C93A7E388
:10023000B0E0E7E3F0E0808184608C93A7E3B0E076
:10024000E7E3F0E0808182608C93A7E3B0E0E7E32E
:10025000F0E0808181608C93A1E3B0E0E1E3F0E025
:10026000808180648C93A2E3B0E0E2E3F0E08081DF
:1002700084608C93ABE3B0E0EBE3F0E080818160DD
:100280008C93ABE3B0E0EBE3F0E0808182608C9391
:10029000A2E3B0E0E2E3F0E0808180628C93A2E32D
:1002A000B0E0E2E3F0E0808180618C93A2E3B0E013
:1002B000E2E3F0E0808188608C93A8E3B0E0E8E3BB
:1002C000F0E0808180618C93A8E3B0E0E8E3F0E0A7
:1002D000808188608C93A8E3B0E0E8E3F0E080815F
:1002E00084608C93A8E3B0E0E8E3F0E08081826072
:1002F0008C93A8E3B0E0E8E3F0E0808181608C9328
:10030000A2E3B0E0E2E3F0E0808180648C93B9D1B5
:100310007894809160009091610021E08D32920785
:1003200031F481E090E090936100809360008091CF
:10033000600090916100009799F080916500282FEE
:1003400030E080916000909161002817390740F0FB
:10035000A2E3B0E0E2E3F0E080818B7F8C9307C002
:10036000A2E3B0E0E2E3F0E0808184608C938091CE
:1003700060009091610084369105B0F08091660034
:10038000882F90E08C599F4F9C0180916000909144
:1003900061008217930740F4ABE3B0E0EBE3F0E0D9
:1003A00080818E7F8C9307C0ABE3B0E0EBE3F0E09D
:1003B000808181608C938091600090916100883C85
:1003C0009105B0F080916700882F90E088539F4F8F
:1003D0009C0180916000909161008217930740F426
:1003E000ABE3B0E0EBE3F0E080818D7F8C9307C05E
:1003F000ABE3B0E0EBE3F0E0808182608C9380912E
:10040000600090916100009799F080916800282F1A
:1004100030E080916000909161002817390740F02A
:10042000A2E3B0E0E2E3F0E080818F7D8C9307C02F
:10043000A2E3B0E0E2E3F0E0808180628C938091FF
:1004400060009091610084369105B0F08091690060
:10045000882F90E08C599F4F9C0180916000909173
:1004600061008217930740F4A2E3B0E0E2E3F0E01A
:1004700080818F7E8C9307C0A2E3B0E0E2E3F0E0DE
:10048000808180618C938091600090916100883CB4
:100490009105B0F080916A00882F90E088539F4FBB
:1004A0009C0180916000909161008217930740F455
:1004B000A2E3B0E0E2E3F0E08081877F8C9307C0A5
:1004C000A2E3B0E0E2E3F0E0808188608C93809169
:1004D000600090916100009799F080916B00282F47
:1004E00030E080916000909161002817390740F05A
:1004F000A8E3B0E0E8E3F0E080818F7E8C9307C052
:10050000A8E3B0E0E8E3F0E0808180618C93809123
:1005100060009091610084369105B0F080916C008C
:10052000882F90E08C599F4F9C01809160009091A2
:1005300061008217930740F4A8E3B0E0E8E3F0E03D
:100540008081877F8C9307C0A8E3B0E0E8E3F0E008
:10055000808188608C938091600090916100883CDC
:100560009105B0F080916D00882F90E088539F4FE7
:100570009C0180916000909161008217930740F484
:10058000A8E3B0E0E8E3F0E080818B7F8C9307C0C4
:10059000A8E3B0E0E8E3F0E0808184608C93809190
:1005A000600090916100009799F080916E00282F73
:1005B00030E080916000909161002817390740F089
:1005C000A8E3B0E0E8E3F0E080818D7F8C9307C082
:1005D000A8E3B0E0E8E3F0E0808182608C93809152
:1005E00060009091610084369105B0F080916F00B9
:1005F000882F90E08C599F4F9C01809160009091D2
:1006000061008217930740F4A8E3B0E0E8E3F0E06C
:1006100080818E7F8C9307C0A8E3B0E0E8E3F0E030
:10062000808181608C938091600090916100883C12
:100630009105B0F080917000882F90E088539F4F13
:100640009C0180916000909161008217930740F4B3
:10065000A2E3B0E0E2E3F0E080818F7B8C9307C0FF
:10066000A2E3B0E0E2E3F0E0808180648C938091CB
:10067000600090916100019690936100809360000A
:1006800048CEDF93CF93CDB7DEB7E2E2F0E0108241
:10069000E9E2F0E08CE08083ABE2B0E0EBE2F0E096
:1006A000808180628C93AAE2B0E0EAE2F0E080818F
:1006B00080688C93AAE2B0E0EAE2F0E08081806199
:1006C0008C93A3E2B0E0E3E2F0E0808184608C935D
:1006D000A3E2B0E0E3E2F0E0808182608C93CF910E
:0806E000DF910895F894FFCFAB
:0206E80001000F
:00000001FF
