:1000000012C047C029C028C027C026C0A3C024C032
:1000100023C022C021C020C01FC01EC01DC01CC0E4
:100020001BC01AC019C011241FBECFEDCDBF10E0F8
:10003000A0E6B0E0EAE3F7E002C005900D92A63634
:10004000B107D9F710E0A6E6B0E001C01D92AA36CC
:10005000B107E1F7EFD26FC3D3CF10BE82E083BF09
:1000600012BE89B7826089BF08958BB780648BBF49
:1000700085B7826085BF0895B89AB99ABA9ABB9A33
:10008000BC9ABD9ABE9ABF9A8B9A8C9A8D9A8E9A78
:1000900008951F920F920FB60F9211242F933F9342
:1000A0004F935F936F937F938F939F93AF93BF9380
:1000B000EF93FF938091660090916700A091680094
:1000C000B09169004597A105B10598F1609166006E
:1000D0007091670080916800909169002CE030E099
:1000E00040E050E0EBD2C901DA01809360009093C8
:1000F0006100A0936200B0936300109266001092BA
:10010000670010926800109269008091640081304D
:1001100081F4C098C198C298C398C498C598C698ED
:10012000C7989398949895989698959A949A939A34
:10013000C79AFF91EF91BF91AF919F918F917F915E
:100140006F915F914F913F912F910F900FBE0F9044
:100150001F9018951F920F920FB60F921124EF92D5
:10016000FF920F931F932F933F934F935F936F9340
:100170007F938F939F93AF93BF93EF93FF93809160
:10018000660090916700A0916800B09169000196A7
:10019000A11DB11D8093660090936700A093680035
:1001A000B093690080916400813009F04FC12091C3
:1001B000660030916700409168005091690080911D
:1001C000600090916100A0916200B09163002817D7
:1001D00039074A075B0711F4969AC7982091660081
:1001E00030916700409168005091690080916000F3
:1001F00090916100A0916200B0916300880F991FF7
:10020000AA1FBB1F281739074A075B0711F4C09ABA
:100210009398E0906600F09067000091680010915C
:10022000690020916000309161004091620050911E
:100230006300DA01C901880F991FAA1FBB1F820F33
:10024000931FA41FB51FE816F9060A071B0711F430
:10025000C19A94982091660030916700409168009F
:10026000509169008091600090916100A0916200BE
:10027000B091630012E0880F991FAA1FBB1F1A9547
:10028000D1F7281739074A075B0711F4C29A9598E6
:10029000E0906600F090670000916800109169009E
:1002A00020916000309161004091620050916300A4
:1002B000DA01C901F2E0880F991FAA1FBB1FFA9546
:1002C000D1F7820F931FA41FB51FE816F9060A077E
:1002D0001B0711F4C39A9698E0906600F0906700AF
:1002E0000091680010916900609160007091610058
:1002F000809162009091630026E030E040E050E0A1
:10030000C4D1E616F7060807190711F4C49AC09875
:10031000E0906600F090670000916800109169001D
:100320002091600030916100409162005091630023
:10033000DA01C901E3E0880F991FAA1FBB1FEA95E4
:10034000D1F7821B930BA40BB50BE816F9060A072D
:100350001B0711F4C59AC19820916600309167007F
:100360004091680050916900809160009091610017
:10037000A0916200B091630073E0880F991FAA1FDB
:10038000BB1F7A95D1F7281739074A075B0711F485
:10039000C69AC298E0906600F090670000916800ED
:1003A00010916900209160003091610040916200DD
:1003B00050916300DA01C90163E0880F991FAA1FF9
:1003C000BB1F6A95D1F7820F931FA41FB51FE816B4
:1003D000F9060A071B0711F4C79AC398E090660054
:1003E000F0906700009168001091690060916000D2
:1003F0007091610080916200909163002AE030E08A
:1004000040E050E042D1E616F7060807190711F45C
:10041000939AC498E0906600F0906700009168009D
:10042000109169006091600070916100809162009C
:10043000909163002BE030E040E050E026D1E616DA
:10044000F7060807190711F4949AC598809164007B
:10045000882361F4C098C198C298C398C498C5987D
:10046000C698C7989398949895989698FF91EF910D
:10047000BF91AF919F918F917F916F915F914F91BC
:100480003F912F911F910F91FF90EF900F900FBE12
:100490000F901F9018959C01909880E037FF02C044
:1004A000D99A01C0D998220F331FC8992160919A17
:1004B0000000000091988F5F803181F7909AC90108
:1004C00008958CE894E9E7DF0895906AE4DF0895E1
:1004D00022E08839920718F488E992E004C025E107
:1004E0008831920770F49C0140E050E060E678EAC1
:1004F00080E090E005D1DA01C90101978068966C2F
:100500000CC09C0140E050E06CEF72E485E090E0AC
:10051000D5D0DA01C9010197966CBDDF089590E04E
:1005200087709070986970E0F4E0660F771FFA9515
:10053000E1F77070862B972BAEDF0895D19A899AD8
:10054000889AD098909A20E040E25EE4CA01019730
:10055000F1F72F5F2233D1F780EE90EC9CDF87EE2E
:1005600090E899DF8BEA92EC96DF81E89AEC93DFD2
:1005700080E090EE90DF80E098EC8DDF87EF94ECE8
:100580008ADF8BE796E0A1DF9CDF80E09BE4A0DFC1
:1005900080E066E0C4DF0895D9989098000080E07C
:1005A00090E0A0E0B0E00BC0813721E1920721E0AC
:1005B000A20720E0B20729F00196A11DB11DC89B3A
:1005C000F3CF0895FF920F931F93CF93DF938C0186
:1005D000F62E88EC92E85FDF81E89AEC5CDF83E836
:1005E0009AEC59DFE80119C0D9989098000080E092
:1005F00090E0A0E0B0E00BC0813721E1920721E05C
:10060000A20720E0B20729F00196A11DB11DC89BE9
:10061000F3CF80E090EB3FDF89939E01201B2F15E5
:1006200018F388E092E837DFDF91CF911F910F91A7
:10063000FF9008950F931F93DF93CF930F92CDB741
:10064000DEB781E3898310BE82E083BF12BE89B723
:10065000826089BF11DD8BB780648BBF85B78260F4
:1006600085BF78946BDF8E010F5F1F4FC80161E07B
:10067000A9DF8981813321F481E080936400F6CF82
:100680008033A1F710926400F1CFFF27EE27BB273C
:10069000AA2760FF04C0A20FB31FE41FF51F220F9B
:1006A000331F441F551F969587957795679589F752
:1006B0000097760771F7CF01BD010895A1E21A2EC8
:1006C000AA1BBB1BFD010DC0AA1FBB1FEE1FFF1FF6
:1006D000A217B307E407F50720F0A21BB30BE40B46
:1006E000F50B661F771F881F991F1A9469F760958D
:1006F0007095809590959B01AC01BD01CF01089547
:1007000097FB092E05260ED057FD04D0D7DF0AD05F
:10071000001C38F450954095309521953F4F4F4F30
:100720005F4F0895F6F790958095709561957F4F8E
:0A0730008F4F9F4F0895F894FFCFFC
:06073A00E20400000100D2
:00000001FF
