:100000000C9446000C9465000C9465000C946500FB
:100010000C9465000C9465000C9465000C946500CC
:100020000C9465000C9465000C9465000C946500BC
:100030000C9465000C9465000C9465000C946500AC
:100040000C9465000C9465000C9465000C9465009C
:100050000C9465000C94F0100C9465000C946500F1
:100060000C9465000C9465000C9465000C9465007C
:100070000C9465000C9465000C9465000C9465006C
:100080000C9465000C9465000C94650011241FBE4F
:10009000CFEFD0E1DEBFCDBF14E0A0E0B1E0E0EDF6
:1000A000F8E400E00BBF02C007900D92A032B10748
:1000B000D9F716E0A0E2B4E001C01D92AB39B10758
:1000C000E1F70E942D110C9466240C940000DF933C
:1000D000CF9300D000D0CDB7DEB789836A83898102
:1000E000282F30E03C832B838B819C8183369105C4
:1000F00009F44BC02B813C81243631055CF48B81A3
:100100009C8181369105C9F02B813C8122363105D5
:1001100041F18AC08B819C818536910509F45DC0CF
:100120002B813C81253631050CF443C08B819C81A9
:100130008636910509F465C077C0ABE3B0E0EBE328
:10014000F0E08081482F8A81282F30E081E090E024
:10015000022E02C0880F991F0A94E2F7842B8C9319
:1001600063C0A8E3B0E0E8E3F0E08081482F8A8133
:10017000282F30E081E090E0022E02C0880F991F06
:100180000A94E2F7842B8C934FC0A5E3B0E0E5E33B
:10019000F0E08081482F8A81282F30E081E090E0D4
:1001A000022E02C0880F991F0A94E2F7842B8C93C9
:1001B0003BC0A2E3B0E0E2E3F0E08081482F8A8117
:1001C000282F30E081E090E0022E02C0880F991FB6
:1001D0000A94E2F7842B8C9327C0A3E2B0E0E3E219
:1001E000F0E08081482F8A81282F30E081E090E084
:1001F000022E02C0880F991F0A94E2F7842B8C9379
:1002000013C0A2E6B0E0E2E6F0E08081482F8A81E8
:10021000282F30E081E090E0022E02C0880F991F65
:100220000A94E2F7842B8C930F900F900F900F900D
:10023000CF91DF910895DF93CF9300D000D0CDB759
:10024000DEB789836A838981282F30E03C832B8342
:100250008B819C818336910509F44DC02B813C81B3
:10026000243631055CF48B819C8181369105C9F07F
:100270002B813C812236310549F190C08B819C81D4
:100280008536910509F461C02B813C812536310505
:100290000CF446C08B819C818636910509F46AC0B6
:1002A0007DC0ABE3B0E0EBE3F0E08081482F8A81D2
:1002B000282F30E081E090E0022E02C0880F991FC5
:1002C0000A94E2F7809584238C9368C0A8E3B0E099
:1002D000E8E3F0E08081482F8A81282F30E081E038
:1002E00090E0022E02C0880F991F0A94E2F78095D1
:1002F00084238C9353C0A5E3B0E0E5E3F0E0808174
:10030000482F8A81282F30E081E090E0022E02C041
:10031000880F991F0A94E2F7809584238C933EC03E
:10032000A2E3B0E0E2E3F0E08081482F8A81282F49
:1003300030E081E090E0022E02C0880F991F0A94FD
:10034000E2F7809584238C9329C0A3E2B0E0E3E236
:10035000F0E08081482F8A81282F30E081E090E012
:10036000022E02C0880F991F0A94E2F78095842319
:100370008C9314C0A2E6B0E0E2E6F0E08081482F62
:100380008A81282F30E081E090E0022E02C0880FA1
:10039000991F0A94E2F7809584238C930F900F9015
:1003A0000F900F90CF91DF910895DF93CF9300D0FE
:1003B00000D0CDB7DEB789836A838981282F30E0EA
:1003C0003C832B838B819C818336910509F44BC040
:1003D0002B813C81243631055CF48B819C818136F4
:1003E0009105C9F02B813C812236310541F18AC04B
:1003F0008B819C818536910509F45DC02B813C8100
:10040000253631050CF443C08B819C8186369105DD
:1004100009F465C077C0ABE3B0E0EBE3F0E08081C6
:10042000482F8A81282F30E081E090E0022E02C020
:10043000880F991F0A94E2F784278C9363C0A8E37E
:10044000B0E0E8E3F0E08081482F8A81282F30E097
:1004500081E090E0022E02C0880F991F0A94E2F713
:1004600084278C934FC0A5E3B0E0E5E3F0E0808102
:10047000482F8A81282F30E081E090E0022E02C0D0
:10048000880F991F0A94E2F784278C933BC0A2E35C
:10049000B0E0E2E3F0E08081482F8A81282F30E04D
:1004A00081E090E0022E02C0880F991F0A94E2F7C3
:1004B00084278C9327C0A3E2B0E0E3E2F0E08081E0
:1004C000482F8A81282F30E081E090E0022E02C080
:1004D000880F991F0A94E2F784278C9313C0A2E631
:1004E000B0E0E2E6F0E08081482F8A81282F30E0FA
:1004F00081E090E0022E02C0880F991F0A94E2F773
:1005000084278C930F900F900F900F90CF91DF91D5
:100510000895DF93CF9300D000D0CDB7DEB78983A5
:100520006A838981282F30E03C832B838B819C81D7
:100530008336910509F44BC02B813C81243631056B
:100540005CF48B819C8181369105C9F02B813C81C3
:100550002236310541F18AC08B819C818536910517
:1005600009F45DC02B813C81253631050CF443C074
:100570008B819C818636910509F465C077C0AAE31A
:10058000B0E0EAE3F0E08081482F8A81282F30E054
:1005900081E090E0022E02C0880F991F0A94E2F7D2
:1005A000842B8C9363C0A7E3B0E0E7E3F0E08081A5
:1005B000482F8A81282F30E081E090E0022E02C08F
:1005C000880F991F0A94E2F7842B8C934FC0A4E301
:1005D000B0E0E4E3F0E08081482F8A81282F30E00A
:1005E00081E090E0022E02C0880F991F0A94E2F782
:1005F000842B8C933BC0A1E3B0E0E1E3F0E0808189
:10060000482F8A81282F30E081E090E0022E02C03E
:10061000880F991F0A94E2F7842B8C9327C0A2E2DB
:10062000B0E0E2E2F0E08081482F8A81282F30E0BC
:1006300081E090E0022E02C0880F991F0A94E2F731
:10064000842B8C9313C0A1E6B0E0E1E6F0E080815A
:10065000482F8A81282F30E081E090E0022E02C0EE
:10066000880F991F0A94E2F7842B8C930F900F90B8
:100670000F900F90CF91DF910895DF93CF9300D02B
:1006800000D0CDB7DEB789836A838981282F30E017
:100690003C832B838B819C818336910509F44DC06B
:1006A0002B813C81243631055CF48B819C81813621
:1006B0009105C9F02B813C812236310549F190C06A
:1006C0008B819C818536910509F461C02B813C8129
:1006D000253631050CF446C08B819C818636910508
:1006E00009F46AC07DC0AAE3B0E0EAE3F0E08081EB
:1006F000482F8A81282F30E081E090E0022E02C04E
:10070000880F991F0A94E2F7809584238C9368C020
:10071000A7E3B0E0E7E3F0E08081482F8A81282F4B
:1007200030E081E090E0022E02C0880F991F0A9409
:10073000E2F7809584238C9353C0A4E3B0E0E4E314
:10074000F0E08081482F8A81282F30E081E090E01E
:10075000022E02C0880F991F0A94E2F78095842325
:100760008C933EC0A1E3B0E0E1E3F0E08081482F4C
:100770008A81282F30E081E090E0022E02C0880FAD
:10078000991F0A94E2F7809584238C9329C0A2E2F2
:10079000B0E0E2E2F0E08081482F8A81282F30E04B
:1007A00081E090E0022E02C0880F991F0A94E2F7C0
:1007B000809584238C9314C0A1E6B0E0E1E6F0E0DC
:1007C0008081482F8A81282F30E081E090E0022E3E
:1007D00002C0880F991F0A94E2F7809584238C93B6
:1007E0000F900F900F900F90CF91DF910895DF93AE
:1007F000CF93CDB7DEB729970FB6F894DEBF0FBE03
:10080000CDBF89838981282F30E039872887888563
:1008100099858336910581F12885398524363105FE
:100820005CF48885998581369105B1F028853985F4
:1008300022363105C9F03FC08885998585369105F6
:1008400059F12885398525363105F4F08885998553
:100850008636910549F12FC0EAE3F0E09081EAE3A2
:10086000F0E08FEF808327C0E7E3F0E02081E7E34B
:10087000F0E08FEF80831FC0E4E3F0E03081E4E339
:10088000F0E08FEF808317C0E1E3F0E08081E1E3E7
:10089000F0E08FEF80830FC0E2E2F0E09081E2E2CF
:1008A000F0E08FEF808307C0E1E6F0E02081E1E631
:1008B000F0E08FEF808329960FB6F894DEBF0FBE6D
:1008C000CDBFCF91DF910895DF93CF93CDB7DEB742
:1008D00029970FB6F894DEBF0FBECDBF89838981FB
:1008E000282F30E0398728878885998583369105B8
:1008F00071F128853985243631055CF48885998520
:1009000081369105B1F02885398522363105C1F04F
:1009100039C0888599858536910539F128853985CD
:1009200025363105DCF0888599858636910521F1DB
:1009300029C0EAE3F0E09081EAE3F0E0108222C00F
:10094000E7E3F0E02081E7E3F0E010821BC0E4E39E
:10095000F0E03081E4E3F0E0108214C0E1E3F0E085
:100960008081E1E3F0E010820DC0E2E2F0E09081EE
:10097000E2E2F0E0108206C0E1E6F0E02081E1E68C
:10098000F0E0108229960FB6F894DEBF0FBECDBFFF
:10099000CF91DF910895DF93CF9300D0CDB7DEB72D
:1009A0009A838983E0E9F0E089819A81892F9927E8
:1009B0008083E9E2F0E089818083EAE2F0E088E187
:1009C0008083E5E9F0E08EE080830F900F90CF9177
:1009D000DF910895DF93CF93CDB7DEB7EBE2F0E080
:1009E0001082EAE2F0E088E18083E5E9F0E086E861
:1009F0008083E0E9F0E01082E9E2F0E088E08083C3
:100A0000CF91DF910895DF93CF93CDB7DEB7E7E2C3
:100A1000F0E080E48083E6E2F0E08EE98083A6E205
:100A2000B0E0E6E2F0E0808180668C93CF91DF91C8
:100A30000895DF93CF9300D000D00F92CDB7DEB7EB
:100A40008A836B8319828A81282F30E03D832C832F
:100A50008C819D818336910551F12C813D81243615
:100A600031055CF48C819D8181369105B1F02C813A
:100A70003D8122363105B1F02DC08C819D818536B6
:100A80009105F9F02C813D8125363105ACF08C8142
:100A90009D8186369105D1F01DC0E9E3F0E08081AB
:100AA000898318C0E6E3F0E08081898313C0E3E323
:100AB000F0E0808189830EC0E0E3F0E080818983EB
:100AC00009C0E1E2F0E08081898304C0E0E2F0E067
:100AD000808189838B81282F30E081E090E0022E95
:100AE00002C0880F991F0A94E2F7982F8981892301
:100AF000898389810F900F900F900F900F90CF9165
:100B0000DF910895DF93CF930F92CDB7DEB789833E
:100B1000E7E2F0E08981806C8083A6E2B0E0E6E263
:100B2000F0E0808180648C93E6E2F0E08081882FA1
:100B300090E0807190700097B9F3A6E2B0E0E6E231
:100B4000F0E0808180618C93E4E2F0E0808191812B
:100B50000F90CF91DF910895DF93CF93CDB7DEB79C
:100B600028970FB6F894DEBF0FBECDBF9C838B8352
:100B70007E836D8358874F838B819C819A83898381
:100B80000DC089819A812D813E81B9014FEF0E946C
:100B90002D0989819A8101969A8389832B813C81D1
:100BA0008F819885280F391F89819A8128173907E5
:100BB00040F728960FB6F894DEBF0FBECDBFCF9199
:100BC000DF910895DF93CF93CDB7DEB728970FB6A7
:100BD000F894DEBF0FBECDBF9C838B837E836D8375
:100BE00058874F838D819E819A8389830DC08B8125
:100BF0009C8129813A81B9014FEF0E942D09898199
:100C00009A8101969A8389832D813E818F8198856F
:100C1000280F391F89819A818217930740F32896FC
:100C20000FB6F894DEBF0FBECDBFCF91DF91089510
:100C3000DF93CF93CDB7DEB728970FB6F894DEBF1A
:100C40000FBECDBF9A8389837C836B835E834D8384
:100C500038872F838D819E8101979E838D838F811D
:100C60009885019798878F8389819A812B813C8110
:100C70004D815E81B9010E94AC0589819A812B81E9
:100C80003C814F815885B9010E94E20529813A8152
:100C90008D819E81820F931F2B813C814F815885CE
:100CA000B9010E94E2052B813C818F819885A901C1
:100CB000480F591F89819A812D813E81BA01A9016E
:100CC0000E94AC0528960FB6F894DEBF0FBECDBFCC
:100CD000CF91DF910895DF93CF93CDB7DEB72897FB
:100CE0000FB6F894DEBF0FBECDBF9D838C837F838C
:100CF0006E834887888580528B838B818F3508F07F
:100D000055C01A824FC0198241C08B81282F30E014
:100D1000C901880F991F880F991F280F391F8A81D1
:100D2000882F90E0820F931FFC01E050FF4F8081DD
:100D3000282F30E08981882F90E0A90102C05595C5
:100D400047958A95E2F7CA0181709070882371F007
:100D50008981282F30E08E819F81280F391F8C8157
:100D60009D81B9014FEF0E942D090DC08981282F67
:100D700030E08E819F81280F391F8C819D81B901C0
:100D800040E00E942D0989818F5F898389818730A6
:100D900008F4BBCF8C819D8101969D838C838A81D1
:100DA0008F5F8A838A81853008F4ADCF28960FB68D
:100DB000F894DEBF0FBECDBFCF91DF910895DF93D2
:100DC000CF93CDB7DEB728970FB6F894DEBF0FBE2E
:100DD000CDBF9C838B837E836D8358874F838B81AC
:100DE0009C819A83898337C0EF81F88580818A301E
:100DF00079F489819A819C838B838D819E81089669
:100E00009E838D838F819885019698878F8323C0D9
:100E1000EF81F88540818F819885019698878F832F
:100E20008B819C812D813E81B9010E946B068B8153
:100E30009C8106969C838B838B819C810596813A4D
:100E4000910548F089819A819C838B838D819E8155
:100E500008969E838D83EF81F8858081882321F613
:100E600028960FB6F894DEBF0FBECDBFCF91DF91AD
:100E70000895DF93CF93CDB7DEB7ABE3B0E0EBE3FC
:100E8000F0E0808180648C93000000000000ABE300
:100E9000B0E0EBE3F0E080818F7B8C9300000000FA
:100EA0000000CF91DF910895DF93CF93CDB7DEB7E8
:100EB00068970FB6F894DEBF0FBECDBF80E090E01C
:100EC000A0E4B0E48D8B9E8BAF8BB88F6D897E894B
:100ED0008F89988D25E535E545ED50E40E942B235B
:100EE000DC01CB01898B9A8BAB8BBC8B69897A89AE
:100EF0008B899C8920E030E040E85FE30E94D821A4
:100F000088231CF481E0888B91C069897A898B8958
:100F10009C8920E030E04FE753E40E942723181615
:100F20000CF07BC06D897E898F89988D20E030E040
:100F30004AE754E40E94DC21DC01CB018C879D87C9
:100F4000AE87BF876C857D858E859F8520E030E4E8
:100F50004CE955E40E942B23DC01CB01888799875B
:100F6000AA87BB87688579858A859B8520E030E0E4
:100F700040E85FE30E94D82188232CF481E090E0D0
:100F80009F838E833FC0688579858A859B8520E015
:100F90003FEF4FE757E40E94272318164CF56C8566
:100FA0007D858E859F8520E030E040E251E40E94FF
:100FB0002B23DC01CB01BC01CD010E944922DC01C5
:100FC000CB019F838E830FC084EF91E09D838C8340
:100FD0008C819D810197F1F79D838C838E819F8108
:100FE00001979F838E838E819F81009769F724C02C
:100FF000688579858A859B850E944922DC01CB0121
:101000009F838E838E819F819B838A838A819B812C
:101010000197F1F79B838A830FC069897A898B894D
:101020009C890E944922DC01CB01888B88898983B5
:1010300089818A95F1F7898368960FB6F894DEBFA7
:101040000FBECDBFCF91DF910895DF93CF9300D036
:10105000CDB7DEB789836A830E945407ABE3B0E063
:10106000EBE3F0E080818F7D8C93ABE3B0E0EBE3CA
:10107000F0E0808180688C93E5E3F0E089818F70F7
:1010800080830000000000000000000000000E94BB
:101090003907000000000000000000000000ABE382
:1010A000B0E0EBE3F0E080818F7D8C93ABE3B0E0C8
:1010B000EBE3F0E080818F778C93E5E3F0E08A81C9
:1010C00080830000000000000000000000000E947B
:1010D00039070000000000000000000000000F9031
:1010E0000F90CF91DF910895DF93CF930F92CDB7FB
:1010F000DEB7E4E3F0E08FEF8083AAE3B0E0EAE359
:10110000F0E08081806E8C93ABE3B0E0EBE3F0E045
:1011100080818F7D8C93ABE3B0E0EBE3F0E08081E6
:101120008F778C93ABE3B0E0EBE3F0E080818F7BD3
:101130008C9382E3898380E069810E94250887E09F
:10114000898381E069810E94250883E1898382E0A7
:1011500069810E9425088FE7898383E069810E9465
:101160002508198288E069810E94250889E0698143
:101170000E94250819828AE069810E9425088BE077
:1011800069810E9425080F90CF91DF910895DF9328
:10119000CF9300D000D000D0CDB7DEB79C838B8337
:1011A0007E836D832D813E8180EA90E0A901489F76
:1011B0009001499F300D589F300D11248B819C81E7
:1011C000820F931F96958795969587959695879507
:1011D0009A83898399818AE0692F0E9425088981F1
:1011E0009A81892F9927982F8BE0692F0E942508D3
:1011F00026960FB6F894DEBF0FBECDBFCF91DF911C
:101200000895DF93CF930F92CDB7DEB789838CE03B
:1012100069810E9425080F90CF91DF910895DF9397
:10122000CF9300D000D00F92CDB7DEB79A838983D9
:101230007C836B834D8389819A812B813C81B901A9
:101240000E94C7088D810E9401090F900F900F9096
:101250000F900F90CF91DF910895DF93CF9300D03F
:1012600000D000D0CDB7DEB79B838A837D836C83AB
:101270004E838A819B812C813D81B9010E94C708E0
:101280008A81877089838E818F3F29F48FE06981FD
:101290000E94250804C08EE069810E9425082696D8
:1012A0000FB6F894DEBF0FBECDBFCF91DF9108958A
:1012B000DF93CF9300D0CDB7DEB780E090E060E061
:1012C00070E00E94C7081A82198208C080E00E945C
:1012D000010989819A8101969A83898389819A81FA
:1012E00026E08034920790F30F900F90CF91DF911A
:1012F0000895DF93CF93CDB7DEB760970FB6F8941C
:10130000DEBF0FBECDBF988B8F8777C080E090E0A7
:10131000A0E8BFE38B879C87AD87BE876B857C8504
:101320008D859E8520E030E44CE955E40E942B2316
:10133000DC01CB018F839887A987BA876F81788575
:1013400089859A8520E030E040E85FE30E94D8215B
:1013500088232CF481E090E09E838D833FC06F81D1
:10136000788589859A8520E03FEF4FE757E40E9412
:10137000272318164CF56B857C858D859E8520E08E
:1013800030E040E251E40E942B23DC01CB01BC01A0
:10139000CD010E944922DC01CB019E838D830FC0C9
:1013A00084EF91E09C838B838B819C810197F1F783
:1013B0009C838B838D819E8101979E838D838D81FC
:1013C0009E81009769F714C06F81788589859A8519
:1013D0000E944922DC01CB019E838D838D819E81F9
:1013E0009A83898389819A810197F1F79A83898306
:1013F0008F8598890197988B8F878F85988900971B
:1014000009F084CF60960FB6F894DEBF0FBECDBF53
:10141000CF91DF9108950F931F93DF93CF9300D067
:10142000CDB7DEB79A83898389819A81009709F4C1
:1014300056C089819A8121E18539920708F04FC011
:10144000EEE4F0E01082A6E5B0E0E6E5F0E08081B1
:1014500084608C93A7E5B0E0E7E5F0E080818B7FC6
:101460008C93EFE4F0E01082EAE7F0E010820CE405
:1014700010E089819A81CC01A0E0B0E020E930E061
:1014800040E050E0BC01CD010E94D723DC01CB013C
:101490002AE030E040E050E0BC01CD010E9415247C
:1014A000DA01C901909581959F4FF801918380835E
:1014B000EEE4F0E085E08083E6E5F0E08081882FCF
:1014C00090E0847090700097B9F3EEE4F0E0108241
:1014D000A6E5B0E0E6E5F0E0808184608C930F90B3
:1014E0000F90CF91DF911F910F910895DF93CF93CC
:1014F00000D0CDB7DEB79A83898309C088EE93E028
:101500000E940B0A89819A8101979A838983898134
:101510009A81009799F70F900F90CF91DF910895DE
:10152000DF93CF9300D0CDB7DEB789836A838981FB
:10153000882F90E00196AC018A81882F90E0029676
:101540009C01CA01B9014FEF0E942D098981882FA2
:1015500090E00196AC018A81882F90E003969C016F
:10156000CA01B9014FEF0E942D098981882F90E0AF
:101570000296AC018A81882F90E001969C01CA01F5
:10158000B9014FEF0E942D098981882F90E00296C2
:10159000AC018A81882F90E004969C01CA01B901B0
:1015A0004FEF0E942D098981882F90E00396AC01AE
:1015B0008A81882F90E001969C01CA01B9014FEF02
:1015C0000E942D098981882F90E00396AC018A81C1
:1015D000882F90E004969C01CA01B9014FEF0E9448
:1015E0002D098981882F90E00496AC018A81882F8B
:1015F00090E002969C01CA01B9014FEF0E942D09AB
:101600008981882F90E00496AC018A81882F90E030
:1016100003969C01CA01B9014FEF0E942D090F905A
:101620000F90CF91DF910895DF93CF9300D0CDB786
:10163000DEB781E08A831BC081E0898312C08A8182
:10164000882F90E08896AC018981882F90E00196E0
:101650009C01CA01B90140E00E942D0989818F5F78
:1016600089838981823158F38A818F5F8A838A8155
:10167000823110F38AE290E06CE070E04FEF0E945C
:101680002D098AE290E06DE070E04FEF0E942D0995
:101690008AE290E06EE070E04FEF0E942D098BE24D
:1016A00090E06BE070E04FEF0E942D098BE290E03C
:1016B0006CE070E04FEF0E942D098BE290E06DE04E
:1016C00070E04FEF0E942D098BE290E06EE070E039
:1016D0004FEF0E942D098BE290E06FE070E04FEF3A
:1016E0000E942D098BE290E060E170E04FEF0E94D4
:1016F0002D098CE290E067E070E04FEF0E942D0929
:101700008CE290E068E070E04FEF0E942D098CE2DF
:1017100090E069E070E04FEF0E942D098CE290E0CC
:101720006AE070E04FEF0E942D098CE290E06BE0E0
:1017300070E04FEF0E942D098CE290E06CE070E0C9
:101740004FEF0E942D098CE290E06DE070E04FEFCA
:101750000E942D098CE290E06EE070E04FEF0E9455
:101760002D098CE290E06FE070E04FEF0E942D09B0
:101770008CE290E060E170E04FEF0E942D098CE276
:1017800090E061E170E04FEF0E942D098DE290E062
:1017900069E070E04FEF0E942D098DE290E06AE071
:1017A00070E04FEF0E942D098DE290E06BE070E059
:1017B0004FEF0E942D098DE290E06CE070E04FEF5A
:1017C0000E942D098DE290E060E170E04FEF0E94F1
:1017D0002D098DE290E061E170E04FEF0E942D094C
:1017E0008DE290E062E170E04FEF0E942D098EE201
:1017F00090E066E070E04FEF0E942D098EE290E0ED
:1018000067E070E04FEF0E942D098EE290E068E003
:1018100070E04FEF0E942D098EE290E069E070E0E9
:101820004FEF0E942D098EE290E06AE070E04FEFEA
:101830000E942D098EE290E06BE070E04FEF0E9475
:101840002D098EE290E06CE070E04FEF0E942D09D0
:101850008EE290E061E170E04FEF0E942D098EE290
:1018600090E062E170E04FEF0E942D098FE290E07E
:1018700064E070E04FEF0E942D098FE290E065E098
:1018800070E04FEF0E942D098FE290E066E070E07B
:101890004FEF0E942D098FE290E067E070E04FEF7C
:1018A0000E942D098FE290E068E070E04FEF0E9407
:1018B0002D098FE290E069E070E04FEF0E942D0962
:1018C0008FE290E06AE070E04FEF0E942D098FE216
:1018D00090E06BE070E04FEF0E942D098FE290E006
:1018E00062E170E04FEF0E942D0980E390E067E035
:1018F00070E04FEF0E942D0980E390E068E070E017
:101900004FEF0E942D0980E390E069E070E04FEF17
:101910000E942D0980E390E06AE070E04FEF0E94A2
:101920002D0980E390E06BE070E04FEF0E942D09FD
:1019300080E390E062E170E04FEF0E942D0981E3C7
:1019400090E065E070E04FEF0E942D0981E390E0A8
:1019500066E070E04FEF0E942D0981E390E067E0C0
:1019600070E04FEF0E942D0981E390E068E070E0A5
:101970004FEF0E942D0981E390E069E070E04FEFA6
:101980000E942D0981E390E062E170E04FEF0E9438
:101990002D0982E390E062E070E04FEF0E942D0994
:1019A00082E390E063E070E04FEF0E942D0982E354
:1019B00090E064E070E04FEF0E942D0982E390E038
:1019C00065E070E04FEF0E942D0982E390E066E051
:1019D00070E04FEF0E942D0982E390E067E070E035
:1019E0004FEF0E942D0982E390E068E070E04FEF36
:1019F0000E942D0982E390E062E170E04FEF0E94C7
:101A00002D0983E390E064E070E04FEF0E942D0920
:101A100083E390E065E070E04FEF0E942D0983E3DF
:101A200090E066E070E04FEF0E942D0983E390E0C4
:101A300067E070E04FEF0E942D0983E390E068E0DB
:101A400070E04FEF0E942D0983E390E069E070E0C1
:101A50004FEF0E942D0983E390E06AE070E04FEFC2
:101A60000E942D0983E390E06BE070E04FEF0E944D
:101A70002D0983E390E06CE070E04FEF0E942D09A8
:101A800083E390E06DE070E04FEF0E942D0983E367
:101A900090E062E170E04FEF0E942D0984E390E056
:101AA00066E070E04FEF0E942D0984E390E067E06C
:101AB00070E04FEF0E942D0984E390E068E070E051
:101AC0004FEF0E942D0984E390E069E070E04FEF52
:101AD0000E942D0984E390E06AE070E04FEF0E94DD
:101AE0002D0984E390E06BE070E04FEF0E942D0938
:101AF00084E390E061E170E04FEF0E942D0984E300
:101B000090E062E170E04FEF0E942D0985E390E0E4
:101B100067E070E04FEF0E942D0985E390E068E0F8
:101B200070E04FEF0E942D0985E390E069E070E0DE
:101B30004FEF0E942D0985E390E06AE070E04FEFDF
:101B40000E942D0985E390E06BE070E04FEF0E946A
:101B50002D0985E390E06CE070E04FEF0E942D09C5
:101B600085E390E06DE070E04FEF0E942D0985E382
:101B700090E06EE070E04FEF0E942D0985E390E069
:101B80006FE070E04FEF0E942D0985E390E060E187
:101B900070E04FEF0E942D0985E390E061E170E075
:101BA0004FEF0E942D0986E390E06AE070E04FEF6E
:101BB0000E942D0986E390E06BE070E04FEF0E94F9
:101BC0002D0986E390E06CE070E04FEF0E942D0954
:101BD00086E390E06DE070E04FEF0E942D0986E310
:101BE00090E06EE070E04FEF0E942D0986E390E0F8
:101BF0006FE070E04FEF0E942D0986E390E060E116
:101C000070E04FEF0E942D0987E390E068E070E0FC
:101C10004FEF0E942D0987E390E069E070E04FEFFD
:101C20000E942D0987E390E06AE070E04FEF0E9488
:101C30002D0987E390E06BE070E04FEF0E942D09E3
:101C400087E390E06CE070E04FEF0E942D0987E39E
:101C500090E06DE070E04FEF0E942D0987E390E087
:101C60006EE070E04FEF0E942D0987E390E06FE097
:101C700070E04FEF0E942D0988E390E06CE070E087
:101C80004FEF0E942D0988E390E06DE070E04FEF88
:101C90000E942D0988E390E06EE070E04FEF0E9413
:101CA0002D090F900F90CF91DF910895DF93CF937F
:101CB00000D0CDB7DEB781E08A831BC081E0898385
:101CC00012C08A81882F90E08896AC018981882F84
:101CD00090E001969C01CA01B90140E00E942D09E3
:101CE00089818F5F89838981823158F38A818F5FEF
:101CF0008A838A81823110F389E290E06AE070E0A1
:101D00004FEF0E942D098AE290E066E070E04FEF0D
:101D10000E942D098AE290E068E070E04FEF0E9497
:101D20002D098AE290E06AE070E04FEF0E942D09F1
:101D30008AE290E06CE070E04FEF0E942D098AE2A9
:101D400090E06EE070E04FEF0E942D098BE290E092
:101D500064E070E04FEF0E942D098BE290E066E0B6
:101D600070E04FEF0E942D098BE290E069E070E097
:101D70004FEF0E942D098BE290E06AE070E04FEF98
:101D80000E942D098BE290E06BE070E04FEF0E9423
:101D90002D098BE290E06EE070E04FEF0E942D097C
:101DA0008BE290E060E170E04FEF0E942D098CE241
:101DB00090E065E070E04FEF0E942D098CE290E02A
:101DC0006AE070E04FEF0E942D098CE290E06FE036
:101DD00070E04FEF0E942D098DE290E063E070E02B
:101DE0004FEF0E942D098DE290E064E070E04FEF2C
:101DF0000E942D098DE290E066E070E04FEF0E94B6
:101E00002D098DE290E06AE070E04FEF0E942D090D
:101E10008DE290E06EE070E04FEF0E942D098DE2C0
:101E200090E060E170E04FEF0E942D098DE290E0BC
:101E300061E170E04FEF0E942D098EE290E067E0D3
:101E400070E04FEF0E942D098EE290E06AE070E0B2
:101E50004FEF0E942D098EE290E06DE070E04FEFB1
:101E60000E942D098FE290E063E070E04FEF0E9446
:101E70002D098FE290E068E070E04FEF0E942D099D
:101E80008FE290E06AE070E04FEF0E942D098FE250
:101E900090E06CE070E04FEF0E942D098FE290E03F
:101EA00061E170E04FEF0E942D0980E390E064E073
:101EB00070E04FEF0E942D0980E390E069E070E050
:101EC0004FEF0E942D0980E390E06AE070E04FEF51
:101ED0000E942D0980E390E06BE070E04FEF0E94DC
:101EE0002D0980E390E060E170E04FEF0E942D0942
:101EF00081E390E062E070E04FEF0E942D0981E302
:101F000090E063E070E04FEF0E942D0981E390E0E4
:101F100064E070E04FEF0E942D0981E390E065E0FE
:101F200070E04FEF0E942D0981E390E066E070E0E1
:101F30004FEF0E942D0981E390E067E070E04FEFE2
:101F40000E942D0981E390E068E070E04FEF0E946D
:101F50002D0981E390E069E070E04FEF0E942D09C8
:101F600081E390E06AE070E04FEF0E942D0981E389
:101F700090E06BE070E04FEF0E942D0981E390E06C
:101F80006CE070E04FEF0E942D0981E390E06DE07E
:101F900070E04FEF0E942D0981E390E06EE070E069
:101FA0004FEF0E942D0981E390E06FE070E04FEF6A
:101FB0000E942D0981E390E060E170E04FEF0E9404
:101FC0002D0981E390E061E170E04FEF0E942D095F
:101FD00081E390E062E170E04FEF0E942D0982E31F
:101FE00090E064E070E04FEF0E942D0982E390E002
:101FF00069E070E04FEF0E942D0982E390E06AE013
:1020000070E04FEF0E942D0982E390E06BE070E0FA
:102010004FEF0E942D0982E390E060E170E04FEF06
:102020000E942D0983E390E063E070E04FEF0E948F
:102030002D0983E390E068E070E04FEF0E942D09E6
:1020400083E390E06AE070E04FEF0E942D0983E3A4
:1020500090E06CE070E04FEF0E942D0983E390E088
:1020600061E170E04FEF0E942D0984E390E067E0AA
:1020700070E04FEF0E942D0984E390E06AE070E089
:102080004FEF0E942D0984E390E06DE070E04FEF88
:102090000E942D0985E390E063E070E04FEF0E941D
:1020A0002D0985E390E064E070E04FEF0E942D0978
:1020B00085E390E066E070E04FEF0E942D0985E334
:1020C00090E06AE070E04FEF0E942D0985E390E018
:1020D0006EE070E04FEF0E942D0985E390E060E133
:1020E00070E04FEF0E942D0985E390E061E170E020
:1020F0004FEF0E942D0986E390E065E070E04FEF1E
:102100000E942D0986E390E06AE070E04FEF0E94A4
:102110002D0986E390E06FE070E04FEF0E942D09FB
:1021200087E390E064E070E04FEF0E942D0987E3C1
:1021300090E066E070E04FEF0E942D0987E390E0A9
:1021400069E070E04FEF0E942D0987E390E06AE0BC
:1021500070E04FEF0E942D0987E390E06BE070E0A4
:102160004FEF0E942D0987E390E06EE070E04FEFA3
:102170000E942D0987E390E060E170E04FEF0E943C
:102180002D0988E390E066E070E04FEF0E942D0992
:1021900088E390E068E070E04FEF0E942D0988E34B
:1021A00090E06AE070E04FEF0E942D0988E390E034
:1021B0006CE070E04FEF0E942D0988E390E06EE044
:1021C00070E04FEF0E942D0989E390E06AE070E033
:1021D0004FEF0E942D090F900F90CF91DF9108953E
:1021E0001F920F920FB60F9200905B000F92112476
:1021F0002F933F938F939F93EF93FF93DF93CF930F
:10220000CDB7DEB7E4E2F0E08081882F90E09093D4
:10221000210480932004E5E2F0E08081882F90E0A3
:10222000982F88279C018091200490912104822B73
:10223000932B9093210480932004CF91DF91FF9101
:10224000EF919F918F913F912F910F9000925B00A2
:102250000F900FBE0F901F901895DF93CF9300D073
:1022600000D0CDB7DEB71B821A8219820E94740893
:102270000E94580981E660E00E94890284E660E0DD
:102280000E94890284E660E00E941B010E948B127A
:1022900080912B04813011F40E94401380912B0413
:1022A000823011F40E948B180E942D1C7894E7E272
:1022B000F0E080E48083E6E2F0E08EE98083A6E24D
:1022C000B0E0E6E2F0E0808180668C931C821B82A5
:1022D0000E942C1F81E660E00E9489028C8180357B
:1022E00008F072C08C81982F969596959695692FD7
:1022F00070E08B81A82FB0E0492F50E08B81282F10
:1023000030E08CE390E0FC014E9FC0014F9F900DA8
:102310005E9F900D1124820F931FFC01ED5BFB4F1C
:102320008081482F8C81882F90E0809590959C012A
:102330002770307081E090E002C0880F991F2A95C5
:10234000E2F7842B282F8CE390E0AC01649FC0015E
:10235000659F900D749F900D11248A0F9B1FFC01A7
:10236000ED5BFB4F20838091200490912104CC01F0
:10237000A0E0B0E0BC01CD010E947522DC01CB01E0
:10238000BC01CD012AE038E240EA5BE30E942B2346
:10239000DC01CB01BC01CD012DEC3CEC4CE351E464
:1023A0000E942B23DC01CB01BC01CD010E948E23B6
:1023B000DC01CB01BC01CD010E944922DC01CB0133
:1023C0008B838C818F5F8C838C81803511F40E948C
:1023D0005D1F20912004309121048091220490916E
:1023E00023048217930760F084E660E00E94670090
:1023F0008981882329F40E94140B81E089831A8241
:10240000209120043091210480912404909125048E
:102410002817390760F084E660E00E941B018A817A
:10242000882329F40E94560E81E08A8319828091C4
:10243000200490912104CC01A0E0B0E0BC01CD01CA
:102440000E947522DC01CB01BC01CD0122E731E302
:1024500046EC5DE30E942B23DC01CB01BC01CD01E6
:102460000E948E23DC01CB01BC01CD0120E030E0D5
:1024700040E251E40E94DC21DC01CB01BC01CD0132
:1024800020E030E040E452E40E947421DC01CB0102
:10249000BC01CD010E944922DC01CB018093E00206
:1024A0008091200490912104CC01A0E0B0E0BC0117
:1024B000CD010E947522DC01CB01BC01CD0122E7D8
:1024C00031E346EC5DE30E942B23DC01CB01BC0130
:1024D000CD010E948E23DC01CB01BC01CD010E9405
:1024E0004422DC01CB012AE030E0B9010E94022441
:1024F000805D8093E10220EE32E08DE090E06EE0BE
:1025000070E0A9010E94DF068091260490912704C3
:102510000E940B0AE3CEDF93CF93CDB7DEB780E006
:1025200090E060E070E040EA50E020E530E00E949A
:1025300018062DEF32E081E190E06BE070E0A90138
:102540000E94DF0685E090E06EE170E046E950E031
:1025500024E130E00E94180623E133E08BE190E0B3
:1025600064E270E0A9010E94DF0685E090E067E385
:1025700070E046E950E024E130E00E94180626E2CF
:1025800033E08EE190E06DE370E0A9010E94DF0688
:1025900088EE93E00E940B0A1092290410922804FE
:1025A00010922A041092320463C00E94C21E8093CB
:1025B0002A0480912A04882F90E00E94B31D9093F2
:1025C0002904809328048091280490912904813A59
:1025D000910530F080EA90E09093290480932804DC
:1025E0008091280490912904009711F410922A04F4
:1025F00080912A048E31D8F080912A048333B8F474
:1026000080912804909129048230910580F0809176
:102610002804909129048939910548F481E0809338
:102620002B04809132048F5F8093320421C080910B
:102630002A048733D8F080912A048135B8F4809138
:102640002804909129048230910580F0809128041B
:10265000909129048939910548F482E080932B04F4
:10266000809132048F5F8093320402C01092320452
:1026700080913204843008F498CFCF91DF9108958F
:10268000DF93CF9300D000D00F92CDB7DEB70E947A
:10269000580980E090E060E070E040EA50E020E51A
:1026A00030E00E94180680E090E060E070E040EAD0
:1026B00050E027E130E00E94180680E090E066E1FB
:1026C00070E04EE150E024E130E00E94180628E37B
:1026D00033E08CE090E06CE170E0A9010E94DF063D
:1026E00080E090E069E270E04EE150E024E130E00B
:1026F0000E9418062AE333E08CE090E060E370E08B
:10270000A9010E94DF0680E090E06CE370E04EE1FA
:1027100050E024E130E00E9418062CE333E08CE026
:1027200090E063E470E0A9010E94DF068BE290E094
:1027300066E170E04EE150E024E130E00E941806CE
:102740002EE333E087E390E06CE170E0A9010E94A2
:10275000DF068BE290E069E270E04EE150E024E1B8
:1027600030E00E94180620E433E087E390E060E365
:1027700070E0A9010E94DF068BE290E06CE370E05C
:102780004EE150E024E130E00E94180622E433E0FC
:1027900087E390E063E470E0A9010E94DF0686E52C
:1027A00090E066E170E04EE150E024E130E00E940C
:1027B000180624E433E082E690E06CE170E0A901C1
:1027C0000E94DF0686E590E069E270E04EE150E0AD
:1027D00024E130E00E94180626E433E082E690E02F
:1027E00060E370E0A9010E94DF0686E590E06CE3FB
:1027F00070E04EE150E024E130E00E94180628E449
:1028000033E082E690E063E470E0A9010E94DF0615
:1028100082E890E066E170E04EE150E024E130E0D3
:102820000E9418062AE433E08EE890E06CE170E044
:10283000A9010E94DF0682E890E069E270E04EE1C3
:1028400050E024E130E00E9418062CE433E08BE8ED
:1028500090E060E370E0A9010E94DF0682E890E06A
:102860006CE370E04EE150E024E130E00E94180695
:102870002FE433E08BE890E063E470E0A9010E946C
:10288000DF06109241043AC40E94C21E80932A04BB
:1028900080912A04882F90E00E94B31D9093290410
:1028A000809328048091280490912904813A91050D
:1028B00030F080EA90E0909329048093280480917E
:1028C000280490912904009711F410922A04809111
:1028D0002A048431C0F080912A048932A0F48091C6
:1028E0002804909129048E31910568F08091280484
:1028F000909129048333910530F4809134048F5FE3
:102900008093340402C01092340480912A048932E6
:10291000C0F080912A048E33A0F480912804909115
:1029200029048E31910568F0809128049091290442
:102930008333910530F4809135048F5F80933504A3
:1029400002C01092350480912A048E33C0F0809129
:102950002A048135A0F480912804909129048E31B5
:10296000910568F080912804909129048D33910598
:1029700030F4809136048F5F8093360402C0109249
:10298000360480912A048431C0F080912A0489326F
:10299000A0F480912804909129048C33910568F06B
:1029A00080912804909129048135910530F480911B
:1029B00037048F5F8093370402C0109237048091F0
:1029C0002A048932C0F080912A048E33A0F48091C9
:1029D0002804909129048C33910568F08091280493
:1029E000909129048135910530F4809138048F5FEE
:1029F0008093380402C01092380480912A048E33E8
:102A0000C0F080912A048135A0F48091280490912F
:102A100029048035910568F080912804909129045B
:102A20008536910530F4809139048F5F80933904A5
:102A300002C01092390480912A048431C0F0809140
:102A40002A048932A0F480912804909129048A35BF
:102A5000910568F0809128049091290483389105AC
:102A600030F480913A048F5F80933A0402C0109250
:102A70003A0480912A048932C0F080912A048E336E
:102A8000A0F480912804909129048A35910568F07A
:102A900080912804909129048338910530F4809125
:102AA0003B048F5F80933B0402C010923B048091F3
:102AB0002A048E33C0F080912A048135A0F48091DD
:102AC0002804909129048E36910568F0809128049D
:102AD000909129048338910530F480913C048F5FF4
:102AE00080933C0402C010923C0480912A048431FB
:102AF000C0F080912A048932A0F48091280490913A
:102B000029048C38910568F080912804909129045B
:102B1000813A910530F4809133048F5F80933304C0
:102B200002C01092330480912A048932C0F080914F
:102B30002A048E33A0F480912804909129048C38C3
:102B4000910568F08091280490912904813A9105BB
:102B500030F480913D048F5F80933D0402C0109259
:102B60003D0480912A048E33C0F080912A0481357F
:102B7000A0F480912804909129048C38910568F084
:102B80008091280490912904813A910530F4809134
:102B90003E048F5F80933E0402C010923E048091F9
:102BA0003F04282F30E03D832C834C815D814130F0
:102BB0005105C1F18C819D818230910534F42C81C5
:102BC0003D812115310571F0C9C14C815D814230D3
:102BD000510509F447C08C819D818330910509F42A
:102BE00054C0BCC122E533E085E090E067E070E0CE
:102BF000A9010E94DF0620EF32E08BE690E067E05B
:102C000070E0A9010E94DF0624E633E08DE790E042
:102C100067E070E0A9010E94DF0687E766E00E9496
:102C2000900A9CC126E633E085E090E067E070E022
:102C3000A9010E94DF0623EF32E08BE690E067E017
:102C400070E0A9010E94DF0624E633E08DE790E002
:102C500067E070E0A9010E94DF0687E766E00E9456
:102C6000900A7CC128E733E085E090E067E070E0FF
:102C7000A9010E94DF0626EF32E08BE690E067E0D4
:102C800070E0A9010E94DF0669C18091F002882FDF
:102C900090E09C01220F331FC901880F991F880FF4
:102CA000991F820F931F805E91409093230480931D
:102CB00022048091F102282F30E08091220490912B
:102CC0002304820F931FC0979093230480932204C0
:102CD0008091F302882F90E09C01220F331FC901DD
:102CE000880F991F880F991F820F931F805E914054
:102CF00090932504809324048091F402282F30E0DF
:102D00008091240490912504820F931FC097909383
:102D1000250480932404209124043091250480917B
:102D20002204909123042817390780F42AE833E01D
:102D300085E090E067E070E0A9010E94DF0688EB83
:102D40009BE00E940B0A10923F0408C18091F6029A
:102D5000882F90E09C012053304088EE93E0AC0136
:102D6000249FC001259F900D349F900D11249093B6
:102D70002704809326048091F702282F30E084E610
:102D800090E0AC01249FC001259F900D349F900DD1
:102D900011249C018091260490912704820F931F97
:102DA000805C924190932704809326048091F802DE
:102DB000882F90E09C01220F331FC901880F991FB3
:102DC000880F991F820F931F9C0180912604909178
:102DD0002704820F931F805E914090932704809375
:102DE00026048091F902282F30E0809126049091EA
:102DF0002704820F931FC097909327048093260483
:102E0000809126049091270453E0893E950788F02D
:102E100023EA33E085E090E067E070E0A9010E94DA
:102E2000DF0688EB9BE00E940B0A82E080933F0460
:102E300095C08091220490912304019696958795E0
:102E400080932C04809124049091250401969695FA
:102E5000879580932E0484E080933F048091220420
:102E600090912304CC01A0E0B0E0BC01CD010E9410
:102E70007522DC01CB01BC01CD0122E731E346EC38
:102E80005DE30E94DC21DC01CB01BC01CD010E948D
:102E90008E23DC01CB01BC01CD010E944922DC0163
:102EA000CB01909323048093220480912404909179
:102EB0002504CC01A0E0B0E0BC01CD010E94752248
:102EC000DC01CB01BC01CD0122E731E346EC5DE33F
:102ED0000E94DC21DC01CB01BC01CD010E948E23CC
:102EE000DC01CB01BC01CD010E944922DC01CB01F8
:102EF000909325048093240419822DC08981282F62
:102F000030E08981882F90E0FC01EA50FD4F8081FC
:102F1000F901E751FD4F80838981282F30E08981B5
:102F2000882F90E0FC01E051FD4F8081F901ED51C7
:102F3000FD4F80838981282F30E08981882F90E0A0
:102F4000FC01ED50FD4F8081F901EA51FD4F808376
:102F500089818F5F89838981843080F21092420455
:102F600019829DC08981882F90E0FC01ED5CFB4FA8
:102F70008081823028F0809142048F5F80934204E8
:102F80008981882F90E0FC01ED5CFB4F80818230CD
:102F900008F482C080914004882309F07DC081E05C
:102FA0008093400489818A3041F480913F048F5F8F
:102FB00080933F04109241046FC089818B30A9F443
:102FC00080913F04882371F080913F048150809369
:102FD0003F042CEB33E08BE690E067E070E0A90162
:102FE0000E94DF061092410457C080913F04282FB1
:102FF00030E03B832A834A815B814130510509F1EE
:103000008A819B818230910591F12A813B81211532
:10301000310509F041C080914104282F30E08981B9
:10302000805DF901E051FD4F8083809141048F5F05
:103030008093410480914104823071F510924104E3
:103040002BC080914104282F30E08981805DF901F7
:10305000ED50FD4F8083809141048F5F8093410448
:10306000809141048230C1F41092410415C08091D6
:103070004104282F30E08981805DF901EA50FD4F3D
:103080008083809141048F5F80934104809141044B
:10309000843011F41092410489818F5F8983898182
:1030A0008C3008F45FCF80914204882311F4109291
:1030B000400419820DC08981882F90E087599F4F65
:1030C00060E170E040E00E942D0989818F5F898373
:1030D0008981893280F380914104282F30E0C90131
:1030E000880F991F820F931F880F991F85599F4F33
:1030F00060E170E045E050E00E94AC0580913F0443
:10310000843009F0C1CB0F900F900F900F900F906B
:10311000CF91DF910895DF93CF930F92CDB7DEB7B4
:103120000E94580980E090E060E070E040EA50E0E2
:1031300020E530E00E94180623EC33E087E090E0C1
:1031400066E470E0A9010E94DF068AE090E06FE08B
:1031500070E049E050E024E330E00E94180627ECDC
:1031600033E084E390E066E470E0A9010E94DF06AA
:1031700087E390E06FE070E049E050E024E330E066
:103180000E9418062BEC33E08AE590E066E470E0DC
:10319000A9010E94DF0684E690E06FE070E049E05C
:1031A00050E024E330E00E94180684E890E06FE3EA
:1031B00070E049E150E02FE030E00E9418062CE476
:1031C00033E08BE890E063E470E0A9010E94DF0641
:1031D0001092320439C30E94C21E80932A04809147
:1031E0002A04882F90E00E94B31D909329048093B5
:1031F00028048091280490912904813A910530F0A7
:1032000080EA90E090932904809328048091280418
:1032100090912904009711F410922A0480912804B7
:10322000909129048431910508F4D2C0809128043A
:10323000909129048333910508F0CAC080912A0433
:10324000813108F4C5C080912A04843408F0C0C0DC
:1032500080912A04813138F480912A048B3018F04F
:1032600081E180932A0480912A04843438F080918B
:103270002A048A3418F483E480932A0490912A045F
:1032800083E4891B80932C0481E1898330C0898188
:10329000282F30E08CE090E0B90140E00E942D0939
:1032A0008981282F30E08DE090E0B90140E00E9454
:1032B0002D098981282F30E08EE090E0B90140E0AF
:1032C0000E942D098981282F30E08FE090E0B9011C
:1032D00040E00E942D098981282F30E080E190E0B4
:1032E000B90140E00E942D0989818F5F898389811E
:1032F000282F30E080912A04882F90E0019728172A
:1033000039072CF28CE0898313C08981682F70E023
:1033100080912A04482F50E080912C04282F30E01F
:10332000CB01BA01A9010E94E20589818F5F8983DF
:103330008981813150F380912C04882F90E0A0E0A6
:10334000B0E0BC01CD010E947522DC01CB01BC01C3
:10335000CD012CE032E348E45DE30E94DC21DC0196
:10336000CB01BC01CD010E948E23DC01CB01BC014D
:10337000CD010E944922DC01CB019093230480936C
:10338000220480912C04882351F080912C04882FF2
:1033900090E0880F991F815080932D0402C01092F5
:1033A0002D0480912D049AE0692F0E94F623805D00
:1033B0008093E30280912D049AE0692F0E94F62306
:1033C000892F80932D0480912D04805D8093E402E9
:1033D00080912804909129048934910508F4D2C081
:1033E00080912804909129048835910508F0CAC07D
:1033F00080912A04813108F4C5C080912A04843464
:1034000008F0C0C080912A04813138F480912A04E8
:103410008B3018F081E180932A0480912A0484344F
:1034200038F080912A048A3418F483E480932A04C3
:1034300090912A0483E4891B80932E0481E189837F
:1034400030C08981282F30E089E390E0B90140E065
:103450000E942D098981282F30E08AE390E0B9018C
:1034600040E00E942D098981282F30E08BE390E015
:10347000B90140E00E942D098981282F30E08CE3BA
:1034800090E0B90140E00E942D098981282F30E0A9
:103490008DE390E0B90140E00E942D0989818F5FA2
:1034A00089838981282F30E080912A04882F90E039
:1034B0000197281739072CF289E3898313C0898182
:1034C000682F70E080912A04482F50E080912E04EC
:1034D000282F30E0CB01BA01A9010E94E2058981C1
:1034E0008F5F898389818E3350F380912E04882FDA
:1034F00090E0A0E0B0E0BC01CD010E947522DC01AB
:10350000CB01BC01CD012CE032E348E45DE30E9435
:10351000DC21DC01CB01BC01CD010E948E23DC014A
:10352000CB01BC01CD010E944922DC01CB0190936B
:1035300025048093240480912E04882351F08091E7
:103540002E04882F90E0880F991F815080932F04BC
:1035500002C010922F0480912F049AE0692F0E94DC
:10356000F623805D8093E60280912F049AE0692F14
:103570000E94F623892F80932F0480912F04805D71
:103580008093E70280912804909129048637910561
:1035900008F4A8C0809128049091290485389105E9
:1035A00008F0A0C080912A04813108F49BC080916A
:1035B0002A04843408F096C080912A04813138F4BA
:1035C00080912A048B3018F081E180932A04809145
:1035D0002A04843438F080912A048A3418F483E46D
:1035E00080932A0490912A0483E4891B80933004F9
:1035F00081E1898330C08981282F30E086E690E020
:10360000B90140E00E942D098981282F30E087E62A
:1036100090E0B90140E00E942D098981282F30E017
:1036200088E690E0B90140E00E942D098981282FA9
:1036300030E089E690E0B90140E00E942D098981DF
:10364000282F30E08AE690E0B90140E00E942D0981
:1036500089818F5F89838981282F30E080912A04B6
:10366000882F90E00197281739072CF286E6898386
:1036700013C08981682F70E080912A04482F50E0A0
:1036800080913004282F30E0CB01BA01A9010E94BB
:10369000E20589818F5F898389818B3650F3809120
:1036A0003004882F90E09093270480932604809123
:1036B000300480933104809131049AE0692F0E9494
:1036C000F623805D8093EB02809131049AE0692FAC
:1036D0000E94F623892F8093310480913104805D0C
:1036E0008093EC02809128049091290488399105F7
:1036F000A8F08091280490912904813A910570F4F2
:1037000080912A048F3350F080912A04813530F45F
:10371000809132048F5F8093320402C01092320491
:1037200080913204823009F05AC0209122043091F5
:10373000230480912404909125048217930708F0B4
:103740004EC022ED33E080E790E064E170E0A90133
:103750000E94DF062CED33E080E790E06EE170E040
:10376000A9010E94DF0626EE33E080E790E068E2E0
:1037700070E0A9010E94DF0620EF33E080E790E0CF
:1037800062E370E0A9010E94DF0680ED97E00E94ED
:103790000B0A2AEF33E080E790E064E170E0A901D2
:1037A0000E94DF062AEF33E080E790E06EE170E0F0
:1037B000A9010E94DF062AEF33E080E790E068E28B
:1037C00070E0A9010E94DF062AEF33E080E790E075
:1037D00062E370E0A9010E94DF061092320423EE3A
:1037E00032E085E090E064E070E0A9010E94DF062D
:1037F00024E633E087E190E064E070E0A9010E94F4
:10380000DF0626EE32E082E390E064E070E0A9019A
:103810000E94DF0624E633E084E490E064E070E098
:10382000A9010E94DF0629EE32E08FE590E064E016
:1038300070E0A9010E94DF0681E162E00E94900A27
:103840008EE362E00E94900A80913204843008F492
:10385000C2CC0F90CF91DF9108950F931F93DF9308
:10386000CF930F92CDB7DEB70E94580980E090E069
:1038700060E070E040EA50E020E530E00E94180689
:1038800080E090E060E070E04CE350E020E530E064
:103890000E94180624E034E085E090E065E070E0E6
:1038A000A9010E94DF0620EE32E08DE090E06EE09C
:1038B00070E0A9010E94DF0624E633E08FE190E08A
:1038C0006EE070E0A9010E94DF0629E034E085E0A7
:1038D00090E067E170E0A9010E94DF0623EE32E08C
:1038E0008DE090E060E270E0A9010E94DF0624E62E
:1038F00033E08FE190E060E270E0A9010E94DF0612
:103900002EE034E085E090E069E270E0A9010E94D9
:10391000DF0626EE32E08DE090E062E370E0A90180
:103920000E94DF0624E633E08FE190E062E370E07E
:10393000A9010E94DF0623E134E085E090E06BE31B
:1039400070E0A9010E94DF0629EE32E08DE090E0F0
:1039500064E470E0A9010E94DF068AE490E06BE471
:1039600070E040E550E00E94AC058AE490E065E03C
:1039700070E046E450E00E94E2052BE134E087E984
:1039800090E061E470E0A9010E94DF0624E633E0E4
:1039900083E490E062E070E0A9010E94DF068DE31D
:1039A00060E00E94900A89E16CE00E94900A89E13F
:1039B0006EE10E94900A89E160E30E94900A87E22A
:1039C00090E060E070E045E150E025E130E00E94E9
:1039D000180688E990E06AE470E04FEF0E942D0934
:1039E00088E990E06CE470E04FEF0E942D0989E4D3
:1039F00090E067E070E04FEF0E942D098BE490E0CB
:103A000067E070E04FEF0E942D0989E490E06FE0DD
:103A100070E042E050E00E94AC052DE134E08DE31F
:103A200090E06CE070E0A9010E94DF0689E48983E0
:103A300090C0898193E0692F0E94F623892F882303
:103A400009F084C08981082F10E080912E04282F6E
:103A500030E086E790E0AC01249FC001259F900DE7
:103A6000349F900D112424E630E0B9010E94022415
:103A7000CB019C018CE390E0821B930BAA2797FD5E
:103A8000A095BA2FBC01CD010E947722DC01CB01A9
:103A9000BC01CD010E948E23DC01CB01BC01CD0114
:103AA00020E030E040E651E40E947421DC01CB01CB
:103AB000BC01CD010E944922DC01CB019C01C8015F
:103AC000B9014FEF0E942D098981082F10E08091E4
:103AD0002C04282F30E086E790E0AC01249FC00141
:103AE000259F900D349F900D112424E630E0B901FC
:103AF0000E940224CB019C018CE390E0821B930B7B
:103B0000AA2797FDA095BA2FBC01CD010E9477226C
:103B1000DC01CB01BC01CD010E948E23DC01CB0175
:103B2000BC01CD0120E030E040E651E40E94742168
:103B3000DC01CB01BC01CD010E944922DC01CB019B
:103B40009C01C801B9014FEF0E942D0989818F5F47
:103B5000898389818B3908F46CCF0F90CF91DF91E5
:103B60001F910F910895EF92FF920F931F93DF9390
:103B7000CF93CDB7DEB72A970FB6F894DEBF0FBE4E
:103B8000CDBF98878F8386E662E00E943D0386E67C
:103B900061E00E94890286E661E00E94670081E69A
:103BA00060E00E941B018AE090E00E940B0AE7E2BD
:103BB000F0E082E48083E6E2F0E087E98083A6E239
:103BC000B0E0E6E2F0E0808180648C93E6E2F0E031
:103BD0008081882F90E0807190700097B9F3A6E201
:103BE000B0E0E6E2F0E0808180618C93E4E2F0E016
:103BF0008081282F30E0E5E2F0E08081882F90E09E
:103C0000982F8827822B932B9E838D838D819E8175
:103C1000009719F41A861986A6C08F819885CC0161
:103C2000A0E0B0E0BC01CD010E947522DC01CB0117
:103C3000BC01CD012DEC3CEC40E450EC0E942B2368
:103C4000DC01CB01BC01CD0120E030E845ED53E4BF
:103C50000E947421DC01CB01BC01CD010E948E23A6
:103C6000DC01CB01BC01CD010E944922DC01CB016A
:103C70009C838B838F819885CC01A0E0B0E0BC0150
:103C8000CD010E947522DC01CB01BC01CD0120E0F9
:103C900030E048E150EC0E942B23DC01CB01BC0159
:103CA000CD0120E030E046E953E40E947421DC01BC
:103CB000CB01BC01CD010E948E23DC01CB01BC01F4
:103CC000CD010E944922DC01CB019A8389832D8199
:103CD0003E8189819A81A901481B590BCA01CC01F7
:103CE000A0E0B0E0BC01CD010E947522DC01CB0157
:103CF000BC01CD0120E030E040E253EC0E942B23D8
:103D0000DC01CB017C018D012B813C8189819A8171
:103D1000A901481B590BCA01CC01A0E0B0E0BC01CD
:103D2000CD010E9475229B01AC01C801B7010E9420
:103D3000DC21DC01CB01BC01CD0120E030E040E220
:103D400053E40E947421DC01CB01BC01CD010E942F
:103D50008E23DC01CB01BC01CD010E944922DC0194
:103D6000CB019A87898789859A852A960FB6F89418
:103D7000DEBF0FBECDBFCF91DF911F910F91FF909E
:103D8000EF900895DF93CF93CDB7DEB786E661E07D
:103D90000E943D0386E662E00E94890286E662E0B8
:103DA0000E941B0181E660E00E9467008AE090E0CB
:103DB0000E940B0AE7E2F0E081E48083E6E2F0E0B3
:103DC00087E98083A6E2B0E0E6E2F0E080818064EB
:103DD0008C93E6E2F0E08081882F90E08071907013
:103DE0000097B9F3A6E2B0E0E6E2F0E080818061FE
:103DF0008C93E4E2F0E08081282F30E0E5E2F0E00F
:103E00008081882F90E0982F8827822B932B8650D3
:103E10009140AA2797FDA095BA2FBC01CD010E9421
:103E20007722DC01CB01BC01CD0120E030E040ED88
:103E300050E40E94DC21DC01CB01BC01CD010E94D9
:103E40008E23DC01CB01BC01CD010E944922DC01A3
:103E5000CB01CF91DF910895DF93CF9300D0CDB701
:103E6000DEB719821A8221C0198219C08A81482FAF
:103E700050E08981282F30E08CE390E0BC01469F20
:103E8000C001479F900D569F900D1124820F931FE4
:103E9000FC01ED5BFB4F108289818F5F89838981F3
:103EA0008C3320F38A818F5F8A838A818A30E0F2A3
:103EB0000F900F90CF91DF910895DF93CF9300D0B3
:103EC00000D00F92CDB7DEB71C8287E08B838AE4E7
:103ED0008A838BE489831D826AC01B8261C01C8235
:103EE00058C08D81482F50E08C81282F30E08CE322
:103EF00090E0BC01469FC001479F900D569F900DDA
:103F00001124820F931FFC01ED5BFB4F8081482F32
:103F100050E08B81282F30E087E090E0821B930BEC
:103F20009A0102C0359527958A95E2F7C9018170FB
:103F30009070882359F18D81882F90E0880F991F08
:103F4000880F991F880F991F982F8B81890F282F11
:103F5000255B9AE48C81981B8A816981422F292FE5
:103F60000E94EC1F8D81882F90E0880F991F880F89
:103F7000991F880F991F982F8B81890F855B8A83E2
:103F80009AE48C81392F381B832F89838C818F5F32
:103F90008C838C818C3308F4A4CF8B818F5F8B83CF
:103FA0008B81883008F49BCF8D818F5F8D838D81CD
:103FB0008A3008F492CF2BE134E087E990E061E4A5
:103FC00070E0A9010E94DF060F900F900F900F90F4
:103FD0000F90CF91DF910895EF92FF920F931F936F
:103FE000DF93CF93CDB7DEB72E970FB6F894DEBF31
:103FF0000FBECDBF8B876C874D872E879D858B85A8
:10400000292F281B822F8A879E858C85292F281B84
:10401000822F89878B85482F50E08C85282F30E0B0
:10402000CA01B9014FEF0E942D098A85992787FDA2
:104030009095A92FB92FBC01CD010E947722DC01F8
:10404000CB017C018D01E89417F98985992787FDBB
:104050009095A92FB92FBC01CD010E947722DC01D8
:10406000CB019C01AD015F77C801B7010E942723F6
:1040700018160CF094C08985992787FD9095A92F73
:10408000B92FBC01CD010E9477227B018C018A856A
:10409000992787FD9095A92FB92FBC01CD010E94CA
:1040A00077229B01AC01C801B7010E94DC21DC0131
:1040B000CB018D839E83AF83B8878C85882F90E05A
:1040C000AA2797FDA095BA2FBC01CD010E947722A7
:1040D0007B018C018B85882F90E0AA2797FDA09506
:1040E000BA2FBC01CD010E947722DC01CB01BC01BB
:1040F000CD012D813E814F8158850E942B23DC010B
:10410000CB019C01AD01C801B7010E947321DC0104
:10411000CB0189839A83AB83BC838A8588231CF473
:104120008FEF8A8737C081E08A8734C09A858B8574
:10413000890F8B878B85082F10E08B85882F90E067
:10414000AA2797FDA095BA2FBC01CD010E94772226
:10415000DC01CB01BC01CD012D813E814F81588511
:104160000E942B23DC01CB01BC01CD0129813A81C6
:104170004B815C810E947421DC01CB01BC01CD012B
:104180000E944422DC01CB019C01C801B9014FEF20
:104190000E942D099B858D85981741F697C08985CA
:1041A000882309F493C08A85992787FD9095A92FC4
:1041B000B92FBC01CD010E9477227B018C0189853A
:1041C000992787FD9095A92FB92FBC01CD010E9499
:1041D00077229B01AC01C801B7010E94DC21DC0100
:1041E000CB018D839E83AF83B8878B85882F90E02A
:1041F000AA2797FDA095BA2FBC01CD010E94772276
:104200007B018C018C85882F90E0AA2797FDA095D3
:10421000BA2FBC01CD010E947722DC01CB01BC0189
:10422000CD012D813E814F8158850E942B23DC01D9
:10423000CB019C01AD01C801B7010E947321DC01D3
:10424000CB0189839A83AB83BC83898588231CF443
:104250008FEF898737C081E0898734C099858C8545
:10426000890F8C878C85882F90E0AA2797FDA095D1
:10427000BA2FBC01CD010E947722DC01CB01BC0129
:10428000CD012D813E814F8158850E942B23DC0179
:10429000CB01BC01CD0129813A814B815C810E9417
:1042A0007421DC01CB01BC01CD010E944422DC0160
:1042B000CB01AC018C85282F30E0CA01B9014FEF4A
:1042C0000E942D099C858E85981741F62E960FB673
:1042D000F894DEBF0FBECDBFCF91DF911F910F913C
:1042E000FF90EF9008955058BB27AA270ED075C1B4
:1042F00066D130F06BD120F031F49F3F11F41EF401
:104300005BC10EF4E095E7FB51C1E92F77D180F353
:10431000BA17620773078407950718F071F49EF5C2
:104320008FC10EF4E0950B2EBA2FA02D0B01B90111
:1043300090010C01CA01A0011124FF27591B99F01B
:10434000593F50F4503E68F11A16F040A22F232F27
:10435000342F4427585FF3CF469537952795A79577
:10436000F0405395C9F77EF41F16BA0B620B730B1E
:10437000840BBAF09150A1F0FF0FBB1F661F771F8F
:10438000881FC2F70EC0BA0F621F731F841F48F444
:10439000879577956795B795F7959E3F08F0B3CFCA
:1043A0009395880F08F09927EE0F979587950895B4
:1043B000D9D008F481E008950CD00FC107D140F0A6
:1043C000FED030F021F45F3F19F0F0C0511139C137
:1043D000F3C014D198F39923C9F35523B1F3951B76
:1043E000550BBB27AA2762177307840738F09F5F16
:1043F0005F4F220F331F441FAA1FA9F333D00E2E85
:104400003AF0E0E830D091505040E695001CCAF7F1
:1044100029D0FE2F27D0660F771F881FBB1F2617B6
:1044200037074807AB07B0E809F0BB0B802DBF0189
:10443000FF2793585F4F2AF09E3F510568F0B6C0A2
:1044400000C15F3FECF3983EDCF386957795679566
:10445000B795F7959F5FC9F7880F911D969587953A
:1044600097F90895E1E0660F771F881FBB1F621759
:1044700073078407BA0720F0621B730B840BBA0B17
:10448000EE1F88F7E095089504D06894B111D9C063
:104490000895BCD088F09F5790F0B92F9927B75155
:1044A000A0F0D1F0660F771F881F991F1AF0BA95F8
:1044B000C9F712C0B13081F0C3D0B1E00895C0C0D7
:1044C000672F782F8827B85F39F0B93FCCF38695EE
:1044D00077956795B395D9F73EF49095809570954B
:1044E00061957F4F8F4F9F4F0895E89409C097FBC8
:1044F0003EF490958095709561957F4F8F4F9F4FBB
:104500009923A9F0F92F96E9BB279395F6958795FE
:1045100077956795B795F111F8CFFAF4BB0F11F4C1
:1045200060FF1BC06F5F7F4F8F4F9F4F16C0882368
:1045300011F096E911C0772321F09EE8872F762F9E
:1045400005C0662371F096E8862F70E060E02AF0DF
:104550009A95660F771F881FDAF7880F96958795CB
:1045600097F90895990F0008550FAA0BE0E8FEEFA0
:1045700016161706E807F907C0F012161306E40727
:10458000F50798F0621B730B840B950B39F40A2620
:1045900061F0232B242B252B21F408950A2609F4FE
:1045A000A140A6958FEF811D811D089597F99F6702
:1045B00080E870E060E008959FEF80EC08950024AB
:1045C0000A941616170618060906089500240A9478
:1045D00012161306140605060895092E0394000CFE
:1045E00011F4882352F0BB0F40F4BF2B11F460FF8D
:1045F00004C06F5F7F4F8F4F9F4F089557FD9058B6
:10460000440F551F59F05F3F71F04795880F97FB96
:10461000991F61F09F3F79F0879508951216130650
:104620001406551FF2CF4695F1DF08C0161617067F
:104630001806991FF1CF86957105610508940895B4
:10464000E894BB2766277727CB0197F908958ADF7F
:1046500008F48FEF08950BD0C0CFB1DF28F0B6DF9C
:1046600018F0952309F0A2CFA7CF1124EACFC6DF17
:10467000A0F3959FD1F3950F50E0551F629FF00175
:10468000729FBB27F00DB11D639FAA27F00DB11DCE
:10469000AA1F649F6627B00DA11D661F829F222757
:1046A000B00DA11D621F739FB00DA11D621F839FDE
:1046B000A00D611D221F749F3327A00D611D231FB4
:1046C000849F600D211D822F762F6A2F11249F5702
:1046D00050408AF0E1F088234AF0EE0FFF1FBB1F25
:1046E000661F771F881F91505040A9F79E3F5105C4
:1046F00070F05CCFA6CF5F3FECF3983EDCF386957D
:1047000077956795B795F795E7959F5FC1F7FE2B6E
:10471000880F911D9695879597F9089577DFE0F0BA
:104720009E37D8F09639B8F49E3848F4672F782F22
:104730008827985FF9CF86957795679593959539F2
:10474000D0F3B62FB1706B0F711D811D20F48795CA
:1047500077956795939502C01CC073CF882371F439
:10476000772321F09850872B762F07C0662311F40A
:1047700099270DC09051862B70E060E02AF09A9541
:10478000660F771F881FDAF7880F9695879597F938
:1047900008959F3F31F0915020F487957795679564
:1047A000B795880F911D9695879597F90895629F03
:1047B000D001739FF001829FE00DF11D649FE00D19
:1047C000F11D929FF00D839FF00D749FF00D659F7A
:1047D000F00D9927729FB00DE11DF91F639FB00D79
:1047E000E11DF91FBD01CF0111240895991B79E046
:1047F00004C0991F961708F0961B881F7A95C9F771
:104800008095089597FB092E07260AD077FD04D0DE
:1048100027D006D000201AF4709561957F4F089537
:10482000F6F7909581959F4F089597FB092E0526E1
:104830000ED057FD04D028D00AD0001C38F4509573
:104840004095309521953F4F4F4F5F4F0895F6F7B4
:1048500090958095709561957F4F8F4F9F4F0895EC
:10486000AA1BBB1B51E107C0AA1FBB1FA617B70796
:1048700010F0A61BB70B881F991F5A95A9F78095B2
:104880009095BC01CD010895A1E21A2EAA1BBB1B75
:10489000FD010DC0AA1FBB1FEE1FFF1FA217B3070C
:1048A000E407F50720F0A21BB30BE40BF50B661F22
:1048B000771F881F991F1A9469F7609570958095E6
:1048C00090959B01AC01BD01CF010895F894FFCFF5
:1048D000000000000000005F000000070007001457
:1048E0007F147F14242A7F2A122313086462364916
:1048F0005522500005030000001C22410000412207
:104900001C00082A1C2A0808083E0808005030002D
:104910000008080808080060600000201008040271
:104920003E5149453E00427F400042615149462187
:1049300041454B311814127F1027454545393C4AF3
:104940004949300171090503364949493606494943
:10495000291E0036360000005636000000081422DA
:1049600041141414141441221408000201510906C0
:10497000324979413E7E1111117E7F494949363EC7
:10498000414141227F4141221C7F494949417F09E0
:104990000901013E414151327F0808087F00417FF3
:1049A00041002040413F017F081422417F404040A8
:1049B000407F0204027F7F0408107F3E4141413E58
:1049C0007F090909063E4151215E7F0919294646A2
:1049D0004949493101017F01013F4040403F1F20CB
:1049E00040201F7F2018207F63140814630304787D
:1049F0000403615149454300007F4141020408100E
:104A00002041417F00000402010204404040404038
:104A1000000102040020545454787F48444438383C
:104A200044444420384444487F3854545418087E41
:104A3000090102081454543C7F0804047800447DA2
:104A400040002040443D00007F10284400417F404A
:104A5000007C041804787C08040478384444443802
:104A60007C14141408081414187C7C0804040848E6
:104A700054545420043F4440203C4040207C1C209F
:104A800040201C3C4030403C44281028440C5050EE
:104A9000503C4464544C44000836410000007F0000
:104AA00000004136080008082A1C08081C2A0808CB
:104AB000303000303000303000303030306D730036
:104AC000303000303000303030306D7300506C6565
:104AD0006173652073656C6563742061206D6F641C
:104AE000653A004E756D2050616420496E70757492
:104AF000204D6F646500536C6964657220496E7067
:104B00007574204D6F64650031003200330034004D
:104B10003500360037003800390030004F6B003C5C
:104B20002D00456E746572206D696E2E2054656D82
:104B3000703A20004300456E746572206D61782ED6
:104B40002054656D703A2000456E74657220726560
:104B5000662E2054696D653A20004572726F723A74
:104B6000204D696E203E204D61782054656D702186
:104B70002020004572726F723A2052656620546997
:104B80006D65203E20313030302120002020202053
:104B90002020004D696E004D617800545F7265669B
:104BA00072004572726F723A2020200056616C5F6D
:104BB0006D696E2020003E20202020202020200033
:104BC00056616C5F6D61782120002020202020201C
:104BD00020202000412F443A004D696E3A004D617B
:104BE000783A00545F726566723A00740039390091
:00000001FF
