:100000000C9446000C9465000C9465000C946500FB
:100010000C9465000C9465000C9465000C946500CC
:100020000C9465000C9465000C9465000C946500BC
:100030000C9465000C9465000C9465000C946500AC
:100040000C9465000C9465000C9465000C9465009C
:100050000C9465000C9448380C9465000C94650071
:100060000C9465000C9465000C9465000C9465007C
:100070000C9465000C9465000C9465000C9465006C
:100080000C9465000C9465000C94650011241FBE4F
:10009000CFEFD0E1DEBFCDBF13E0A0E0B1E0E6E3FB
:1000A000F2E900E00BBF02C007900D92A23FB1073A
:1000B000D9F716E0A2EFB3E001C01D92A235B10757
:1000C000E1F70E9485380C9419490C940000DF93E5
:1000D000CF9300D000D0CDB7DEB789836A83898102
:1000E000282F30E03C832B838B819C8183369105C4
:1000F00009F44BC02B813C81243631055CF48B81A3
:100100009C8181369105C9F02B813C8122363105D5
:1001100041F18AC08B819C818536910509F45DC0CF
:100120002B813C81253631050CF443C08B819C81A9
:100130008636910509F465C077C0ABE3B0E0EBE328
:10014000F0E08081482F8A81282F30E081E090E024
:10015000022E02C0880F991F0A94E2F7842B8C9319
:1001600063C0A8E3B0E0E8E3F0E08081482F8A8133
:10017000282F30E081E090E0022E02C0880F991F06
:100180000A94E2F7842B8C934FC0A5E3B0E0E5E33B
:10019000F0E08081482F8A81282F30E081E090E0D4
:1001A000022E02C0880F991F0A94E2F7842B8C93C9
:1001B0003BC0A2E3B0E0E2E3F0E08081482F8A8117
:1001C000282F30E081E090E0022E02C0880F991FB6
:1001D0000A94E2F7842B8C9327C0A3E2B0E0E3E219
:1001E000F0E08081482F8A81282F30E081E090E084
:1001F000022E02C0880F991F0A94E2F7842B8C9379
:1002000013C0A2E6B0E0E2E6F0E08081482F8A81E8
:10021000282F30E081E090E0022E02C0880F991F65
:100220000A94E2F7842B8C930F900F900F900F900D
:10023000CF91DF910895DF93CF9300D000D0CDB759
:10024000DEB789836A838981282F30E03C832B8342
:100250008B819C818336910509F44DC02B813C81B3
:10026000243631055CF48B819C8181369105C9F07F
:100270002B813C812236310549F190C08B819C81D4
:100280008536910509F461C02B813C812536310505
:100290000CF446C08B819C818636910509F46AC0B6
:1002A0007DC0ABE3B0E0EBE3F0E08081482F8A81D2
:1002B000282F30E081E090E0022E02C0880F991FC5
:1002C0000A94E2F7809584238C9368C0A8E3B0E099
:1002D000E8E3F0E08081482F8A81282F30E081E038
:1002E00090E0022E02C0880F991F0A94E2F78095D1
:1002F00084238C9353C0A5E3B0E0E5E3F0E0808174
:10030000482F8A81282F30E081E090E0022E02C041
:10031000880F991F0A94E2F7809584238C933EC03E
:10032000A2E3B0E0E2E3F0E08081482F8A81282F49
:1003300030E081E090E0022E02C0880F991F0A94FD
:10034000E2F7809584238C9329C0A3E2B0E0E3E236
:10035000F0E08081482F8A81282F30E081E090E012
:10036000022E02C0880F991F0A94E2F78095842319
:100370008C9314C0A2E6B0E0E2E6F0E08081482F62
:100380008A81282F30E081E090E0022E02C0880FA1
:10039000991F0A94E2F7809584238C930F900F9015
:1003A0000F900F90CF91DF910895DF93CF9300D0FE
:1003B00000D0CDB7DEB789836A838981282F30E0EA
:1003C0003C832B838B819C818336910509F44BC040
:1003D0002B813C81243631055CF48B819C818136F4
:1003E0009105C9F02B813C812236310541F18AC04B
:1003F0008B819C818536910509F45DC02B813C8100
:10040000253631050CF443C08B819C8186369105DD
:1004100009F465C077C0ABE3B0E0EBE3F0E08081C6
:10042000482F8A81282F30E081E090E0022E02C020
:10043000880F991F0A94E2F784278C9363C0A8E37E
:10044000B0E0E8E3F0E08081482F8A81282F30E097
:1004500081E090E0022E02C0880F991F0A94E2F713
:1004600084278C934FC0A5E3B0E0E5E3F0E0808102
:10047000482F8A81282F30E081E090E0022E02C0D0
:10048000880F991F0A94E2F784278C933BC0A2E35C
:10049000B0E0E2E3F0E08081482F8A81282F30E04D
:1004A00081E090E0022E02C0880F991F0A94E2F7C3
:1004B00084278C9327C0A3E2B0E0E3E2F0E08081E0
:1004C000482F8A81282F30E081E090E0022E02C080
:1004D000880F991F0A94E2F784278C9313C0A2E631
:1004E000B0E0E2E6F0E08081482F8A81282F30E0FA
:1004F00081E090E0022E02C0880F991F0A94E2F773
:1005000084278C930F900F900F900F90CF91DF91D5
:100510000895DF93CF9300D000D0CDB7DEB78983A5
:100520006A838981282F30E03C832B838B819C81D7
:100530008336910509F44BC02B813C81243631056B
:100540005CF48B819C8181369105C9F02B813C81C3
:100550002236310541F18AC08B819C818536910517
:1005600009F45DC02B813C81253631050CF443C074
:100570008B819C818636910509F465C077C0AAE31A
:10058000B0E0EAE3F0E08081482F8A81282F30E054
:1005900081E090E0022E02C0880F991F0A94E2F7D2
:1005A000842B8C9363C0A7E3B0E0E7E3F0E08081A5
:1005B000482F8A81282F30E081E090E0022E02C08F
:1005C000880F991F0A94E2F7842B8C934FC0A4E301
:1005D000B0E0E4E3F0E08081482F8A81282F30E00A
:1005E00081E090E0022E02C0880F991F0A94E2F782
:1005F000842B8C933BC0A1E3B0E0E1E3F0E0808189
:10060000482F8A81282F30E081E090E0022E02C03E
:10061000880F991F0A94E2F7842B8C9327C0A2E2DB
:10062000B0E0E2E2F0E08081482F8A81282F30E0BC
:1006300081E090E0022E02C0880F991F0A94E2F731
:10064000842B8C9313C0A1E6B0E0E1E6F0E080815A
:10065000482F8A81282F30E081E090E0022E02C0EE
:10066000880F991F0A94E2F7842B8C930F900F90B8
:100670000F900F90CF91DF910895DF93CF9300D02B
:1006800000D0CDB7DEB789836A838981282F30E017
:100690003C832B838B819C818336910509F44DC06B
:1006A0002B813C81243631055CF48B819C81813621
:1006B0009105C9F02B813C812236310549F190C06A
:1006C0008B819C818536910509F461C02B813C8129
:1006D000253631050CF446C08B819C818636910508
:1006E00009F46AC07DC0AAE3B0E0EAE3F0E08081EB
:1006F000482F8A81282F30E081E090E0022E02C04E
:10070000880F991F0A94E2F7809584238C9368C020
:10071000A7E3B0E0E7E3F0E08081482F8A81282F4B
:1007200030E081E090E0022E02C0880F991F0A9409
:10073000E2F7809584238C9353C0A4E3B0E0E4E314
:10074000F0E08081482F8A81282F30E081E090E01E
:10075000022E02C0880F991F0A94E2F78095842325
:100760008C933EC0A1E3B0E0E1E3F0E08081482F4C
:100770008A81282F30E081E090E0022E02C0880FAD
:10078000991F0A94E2F7809584238C9329C0A2E2F2
:10079000B0E0E2E2F0E08081482F8A81282F30E04B
:1007A00081E090E0022E02C0880F991F0A94E2F7C0
:1007B000809584238C9314C0A1E6B0E0E1E6F0E0DC
:1007C0008081482F8A81282F30E081E090E0022E3E
:1007D00002C0880F991F0A94E2F7809584238C93B6
:1007E0000F900F900F900F90CF91DF910895DF93AE
:1007F000CF93CDB7DEB729970FB6F894DEBF0FBE03
:10080000CDBF89838981282F30E039872887888563
:1008100099858336910581F12885398524363105FE
:100820005CF48885998581369105B1F028853985F4
:1008300022363105C9F03FC08885998585369105F6
:1008400059F12885398525363105F4F08885998553
:100850008636910549F12FC0EAE3F0E09081EAE3A2
:10086000F0E08FEF808327C0E7E3F0E02081E7E34B
:10087000F0E08FEF80831FC0E4E3F0E03081E4E339
:10088000F0E08FEF808317C0E1E3F0E08081E1E3E7
:10089000F0E08FEF80830FC0E2E2F0E09081E2E2CF
:1008A000F0E08FEF808307C0E1E6F0E02081E1E631
:1008B000F0E08FEF808329960FB6F894DEBF0FBE6D
:1008C000CDBFCF91DF910895DF93CF93CDB7DEB742
:1008D00029970FB6F894DEBF0FBECDBF89838981FB
:1008E000282F30E0398728878885998583369105B8
:1008F00071F128853985243631055CF48885998520
:1009000081369105B1F02885398522363105C1F04F
:1009100039C0888599858536910539F128853985CD
:1009200025363105DCF0888599858636910521F1DB
:1009300029C0EAE3F0E09081EAE3F0E0108222C00F
:10094000E7E3F0E02081E7E3F0E010821BC0E4E39E
:10095000F0E03081E4E3F0E0108214C0E1E3F0E085
:100960008081E1E3F0E010820DC0E2E2F0E09081EE
:10097000E2E2F0E0108206C0E1E6F0E02081E1E68C
:10098000F0E0108229960FB6F894DEBF0FBECDBFFF
:10099000CF91DF910895DF93CF9300D0CDB7DEB72D
:1009A0009A838983E0E9F0E089819A81892F9927E8
:1009B0008083E9E2F0E089818083EAE2F0E088E187
:1009C0008083E5E9F0E08EE080830F900F90CF9177
:1009D000DF910895DF93CF93CDB7DEB7EBE2F0E080
:1009E0001082EAE2F0E088E18083E5E9F0E086E861
:1009F0008083E0E9F0E01082E9E2F0E088E08083C3
:100A0000CF91DF910895DF93CF93CDB7DEB7E7E2C3
:100A1000F0E080E48083E6E2F0E08EE98083A6E205
:100A2000B0E0E6E2F0E0808180668C93CF91DF91C8
:100A30000895DF93CF9300D000D00F92CDB7DEB7EB
:100A40008A836B8319828A81282F30E03D832C832F
:100A50008C819D818336910551F12C813D81243615
:100A600031055CF48C819D8181369105B1F02C813A
:100A70003D8122363105B1F02DC08C819D818536B6
:100A80009105F9F02C813D8125363105ACF08C8142
:100A90009D8186369105D1F01DC0E9E3F0E08081AB
:100AA000898318C0E6E3F0E08081898313C0E3E323
:100AB000F0E0808189830EC0E0E3F0E080818983EB
:100AC00009C0E1E2F0E08081898304C0E0E2F0E067
:100AD000808189838B81282F30E081E090E0022E95
:100AE00002C0880F991F0A94E2F7982F8981892301
:100AF000898389810F900F900F900F900F90CF9165
:100B0000DF910895DF93CF930F92CDB7DEB789833E
:100B1000E7E2F0E08981806C8083A6E2B0E0E6E263
:100B2000F0E0808180648C93E6E2F0E08081882FA1
:100B300090E0807190700097B9F3A6E2B0E0E6E231
:100B4000F0E0808180618C93E4E2F0E0808191812B
:100B50000F90CF91DF910895DF93CF93CDB7DEB79C
:100B600028970FB6F894DEBF0FBECDBF9C838B8352
:100B70007E836D8358874F838B819C819A83898381
:100B80000DC089819A812D813E81B9014FEF0E946C
:100B90002D0989819A8101969A8389832B813C81D1
:100BA0008F819885280F391F89819A8128173907E5
:100BB00040F728960FB6F894DEBF0FBECDBFCF9199
:100BC000DF910895DF93CF93CDB7DEB728970FB6A7
:100BD000F894DEBF0FBECDBF9C838B837E836D8375
:100BE00058874F838D819E819A8389830DC08B8125
:100BF0009C8129813A81B9014FEF0E942D09898199
:100C00009A8101969A8389832D813E818F8198856F
:100C1000280F391F89819A818217930740F32896FC
:100C20000FB6F894DEBF0FBECDBFCF91DF91089510
:100C3000DF93CF93CDB7DEB728970FB6F894DEBF1A
:100C40000FBECDBF9A8389837C836B835E834D8384
:100C500038872F838D819E8101979E838D838F811D
:100C60009885019798878F8389819A812B813C8110
:100C70004D815E81B9010E94AC0589819A812B81E9
:100C80003C814F815885B9010E94E20529813A8152
:100C90008D819E81820F931F2B813C814F815885CE
:100CA000B9010E94E2052B813C818F819885A901C1
:100CB000480F591F89819A812D813E81BA01A9016E
:100CC0000E94AC0528960FB6F894DEBF0FBECDBFCC
:100CD000CF91DF910895DF93CF93CDB7DEB72897FB
:100CE0000FB6F894DEBF0FBECDBF9D838C837F838C
:100CF0006E834887888580528B838B818F3508F07F
:100D000055C01A824FC0198241C08B81282F30E014
:100D1000C901880F991F880F991F280F391F8A81D1
:100D2000882F90E0820F931FFC01E050FF4F8081DD
:100D3000282F30E08981882F90E0A90102C05595C5
:100D400047958A95E2F7CA0181709070882371F007
:100D50008981282F30E08E819F81280F391F8C8157
:100D60009D81B9014FEF0E942D090DC08981282F67
:100D700030E08E819F81280F391F8C819D81B901C0
:100D800040E00E942D0989818F5F898389818730A6
:100D900008F4BBCF8C819D8101969D838C838A81D1
:100DA0008F5F8A838A81853008F4ADCF28960FB68D
:100DB000F894DEBF0FBECDBFCF91DF910895DF93D2
:100DC000CF93CDB7DEB728970FB6F894DEBF0FBE2E
:100DD000CDBF9C838B837E836D8358874F838B81AC
:100DE0009C819A83898337C0EF81F88580818A301E
:100DF00079F489819A819C838B838D819E81089669
:100E00009E838D838F819885019698878F8323C0D9
:100E1000EF81F88540818F819885019698878F832F
:100E20008B819C812D813E81B9010E946B068B8153
:100E30009C8106969C838B838B819C810596813A4D
:100E4000910548F089819A819C838B838D819E8155
:100E500008969E838D83EF81F8858081882321F613
:100E600028960FB6F894DEBF0FBECDBFCF91DF91AD
:100E70000895DF93CF93CDB7DEB7ABE3B0E0EBE3FC
:100E8000F0E0808180648C93000000000000ABE300
:100E9000B0E0EBE3F0E080818F7B8C9300000000FA
:100EA0000000CF91DF910895DF93CF93CDB7DEB7E8
:100EB00068970FB6F894DEBF0FBECDBF80E090E01C
:100EC000A0E4B0E48D8B9E8BAF8BB88F6D897E894B
:100ED0008F89988D25E535E545ED50E40E9405485C
:100EE000DC01CB01898B9A8BAB8BBC8B69897A89AE
:100EF0008B899C8920E030E040E85FE30E94B246A5
:100F000088231CF481E0888B91C069897A898B8958
:100F10009C8920E030E04FE753E40E940148181616
:100F20000CF07BC06D897E898F89988D20E030E040
:100F30004AE754E40E94B646DC01CB018C879D87CA
:100F4000AE87BF876C857D858E859F8520E030E4E8
:100F50004CE955E40E940548DC01CB01888799875C
:100F6000AA87BB87688579858A859B8520E030E0E4
:100F700040E85FE30E94B24688232CF481E090E0D1
:100F80009F838E833FC0688579858A859B8520E015
:100F90003FEF4FE757E40E94014818164CF56C8567
:100FA0007D858E859F8520E030E040E251E40E94FF
:100FB0000548DC01CB01BC01CD010E942347DC01C7
:100FC000CB019F838E830FC084EF91E09D838C8340
:100FD0008C819D810197F1F79D838C838E819F8108
:100FE00001979F838E838E819F81009769F724C02C
:100FF000688579858A859B850E942347DC01CB0122
:101000009F838E838E819F819B838A838A819B812C
:101010000197F1F79B838A830FC069897A898B894D
:101020009C890E942347DC01CB01888B88898983B6
:1010300089818A95F1F7898368960FB6F894DEBFA7
:101040000FBECDBFCF91DF910895DF93CF9300D036
:10105000CDB7DEB789836A830E945407ABE3B0E063
:10106000EBE3F0E080818F7D8C93ABE3B0E0EBE3CA
:10107000F0E0808180688C93E5E3F0E089818F70F7
:1010800080830000000000000000000000000E94BB
:101090003907000000000000000000000000ABE382
:1010A000B0E0EBE3F0E080818F7D8C93ABE3B0E0C8
:1010B000EBE3F0E080818F778C93E5E3F0E08A81C9
:1010C00080830000000000000000000000000E947B
:1010D00039070000000000000000000000000F9031
:1010E0000F90CF91DF910895DF93CF930F92CDB7FB
:1010F000DEB7E4E3F0E08FEF8083AAE3B0E0EAE359
:10110000F0E08081806E8C93ABE3B0E0EBE3F0E045
:1011100080818F7D8C93ABE3B0E0EBE3F0E08081E6
:101120008F778C93ABE3B0E0EBE3F0E080818F7BD3
:101130008C9382E3898380E069810E94250887E09F
:10114000898381E069810E94250883E1898382E0A7
:1011500069810E9425088FE7898383E069810E9465
:101160002508198288E069810E94250889E0698143
:101170000E94250819828AE069810E9425088BE077
:1011800069810E9425080F90CF91DF910895DF9328
:10119000CF9300D000D000D0CDB7DEB79C838B8337
:1011A0007E836D832D813E8180EA90E0A901489F76
:1011B0009001499F300D589F300D11248B819C81E7
:1011C000820F931F96958795969587959695879507
:1011D0009A83898399818AE0692F0E9425088981F1
:1011E0009A81892F9927982F8BE0692F0E942508D3
:1011F00026960FB6F894DEBF0FBECDBFCF91DF911C
:101200000895DF93CF930F92CDB7DEB789838CE03B
:1012100069810E9425080F90CF91DF910895DF9397
:10122000CF9300D000D00F92CDB7DEB79A838983D9
:101230007C836B834D8389819A812B813C81B901A9
:101240000E94C7088D810E9401090F900F900F9096
:101250000F900F90CF91DF910895DF93CF9300D03F
:1012600000D000D0CDB7DEB79B838A837D836C83AB
:101270004E838A819B812C813D81B9010E94C708E0
:101280008A81877089838E818F3F29F48FE06981FD
:101290000E94250804C08EE069810E9425082696D8
:1012A0000FB6F894DEBF0FBECDBFCF91DF9108958A
:1012B000DF93CF9300D0CDB7DEB780E090E060E061
:1012C00070E00E94C7081A82198208C080E00E945C
:1012D000010989819A8101969A83898389819A81FA
:1012E00026E08034920790F30F900F90CF91DF911A
:1012F0000895DF93CF93CDB7DEB760970FB6F8941C
:10130000DEBF0FBECDBF988B8F8777C080E090E0A7
:10131000A0E8BFE38B879C87AD87BE876B857C8504
:101320008D859E8520E030E44CE955E40E94054817
:10133000DC01CB018F839887A987BA876F81788575
:1013400089859A8520E030E040E85FE30E94B2465C
:1013500088232CF481E090E09E838D833FC06F81D1
:10136000788589859A8520E03FEF4FE757E40E9412
:10137000014818164CF56B857C858D859E8520E08F
:1013800030E040E251E40E940548DC01CB01BC01A1
:10139000CD010E942347DC01CB019E838D830FC0CA
:1013A00084EF91E09C838B838B819C810197F1F783
:1013B0009C838B838D819E8101979E838D838D81FC
:1013C0009E81009769F714C06F81788589859A8519
:1013D0000E942347DC01CB019E838D838D819E81FA
:1013E0009A83898389819A810197F1F79A83898306
:1013F0008F8598890197988B8F878F85988900971B
:1014000009F084CF60960FB6F894DEBF0FBECDBF53
:10141000CF91DF9108950F931F93DF93CF9300D067
:10142000CDB7DEB79A83898389819A81009709F4C1
:1014300056C089819A8121E18539920708F04FC011
:10144000EEE4F0E01082A6E5B0E0E6E5F0E08081B1
:1014500084608C93A7E5B0E0E7E5F0E080818B7FC6
:101460008C93EFE4F0E01082EAE7F0E010820CE405
:1014700010E089819A81CC01A0E0B0E020E930E061
:1014800040E050E0BC01CD010E94B148DC01CB013D
:101490002AE030E040E050E0BC01CD010E94DC4891
:1014A000DA01C901909581959F4FF801918380835E
:1014B000EEE4F0E085E08083E6E5F0E08081882FCF
:1014C00090E0847090700097B9F3EEE4F0E0108241
:1014D000A6E5B0E0E6E5F0E0808184608C930F90B3
:1014E0000F90CF91DF911F910F910895DF93CF93CC
:1014F00000D0CDB7DEB79A83898309C088EE93E028
:101500000E940B0A89819A8101979A838983898134
:101510009A81009799F70F900F90CF91DF910895DE
:10152000DF93CF93CDB7DEB789E090E06EE370E054
:101530004FEF0E942D0989E090E06FE370E04FEFDC
:101540000E942D0989E090E060E470E04FEF0E9476
:101550002D0989E090E061E470E04FEF0E942D09D1
:1015600089E090E062E470E04FEF0E942D0989E08D
:1015700090E063E470E04FEF0E942D0989E090E075
:1015800064E470E04FEF0E942D0989E090E065E48B
:1015900070E04FEF0E942D0989E090E066E470E072
:1015A0004FEF0E942D0989E090E067E470E04FEF73
:1015B0000E942D0989E090E068E470E04FEF0E94FE
:1015C0002D0989E090E069E470E04FEF0E942D0959
:1015D00089E090E06AE470E04FEF0E942D0989E015
:1015E00090E06BE470E04FEF0E942D0989E090E0FD
:1015F0006CE470E04FEF0E942D0989E090E06DE40B
:1016000070E04FEF0E942D098AE090E064E370E003
:101610004FEF0E942D098AE090E06EE370E04FEFFB
:101620000E942D098AE090E06DE470E04FEF0E9487
:101630002D098BE090E063E370E04FEF0E942D09ED
:101640008BE090E064E370E04FEF0E942D098BE0A7
:1016500090E065E370E04FEF0E942D098BE090E091
:101660006EE370E04FEF0E942D098BE090E06DE497
:1016700070E04FEF0E942D098CE090E063E370E092
:101680004FEF0E942D098CE090E064E370E04FEF93
:101690000E942D098CE090E065E370E04FEF0E941E
:1016A0002D098CE090E06EE370E04FEF0E942D0971
:1016B0008CE090E064E470E04FEF0E942D098CE034
:1016C00090E06DE470E04FEF0E942D098DE090E016
:1016D00063E370E04FEF0E942D098DE090E064E33A
:1016E00070E04FEF0E942D098DE090E065E370E01F
:1016F0004FEF0E942D098DE090E06EE370E04FEF18
:101700000E942D098DE090E064E470E04FEF0E94AC
:101710002D098DE090E06DE470E04FEF0E942D09FF
:101720008EE090E063E370E04FEF0E942D098EE0C1
:1017300090E064E370E04FEF0E942D098EE090E0AE
:1017400065E370E04FEF0E942D098EE090E06EE3BC
:1017500070E04FEF0E942D098EE090E063E470E0AE
:101760004FEF0E942D098EE090E064E470E04FEFAF
:101770000E942D098EE090E065E470E04FEF0E943A
:101780002D098EE090E066E470E04FEF0E942D0995
:101790008EE090E067E470E04FEF0E942D098EE04C
:1017A00090E068E470E04FEF0E942D098EE090E039
:1017B00069E470E04FEF0E942D098EE090E06DE447
:1017C00070E04FEF0E942D098FE090E063E370E03E
:1017D0004FEF0E942D098FE090E064E370E04FEF3F
:1017E0000E942D098FE090E065E370E04FEF0E94CA
:1017F0002D098FE090E06EE370E04FEF0E942D091D
:101800008FE090E064E470E04FEF0E942D098FE0DC
:1018100090E06AE470E04FEF0E942D098FE090E0C5
:101820006DE470E04FEF0E942D0980E190E063E3EA
:1018300070E04FEF0E942D0980E190E064E370E0DA
:101840004FEF0E942D0980E190E065E370E04FEFDB
:101850000E942D0980E190E06EE370E04FEF0E945E
:101860002D0980E190E064E470E04FEF0E942D09C3
:1018700080E190E06AE470E04FEF0E942D0980E182
:1018800090E06DE470E04FEF0E942D0981E190E05F
:1018900063E370E04FEF0E942D0981E190E064E383
:1018A00070E04FEF0E942D0981E190E065E370E068
:1018B0004FEF0E942D0981E190E06EE370E04FEF61
:1018C0000E942D0981E190E064E470E04FEF0E94F6
:1018D0002D0981E190E06AE470E04FEF0E942D094C
:1018E00081E190E06DE470E04FEF0E942D0982E10C
:1018F00090E063E370E04FEF0E942D0982E190E0F9
:1019000064E370E04FEF0E942D0982E190E065E30F
:1019100070E04FEF0E942D0982E190E06EE370E0ED
:101920004FEF0E942D0982E190E06DE470E04FEFEF
:101930000E942D0983E190E063E370E04FEF0E9485
:101940002D0983E190E064E370E04FEF0E942D09E0
:1019500083E190E065E370E04FEF0E942D0983E1A1
:1019600090E06EE370E04FEF0E942D0983E190E07C
:101970006DE470E04FEF0E942D0984E190E063E395
:1019800070E04FEF0E942D0984E190E064E370E085
:101990004FEF0E942D0984E190E065E370E04FEF86
:1019A0000E942D0984E190E06EE370E04FEF0E9409
:1019B0002D0984E190E06DE470E04FEF0E942D0965
:1019C00085E190E063E370E04FEF0E942D0985E12F
:1019D00090E064E370E04FEF0E942D0985E190E014
:1019E00065E370E04FEF0E942D0985E190E06EE322
:1019F00070E04FEF0E942D0985E190E065E470E012
:101A00004FEF0E942D0985E190E066E470E04FEF12
:101A10000E942D0985E190E067E470E04FEF0E949D
:101A20002D0985E190E068E470E04FEF0E942D09F8
:101A300085E190E069E470E04FEF0E942D0985E1B7
:101A400090E06DE470E04FEF0E942D0986E190E098
:101A500063E370E04FEF0E942D0986E190E064E3BC
:101A600070E04FEF0E942D0986E190E065E370E0A1
:101A70004FEF0E942D0986E190E06EE370E04FEF9A
:101A80000E942D0986E190E064E470E04FEF0E942F
:101A90002D0986E190E06AE470E04FEF0E942D0985
:101AA00086E190E06DE470E04FEF0E942D0987E140
:101AB00090E063E370E04FEF0E942D0987E190E032
:101AC00064E370E04FEF0E942D0987E190E065E349
:101AD00070E04FEF0E942D0987E190E06EE370E027
:101AE0004FEF0E942D0987E190E064E470E04FEF32
:101AF0000E942D0987E190E06AE470E04FEF0E94B8
:101B00002D0987E190E06DE470E04FEF0E942D0910
:101B100088E190E063E370E04FEF0E942D0988E1D7
:101B200090E064E370E04FEF0E942D0988E190E0BF
:101B300065E370E04FEF0E942D0988E190E06EE3CD
:101B400070E04FEF0E942D0988E190E064E470E0BE
:101B50004FEF0E942D0988E190E06AE470E04FEFBA
:101B60000E942D0988E190E06DE470E04FEF0E9443
:101B70002D0989E190E063E370E04FEF0E942D09A9
:101B800089E190E064E370E04FEF0E942D0989E164
:101B900090E065E370E04FEF0E942D0989E190E04D
:101BA0006EE370E04FEF0E942D0989E190E064E45C
:101BB00070E04FEF0E942D0989E190E06AE470E047
:101BC0004FEF0E942D0989E190E06DE470E04FEF46
:101BD0000E942D098AE190E063E370E04FEF0E94DC
:101BE0002D098AE190E064E370E04FEF0E942D0937
:101BF0008AE190E065E370E04FEF0E942D098AE1F1
:101C000090E06EE370E04FEF0E942D098AE190E0D2
:101C100065E470E04FEF0E942D098AE190E066E4F0
:101C200070E04FEF0E942D098AE190E067E470E0D8
:101C30004FEF0E942D098AE190E068E470E04FEFD9
:101C40000E942D098AE190E069E470E04FEF0E9464
:101C50002D098AE190E06DE470E04FEF0E942D09BC
:101C60008BE190E063E370E04FEF0E942D098BE180
:101C700090E064E370E04FEF0E942D098BE190E06B
:101C800065E370E04FEF0E942D098BE190E06EE379
:101C900070E04FEF0E942D098BE190E06DE470E061
:101CA0004FEF0E942D098CE190E063E370E04FEF6D
:101CB0000E942D098CE190E064E370E04FEF0E94F8
:101CC0002D098CE190E065E370E04FEF0E942D0953
:101CD0008CE190E06EE370E04FEF0E942D098CE103
:101CE00090E06DE470E04FEF0E942D098DE190E0EF
:101CF00063E370E04FEF0E942D098DE190E064E313
:101D000070E04FEF0E942D098DE190E065E370E0F7
:101D10004FEF0E942D098DE190E06EE370E04FEFF0
:101D20000E942D098DE190E064E470E04FEF0E9485
:101D30002D098DE190E065E470E04FEF0E942D09E0
:101D40008DE190E066E470E04FEF0E942D098DE197
:101D500090E067E470E04FEF0E942D098DE190E084
:101D600068E470E04FEF0E942D098DE190E069E496
:101D700070E04FEF0E942D098DE190E06DE470E07E
:101D80004FEF0E942D098EE190E063E370E04FEF8A
:101D90000E942D098EE190E064E370E04FEF0E9415
:101DA0002D098EE190E065E370E04FEF0E942D0970
:101DB0008EE190E06EE370E04FEF0E942D098EE11E
:101DC00090E06AE470E04FEF0E942D098EE190E010
:101DD0006DE470E04FEF0E942D098FE190E063E326
:101DE00070E04FEF0E942D098FE190E064E370E016
:101DF0004FEF0E942D098FE190E065E370E04FEF17
:101E00000E942D098FE190E06EE370E04FEF0E9499
:101E10002D098FE190E06AE470E04FEF0E942D09F8
:101E20008FE190E06DE470E04FEF0E942D0980E2B9
:101E300090E063E370E04FEF0E942D0980E290E0B4
:101E400064E370E04FEF0E942D0980E290E065E3CB
:101E500070E04FEF0E942D0980E290E06EE370E0A9
:101E60004FEF0E942D0980E290E06AE470E04FEFAE
:101E70000E942D0980E290E06DE470E04FEF0E9437
:101E80002D0981E290E063E370E04FEF0E942D099D
:101E900081E290E064E370E04FEF0E942D0981E25F
:101EA00090E065E370E04FEF0E942D0981E290E041
:101EB0006EE370E04FEF0E942D0981E290E069E44B
:101EC00070E04FEF0E942D0981E290E06DE470E038
:101ED0004FEF0E942D0982E290E063E370E04FEF44
:101EE0000E942D0982E290E064E370E04FEF0E94CF
:101EF0002D0982E290E065E370E04FEF0E942D092A
:101F000082E290E06EE370E04FEF0E942D0982E2E2
:101F100090E064E470E04FEF0E942D0982E290E0CF
:101F200065E470E04FEF0E942D0982E290E066E4E4
:101F300070E04FEF0E942D0982E290E067E470E0CC
:101F40004FEF0E942D0982E290E068E470E04FEFCD
:101F50000E942D0982E290E069E470E04FEF0E9458
:101F60002D0982E290E06AE470E04FEF0E942D09B3
:101F700082E290E06DE470E04FEF0E942D0983E271
:101F800090E063E370E04FEF0E942D0983E290E060
:101F900064E370E04FEF0E942D0983E290E065E377
:101FA00070E04FEF0E942D0983E290E06EE370E055
:101FB0004FEF0E942D0983E290E06DE470E04FEF57
:101FC0000E942D0984E290E063E370E04FEF0E94ED
:101FD0002D0984E290E064E370E04FEF0E942D0948
:101FE00084E290E065E370E04FEF0E942D0984E207
:101FF00090E06EE370E04FEF0E942D0984E290E0E4
:102000006DE470E04FEF0E942D0985E290E063E3FC
:1020100070E04FEF0E942D0985E290E064E370E0EC
:102020004FEF0E942D0985E290E065E370E04FEFED
:102030000E942D0985E290E06EE370E04FEF0E9470
:102040002D0985E290E066E470E04FEF0E942D09D3
:1020500085E290E067E470E04FEF0E942D0985E291
:1020600090E068E470E04FEF0E942D0985E290E077
:102070006DE470E04FEF0E942D0986E290E063E38B
:1020800070E04FEF0E942D0986E290E064E370E07B
:102090004FEF0E942D0986E290E065E370E04FEF7C
:1020A0000E942D0986E290E06EE370E04FEF0E94FF
:1020B0002D0986E290E065E470E04FEF0E942D0963
:1020C00086E290E069E470E04FEF0E942D0986E21D
:1020D00090E06DE470E04FEF0E942D0987E290E000
:1020E00063E370E04FEF0E942D0987E290E064E324
:1020F00070E04FEF0E942D0987E290E065E370E009
:102100004FEF0E942D0987E290E06EE370E04FEF01
:102110000E942D0987E290E064E470E04FEF0E9496
:102120002D0987E290E06AE470E04FEF0E942D09EC
:1021300087E290E06DE470E04FEF0E942D0988E2A5
:1021400090E063E370E04FEF0E942D0988E290E099
:1021500064E370E04FEF0E942D0988E290E065E3B0
:1021600070E04FEF0E942D0988E290E06EE370E08E
:102170004FEF0E942D0988E290E064E470E04FEF99
:102180000E942D0988E290E06AE470E04FEF0E941F
:102190002D0988E290E06DE470E04FEF0E942D0978
:1021A00089E290E063E370E04FEF0E942D0989E23D
:1021B00090E064E370E04FEF0E942D0989E290E027
:1021C00065E370E04FEF0E942D0989E290E06EE335
:1021D00070E04FEF0E942D0989E290E064E470E026
:1021E0004FEF0E942D0989E290E06AE470E04FEF22
:1021F0000E942D0989E290E06DE470E04FEF0E94AB
:102200002D098AE290E063E370E04FEF0E942D0910
:102210008AE290E064E370E04FEF0E942D098AE2C9
:1022200090E065E370E04FEF0E942D098AE290E0B4
:102230006EE370E04FEF0E942D098AE290E064E4C3
:1022400070E04FEF0E942D098AE290E06AE470E0AE
:102250004FEF0E942D098AE290E06DE470E04FEFAD
:102260000E942D098BE290E063E370E04FEF0E9443
:102270002D098BE290E064E370E04FEF0E942D099E
:102280008BE290E065E370E04FEF0E942D098BE256
:1022900090E06EE370E04FEF0E942D098BE290E03A
:1022A0006DE470E04FEF0E942D098CE290E063E353
:1022B00070E04FEF0E942D098CE290E064E370E043
:1022C0004FEF0E942D098CE290E065E370E04FEF44
:1022D0000E942D098CE290E06EE370E04FEF0E94C7
:1022E0002D098CE290E06DE470E04FEF0E942D0923
:1022F0008DE290E063E370E04FEF0E942D098DE2E4
:1023000090E064E370E04FEF0E942D098DE290E0D1
:1023100065E370E04FEF0E942D098DE290E06EE3DF
:1023200070E04FEF0E942D098DE290E061E470E0D3
:102330004FEF0E942D098DE290E062E470E04FEFD4
:102340000E942D098DE290E063E470E04FEF0E945F
:102350002D098DE290E064E470E04FEF0E942D09BA
:102360008DE290E065E470E04FEF0E942D098DE270
:1023700090E066E470E04FEF0E942D098DE290E05E
:1023800067E470E04FEF0E942D098DE290E068E471
:1023900070E04FEF0E942D098DE290E069E470E05B
:1023A0004FEF0E942D098DE290E06AE470E04FEF5C
:1023B0000E942D098DE290E06DE470E04FEF0E94E5
:1023C0002D098EE290E067E170E04FEF0E942D0949
:1023D0008EE290E068E170E04FEF0E942D098EE2FE
:1023E00090E069E170E04FEF0E942D098EE290E0ED
:1023F0006AE170E04FEF0E942D098EE290E06BE100
:1024000070E04FEF0E942D098EE290E06CE170E0E9
:102410004FEF0E942D098EE290E06DE170E04FEFEA
:102420000E942D098EE290E06EE170E04FEF0E9475
:102430002D098EE290E06FE170E04FEF0E942D09D0
:102440008EE290E060E270E04FEF0E942D098EE294
:1024500090E061E270E04FEF0E942D098EE290E083
:1024600062E270E04FEF0E942D098EE290E063E29D
:1024700070E04FEF0E942D098EE290E064E270E080
:102480004FEF0E942D098EE290E065E270E04FEF81
:102490000E942D098EE290E066E270E04FEF0E940C
:1024A0002D098EE290E067E270E04FEF0E942D0967
:1024B0008EE290E068E270E04FEF0E942D098EE21C
:1024C00090E069E270E04FEF0E942D098EE290E00B
:1024D0006AE270E04FEF0E942D098EE290E06BE21D
:1024E00070E04FEF0E942D098EE290E06CE270E008
:1024F0004FEF0E942D098EE290E06DE270E04FEF09
:102500000E942D098EE290E06EE270E04FEF0E9493
:102510002D098EE290E06FE270E04FEF0E942D09EE
:102520008EE290E060E370E04FEF0E942D098EE2B2
:1025300090E061E370E04FEF0E942D098EE290E0A1
:1025400062E370E04FEF0E942D098EE290E063E3BA
:1025500070E04FEF0E942D098EE290E064E370E09E
:102560004FEF0E942D098EE290E065E370E04FEF9F
:102570000E942D098EE290E06EE370E04FEF0E9422
:102580002D098EE290E065E470E04FEF0E942D0986
:102590008EE290E06DE470E04FEF0E942D098FE233
:1025A00090E066E170E04FEF0E942D098FE290E02D
:1025B00067E170E04FEF0E942D098FE290E068E143
:1025C00070E04FEF0E942D098FE290E069E170E02A
:1025D0004FEF0E942D098FE290E06AE170E04FEF2B
:1025E0000E942D098FE290E06BE170E04FEF0E94B6
:1025F0002D098FE290E06CE170E04FEF0E942D0911
:102600008FE290E06DE170E04FEF0E942D098FE2C4
:1026100090E06EE170E04FEF0E942D098FE290E0B4
:102620006FE170E04FEF0E942D098FE290E060E2D1
:1026300070E04FEF0E942D098FE290E061E270E0C0
:102640004FEF0E942D098FE290E062E270E04FEFC1
:102650000E942D098FE290E063E270E04FEF0E944C
:102660002D098FE290E064E270E04FEF0E942D09A7
:102670008FE290E065E270E04FEF0E942D098FE25B
:1026800090E066E270E04FEF0E942D098FE290E04B
:1026900067E270E04FEF0E942D098FE290E068E260
:1026A00070E04FEF0E942D098FE290E069E270E048
:1026B0004FEF0E942D098FE290E06AE270E04FEF49
:1026C0000E942D098FE290E06BE270E04FEF0E94D4
:1026D0002D098FE290E06CE270E04FEF0E942D092F
:1026E0008FE290E06DE270E04FEF0E942D098FE2E3
:1026F00090E06EE270E04FEF0E942D098FE290E0D3
:102700006FE270E04FEF0E942D098FE290E060E3EE
:1027100070E04FEF0E942D098FE290E061E370E0DE
:102720004FEF0E942D098FE290E062E370E04FEFDF
:102730000E942D098FE290E063E370E04FEF0E946A
:102740002D098FE290E064E370E04FEF0E942D09C5
:102750008FE290E065E370E04FEF0E942D098FE279
:1027600090E06EE370E04FEF0E942D098FE290E061
:1027700064E470E04FEF0E942D098FE290E06DE479
:1027800070E04FEF0E942D0980E390E066E170E079
:102790004FEF0E942D0980E390E067E170E04FEF7A
:1027A0000E942D0980E390E068E170E04FEF0E9405
:1027B0002D0980E390E069E170E04FEF0E942D0960
:1027C00080E390E06AE170E04FEF0E942D0980E322
:1027D00090E06BE170E04FEF0E942D0980E390E004
:1027E0006CE170E04FEF0E942D0980E390E06DE115
:1027F00070E04FEF0E942D0980E390E06EE170E001
:102800004FEF0E942D0980E390E06FE170E04FEF01
:102810000E942D0980E390E060E270E04FEF0E949B
:102820002D0980E390E061E270E04FEF0E942D09F6
:1028300080E390E062E270E04FEF0E942D0980E3B8
:1028400090E063E270E04FEF0E942D0980E390E09A
:1028500064E270E04FEF0E942D0980E390E065E2B2
:1028600070E04FEF0E942D0980E390E066E270E097
:102870004FEF0E942D0980E390E067E270E04FEF98
:102880000E942D0980E390E068E270E04FEF0E9423
:102890002D0980E390E069E270E04FEF0E942D097E
:1028A00080E390E06AE270E04FEF0E942D0980E340
:1028B00090E06BE270E04FEF0E942D0980E390E022
:1028C0006CE270E04FEF0E942D0980E390E06DE232
:1028D00070E04FEF0E942D0980E390E06EE270E01F
:1028E0004FEF0E942D0980E390E06FE270E04FEF20
:1028F0000E942D0980E390E060E370E04FEF0E94BA
:102900002D0980E390E061E370E04FEF0E942D0914
:1029100080E390E062E370E04FEF0E942D0980E3D6
:1029200090E063E370E04FEF0E942D0980E390E0B8
:1029300064E370E04FEF0E942D0980E390E06EE3C6
:1029400070E04FEF0E942D0980E390E064E470E0B6
:102950004FEF0E942D0980E390E06DE470E04FEFAF
:102960000E942D0981E390E066E170E04FEF0E9444
:102970002D0981E390E067E170E04FEF0E942D099F
:1029800081E390E068E170E04FEF0E942D0981E360
:1029900090E06EE370E04FEF0E942D0981E390E03C
:1029A00064E470E04FEF0E942D0981E390E06DE454
:1029B00070E04FEF0E942D0982E390E066E170E045
:1029C0004FEF0E942D0982E390E067E170E04FEF46
:1029D0000E942D0982E390E068E170E04FEF0E94D1
:1029E0002D0982E390E06EE370E04FEF0E942D0925
:1029F00082E390E065E470E04FEF0E942D0982E3EE
:102A000090E066E470E04FEF0E942D0982E390E0D1
:102A100067E470E04FEF0E942D0982E390E068E4E4
:102A200070E04FEF0E942D0982E390E069E470E0CE
:102A30004FEF0E942D0982E390E06AE470E04FEFCF
:102A40000E942D0982E390E06DE470E04FEF0E9458
:102A50002D0983E390E06DE070E04FEF0E942D09B7
:102A600083E390E06EE070E04FEF0E942D0983E376
:102A700090E066E170E04FEF0E942D0983E390E063
:102A800067E170E04FEF0E942D0983E390E068E179
:102A900070E04FEF0E942D0983E390E06EE370E059
:102AA0004FEF0E942D0983E390E06DE470E04FEF5B
:102AB0000E942D0984E390E06AE070E04FEF0E94ED
:102AC0002D0984E390E06BE070E04FEF0E942D0948
:102AD00084E390E06CE070E04FEF0E942D0984E306
:102AE00090E06DE070E04FEF0E942D0984E390E0EC
:102AF0006EE070E04FEF0E942D0984E390E06FE0FC
:102B000070E04FEF0E942D0984E390E060E170E0F7
:102B10004FEF0E942D0984E390E061E170E04FEFF8
:102B20000E942D0984E390E066E170E04FEF0E947F
:102B30002D0984E390E067E170E04FEF0E942D09DA
:102B400084E390E068E170E04FEF0E942D0984E398
:102B500090E06EE370E04FEF0E942D0984E390E077
:102B60006DE470E04FEF0E942D0985E390E069E08D
:102B700070E04FEF0E942D0985E390E06AE070E07D
:102B80004FEF0E942D0985E390E06BE070E04FEF7E
:102B90000E942D0985E390E06CE070E04FEF0E9409
:102BA0002D0985E390E06DE070E04FEF0E942D0964
:102BB00085E390E06EE070E04FEF0E942D0985E321
:102BC00090E06FE070E04FEF0E942D0985E390E008
:102BD00060E170E04FEF0E942D0985E390E061E134
:102BE00070E04FEF0E942D0985E390E062E170E014
:102BF0004FEF0E942D0985E390E066E170E04FEF12
:102C00000E942D0985E390E067E170E04FEF0E949C
:102C10002D0985E390E068E170E04FEF0E942D09F7
:102C200085E390E06EE370E04FEF0E942D0985E3AD
:102C300090E06DE470E04FEF0E942D0986E390E094
:102C400068E070E04FEF0E942D0986E390E069E0B4
:102C500070E04FEF0E942D0986E390E06AE070E09B
:102C60004FEF0E942D0986E390E061E170E04FEFA5
:102C70000E942D0986E390E062E170E04FEF0E9430
:102C80002D0986E390E063E170E04FEF0E942D098B
:102C900086E390E066E170E04FEF0E942D0986E345
:102CA00090E067E170E04FEF0E942D0986E390E02D
:102CB00068E170E04FEF0E942D0986E390E06EE33B
:102CC00070E04FEF0E942D0986E390E06DE470E024
:102CD0004FEF0E942D0987E390E068E070E04FEF2E
:102CE0000E942D0987E390E069E070E04FEF0E94B9
:102CF0002D0987E390E062E170E04FEF0E942D091B
:102D000087E390E063E170E04FEF0E942D0987E3D5
:102D100090E066E170E04FEF0E942D0987E390E0BC
:102D200067E170E04FEF0E942D0987E390E068E1D2
:102D300070E04FEF0E942D0987E390E06EE370E0B2
:102D40004FEF0E942D0987E390E06DE470E04FEFB4
:102D50000E942D0988E390E067E070E04FEF0E9449
:102D60002D0988E390E068E070E04FEF0E942D09A4
:102D700088E390E069E070E04FEF0E942D0988E35E
:102D800090E062E170E04FEF0E942D0988E390E04F
:102D900063E170E04FEF0E942D0988E390E064E169
:102DA00070E04FEF0E942D0988E390E066E170E04B
:102DB0004FEF0E942D0988E390E067E170E04FEF4C
:102DC0000E942D0988E390E068E170E04FEF0E94D7
:102DD0002D0988E390E06EE370E04FEF0E942D092B
:102DE00088E390E06DE470E04FEF0E942D0989E3E5
:102DF00090E067E070E04FEF0E942D0989E390E0DA
:102E000068E070E04FEF0E942D0989E390E069E0EF
:102E100070E04FEF0E942D0989E390E062E170E0DD
:102E20004FEF0E942D0989E390E063E170E04FEFDE
:102E30000E942D0989E390E064E170E04FEF0E9469
:102E40002D0989E390E066E170E04FEF0E942D09C3
:102E500089E390E067E170E04FEF0E942D0989E37C
:102E600090E068E170E04FEF0E942D0989E390E067
:102E70006EE370E04FEF0E942D0989E390E06DE46E
:102E800070E04FEF0E942D098AE390E067E070E068
:102E90004FEF0E942D098AE390E068E070E04FEF69
:102EA0000E942D098AE390E069E070E04FEF0E94F4
:102EB0002D098AE390E062E170E04FEF0E942D0956
:102EC0008AE390E063E170E04FEF0E942D098AE30E
:102ED00090E064E170E04FEF0E942D098AE390E0FA
:102EE00066E170E04FEF0E942D098AE390E067E110
:102EF00070E04FEF0E942D098AE390E068E170E0F6
:102F00004FEF0E942D098AE390E06EE370E04FEFEF
:102F10000E942D098AE390E06DE470E04FEF0E947B
:102F20002D098BE390E068E070E04FEF0E942D09DF
:102F30008BE390E069E070E04FEF0E942D098BE396
:102F400090E062E170E04FEF0E942D098BE390E08A
:102F500063E170E04FEF0E942D098BE390E066E1A2
:102F600070E04FEF0E942D098BE390E067E170E085
:102F70004FEF0E942D098BE390E068E170E04FEF86
:102F80000E942D098BE390E06EE370E04FEF0E940A
:102F90002D098BE390E06DE470E04FEF0E942D0966
:102FA0008CE390E068E070E04FEF0E942D098CE325
:102FB00090E069E070E04FEF0E942D098CE390E013
:102FC0006AE070E04FEF0E942D098CE390E061E130
:102FD00070E04FEF0E942D098CE390E062E170E019
:102FE0004FEF0E942D098CE390E063E170E04FEF1A
:102FF0000E942D098CE390E066E170E04FEF0E94A3
:103000002D098CE390E067E170E04FEF0E942D09FD
:103010008CE390E068E170E04FEF0E942D098CE3B3
:1030200090E06EE370E04FEF0E942D098CE390E09A
:1030300064E470E04FEF0E942D098CE390E06DE4B2
:1030400070E04FEF0E942D098DE390E069E070E0A1
:103050004FEF0E942D098DE390E06AE070E04FEFA2
:103060000E942D098DE390E06BE070E04FEF0E942D
:103070002D098DE390E06CE070E04FEF0E942D0988
:103080008DE390E06DE070E04FEF0E942D098DE33D
:1030900090E06EE070E04FEF0E942D098DE390E02C
:1030A0006FE070E04FEF0E942D098DE390E060E14A
:1030B00070E04FEF0E942D098DE390E061E170E038
:1030C0004FEF0E942D098DE390E062E170E04FEF39
:1030D0000E942D098DE390E066E170E04FEF0E94C1
:1030E0002D098DE390E067E170E04FEF0E942D091C
:1030F0008DE390E068E170E04FEF0E942D098DE3D1
:1031000090E06EE370E04FEF0E942D098DE390E0B8
:1031100064E470E04FEF0E942D098DE390E06DE4D0
:1031200070E04FEF0E942D098EE390E06AE070E0BE
:103130004FEF0E942D098EE390E06BE070E04FEFBF
:103140000E942D098EE390E06CE070E04FEF0E944A
:103150002D098EE390E06DE070E04FEF0E942D09A5
:103160008EE390E06EE070E04FEF0E942D098EE359
:1031700090E06FE070E04FEF0E942D098EE390E049
:1031800060E170E04FEF0E942D098EE390E061E175
:1031900070E04FEF0E942D098EE390E066E170E051
:1031A0004FEF0E942D098EE390E067E170E04FEF52
:1031B0000E942D098EE390E068E170E04FEF0E94DD
:1031C0002D098EE390E06EE370E04FEF0E942D0931
:1031D0008EE390E063E470E04FEF0E942D098EE3F0
:1031E00090E064E470E04FEF0E942D098EE390E0E0
:1031F00065E470E04FEF0E942D098EE390E066E4F5
:1032000070E04FEF0E942D098EE390E067E470E0DC
:103210004FEF0E942D098EE390E068E470E04FEFDD
:103220000E942D098EE390E069E470E04FEF0E9468
:103230002D098EE390E06DE470E04FEF0E942D09C0
:103240008FE390E06DE070E04FEF0E942D098FE377
:1032500090E06EE070E04FEF0E942D098FE390E068
:1032600066E170E04FEF0E942D098FE390E067E187
:1032700070E04FEF0E942D098FE390E068E170E06D
:103280004FEF0E942D098FE390E06EE370E04FEF67
:103290000E942D098FE390E064E470E04FEF0E94FC
:1032A0002D098FE390E06AE470E04FEF0E942D0952
:1032B0008FE390E06DE470E04FEF0E942D0980E411
:1032C00090E066E170E04FEF0E942D0980E490E00D
:1032D00067E170E04FEF0E942D0980E490E068E123
:1032E00070E04FEF0E942D0980E490E06EE370E003
:1032F0004FEF0E942D0980E490E064E470E04FEF0E
:103300000E942D0980E490E06AE470E04FEF0E9493
:103310002D0980E490E06DE470E04FEF0E942D09EC
:1033200081E490E066E170E04FEF0E942D0981E4B6
:1033300090E067E170E04FEF0E942D0981E490E09A
:1033400068E170E04FEF0E942D0981E490E06EE3A8
:1033500070E04FEF0E942D0981E490E064E470E09A
:103360004FEF0E942D0981E490E06AE470E04FEF96
:103370000E942D0981E490E06DE470E04FEF0E941F
:103380002D0982E490E06AE070E04FEF0E942D0981
:1033900082E490E06BE070E04FEF0E942D0982E440
:1033A00090E06CE070E04FEF0E942D0982E490E025
:1033B0006DE070E04FEF0E942D0982E490E06EE036
:1033C00070E04FEF0E942D0982E490E06FE070E022
:1033D0004FEF0E942D0982E490E060E170E04FEF32
:1033E0000E942D0982E490E061E170E04FEF0E94BD
:1033F0002D0982E490E062E170E04FEF0E942D0918
:1034000082E490E063E170E04FEF0E942D0982E4D6
:1034100090E064E170E04FEF0E942D0982E490E0BB
:1034200066E170E04FEF0E942D0982E490E067E1D1
:1034300070E04FEF0E942D0982E490E068E170E0B7
:103440004FEF0E942D0982E490E06EE370E04FEFB1
:103450000E942D0982E490E06DE470E04FEF0E943D
:103460002D0983E490E06AE070E04FEF0E942D099F
:1034700083E490E06BE070E04FEF0E942D0983E45D
:1034800090E06CE070E04FEF0E942D0983E490E043
:103490006DE070E04FEF0E942D0983E490E06EE054
:1034A00070E04FEF0E942D0983E490E06FE070E040
:1034B0004FEF0E942D0983E490E060E170E04FEF50
:1034C0000E942D0983E490E061E170E04FEF0E94DB
:1034D0002D0983E490E062E170E04FEF0E942D0936
:1034E00083E490E063E170E04FEF0E942D0983E4F4
:1034F00090E064E170E04FEF0E942D0983E490E0DA
:1035000066E170E04FEF0E942D0983E490E067E1EF
:1035100070E04FEF0E942D0983E490E068E170E0D5
:103520004FEF0E942D0983E490E06EE370E04FEFCF
:103530000E942D0983E490E06DE470E04FEF0E945B
:103540002D0984E490E06AE070E04FEF0E942D09BD
:1035500084E490E06BE070E04FEF0E942D0984E47A
:1035600090E06CE070E04FEF0E942D0984E490E061
:103570006DE070E04FEF0E942D0984E490E06EE072
:1035800070E04FEF0E942D0984E490E06FE070E05E
:103590004FEF0E942D0984E490E060E170E04FEF6E
:1035A0000E942D0984E490E061E170E04FEF0E94F9
:1035B0002D0984E490E062E170E04FEF0E942D0954
:1035C00084E490E063E170E04FEF0E942D0984E411
:1035D00090E064E170E04FEF0E942D0984E490E0F8
:1035E00066E170E04FEF0E942D0984E490E067E10E
:1035F00070E04FEF0E942D0984E490E068E170E0F4
:103600004FEF0E942D0984E490E06EE370E04FEFED
:103610000E942D0984E490E06DE470E04FEF0E9479
:103620002D0985E490E066E170E04FEF0E942D09DE
:1036300085E490E067E170E04FEF0E942D0985E49A
:1036400090E068E170E04FEF0E942D0985E490E082
:103650006EE370E04FEF0E942D0985E490E065E491
:1036600070E04FEF0E942D0985E490E066E470E081
:103670004FEF0E942D0985E490E067E470E04FEF82
:103680000E942D0985E490E068E470E04FEF0E940D
:103690002D0985E490E069E470E04FEF0E942D0968
:1036A00085E490E06DE470E04FEF0E942D0986E420
:1036B00090E06BE070E04FEF0E942D0986E490E00F
:1036C00066E170E04FEF0E942D0986E490E067E12B
:1036D00070E04FEF0E942D0986E490E068E170E011
:1036E0004FEF0E942D0986E490E06EE370E04FEF0B
:1036F0000E942D0986E490E064E470E04FEF0E94A0
:103700002D0986E490E06AE470E04FEF0E942D09F5
:1037100086E490E06DE470E04FEF0E942D0987E4AD
:1037200090E06BE070E04FEF0E942D0987E490E09D
:1037300066E170E04FEF0E942D0987E490E067E1B9
:1037400070E04FEF0E942D0987E490E068E170E09F
:103750004FEF0E942D0987E490E06EE370E04FEF99
:103760000E942D0987E490E064E470E04FEF0E942E
:103770002D0987E490E06AE470E04FEF0E942D0984
:1037800087E490E06DE470E04FEF0E942D0988E43B
:1037900090E06AE070E04FEF0E942D0988E490E02D
:1037A0006BE070E04FEF0E942D0988E490E066E145
:1037B00070E04FEF0E942D0988E490E067E170E02F
:1037C0004FEF0E942D0988E490E068E170E04FEF30
:1037D0000E942D0988E490E06EE370E04FEF0E94B4
:1037E0002D0988E490E064E470E04FEF0E942D0919
:1037F00088E490E06AE470E04FEF0E942D0988E4CD
:1038000090E06DE470E04FEF0E942D0989E490E0B4
:103810006BE070E04FEF0E942D0989E490E06CE0CE
:1038200070E04FEF0E942D0989E490E06DE070E0B8
:103830004FEF0E942D0989E490E06EE070E04FEFB9
:103840000E942D0989E490E06FE070E04FEF0E9444
:103850002D0989E490E060E170E04FEF0E942D09AE
:1038600089E490E061E170E04FEF0E942D0989E466
:1038700090E062E170E04FEF0E942D0989E490E052
:1038800063E170E04FEF0E942D0989E490E064E16C
:1038900070E04FEF0E942D0989E490E066E170E04E
:1038A0004FEF0E942D0989E490E067E170E04FEF4F
:1038B0000E942D0989E490E068E170E04FEF0E94DA
:1038C0002D0989E490E06EE370E04FEF0E942D092E
:1038D00089E490E064E470E04FEF0E942D0989E4F0
:1038E00090E06AE470E04FEF0E942D0989E490E0D7
:1038F0006DE470E04FEF0E942D098AE490E06BE0E8
:1039000070E04FEF0E942D098AE490E06CE070E0D7
:103910004FEF0E942D098AE490E06DE070E04FEFD8
:103920000E942D098AE490E06EE070E04FEF0E9463
:103930002D098AE490E06FE070E04FEF0E942D09BE
:103940008AE490E060E170E04FEF0E942D098AE484
:1039500090E061E170E04FEF0E942D098AE490E071
:1039600062E170E04FEF0E942D098AE490E063E18C
:1039700070E04FEF0E942D098AE490E064E170E06E
:103980004FEF0E942D098AE490E066E170E04FEF6E
:103990000E942D098AE490E067E170E04FEF0E94F9
:1039A0002D098AE490E068E170E04FEF0E942D0954
:1039B0008AE490E06EE370E04FEF0E942D098AE404
:1039C00090E065E470E04FEF0E942D098AE490E0FA
:1039D00066E470E04FEF0E942D098AE490E067E40E
:1039E00070E04FEF0E942D098AE490E068E470E0F7
:1039F0004FEF0E942D098AE490E069E470E04FEFF8
:103A00000E942D098AE490E06DE470E04FEF0E947F
:103A10002D098BE490E06DE070E04FEF0E942D09DE
:103A20008BE490E06EE070E04FEF0E942D098BE494
:103A300090E06FE070E04FEF0E942D098BE490E082
:103A400060E170E04FEF0E942D098BE490E061E1AE
:103A500070E04FEF0E942D098BE490E062E170E08E
:103A60004FEF0E942D098BE490E063E170E04FEF8F
:103A70000E942D098BE490E064E170E04FEF0E941A
:103A80002D098BE490E066E170E04FEF0E942D0974
:103A90008BE490E067E170E04FEF0E942D098BE42A
:103AA00090E068E170E04FEF0E942D098BE490E018
:103AB0006EE370E04FEF0E942D098BE490E06DE41F
:103AC00070E04FEF0E942D098CE490E066E170E019
:103AD0004FEF0E942D098CE490E067E170E04FEF1A
:103AE0000E942D098CE490E068E170E04FEF0E94A5
:103AF0002D098CE490E06EE370E04FEF0E942D09F9
:103B00008CE490E06DE470E04FEF0E942D098DE4AD
:103B100090E066E170E04FEF0E942D098DE490E0A7
:103B200067E170E04FEF0E942D098DE490E068E1BD
:103B300070E04FEF0E942D098DE490E06EE370E09D
:103B40004FEF0E942D098DE490E06DE470E04FEF9F
:103B50000E942D098EE490E066E170E04FEF0E9434
:103B60002D098EE490E067E170E04FEF0E942D098F
:103B70008EE490E068E170E04FEF0E942D098EE442
:103B800090E06EE370E04FEF0E942D098EE490E02C
:103B90006DE470E04FEF0E942D098FE490E066E144
:103BA00070E04FEF0E942D098FE490E067E170E034
:103BB0004FEF0E942D098FE490E068E170E04FEF35
:103BC0000E942D098FE490E06EE370E04FEF0E94B9
:103BD0002D098FE490E06DE470E04FEF0E942D0915
:103BE00080E590E066E170E04FEF0E942D0980E5EE
:103BF00090E067E170E04FEF0E942D0980E590E0D2
:103C000068E170E04FEF0E942D0980E590E06EE3DF
:103C100070E04FEF0E942D0980E590E06DE470E0C8
:103C20004FEF0E942D0981E590E066E170E04FEFD3
:103C30000E942D0981E590E067E170E04FEF0E945E
:103C40002D0981E590E068E170E04FEF0E942D09B9
:103C500081E590E06EE370E04FEF0E942D0981E571
:103C600090E06DE470E04FEF0E942D0982E590E056
:103C700066E170E04FEF0E942D0982E590E067E178
:103C800070E04FEF0E942D0982E590E068E170E05E
:103C90004FEF0E942D0982E590E069E170E04FEF5F
:103CA0000E942D0982E590E06AE170E04FEF0E94EA
:103CB0002D0982E590E06BE170E04FEF0E942D0945
:103CC00082E590E06CE170E04FEF0E942D0982E503
:103CD00090E06DE170E04FEF0E942D0982E590E0E9
:103CE0006EE170E04FEF0E942D0982E590E06FE1F8
:103CF00070E04FEF0E942D0982E590E060E270E0F5
:103D00004FEF0E942D0982E590E061E270E04FEFF5
:103D10000E942D0982E590E062E270E04FEF0E9480
:103D20002D0982E590E063E270E04FEF0E942D09DB
:103D300082E590E064E270E04FEF0E942D0982E599
:103D400090E065E270E04FEF0E942D0982E590E07F
:103D500066E270E04FEF0E942D0982E590E067E295
:103D600070E04FEF0E942D0982E590E068E270E07C
:103D70004FEF0E942D0982E590E069E270E04FEF7D
:103D80000E942D0982E590E06AE270E04FEF0E9408
:103D90002D0982E590E06BE270E04FEF0E942D0963
:103DA00082E590E06CE270E04FEF0E942D0982E521
:103DB00090E06DE270E04FEF0E942D0982E590E007
:103DC0006EE270E04FEF0E942D0982E590E06FE215
:103DD00070E04FEF0E942D0982E590E060E370E013
:103DE0004FEF0E942D0982E590E061E370E04FEF14
:103DF0000E942D0982E590E062E370E04FEF0E949F
:103E00002D0982E590E063E370E04FEF0E942D09F9
:103E100082E590E064E370E04FEF0E942D0982E5B7
:103E200090E065E370E04FEF0E942D0982E590E09D
:103E30006EE370E04FEF0E942D0982E590E06DE4A3
:103E400070E04FEF0E942D0983E590E066E170E09D
:103E50004FEF0E942D0983E590E067E170E04FEF9E
:103E60000E942D0983E590E068E170E04FEF0E9429
:103E70002D0983E590E069E170E04FEF0E942D0984
:103E800083E590E06AE170E04FEF0E942D0983E541
:103E900090E06BE170E04FEF0E942D0983E590E028
:103EA0006CE170E04FEF0E942D0983E590E06DE139
:103EB00070E04FEF0E942D0983E590E06EE170E025
:103EC0004FEF0E942D0983E590E06FE170E04FEF26
:103ED0000E942D0983E590E060E270E04FEF0E94C0
:103EE0002D0983E590E061E270E04FEF0E942D091B
:103EF00083E590E062E270E04FEF0E942D0983E5D8
:103F000090E063E270E04FEF0E942D0983E590E0BE
:103F100064E270E04FEF0E942D0983E590E065E2D6
:103F200070E04FEF0E942D0983E590E066E270E0BB
:103F30004FEF0E942D0983E590E067E270E04FEFBC
:103F40000E942D0983E590E068E270E04FEF0E9447
:103F50002D0983E590E069E270E04FEF0E942D09A2
:103F600083E590E06AE270E04FEF0E942D0983E55F
:103F700090E06BE270E04FEF0E942D0983E590E046
:103F80006CE270E04FEF0E942D0983E590E06DE256
:103F900070E04FEF0E942D0983E590E06EE270E043
:103FA0004FEF0E942D0983E590E06FE270E04FEF44
:103FB0000E942D0983E590E060E370E04FEF0E94DE
:103FC0002D0983E590E061E370E04FEF0E942D0939
:103FD00083E590E062E370E04FEF0E942D0983E5F6
:103FE00090E063E370E04FEF0E942D0983E590E0DD
:103FF00064E370E04FEF0E942D0983E590E065E3F4
:1040000070E04FEF0E942D0983E590E066E370E0D9
:104010004FEF0E942D0983E590E06EE370E04FEFD3
:104020000E942D0983E590E06DE470E04FEF0E945F
:104030002D0984E590E067E170E04FEF0E942D09C3
:1040400084E590E068E170E04FEF0E942D0984E57F
:1040500090E069E170E04FEF0E942D0984E590E067
:104060006AE170E04FEF0E942D0984E590E06BE17A
:1040700070E04FEF0E942D0984E590E06CE170E064
:104080004FEF0E942D0984E590E06DE170E04FEF65
:104090000E942D0984E590E06EE170E04FEF0E94F0
:1040A0002D0984E590E06FE170E04FEF0E942D094B
:1040B00084E590E060E270E04FEF0E942D0984E516
:1040C00090E061E270E04FEF0E942D0984E590E0FE
:1040D00062E270E04FEF0E942D0984E590E063E218
:1040E00070E04FEF0E942D0984E590E064E270E0FB
:1040F0004FEF0E942D0984E590E065E270E04FEFFC
:104100000E942D0984E590E066E270E04FEF0E9486
:104110002D0984E590E067E270E04FEF0E942D09E1
:1041200084E590E068E270E04FEF0E942D0984E59D
:1041300090E069E270E04FEF0E942D0984E590E085
:104140006AE270E04FEF0E942D0984E590E06BE297
:1041500070E04FEF0E942D0984E590E06CE270E082
:104160004FEF0E942D0984E590E06DE270E04FEF83
:104170000E942D0984E590E06EE270E04FEF0E940E
:104180002D0984E590E06FE270E04FEF0E942D0969
:1041900084E590E060E370E04FEF0E942D0984E534
:1041A00090E061E370E04FEF0E942D0984E590E01C
:1041B00062E370E04FEF0E942D0984E590E063E335
:1041C00070E04FEF0E942D0984E590E064E370E019
:1041D0004FEF0E942D0984E590E065E370E04FEF1A
:1041E0000E942D0984E590E066E370E04FEF0E94A5
:1041F0002D0984E590E06EE370E04FEF0E942D09F9
:1042000084E590E06DE470E04FEF0E942D0985E5B4
:1042100090E064E370E04FEF0E942D0985E590E0A7
:1042200065E370E04FEF0E942D0985E590E066E3BD
:1042300070E04FEF0E942D0985E590E06EE370E09D
:104240004FEF0E942D0985E590E066E470E04FEFA6
:104250000E942D0985E590E067E470E04FEF0E9431
:104260002D0985E590E068E470E04FEF0E942D098C
:1042700085E590E06DE470E04FEF0E942D0986E542
:1042800090E064E370E04FEF0E942D0986E590E036
:1042900065E370E04FEF0E942D0986E590E066E34C
:1042A00070E04FEF0E942D0986E590E06EE370E02C
:1042B0004FEF0E942D0986E590E065E470E04FEF36
:1042C0000E942D0986E590E069E470E04FEF0E94BE
:1042D0002D0986E590E06DE470E04FEF0E942D0916
:1042E00087E590E064E370E04FEF0E942D0987E5D9
:1042F00090E065E370E04FEF0E942D0987E590E0C4
:1043000066E370E04FEF0E942D0987E590E06EE3D1
:1043100070E04FEF0E942D0987E590E064E470E0C3
:104320004FEF0E942D0987E590E06AE470E04FEFBF
:104330000E942D0987E590E06DE470E04FEF0E9448
:104340002D0988E590E06BE270E04FEF0E942D09A7
:1043500088E590E06CE270E04FEF0E942D0988E55F
:1043600090E064E370E04FEF0E942D0988E590E053
:1043700065E370E04FEF0E942D0988E590E066E369
:1043800070E04FEF0E942D0988E590E06EE370E049
:104390004FEF0E942D0988E590E064E470E04FEF54
:1043A0000E942D0988E590E06AE470E04FEF0E94DA
:1043B0002D0988E590E06DE470E04FEF0E942D0933
:1043C00089E590E068E270E04FEF0E942D0989E5F1
:1043D00090E069E270E04FEF0E942D0989E590E0DE
:1043E0006AE270E04FEF0E942D0989E590E06BE2F0
:1043F00070E04FEF0E942D0989E590E06CE270E0DB
:104400004FEF0E942D0989E590E06DE270E04FEFDB
:104410000E942D0989E590E06EE270E04FEF0E9466
:104420002D0989E590E06FE270E04FEF0E942D09C1
:1044300089E590E064E370E04FEF0E942D0989E583
:1044400090E065E370E04FEF0E942D0989E590E070
:1044500066E370E04FEF0E942D0989E590E06EE37E
:1044600070E04FEF0E942D0989E590E064E470E070
:104470004FEF0E942D0989E590E06AE470E04FEF6C
:104480000E942D0989E590E06DE470E04FEF0E94F5
:104490002D098AE590E067E270E04FEF0E942D0958
:1044A0008AE590E068E270E04FEF0E942D098AE50E
:1044B00090E069E270E04FEF0E942D098AE590E0FC
:1044C0006AE270E04FEF0E942D098AE590E06BE20E
:1044D00070E04FEF0E942D098AE590E06CE270E0F9
:1044E0004FEF0E942D098AE590E06DE270E04FEFFA
:1044F0000E942D098AE590E06EE270E04FEF0E9485
:104500002D098AE590E06FE270E04FEF0E942D09DF
:104510008AE590E060E370E04FEF0E942D098AE5A4
:1045200090E064E370E04FEF0E942D098AE590E08F
:1045300065E370E04FEF0E942D098AE590E066E3A5
:1045400070E04FEF0E942D098AE590E06EE370E085
:104550004FEF0E942D098AE590E064E470E04FEF90
:104560000E942D098AE590E06AE470E04FEF0E9416
:104570002D098AE590E06DE470E04FEF0E942D096F
:104580008BE590E066E270E04FEF0E942D098BE52D
:1045900090E067E270E04FEF0E942D098BE590E01C
:1045A00068E270E04FEF0E942D098BE590E06FE22A
:1045B00070E04FEF0E942D098BE590E060E370E022
:1045C0004FEF0E942D098BE590E061E370E04FEF23
:1045D0000E942D098BE590E064E370E04FEF0E94AC
:1045E0002D098BE590E065E370E04FEF0E942D0907
:1045F0008BE590E066E370E04FEF0E942D098BE5BC
:1046000090E06EE370E04FEF0E942D098BE590E0A3
:104610006DE470E04FEF0E942D098CE590E066E2BA
:1046200070E04FEF0E942D098CE590E067E270E0AA
:104630004FEF0E942D098CE590E060E370E04FEFB2
:104640000E942D098CE590E061E370E04FEF0E943D
:104650002D098CE590E064E370E04FEF0E942D0996
:104660008CE590E065E370E04FEF0E942D098CE54A
:1046700090E066E370E04FEF0E942D098CE590E03A
:104680006EE370E04FEF0E942D098CE590E06DE441
:1046900070E04FEF0E942D098DE590E065E270E03B
:1046A0004FEF0E942D098DE590E066E270E04FEF3C
:1046B0000E942D098DE590E067E270E04FEF0E94C7
:1046C0002D098DE590E060E370E04FEF0E942D0929
:1046D0008DE590E061E370E04FEF0E942D098DE5DC
:1046E00090E062E370E04FEF0E942D098DE590E0CD
:1046F00064E370E04FEF0E942D098DE590E065E3E3
:1047000070E04FEF0E942D098DE590E066E370E0C8
:104710004FEF0E942D098DE590E06EE370E04FEFC2
:104720000E942D098DE590E065E470E04FEF0E9456
:104730002D098DE590E066E470E04FEF0E942D09B1
:104740008DE590E067E470E04FEF0E942D098DE564
:1047500090E068E470E04FEF0E942D098DE590E055
:1047600069E470E04FEF0E942D098DE590E06DE463
:1047700070E04FEF0E942D098EE590E065E270E059
:104780004FEF0E942D098EE590E066E270E04FEF5A
:104790000E942D098EE590E067E270E04FEF0E94E5
:1047A0002D098EE590E060E370E04FEF0E942D0947
:1047B0008EE590E061E370E04FEF0E942D098EE5F9
:1047C00090E062E370E04FEF0E942D098EE590E0EB
:1047D00064E370E04FEF0E942D098EE590E065E301
:1047E00070E04FEF0E942D098EE590E066E370E0E7
:1047F0004FEF0E942D098EE590E06EE370E04FEFE1
:104800000E942D098EE590E064E470E04FEF0E9475
:104810002D098EE590E06AE470E04FEF0E942D09CB
:104820008EE590E06DE470E04FEF0E942D098FE57A
:1048300090E065E270E04FEF0E942D098FE590E077
:1048400066E270E04FEF0E942D098FE590E067E28D
:1048500070E04FEF0E942D098FE590E060E370E07B
:104860004FEF0E942D098FE590E061E370E04FEF7C
:104870000E942D098FE590E062E370E04FEF0E9407
:104880002D098FE590E064E370E04FEF0E942D0961
:104890008FE590E065E370E04FEF0E942D098FE512
:1048A00090E066E370E04FEF0E942D098FE590E005
:1048B0006EE370E04FEF0E942D098FE590E064E415
:1048C00070E04FEF0E942D098FE590E06AE470E000
:1048D0004FEF0E942D098FE590E06DE470E04FEFFF
:1048E0000E942D0980E690E066E270E04FEF0E94A2
:1048F0002D0980E690E067E270E04FEF0E942D09FD
:1049000080E690E060E370E04FEF0E942D0980E6C2
:1049100090E061E370E04FEF0E942D0980E690E0A7
:1049200064E370E04FEF0E942D0980E690E065E3BC
:1049300070E04FEF0E942D0980E690E066E370E0A2
:104940004FEF0E942D0980E690E06EE370E04FEF9C
:104950000E942D0980E690E064E470E04FEF0E9431
:104960002D0980E690E06AE470E04FEF0E942D0987
:1049700080E690E06DE470E04FEF0E942D0981E643
:1049800090E066E270E04FEF0E942D0981E690E032
:1049900067E270E04FEF0E942D0981E690E068E247
:1049A00070E04FEF0E942D0981E690E06FE270E029
:1049B0004FEF0E942D0981E690E060E370E04FEF39
:1049C0000E942D0981E690E061E370E04FEF0E94C4
:1049D0002D0981E690E064E370E04FEF0E942D091D
:1049E00081E690E065E370E04FEF0E942D0981E6DB
:1049F00090E066E370E04FEF0E942D0981E690E0C1
:104A00006EE370E04FEF0E942D0981E690E064E4D0
:104A100070E04FEF0E942D0981E690E06AE470E0BB
:104A20004FEF0E942D0981E690E06DE470E04FEFBA
:104A30000E942D0982E690E067E270E04FEF0E944D
:104A40002D0982E690E068E270E04FEF0E942D09A8
:104A500082E690E069E270E04FEF0E942D0982E665
:104A600090E06AE270E04FEF0E942D0982E690E04C
:104A70006BE270E04FEF0E942D0982E690E06CE25D
:104A800070E04FEF0E942D0982E690E06DE270E049
:104A90004FEF0E942D0982E690E06EE270E04FEF4A
:104AA0000E942D0982E690E06FE270E04FEF0E94D5
:104AB0002D0982E690E060E370E04FEF0E942D093F
:104AC00082E690E064E370E04FEF0E942D0982E6F9
:104AD00090E065E370E04FEF0E942D0982E690E0E0
:104AE00066E370E04FEF0E942D0982E690E06EE3EE
:104AF00070E04FEF0E942D0982E690E065E470E0DF
:104B00004FEF0E942D0982E690E066E470E04FEFDF
:104B10000E942D0982E690E067E470E04FEF0E946A
:104B20002D0982E690E068E470E04FEF0E942D09C5
:104B300082E690E069E470E04FEF0E942D0982E682
:104B400090E06DE470E04FEF0E942D0983E690E065
:104B500068E270E04FEF0E942D0983E690E069E281
:104B600070E04FEF0E942D0983E690E06AE270E06A
:104B70004FEF0E942D0983E690E06BE270E04FEF6B
:104B80000E942D0983E690E06CE270E04FEF0E94F6
:104B90002D0983E690E06DE270E04FEF0E942D0951
:104BA00083E690E06EE270E04FEF0E942D0983E60D
:104BB00090E06FE270E04FEF0E942D0983E690E0F5
:104BC00064E370E04FEF0E942D0983E690E065E317
:104BD00070E04FEF0E942D0983E690E066E370E0FD
:104BE0004FEF0E942D0983E690E06EE370E04FEFF7
:104BF0000E942D0983E690E06DE470E04FEF0E9483
:104C00002D0984E690E06BE270E04FEF0E942D09E1
:104C100084E690E06CE270E04FEF0E942D0984E69C
:104C200090E064E370E04FEF0E942D0984E690E08D
:104C300065E370E04FEF0E942D0984E690E066E3A3
:104C400070E04FEF0E942D0984E690E06EE370E083
:104C50004FEF0E942D0984E690E06DE470E04FEF85
:104C60000E942D0985E690E064E370E04FEF0E941A
:104C70002D0985E690E065E370E04FEF0E942D0975
:104C800085E690E066E370E04FEF0E942D0985E62F
:104C900090E06EE370E04FEF0E942D0985E690E012
:104CA00064E470E04FEF0E942D0985E690E065E432
:104CB00070E04FEF0E942D0985E690E066E470E019
:104CC0004FEF0E942D0985E690E067E470E04FEF1A
:104CD0000E942D0985E690E068E470E04FEF0E94A5
:104CE0002D0985E690E069E470E04FEF0E942D0900
:104CF00085E690E06AE470E04FEF0E942D0985E6BA
:104D000090E06DE470E04FEF0E942D0986E690E0A0
:104D100068E270E04FEF0E942D0986E690E069E2BC
:104D200070E04FEF0E942D0986E690E064E370E0AA
:104D30004FEF0E942D0986E690E065E370E04FEFAB
:104D40000E942D0986E690E066E370E04FEF0E9436
:104D50002D0986E690E06EE370E04FEF0E942D098A
:104D600086E690E065E470E04FEF0E942D0986E64C
:104D700090E06DE470E04FEF0E942D0987E690E02F
:104D800067E270E04FEF0E942D0987E690E068E24D
:104D900070E04FEF0E942D0987E690E069E270E035
:104DA0004FEF0E942D0987E690E06AE270E04FEF36
:104DB0000E942D0987E690E06BE270E04FEF0E94C1
:104DC0002D0987E690E06CE270E04FEF0E942D091C
:104DD00087E690E06DE270E04FEF0E942D0987E6D4
:104DE00090E06EE270E04FEF0E942D0987E690E0C0
:104DF0006FE270E04FEF0E942D0987E690E060E3DC
:104E000070E04FEF0E942D0987E690E061E370E0CB
:104E10004FEF0E942D0987E690E062E370E04FEFCC
:104E20000E942D0987E690E064E370E04FEF0E9456
:104E30002D0987E690E065E370E04FEF0E942D09B1
:104E400087E690E066E370E04FEF0E942D0987E669
:104E500090E06EE370E04FEF0E942D0987E690E04E
:104E600064E470E04FEF0E942D0987E690E06DE466
:104E700070E04FEF0E942D0988E690E066E270E056
:104E80004FEF0E942D0988E690E067E270E04FEF57
:104E90000E942D0988E690E068E270E04FEF0E94E2
:104EA0002D0988E690E069E270E04FEF0E942D093D
:104EB00088E690E06AE270E04FEF0E942D0988E6F4
:104EC00090E06BE270E04FEF0E942D0988E690E0E1
:104ED0006CE270E04FEF0E942D0988E690E06DE2F1
:104EE00070E04FEF0E942D0988E690E06EE270E0DE
:104EF0004FEF0E942D0988E690E06FE270E04FEFDF
:104F00000E942D0988E690E060E370E04FEF0E9478
:104F10002D0988E690E061E370E04FEF0E942D09D3
:104F200088E690E062E370E04FEF0E942D0988E68A
:104F300090E064E370E04FEF0E942D0988E690E076
:104F400065E370E04FEF0E942D0988E690E066E38C
:104F500070E04FEF0E942D0988E690E06EE370E06C
:104F60004FEF0E942D0988E690E064E470E04FEF77
:104F70000E942D0988E690E06DE470E04FEF0E94FA
:104F80002D0989E690E065E270E04FEF0E942D095F
:104F900089E690E066E270E04FEF0E942D0989E615
:104FA00090E067E270E04FEF0E942D0989E690E003
:104FB00068E270E04FEF0E942D0989E690E069E217
:104FC00070E04FEF0E942D0989E690E06AE270E000
:104FD0004FEF0E942D0989E690E06BE270E04FEF01
:104FE0000E942D0989E690E06CE270E04FEF0E948C
:104FF0002D0989E690E06DE270E04FEF0E942D09E7
:1050000089E690E06EE270E04FEF0E942D0989E69C
:1050100090E06FE270E04FEF0E942D0989E690E08A
:1050200060E370E04FEF0E942D0989E690E061E3B4
:1050300070E04FEF0E942D0989E690E062E370E096
:105040004FEF0E942D0989E690E064E370E04FEF96
:105050000E942D0989E690E065E370E04FEF0E9421
:105060002D0989E690E066E370E04FEF0E942D097C
:1050700089E690E06EE370E04FEF0E942D0989E62B
:1050800090E064E470E04FEF0E942D0989E690E023
:105090006DE470E04FEF0E942D098AE690E065E232
:1050A00070E04FEF0E942D098AE690E066E270E022
:1050B0004FEF0E942D098AE690E068E270E04FEF22
:1050C0000E942D098AE690E069E270E04FEF0E94AD
:1050D0002D098AE690E064E370E04FEF0E942D090D
:1050E0008AE690E065E370E04FEF0E942D098AE6C2
:1050F00090E066E370E04FEF0E942D098AE690E0B1
:105100006EE370E04FEF0E942D098AE690E065E4BF
:1051100070E04FEF0E942D098AE690E066E470E0AF
:105120004FEF0E942D098AE690E067E470E04FEFB0
:105130000E942D098AE690E068E470E04FEF0E943B
:105140002D098AE690E069E470E04FEF0E942D0996
:105150008AE690E06AE470E04FEF0E942D098AE64B
:1051600090E06DE470E04FEF0E942D098BE690E037
:1051700065E270E04FEF0E942D098BE690E066E259
:1051800070E04FEF0E942D098BE690E068E270E03E
:105190004FEF0E942D098BE690E069E270E04FEF3F
:1051A0000E942D098BE690E064E370E04FEF0E94CF
:1051B0002D098BE690E065E370E04FEF0E942D092A
:1051C0008BE690E066E370E04FEF0E942D098BE6DE
:1051D00090E06EE370E04FEF0E942D098BE690E0C7
:1051E0006DE470E04FEF0E942D098CE690E068E2DC
:1051F00070E04FEF0E942D098CE690E069E270E0CC
:105200004FEF0E942D098CE690E064E370E04FEFD1
:105210000E942D098CE690E065E370E04FEF0E945C
:105220002D098CE690E066E370E04FEF0E942D09B7
:105230008CE690E06EE370E04FEF0E942D098CE663
:1052400090E064E470E04FEF0E942D098CE690E05E
:105250006DE470E04FEF0E942D098DE690E067E26B
:1052600070E04FEF0E942D098DE690E068E270E05B
:105270004FEF0E942D098DE690E069E270E04FEF5C
:105280000E942D098DE690E06AE270E04FEF0E94E7
:105290002D098DE690E06BE270E04FEF0E942D0942
:1052A0008DE690E06CE270E04FEF0E942D098DE6F4
:1052B00090E06DE270E04FEF0E942D098DE690E0E6
:1052C0006EE270E04FEF0E942D098DE690E06FE2F4
:1052D00070E04FEF0E942D098DE690E060E370E0F2
:1052E0004FEF0E942D098DE690E061E370E04FEFF3
:1052F0000E942D098DE690E062E370E04FEF0E947E
:105300002D098DE690E064E370E04FEF0E942D09D7
:105310008DE690E065E370E04FEF0E942D098DE689
:1053200090E066E370E04FEF0E942D098DE690E07B
:105330006EE370E04FEF0E942D098DE690E064E48B
:1053400070E04FEF0E942D098DE690E06DE470E073
:105350004FEF0E942D098EE690E066E270E04FEF7D
:105360000E942D098EE690E067E270E04FEF0E9408
:105370002D098EE690E068E270E04FEF0E942D0963
:105380008EE690E069E270E04FEF0E942D098EE614
:1053900090E06AE270E04FEF0E942D098EE690E007
:1053A0006BE270E04FEF0E942D098EE690E06CE218
:1053B00070E04FEF0E942D098EE690E06DE270E004
:1053C0004FEF0E942D098EE690E06EE270E04FEF05
:1053D0000E942D098EE690E06FE270E04FEF0E9490
:1053E0002D098EE690E060E370E04FEF0E942D09FA
:1053F0008EE690E061E370E04FEF0E942D098EE6AB
:1054000090E062E370E04FEF0E942D098EE690E09D
:1054100064E370E04FEF0E942D098EE690E065E3B3
:1054200070E04FEF0E942D098EE690E066E370E099
:105430004FEF0E942D098EE690E06EE370E04FEF93
:105440000E942D098EE690E063E470E04FEF0E9429
:105450002D098EE690E064E470E04FEF0E942D0984
:105460008EE690E065E470E04FEF0E942D098EE635
:1054700090E066E470E04FEF0E942D098EE690E028
:1054800067E470E04FEF0E942D098EE690E068E43B
:1054900070E04FEF0E942D098EE690E069E470E025
:1054A0004FEF0E942D098EE690E06DE470E04FEF23
:1054B0000E942D098FE690E065E270E04FEF0E94B8
:1054C0002D098FE690E066E270E04FEF0E942D0913
:1054D0008FE690E067E270E04FEF0E942D098FE6C3
:1054E00090E068E270E04FEF0E942D098FE690E0B7
:1054F00069E270E04FEF0E942D098FE690E06AE2CA
:1055000070E04FEF0E942D098FE690E06BE270E0B3
:105510004FEF0E942D098FE690E06CE270E04FEFB4
:105520000E942D098FE690E06DE270E04FEF0E943F
:105530002D098FE690E06EE270E04FEF0E942D099A
:105540008FE690E06FE270E04FEF0E942D098FE64A
:1055500090E060E370E04FEF0E942D098FE690E04D
:1055600061E370E04FEF0E942D098FE690E062E367
:1055700070E04FEF0E942D098FE690E064E370E049
:105580004FEF0E942D098FE690E065E370E04FEF4A
:105590000E942D098FE690E066E370E04FEF0E94D5
:1055A0002D098FE690E06EE370E04FEF0E942D0929
:1055B0008FE690E064E470E04FEF0E942D098FE6E3
:1055C00090E06AE470E04FEF0E942D098FE690E0D2
:1055D0006DE470E04FEF0E942D0980E790E065E2F6
:1055E00070E04FEF0E942D0980E790E066E270E0E6
:1055F0004FEF0E942D0980E790E068E270E04FEFE6
:105600000E942D0980E790E069E270E04FEF0E9470
:105610002D0980E790E064E370E04FEF0E942D09D0
:1056200080E790E065E370E04FEF0E942D0980E78E
:1056300090E066E370E04FEF0E942D0980E790E074
:105640006EE370E04FEF0E942D0980E790E064E484
:1056500070E04FEF0E942D0980E790E06AE470E06F
:105660004FEF0E942D0980E790E06DE470E04FEF6E
:105670000E942D0981E790E065E270E04FEF0E9403
:105680002D0981E790E066E270E04FEF0E942D095E
:1056900081E790E068E270E04FEF0E942D0981E71A
:1056A00090E069E270E04FEF0E942D0981E790E001
:1056B00064E370E04FEF0E942D0981E790E065E31D
:1056C00070E04FEF0E942D0981E790E066E370E003
:1056D0004FEF0E942D0981E790E06EE370E04FEFFD
:1056E0000E942D0981E790E064E470E04FEF0E9492
:1056F0002D0981E790E06AE470E04FEF0E942D09E8
:1057000081E790E06DE470E04FEF0E942D0982E7A1
:1057100090E064E370E04FEF0E942D0982E790E093
:1057200065E370E04FEF0E942D0982E790E066E3A9
:1057300070E04FEF0E942D0982E790E06EE370E089
:105740004FEF0E942D0982E790E06DE470E04FEF8B
:105750000E942D0983E790E064E370E04FEF0E9420
:105760002D0983E790E065E370E04FEF0E942D097B
:1057700083E790E066E370E04FEF0E942D0983E736
:1057800090E06EE370E04FEF0E942D0983E790E018
:105790006DE470E04FEF0E942D0984E790E064E330
:1057A00070E04FEF0E942D0984E790E065E370E020
:1057B0004FEF0E942D0984E790E066E370E04FEF21
:1057C0000E942D0984E790E06EE370E04FEF0E94A5
:1057D0002D0984E790E06DE470E04FEF0E942D0901
:1057E00085E790E064E370E04FEF0E942D0985E7C4
:1057F00090E065E370E04FEF0E942D0985E790E0AF
:1058000066E370E04FEF0E942D0985E790E06EE3BC
:1058100070E04FEF0E942D0985E790E064E470E0AE
:105820004FEF0E942D0985E790E06DE470E04FEFA7
:105830000E942D0986E790E068E170E04FEF0E943A
:105840002D0986E790E069E170E04FEF0E942D0995
:1058500086E790E06AE170E04FEF0E942D0986E74D
:1058600090E06BE170E04FEF0E942D0986E790E039
:105870006CE170E04FEF0E942D0986E790E06DE14A
:1058800070E04FEF0E942D0986E790E06EE170E036
:105890004FEF0E942D0986E790E06FE170E04FEF37
:1058A0000E942D0986E790E060E270E04FEF0E94D1
:1058B0002D0986E790E061E270E04FEF0E942D092C
:1058C00086E790E062E270E04FEF0E942D0986E7E4
:1058D00090E063E270E04FEF0E942D0986E790E0D0
:1058E00064E270E04FEF0E942D0986E790E065E2E8
:1058F00070E04FEF0E942D0986E790E066E270E0CD
:105900004FEF0E942D0986E790E067E270E04FEFCD
:105910000E942D0986E790E068E270E04FEF0E9458
:105920002D0986E790E069E270E04FEF0E942D09B3
:1059300086E790E06AE270E04FEF0E942D0986E76B
:1059400090E06BE270E04FEF0E942D0986E790E057
:105950006CE270E04FEF0E942D0986E790E06DE267
:1059600070E04FEF0E942D0986E790E06EE270E054
:105970004FEF0E942D0986E790E06FE270E04FEF55
:105980000E942D0986E790E060E370E04FEF0E94EF
:105990002D0986E790E061E370E04FEF0E942D094A
:1059A00086E790E062E370E04FEF0E942D0986E702
:1059B00090E063E370E04FEF0E942D0986E790E0EE
:1059C00064E370E04FEF0E942D0986E790E065E305
:1059D00070E04FEF0E942D0986E790E066E370E0EB
:1059E0004FEF0E942D0986E790E06EE370E04FEFE5
:1059F0000E942D0986E790E064E470E04FEF0E947A
:105A00002D0986E790E06DE470E04FEF0E942D09CC
:105A100087E790E067E170E04FEF0E942D0987E78C
:105A200090E068E170E04FEF0E942D0987E790E079
:105A300069E170E04FEF0E942D0987E790E06AE18D
:105A400070E04FEF0E942D0987E790E06BE170E076
:105A50004FEF0E942D0987E790E06CE170E04FEF77
:105A60000E942D0987E790E06DE170E04FEF0E9402
:105A70002D0987E790E06EE170E04FEF0E942D095D
:105A800087E790E06FE170E04FEF0E942D0987E714
:105A900090E060E270E04FEF0E942D0987E790E010
:105AA00061E270E04FEF0E942D0987E790E062E22B
:105AB00070E04FEF0E942D0987E790E063E270E00D
:105AC0004FEF0E942D0987E790E064E270E04FEF0E
:105AD0000E942D0987E790E065E270E04FEF0E9499
