:100000000C944A000C9461000C9461000C94610003
:100010000C9461000C9461000C9461000C946100DC
:100020000C9461000C9461000C9461000C946100CC
:100030000C9461000C9461000C9461000C946100BC
:100040000C9461000C9461000C9461000C946100AC
:100050000C9461000C9461000C9461000C9461009C
:100060000C9461000C9461000C9461000C9461008C
:100070000C9461000C9461000C9461000C9461007C
:100080000C9461000C9461000C9461000C9461006C
:100090000C94610011241FBECFEFD0E1DEBFCDBFB5
:1000A00011E0A0E0B1E0E2E5F2E000E00BBF02C049
:1000B00007900D92A030B107D9F70E9463000C940D
:1000C00027010C940000DF93CF9300D0CDB7DEB7AB
:1000D0001A8219820E94A50087E80E94B7009A83BD
:1000E0008983FACFDF93CF9300D0CDB7DEB781E01D
:1000F00090E09A83898306C0000089819A810196E5
:100100009A83898389819A818B3F9105ACF30F9003
:100110000F90CF91DF910895DF93CF93CDB7DEB7E6
:10012000A5E2B0E0E5E2F0E080818E7F8C930E9452
:100130007200A5E2B0E0E5E2F0E0808181608C939E
:100140000E947200CF91DF910895DF93CF93CDB7D6
:10015000DEB7E4E2F0E085E08083A4E2B0E0E4E230
:10016000F0E080818F7E8C93CF91DF910895DF93B3
:10017000CF9300D000D00F92CDB7DEB78D831C8215
:100180001B821A8226C08D81482F50E08A81282F39
:1001900030E080E890E0022E02C0959587950A94A1
:1001A000E2F784239523009741F0A5E2B0E0E5E271
:1001B000F0E0808184608C9307C0A5E2B0E0E5E2C6
:1001C000F0E080818B7F8C930E948C008A818F5F0E
:1001D0008A838A818830B8F2A5E2B0E0E5E2F0E0F7
:1001E00080818B7F8C930E948C0019821FC0E3E278
:1001F000F0E08081882F90E080719070009789F006
:100200008981282F30E080E098E002C0959587959D
:100210002A95E2F79C018B819C81822B932B9C83F6
:100220008B830E948C0089818F5F898389818C30C8
:10023000F0F20E948C000E948C008B819C810F90B8
:100240000F900F900F900F90CF91DF910895F89439
:02025000FFCFDE
:00000001FF
