:1000000012C022C021C020C01FC01EC01EC01CC004
:100010001BC01AC019C018C017C016C015C014C024
:1000200013C012C011C011241FBECFEDCDBF10E010
:10003000A0E6B0E0EAEFF5E002C005900D92A2372D
:10004000B107D9F7B7D0D7C2DBCF1F920F920FB647
:100050000F9211242F933F938F939F93AF93BF934E
:10006000EF93FF93DF93CF93CDB7DEB7809160001E
:10007000909161008536910531F481E090E0909394
:100080006100809360008091600090916100009712
:10009000C9F02091600030916100809162009091E0
:1000A00063008217930770F0A8E3B0E0E8E3F0E0A4
:1000B000808181608C93A8E3B0E0E8E3F0E0808188
:1000C000897F8C9320916000309161008091620063
:1000D0009091630028173907F8F020916200309161
:1000E00063008091640090916500280F391F809112
:1000F0006000909161002817390770F0A8E3B0E024
:10010000E8E3F0E0808182608C93A8E3B0E0E8E36C
:10011000F0E080818A7F8C932091620030916300AF
:100120008091640090916500280F391F80916000D4
:10013000909161008217930728F12091620030911D
:1001400063008091640090916500280F391F8091B1
:10015000660090916700280F391F80916000909190
:1001600061002817390770F0A8E3B0E0E8E3F0E099
:10017000808184608C93A8E3B0E0E8E3F0E08081C4
:100180008C7F8C9380916000909161000196909398
:10019000610080936000CF91DF91FF91EF91BF915B
:1001A000AF919F918F913F912F910F900FBE0F9024
:1001B0001F901895DF93CF93CDB7DEB728970FB672
:1001C000F894DEBF0FBECDBF19821A821B821C823B
:1001D000A7E3B0E0E7E3F0E0808187608C93A8E3D9
:1001E000B0E0E8E3F0E08081887F8C93E2E5F0E026
:1001F0001082E3E5F0E081E08083A9E5B0E0E9E585
:10020000F0E0808182608C93789420916800309136
:10021000690080916200909163002817390709F006
:1002200048C020916C0030916D00809166009091E3
:10023000670028173907E9F520916A0030916B00B3
:1002400080916400909165002817390791F510D1CD
:1002500024E630E0B9012FD19093690080936800C3
:1002600007D1AC01209168003091690084E690E0EC
:10027000BC01621B730B9B01CA01B90108D19093A9
:100280006B0080936A00809168009091690022273A
:100290003327281B390B80916A0090916B00A901CC
:1002A000481B590BCA018C599F4F90936D00809346
:1002B0006C002091680030916900809162009091FB
:1002C00063008217930748F4809162009091630065
:1002D00001969093630080936200209168003091B2
:1002E000690080916200909163002817390748F4F3
:1002F00080916200909163000197909363008093D6
:10030000620020916C0030916D00809166009091A8
:1003100067008217930748F4809166009091670008
:100320000196909367008093660020916C00309155
:100330006D0080916600909167002817390748F496
:100340008091660090916700019790936700809379
:10035000660020916A0030916B008091640090915A
:1003600065008217930748F48091640090916500BE
:100370000196909365008093640020916A0030910B
:100380006B0080916400909165002817390748F44C
:10039000809164009091650001979093650080932F
:1003A00064001D821E821F8218860BC08D819E8173
:1003B000AF81B8850196A11DB11D8D839E83AF834A
:1003C000B8878D819E81AF81B885813D57E09507C3
:1003D00050E0A50750E0B50748F317CFA0E0B0E024
:1003E000E3EFF1E0B7C0EC01A880B980CA80DB8000
:1003F000A114B104C104D10441F484E2A82E89ED12
:10040000B82E8BE5C82E87E0D82EC601B5012DE1A8
:1004100033EF41E050E07BD027EA31E440E050E0A8
:100420005DD07B018C01C601B5012DE133EF41E0C8
:1004300050E06DD0CA01B9012CEE34EF4FEF5FEF01
:100440004DD06E0D7F1D801F911F97FF04C061501E
:10045000704080409048688379838A839B839B01A6
:100460003F77C901CDB7DEB7EAE090C0B7DF0895A6
:100470008EE690E0B3DF0895A0E0B0E080936E00D8
:1004800090936F00A0937000B09371000895AA1B21
:10049000BB1B51E107C0AA1FBB1FA617B70710F06F
:1004A000A61BB70B881F991F5A95A9F780959095A1
:1004B000BC01CD01089597FB092E07260AD077FDD0
:1004C00004D0E5DF06D000201AF4709561957F4FC7
:1004D0000895F6F7909581959F4F0895FF27EE2791
:1004E000BB27AA2760FF04C0A20FB31FE41FF51F9C
:1004F000220F331F441F551F969587957795679553
:1005000089F70097760771F7CF01BD01089597FB32
:10051000092E05260ED057FD04D04BD00AD0001C62
:1005200038F450954095309521953F4F4F4F5F4F90
:100530000895F6F790958095709561957F4F8F4F50
:100540009F4F08952F923F924F925F926F927F92AA
:100550008F929F92AF92BF92CF92DF92EF92FF92D3
:100560000F931F93CF93DF93CDB7DEB7CA1BDB0B7F
:100570000FB6F894DEBF0FBECDBF09942A88398824
:1005800048885F846E847D848C849B84AA84B9842B
:10059000C884DF80EE80FD800C811B81AA81B98137
:1005A000CE0FD11D0FB6F894DEBF0FBECDBFED014B
:1005B0000895A1E21A2EAA1BBB1BFD010DC0AA1FA4
:1005C000BB1FEE1FFF1FA217B307E407F50720F0BC
:1005D000A21BB30BE40BF50B661F771F881F991F37
:1005E0001A9469F760957095809590959B01AC0180
:0A05F000BD01CF010895F894FFCF7C
:1005FA000100210021002100210021002100010029
:02060A000000EE
:00000001FF
