:100000000C944A000C9469000C9469000C946900EB
:100010000C9469000C9469000C9469000C946900BC
:100020000C9469000C9469000C9469000C946900AC
:100030000C9469000C9469000C9469000C9469009C
:100040000C9469000C94CD060C9469000C94690022
:100050000C9469000C9469000C9469000C9469007C
:100060000C9469000C9469000C9469000C9469006C
:100070000C9469000C9469000C9469000C9469005C
:100080000C9469000C9469000C9469000C9469004C
:100090000C94690011241FBECFEFD0E1DEBFCDBFAD
:1000A00011E0A0E0B1E0E0E5FEE000E00BBF02C03F
:1000B00007900D92A030B107D9F711E0A0E0B1E0B0
:1000C00001C01D92A231B107E1F70E9459060C94BC
:1000D00026070C940000DF93CF9300D000D0CDB75B
:1000E000DEB79A83898389819A819C838B838B81F4
:1000F0009C81883C910509F44AC08B819C81893C94
:10010000910568F48B819C818436910509F459C06E
:100110008B819C818D37910509F446C05EC08B812F
:100120009C8121E0843F9207C1F08B819C8123E078
:10013000883E920731F08B819C818A3F9105D1F0F6
:100140004CC0E2EEF0E01082E3EEF0E08CE0808361
:10015000E4EEF0E087E3808340C0E2EEF0E082E08E
:100160008083E3EEF0E08CE08083E4EEF0E087E370
:10017000808333C0E2EEF0E086E08083E3EEF0E0DF
:100180008CE08083E4EEF0E087E3808326C0E2EE3B
:10019000F0E088E08083E3EEF0E08CE08083E4EE42
:1001A000F0E087E3808319C0E2EEF0E08EE0808328
:1001B000E3EEF0E08CE08083E4EEF0E087E3808320
:1001C0000CC0E2EEF0E082E18083E3EEF0E08CE050
:1001D0008083E4EEF0E087E380830F900F900F9030
:1001E0000F90CF91DF910895DF93CF9300D00F92BE
:1001F000CDB7DEB789838981282F30E03B832A83FE
:100200008A819B818130910561F12A813B81223075
:1002100031052CF48A819B81009769F063C02A81A3
:100220003B812230310599F18A819B818330910590
:1002300009F443C057C0ABEDB0E0EBEDF0E08081D6
:100240008F778C93ABEDB0E0EBEDF0E080818F7DAC
:100250008C93ABEDB0E0EBEDF0E080818F7E8C9382
:1002600041C0ABEDB0E0EBEDF0E0808180688C93B5
:10027000ABEDB0E0EBEDF0E080818F7D8C93ABEDEA
:10028000B0E0EBEDF0E0808180618C932BC0ABEDB2
:10029000B0E0EBEDF0E0808180688C93ABEDB0E0F6
:1002A000EBEDF0E0808180628C93ABEDB0E0EBEDA4
:1002B000F0E080818F7E8C9315C0ABEDB0E0EBED6C
:1002C000F0E0808180688C93ABEDB0E0EBEDF0E086
:1002D000808180628C93ABEDB0E0EBEDF0E080814B
:1002E00080618C930F900F900F90CF91DF910895C4
:1002F000DF93CF930F92CDB7DEB78983EDEEF0E0B9
:1003000089818295807F80830F90CF91DF910895BE
:10031000DF93CF9300D000D0CDB7DEB769837A8367
:100320008B839C8389819A81AB81BC81880F991FC3
:10033000AA1FBB1F880F991FAA1FBB1F880F991FD9
:10034000AA1FBB1F89839A83AB83BC83E4EFF0E0D1
:1003500089818083A4EFB0E0E4EFF0E080818560E4
:100360008C93E5EFF0E089819A81AB81BC81892F84
:100370009A2FAB2FBB278083E6EFF0E089819A812B
:10038000AB81BC81CD01AA27BB278083E7EFF0E0DA
:1003900089819A81AB81BC818B2F9927AA27BB27A2
:1003A00080830F900F900F900F90CF91DF91089561
:1003B000DF93CF9300D000D0CDB7DEB769837A83C7
:1003C0008B839C8389819A81AB81BC81880F991F23
:1003D000AA1FBB1F880F991FAA1FBB1F880F991F39
:1003E000AA1FBB1F89839A83AB83BC83E0EFF0E035
:1003F0008081882F90E0A0E0B0E09C01AD012770E3
:1004000030704070507089819A81AB81BC81822BA1
:10041000932BA42BB52B89839A83AB83BC83E0EF0A
:10042000F0E089818083E1EFF0E089819A81AB81FE
:10043000BC81892F9A2FAB2FBB278083E2EFF0E09E
:1004400089819A81AB81BC81CD01AA27BB2780839A
:10045000E3EFF0E089819A81AB81BC818B2F9927F2
:10046000AA27BB2780830F900F900F900F90CF91FA
:10047000DF910895DF93CF9300D000D0CDB7DEB7E2
:1004800019821A821B821C82E3EFF0E08081882FA0
:1004900090E0A0E0B0E0582F44273327222789813D
:1004A0009A81AB81BC81822B932BA42BB52B8983A2
:1004B0009A83AB83BC83E2EFF0E08081882F90E0E9
:1004C000A0E0B0E0AC013327222789819A81AB817B
:1004D000BC81822B932BA42BB52B89839A83AB836E
:1004E000BC83E1EFF0E08081882F90E0A0E0B0E0F5
:1004F0002227382F492F5A2F89819A81AB81BC81BD
:10050000822B932BA42BB52B89839A83AB83BC833B
:10051000E0EFF0E08081882F90E0A0E0B0E09C0167
:10052000AD01287F30704070507089819A81AB8115
:10053000BC81822B932BA42BB52B89839A83AB830D
:10054000BC8389819A81AB81BC81689412F8B6958D
:10055000A795979587951694D1F789839A83AB834E
:10056000BC8389819A81AB81BC81BC01CD010F9094
:100570000F900F900F90CF91DF910895DF93CF935D
:1005800000D00F92CDB7DEB78983AFEEB0E0EFEECB
:10059000F0E0808180618C938981282F30E03B835B
:1005A0002A838A819B818230910509F45DC02A816A
:1005B0003B812330310554F48A819B81009799F067
:1005C0002A813B812130310591F1A4C08A819B8130
:1005D0008330910509F465C02A813B8124303105BF
:1005E00009F47CC097C0AFEEB0E0EFEEF0E08081A0
:1005F0008F7B8C93AFEEB0E0EFEEF0E080818F77F1
:100600008C93AFEEB0E0EFEEF0E080818F7D8C93C5
:10061000A0EFB0E0E0EFF0E080818B7F8C93A4EF5F
:10062000B0E0E4EFF0E080818B7F8C9373C0AFEE9D
:10063000B0E0EFEEF0E0808180648C93AFEEB0E04C
:10064000EFEEF0E080818F778C93AFEEB0E0EFEECD
:10065000F0E080818F7D8C93A0EFB0E0E0EFF0E0E0
:1006600080818B7F8C9356C0AFEEB0E0EFEEF0E070
:1006700080818F778C93AFEEB0E0EFEEF0E0808179
:1006800080648C93AFEEB0E0EFEEF0E080818F7D80
:100690008C93A0EFB0E0E0EFF0E0808184608C9379
:1006A00039C0AFEEB0E0EFEEF0E080818F7B8C934D
:1006B000AFEEB0E0EFEEF0E0808180688C93AFEEBB
:1006C000B0E0EFEEF0E080818F7D8C93A0EFB0E0A2
:1006D000E0EFF0E080818B7F8C931CC0AFEEB0E048
:1006E000EFEEF0E080818F7B8C93AFEEB0E0EFEE29
:1006F000F0E0808180688C93AFEEB0E0EFEEF0E048
:10070000808180628C93A0EFB0E0E0EFF0E0808128
:1007100084608C930F900F900F90CF91DF9108958C
:10072000DF93CF930F92CDB7DEB71982EFEEF0E0F3
:10073000808188235CF0EFEEF0E08081882F90E0EC
:1007400080749070009711F4198270C0EFEEF0E0A1
:1007500080818823ACF0EFEEF0E08081882F90E07C
:1007600080749070009761F0E0EFF0E08081882F56
:1007700090E084709070009719F481E0898356C0EE
:10078000EFEEF0E080818823ACF0EFEEF0E08081C6
:10079000882F90E080749070009761F0E0EFF0E0B7
:1007A0008081882F90E084709070009719F082E02B
:1007B00089833CC0EFEEF0E080818823ACF4EFEE5B
:1007C000F0E08081882F90E080749070009761F451
:1007D000E0EFF0E08081882F90E0847090700097C7
:1007E00019F483E0898322C0EFEEF0E08081882352
:1007F000ECF4EFEEF0E08081882F90E08074907050
:100800000097A1F4EFEEF0E08081882F90E08072F5
:100810009070009759F0E0EFF0E08081882F90E031
:1008200084709070009711F084E0898389810F9023
:10083000CF91DF910895DF93CF9300D000D0CDB753
:10084000DEB79B838A836C838C81882F90E08870CD
:100850009070009741F0AFEEB0E0EFEEF0E08081F5
:1008600088608C9307C0AFEEB0E0EFEEF0E08081DF
:10087000877F8C938C81882F90E084709070009794
:1008800041F0AFEEB0E0EFEEF0E0808184608C9359
:1008900007C0AFEEB0E0EFEEF0E080818B7F8C938D
:1008A0008C81882F90E082709070009741F0AFEEBD
:1008B000B0E0EFEEF0E0808182608C9307C0AFEE95
:1008C000B0E0EFEEF0E080818D7F8C938C81882FFB
:1008D00090E081709070882341F0AFEEB0E0EFEED1
:1008E000F0E0808181608C9307C0AFEEB0E0EFEE66
:1008F000F0E080818E7F8C9319820FC0AAEFB0E068
:100900008981282F30E08A819B81FC01E20FF31F4F
:1009100080818C9389818F5F898399818C819817DD
:1009200068F30F900F900F900F90CF91DF91089583
:10093000DF93CF93CDB7DEB769970FB6F894DEBFDC
:100940000FBECDBF9C8B8B8B19820FC08981282F46
:1009500030E0EAEFF0E04081CE010B96FC01E20FBF
:10096000F31F408389818F5F89838981883070F389
:100970008B899C899E8B8D8BFE013296F88FEF8B35
:10098000F1E1F98FEF89F88D00808F89988D0196BC
:10099000988F8F8BED89FE8900828D899E890196C3
:1009A0009E8B8D8B998D9150998FE98DEE2351F708
:1009B0008B899C8969960FB6F894DEBF0FBECDBFB8
:1009C000CF91DF910895DF93CF930F92CDB7DEB72C
:1009D000898389818830A0F4AEEDB0E0EEEDF0E0DF
:1009E0008081482F8981282F30E081E090E0022E1D
:1009F00002C0880F991F0A94E2F7842B8C931CC0C5
:100A000089818830C8F089818F30B0F4AFEDB0E0D3
:100A1000EFEDF0E08081482F8981882F90E09C01E4
:100A20002850304081E090E0022E02C0880F991FCC
:100A30000A94E2F7842B8C930F90CF91DF91089565
:100A4000DF93CF9300D000D0CDB7DEB7E0EEF0E07B
:100A50008081282F30E0E1EEF0E08081882F90E067
:100A6000982F8827822B932B9A83898389819A8157
:100A7000009719F48FEF8C8319C01B8209C08981FC
:100A80009A81969587959A8389838B818F5F8B83D3
:100A900089819A8181709070009789F38B818F3062
:100AA00018F08FEF8C8302C08B818C838C810F9028
:100AB0000F900F900F90CF91DF910895DF93CF9318
:100AC0000F92CDB7DEB7898389818830A8F4AEED67
:100AD000B0E0EEEDF0E08081482F8981282F30E0F2
:100AE00081E090E0022E02C0880F991F0A94E2F77D
:100AF000809584238C931DC089818830D0F08981B2
:100B00008F30B8F4AFEDB0E0EFEDF0E08081482F2A
:100B10008981882F90E09C012850304081E090E04E
:100B2000022E02C0880F991F0A94E2F78095842351
:100B30008C930F90CF91DF910895DF93CF9300D0E6
:100B40000F92CDB7DEB79A8389836B83A8EDB0E0AF
:100B5000E8EDF0E0808181608C938DE790E00E9469
:100B60006B008B810E94F400A8EDB0E0E8EDF0E0AE
:100B7000808182608C930F900F900F90CF91DF91C6
:100B80000895DF93CF9300D0CDB7DEB789836A8312
:100B900089810E94780189810E94E3048B859C856C
:100BA000AD85BE85BC01CD010E9488018F819885ED
:100BB000A985BA85BC01CD010E94D8018A81882F00
:100BC00090E08430910531F42F85CE014096622F5C
:100BD0000E941B048A810E94BE020F900F90CF9149
:100BE000DF910895DF93CF930F92CDB7DEB789835E
:100BF00089810E94780189810E945E0580E00E94BF
:100C0000BE020F90CF91DF910895DF93CF93CDB7C0
:100C1000DEB729970FB6F894DEBF0FBECDBF8E8327
:100C200078876F83498781E090E0A0E0B0E0898316
:100C30009A83AB83BC838E810E9478010E949003CB
:100C40008D838F81988569850E941B0481E00E94B5
:100C5000BE020BC089819A81AB81BC810196A11D26
:100C6000B11D89839A83AB83BC83EEEEF0E0808173
:100C7000882F90E080749070009741F489819A8168
:100C8000AB81BC810097A105B10521F7AEEEB0E0C4
:100C9000EEEEF0E080818F7B8C938D810E94BE020E
:100CA00029960FB6F894DEBF0FBECDBFCF91DF916E
:100CB0000895DF93CF9300D000D00F92CDB7DEB769
:100CC0008DE790E060E00E949D0582E090E0A0E06A
:100CD000B0E08093010190930201A0930301B093CF
:100CE00004018FEF9FEFAFEFBFE180930501909379
:100CF0000601A0930701B093080185E080930901E4
:100D000084E580930A0185E680930B0183E7809355
:100D10000C0184E780930D0110920E0110920F01D7
:100D200010921001109211018DB79EB741970FB626
:100D3000F8949EBF0FBE8DBF8DB79EB701969A8364
:100D40008983E1E0F1E0FC83EB83F1E1FD83EB815A
:100D5000FC8100808B819C8101969C838B83E9813F
:100D6000FA81008289819A8101969A8389839D8183
:100D700091509D83ED81EE2351F78AE061E00E945E
:100D8000C1058DB79EB741960FB6F8949EBF0FBEB2
:100D90008DBF0E9413077894FFCF1F920F920FB65A
:100DA0000F9200905B000F9211242F933F934F936B
:100DB0005F936F937F938F939F93AF93BF93EF93C3
:100DC000FF93DF93CF93CDB7DEB7E6E4F0E086E0A4
:100DD0008083809100018F5F8093000180910001EA
:100DE000893159F4909109012AE031E08AE0B90192
:100DF000492F0E94050610920001CF91DF91FF91CB
:100E0000EF91BF91AF919F918F917F916F915F9182
:100E10004F913F912F910F9000925B000F900FBE6A
:100E20000F901F901895DF93CF93CDB7DEB7E4E412
:100E3000F0E084E08083EEE6F0E081E08083E6E4A9
:100E4000F0E086E08083CF91DF910895F894FFCFA2
:00000001FF
