:1000000012C022C021C020C01FC01EC01DC01CC005
:100010001BC01AC019C018C017C016C015C014C024
:1000200013C012C011C011241FBECFEDCDBF10E010
:10003000A0E6B0E0E2E2F6E002C005900D92AE3834
:10004000B107D9F702D0EBC2DBCFDF93CF93CDB7A7
:10005000DEB7CC55D0400FB6F894DEBF0FBECDBF93
:10006000CE01039699AB88ABE8E8F0E0FBABEAABD6
:10007000F5E0FCABEAA9FBA900808AA99BA901963F
:100080009BAB8AABE8A9F9A9008288A999A9019636
:1000900099AB88AB9CA991509CABECA9EE2351F78E
:1000A000CE0108969EAB8DABE3E8F0E0F8AFEFAB86
:1000B000F5E0F9AFEFA9F8AD00808FA998AD0196F2
:1000C00098AF8FABEDA9FEA900828DA99EA90196DC
:1000D0009EAB8DAB99AD915099AFE9ADEE2351F741
:1000E000CE010D969BAF8AAFEEE7F0E0FDAFECAF2F
:1000F000F5E0FEAFECADFDAD00808CAD9DAD0196A1
:100100009DAF8CAFEAADFBAD00828AAD9BAD019691
:100110009BAF8AAF9EAD91509EAFEEADEE2351F7EF
:10012000CE01429621969FAF8EAF2197E9E7F0E08E
:100130002396FFAFEEAF2397F5E02496FFAF249709
:100140002396EEADFFAD2397008023968EAD9FAD35
:100150002397019623969FAF8EAF23972196EEADFE
:10016000FFAD2197008221968EAD9FAD219701961C
:1001700021969FAF8EAF219724969FAD24979150E3
:1001800024969FAF24972496EFAD2497EE23C1F6D3
:10019000CE01479626969FAF8EAF2697E4E7F0E014
:1001A0002896FFAFEEAF2897F5E02996FFAF299785
:1001B0002896EEADFFAD2897008028968EAD9FADB6
:1001C0002897019628969FAF8EAF28972696EEAD7A
:1001D000FFAD2697008226968EAD9FAD269701969D
:1001E00026969FAF8EAF269729969FAD299791505F
:1001F00029969FAF29972996EFAD2997EE23C1F64F
:10020000CE014C962B969FAF8EAF2B97EFE6F0E08A
:100210002D96FFAFEEAF2D97F5E02E96FFAF2E9700
:100220002D96EEADFFAD2D9700802D968EAD9FAD36
:100230002D9701962D969FAF8EAF2D972B96EEADF5
:10024000FFAD2B9700822B968EAD9FAD2B9701961D
:100250002B969FAF8EAF2B972E969FAD2E979150DA
:100260002E969FAF2E972E96EFAD2E97EE23C1F6CA
:10027000CE01819660969FAF8EAF6097EAE6F0E080
:100280006296FFAFEEAF6297F5E06396FFAF6397BC
:100290006296EEADFFAD6297008062968EAD9FAD27
:1002A0006297019662969FAF8EAF62976096EEADB1
:1002B000FFAD6097008260968EAD9FAD609701960E
:1002C00060969FAF8EAF609763969FAD6397915096
:1002D00063969FAF63976396EFAD6397EE23C1F686
:1002E000CE01869665969FAF8EAF6597E5E6F0E006
:1002F0006796FFAFEEAF6797F5E06896FFAF689738
:100300006796EEADFFAD6797008067968EAD9FADA7
:100310006797019667969FAF8EAF67976596EEAD2C
:10032000FFAD6597008265968EAD9FAD659701968E
:1003300065969FAF8EAF659768969FAD6897915011
:1003400068969FAF68976896EFAD6897EE23C1F601
:10035000CE018B966A969FAF8EAF6A97E0E6F0E08B
:100360006C96FFAFEEAF6C97F5E06D96FFAF6D97B3
:100370006C96EEADFFAD6C9700806C968EAD9FAD28
:100380006C9701966C969FAF8EAF6C976A96EEADA8
:10039000FFAD6A9700826A968EAD9FAD6A9701960F
:1003A0006A969FAF8EAF6A976D969FAD6D9791508D
:1003B0006D969FAF6D976D96EFAD6D97EE23C1F67D
:1003C000A7E3B0E0E7E3F0E080818F618C93A1E3E5
:1003D000B0E0E1E3F0E080818C678C93AAE3B0E0C9
:1003E000EAE3F0E0808183608C93A8E3B0E0E8E387
:1003F000F0E08081807E8C931A82198208C0CE0141
:1004000081963FD089819A8101969A8389838981D7
:100410009A81F3E0893E9F0790F31A82198208C0FF
:10042000CE0147962ED089819A8101969A8389833D
:1004300089819A8123E0893E920790F31A8219827A
:1004400008C0CE0186961DD089819A8101969A8333
:10045000898389819A81E7E0813D9E0790F31A8222
:10046000198208C0CE018B960CD089819A810196A1
:100470009A83898389819A81F3E0893E9F0790F36B
:10048000BBCFDF93CF9300D000D0CDB7DEB79C8336
:100490008B831982B9C08981282F30E08B819C81A0
:1004A000FC01E20FF31F8081882F90E08170907033
:1004B000882341F0ABE3B0E0EBE3F0E080818E7F96
:1004C0008C9307C0ABE3B0E0EBE3F0E080818160A8
:1004D0008C938981282F30E08B819C81FC01E20F75
:1004E000F31F8081882F90E082709070009741F018
:1004F000ABE3B0E0EBE3F0E080818D7F8C9307C04D
:10050000ABE3B0E0EBE3F0E0808182608C9382E0CB
:100510008A8344C08981282F30E08B819C81FC0133
:10052000E20FF31F8081282F30E08A81882F90E02E
:10053000A90102C0559547958A95E2F7CA018170D5
:1005400090708823A9F0A2E3B0E0E2E3F0E08081BC
:10055000482F8A81282F30E081E090E0022E02C0EF
:10056000880F991F0A94E2F7809584238C9313C017
:10057000A2E3B0E0E2E3F0E08081482F8A81282FF7
:1005800030E081E090E0022E02C0880F991F0A94AB
:10059000E2F7842B8C938A818F5F8A838A818730EC
:1005A00008F4B8CFA8E3B0E0E8E3F0E08081482F9A
:1005B0008981282F30E081E090E0022E02C0880F70
:1005C000991F0A94E2F7842B8C931A8203C08A81C4
:1005D0008F5F8A838A818536D0F3A8E3B0E0E8E3B1
:1005E000F0E08081482F8981282F30E081E090E081
:1005F000022E02C0880F991F0A94E2F78095842387
:100600008C9389818F5F89838981853008F443CFFA
:100610000F900F900F900F90CF91DF910895F89465
:02062000FFCF0A
:100622003E4141413E7F010101017F0808087F7F71
:10063200484848407F494949417F4141413E3E4106
:0E0642004141227F494949363F4848483F0020
:00000001FF
