:100000000C942A000C943F000C943F000C943F0089
:100010000C943F000C943F000C943F000C943F0064
:100020000C943F000C943F000C943F000C943F0054
:100030000C943F000C943F000C943F000C943F0044
:100040000C943F000C943F000C943F000C943F0034
:100050000C943F0011241FBECFE5D8E0DEBFCDBF1A
:1000600010E0A0E6B0E0E8E6F8E002C005900D92EE
:10007000AA36B107D9F70E9441000C9432040C94BF
:100080000000DF93CF93CDB7DEB76D970FB6F8942E
:10009000DEBF0FBECDBF85E0FE013A96DF01282FFF
:1000A0001D922A95E9F7AE01415F5F4F5A8F498F44
:1000B00080E690E09C8F8B8F95E09D8FAB8DBC8D03
:1000C0000C90EB8DFC8D3196FC8FEB8FA98DBA8D4A
:1000D0000C92E98DFA8D3196FA8FE98FFD8DF150F2
:1000E000FD8F2D8D222351F785E0FE017496DF01EF
:1000F000282F1D922A95E9F71D8281E08C831B82AF
:100100001A8281E08983E0E4F0E01082E9E2F0E025
:1001100089E18083EBE2F0E082E68083EAE2F0E0CE
:1001200088E18083E0E4F0E086E88083ECE2F0E0C0
:1001300081E080838981882309F467C08C818823CA
:1001400091F10E94680325E030E0B9010E94780334
:100150008B838B81282F30E0CE010A96FC01E20FC1
:10016000F31F8081882F90E080749070009749F78A
:100170008B81482F50E08B81282F30E0CE010A96EA
:10018000FC01E20FF31F8081282F2064CE010A9624
:10019000FC01E40FF51F2083198286E08A838D819C
:1001A0008F5F8D8308C10E94680325E030E0B901AC
:1001B0000E9478038B838B81282F30E0CE010A9632
:1001C000FC01E20FF31F8081882F90E08074907013
:1001D000009749F38B81482F50E08B81282F30E026
:1001E000CE010A96FC01E20FF31F8081282F2F7B9E
:1001F000CE010A96FC01E40FF51F2083198286E0E8
:100200008A838D8181508D83D6C08C81882309F4A7
:1002100068C08B81282F30E0CE010A96FC01E20FE6
:10022000F31F8081282F30E08A81882F90E001978A
:10023000A90102C0559547958A95E2F7CA018170D8
:100240009070009709F04AC08A81882309F446C05B
:100250008B81482F50E08B81282F30E0CE010A9609
:10026000FC01E20FF31F8081682F8A81282F30E084
:1002700081E090E002C0880F991F2A95E2F78095EF
:100280008623282FCE010A96FC01E40FF51F208358
:100290008B81482F50E08B81282F30E0CE010A96C9
:1002A000FC01E20FF31F8081682F8A81882F90E084
:1002B0009C012150304081E090E002C0880F991FDE
:1002C0002A95E2F7862B282FCE010A96FC01E40F2F
:1002D000F51F20838A8181508A836DC081E08983E4
:1002E0006AC08B81282F30E0CE010A96FC01E20F14
:1002F000F31F8081282F30E08A81882F90E00197BA
:10030000D90102C0B595A7958A95E2F7CD01817014
:100310009070982F81E08927882309F04AC08A814C
:10032000882309F446C08B81482F50E08B81282F09
:1003300030E0CE010A96FC01E20FF31F8081682FA6
:100340008A81282F30E081E090E002C0880F991F59
:100350002A95E2F7862B282FCE010A96FC01E40F9E
:10036000F51F20838B81482F50E08B81282F30E0B0
:10037000CE010A96FC01E20FF31F8081682F8A816B
:10038000882F90E09C012150304081E090E002C035
:10039000880F991F2A95E2F780958623282FCE0192
:1003A0000A96FC01E40FF51F20838A8181508A831D
:1003B00002C081E089831E821F82188619860BC0C5
:1003C0008E819F81A885B9850196A11DB11D8E835F
:1003D0009F83A887B9878E819F81A885B985813140
:1003E000E7E29E07E0E0AE07E0E0BE0748F39E01CB
:1003F000265F3F4F81E8B9010E94D7029E01265F28
:100400003F4F82E8B9010E94D7028D81882321F0F5
:100410008D81833209F08ECE81E089839C8181E0D9
:1004200089278C831E821F82188619860BC08E81B5
:100430009F81A885B9850196A11DB11D8E839F83DB
:10044000A887B9878E819F81A885B9858135F3EC0E
:100450009F07F0E0AF07F0E0BF0748F39E012C5E76
:100460003F4F81E8B9010E94D7029E012C5E3F4FA9
:1004700082E8B9010E94D7021E821F82188619865F
:100480000BC08E819F81A885B9850196A11DB11DE4
:100490008E839F83A887B9878E819F81A885B98520
:1004A000813523EC920720E0A20720E0B20748F351
:1004B0009E01215F3F4F81E8B9010E94D7029E0152
:1004C000215F3F4F82E8B9010E94D7021E821F823E
:1004D000188619860BC08E819F81A885B9850196E3
:1004E000A11DB11D8E839F83A887B9878E819F81AF
:1004F000A885B985813543EC940740E0A40740E026
:10050000B40748F39E012C5E3F4F81E8B9010E9479
:10051000D7029E012C5E3F4F82E8B9010E94D702AC
:100520001E821F82188619860BC08E819F81A88526
:10053000B9850196A11DB11D8E839F83A887B987B8
:100540008E819F81A885B985813553EC950750E050
:10055000A50750E0B50748F39E01215F3F4F81E8B2
:10056000B9010E94D7029E01215F3F4F82E8B90185
:100570000E94D7021E821F82188619860BC08E81A8
:100580009F81A885B9850196A11DB11D8E839F838A
:10059000A887B9878E819F81A885B9858135E3ECCD
:1005A0009E07E0E0AE07E0E0BE0748F3C3CDDF936F
:1005B000CF9300D000D00F92CDB7DEB78B837D8371
:1005C0006C83EBE2F0E08081882F90E08072907085
:1005D0000097B9F3ECE2F0E08B8180831A821982F4
:1005E00019C0EBE2F0E08081882F90E0807290707B
:1005F0000097B9F3ACE2B0E02C813D8189819A810A
:10060000F901E80FF91F80818C9389819A81019605
:100610009A83898389819A818530910510F30F909F
:100620000F900F900F900F90CF91DF910895A0E061
:10063000B0E0EDE1F3E00C94E103EC01A880B980B7
:10064000CA80DB80A114B104C104D10441F484E266
:10065000A82E89EDB82E8BE5C82E87E0D82EC601CE
:10066000B5012DE133EF41E050E00E94BE0327EADF
:1006700031E440E050E00E949F037B018C01C60101
:10068000B5012DE133EF41E050E00E94BE03CA0105
:10069000B9012CEE34EF4FEF5FEF0E949F036E0D18
:1006A0007F1D801F911F97FF04C0615070408040E4
:1006B0009048688379838A839B839B013F77C90134
:1006C000CDB7DEB7EAE00C94FD030E94170308954E
:1006D00085E690E00E9417030895A0E0B0E08093C3
:1006E000650090936600A0936700B093680008953A
:1006F00097FB092E07260AD077FD04D00CD006D030
:1007000000201AF4709561957F4F0895F6F7909543
:1007100081959F4F0895AA1BBB1B51E107C0AA1FDB
:10072000BB1FA617B70710F0A61BB70B881F991F92
:100730005A95A9F780959095BC01CD010895629FC7
:10074000D001739FF001829FE00DF11D649FE00DC9
:10075000F11D929FF00D839FF00D749FF00D659F2A
:10076000F00D9927729FB00DE11DF91F639FB00D29
:10077000E11DF91FBD01CF011124089597FB092E3A
:1007800005260ED057FD04D04BD00AD0001C38F4FB
:1007900050954095309521953F4F4F4F5F4F0895AD
:1007A000F6F790958095709561957F4F8F4F9F4F8D
:1007B00008952F923F924F925F926F927F928F9205
:1007C0009F92AF92BF92CF92DF92EF92FF920F93E0
:1007D0001F93CF93DF93CDB7DEB7CA1BDB0B0FB6EA
:1007E000F894DEBF0FBECDBF09942A8839884888A7
:1007F0005F846E847D848C849B84AA84B984C8843D
:10080000DF80EE80FD800C811B81AA81B981CE0F33
:10081000D11D0FB6F894DEBF0FBECDBFED01089518
:10082000A1E21A2EAA1BBB1BFD010DC0AA1FBB1FF4
:10083000EE1FFF1FA217B307E407F50720F0A21B66
:10084000B30BE40BF50B661F771F881F991F1A94D3
:1008500069F760957095809590959B01AC01BD01FD
:08086000CF010895F894FFCFC9
:0A0868007F7F7F7F7F01000000000A
:00000001FF
