:100000000C9446000C9465000C9465000C946500FB
:100010000C9465000C9465000C9465000C946500CC
:100020000C9465000C9465000C9465000C946500BC
:100030000C9465000C9465000C9465000C946500AC
:100040000C9465000C9465000C940B0A0C946500EC
:100050000C9465000C9465000C9465000C9465008C
:100060000C9465000C9465000C9465000C9465007C
:100070000C9465000C9465000C9465000C9465006C
:100080000C9465000C9465000C94650011241FBE4F
:10009000CFEFD0E1DEBFCDBF13E0A0E0B1E0E4EEF2
:1000A000FFE100E00BBF02C007900D92AE32B10736
:1000B000D9F713E0AEE2B3E001C01D92A733B10758
:1000C000E1F70E94F90A0C94F00F0C940000DF9302
:1000D000CF9300D000D0CDB7DEB789836A83898102
:1000E000282F30E03C832B838B819C8183369105C4
:1000F00009F44BC02B813C81243631055CF48B81A3
:100100009C8181369105C9F02B813C8122363105D5
:1001100041F18AC08B819C818536910509F45DC0CF
:100120002B813C81253631050CF443C08B819C81A9
:100130008636910509F465C077C0ABE3B0E0EBE328
:10014000F0E08081482F8A81282F30E081E090E024
:10015000022E02C0880F991F0A94E2F7842B8C9319
:1001600063C0A8E3B0E0E8E3F0E08081482F8A8133
:10017000282F30E081E090E0022E02C0880F991F06
:100180000A94E2F7842B8C934FC0A5E3B0E0E5E33B
:10019000F0E08081482F8A81282F30E081E090E0D4
:1001A000022E02C0880F991F0A94E2F7842B8C93C9
:1001B0003BC0A2E3B0E0E2E3F0E08081482F8A8117
:1001C000282F30E081E090E0022E02C0880F991FB6
:1001D0000A94E2F7842B8C9327C0A3E2B0E0E3E219
:1001E000F0E08081482F8A81282F30E081E090E084
:1001F000022E02C0880F991F0A94E2F7842B8C9379
:1002000013C0A2E6B0E0E2E6F0E08081482F8A81E8
:10021000282F30E081E090E0022E02C0880F991F65
:100220000A94E2F7842B8C930F900F900F900F900D
:10023000CF91DF910895DF93CF9300D000D0CDB759
:10024000DEB789836A838981282F30E03C832B8342
:100250008B819C818336910509F44DC02B813C81B3
:10026000243631055CF48B819C8181369105C9F07F
:100270002B813C812236310549F190C08B819C81D4
:100280008536910509F461C02B813C812536310505
:100290000CF446C08B819C818636910509F46AC0B6
:1002A0007DC0ABE3B0E0EBE3F0E08081482F8A81D2
:1002B000282F30E081E090E0022E02C0880F991FC5
:1002C0000A94E2F7809584238C9368C0A8E3B0E099
:1002D000E8E3F0E08081482F8A81282F30E081E038
:1002E00090E0022E02C0880F991F0A94E2F78095D1
:1002F00084238C9353C0A5E3B0E0E5E3F0E0808174
:10030000482F8A81282F30E081E090E0022E02C041
:10031000880F991F0A94E2F7809584238C933EC03E
:10032000A2E3B0E0E2E3F0E08081482F8A81282F49
:1003300030E081E090E0022E02C0880F991F0A94FD
:10034000E2F7809584238C9329C0A3E2B0E0E3E236
:10035000F0E08081482F8A81282F30E081E090E012
:10036000022E02C0880F991F0A94E2F78095842319
:100370008C9314C0A2E6B0E0E2E6F0E08081482F62
:100380008A81282F30E081E090E0022E02C0880FA1
:10039000991F0A94E2F7809584238C930F900F9015
:1003A0000F900F90CF91DF910895DF93CF9300D0FE
:1003B00000D0CDB7DEB789836A838981282F30E0EA
:1003C0003C832B838B819C818336910509F44BC040
:1003D0002B813C81243631055CF48B819C818136F4
:1003E0009105C9F02B813C812236310541F18AC04B
:1003F0008B819C818536910509F45DC02B813C8100
:10040000253631050CF443C08B819C8186369105DD
:1004100009F465C077C0ABE3B0E0EBE3F0E08081C6
:10042000482F8A81282F30E081E090E0022E02C020
:10043000880F991F0A94E2F784278C9363C0A8E37E
:10044000B0E0E8E3F0E08081482F8A81282F30E097
:1004500081E090E0022E02C0880F991F0A94E2F713
:1004600084278C934FC0A5E3B0E0E5E3F0E0808102
:10047000482F8A81282F30E081E090E0022E02C0D0
:10048000880F991F0A94E2F784278C933BC0A2E35C
:10049000B0E0E2E3F0E08081482F8A81282F30E04D
:1004A00081E090E0022E02C0880F991F0A94E2F7C3
:1004B00084278C9327C0A3E2B0E0E3E2F0E08081E0
:1004C000482F8A81282F30E081E090E0022E02C080
:1004D000880F991F0A94E2F784278C9313C0A2E631
:1004E000B0E0E2E6F0E08081482F8A81282F30E0FA
:1004F00081E090E0022E02C0880F991F0A94E2F773
:1005000084278C930F900F900F900F90CF91DF91D5
:100510000895DF93CF9300D000D0CDB7DEB78983A5
:100520006A838981282F30E03C832B838B819C81D7
:100530008336910509F44BC02B813C81243631056B
:100540005CF48B819C8181369105C9F02B813C81C3
:100550002236310541F18AC08B819C818536910517
:1005600009F45DC02B813C81253631050CF443C074
:100570008B819C818636910509F465C077C0AAE31A
:10058000B0E0EAE3F0E08081482F8A81282F30E054
:1005900081E090E0022E02C0880F991F0A94E2F7D2
:1005A000842B8C9363C0A7E3B0E0E7E3F0E08081A5
:1005B000482F8A81282F30E081E090E0022E02C08F
:1005C000880F991F0A94E2F7842B8C934FC0A4E301
:1005D000B0E0E4E3F0E08081482F8A81282F30E00A
:1005E00081E090E0022E02C0880F991F0A94E2F782
:1005F000842B8C933BC0A1E3B0E0E1E3F0E0808189
:10060000482F8A81282F30E081E090E0022E02C03E
:10061000880F991F0A94E2F7842B8C9327C0A2E2DB
:10062000B0E0E2E2F0E08081482F8A81282F30E0BC
:1006300081E090E0022E02C0880F991F0A94E2F731
:10064000842B8C9313C0A1E6B0E0E1E6F0E080815A
:10065000482F8A81282F30E081E090E0022E02C0EE
:10066000880F991F0A94E2F7842B8C930F900F90B8
:100670000F900F90CF91DF910895DF93CF9300D02B
:1006800000D0CDB7DEB789836A838981282F30E017
:100690003C832B838B819C818336910509F44DC06B
:1006A0002B813C81243631055CF48B819C81813621
:1006B0009105C9F02B813C812236310549F190C06A
:1006C0008B819C818536910509F461C02B813C8129
:1006D000253631050CF446C08B819C818636910508
:1006E00009F46AC07DC0AAE3B0E0EAE3F0E08081EB
:1006F000482F8A81282F30E081E090E0022E02C04E
:10070000880F991F0A94E2F7809584238C9368C020
:10071000A7E3B0E0E7E3F0E08081482F8A81282F4B
:1007200030E081E090E0022E02C0880F991F0A9409
:10073000E2F7809584238C9353C0A4E3B0E0E4E314
:10074000F0E08081482F8A81282F30E081E090E01E
:10075000022E02C0880F991F0A94E2F78095842325
:100760008C933EC0A1E3B0E0E1E3F0E08081482F4C
:100770008A81282F30E081E090E0022E02C0880FAD
:10078000991F0A94E2F7809584238C9329C0A2E2F2
:10079000B0E0E2E2F0E08081482F8A81282F30E04B
:1007A00081E090E0022E02C0880F991F0A94E2F7C0
:1007B000809584238C9314C0A1E6B0E0E1E6F0E0DC
:1007C0008081482F8A81282F30E081E090E0022E3E
:1007D00002C0880F991F0A94E2F7809584238C93B6
:1007E0000F900F900F900F90CF91DF910895DF93AE
:1007F000CF93CDB7DEB729970FB6F894DEBF0FBE03
:10080000CDBF89838981282F30E039872887888563
:1008100099858336910581F12885398524363105FE
:100820005CF48885998581369105B1F028853985F4
:1008300022363105C9F03FC08885998585369105F6
:1008400059F12885398525363105F4F08885998553
:100850008636910549F12FC0EAE3F0E09081EAE3A2
:10086000F0E08FEF808327C0E7E3F0E02081E7E34B
:10087000F0E08FEF80831FC0E4E3F0E03081E4E339
:10088000F0E08FEF808317C0E1E3F0E08081E1E3E7
:10089000F0E08FEF80830FC0E2E2F0E09081E2E2CF
:1008A000F0E08FEF808307C0E1E6F0E02081E1E631
:1008B000F0E08FEF808329960FB6F894DEBF0FBE6D
:1008C000CDBFCF91DF910895DF93CF93CDB7DEB742
:1008D00029970FB6F894DEBF0FBECDBF89838981FB
:1008E000282F30E0398728878885998583369105B8
:1008F00071F128853985243631055CF48885998520
:1009000081369105B1F02885398522363105C1F04F
:1009100039C0888599858536910539F128853985CD
:1009200025363105DCF0888599858636910521F1DB
:1009300029C0EAE3F0E09081EAE3F0E0108222C00F
:10094000E7E3F0E02081E7E3F0E010821BC0E4E39E
:10095000F0E03081E4E3F0E0108214C0E1E3F0E085
:100960008081E1E3F0E010820DC0E2E2F0E09081EE
:10097000E2E2F0E0108206C0E1E6F0E02081E1E68C
:10098000F0E0108229960FB6F894DEBF0FBECDBFFF
:10099000CF91DF910895DF93CF9300D0CDB7DEB72D
:1009A0009A838983E0E9F0E089819A81892F9927E8
:1009B0008083E9E2F0E089818083EAE2F0E088E187
:1009C0008083E5E9F0E08EE080830F900F90CF9177
:1009D000DF910895DF93CF93CDB7DEB7EBE2F0E080
:1009E0001082EAE2F0E088E18083E5E9F0E086E861
:1009F0008083E0E9F0E01082E9E2F0E088E08083C3
:100A0000CF91DF910895DF93CF93CDB7DEB7E7E2C3
:100A1000F0E080E48083E6E2F0E08EE98083A6E205
:100A2000B0E0E6E2F0E0808180668C93CF91DF91C8
:100A30000895DF93CF9300D000D00F92CDB7DEB7EB
:100A40008A836B8319828A81282F30E03D832C832F
:100A50008C819D818336910551F12C813D81243615
:100A600031055CF48C819D8181369105B1F02C813A
:100A70003D8122363105B1F02DC08C819D818536B6
:100A80009105F9F02C813D8125363105ACF08C8142
:100A90009D8186369105D1F01DC0E9E3F0E08081AB
:100AA000898318C0E6E3F0E08081898313C0E3E323
:100AB000F0E0808189830EC0E0E3F0E080818983EB
:100AC00009C0E1E2F0E08081898304C0E0E2F0E067
:100AD000808189838B81282F30E081E090E0022E95
:100AE00002C0880F991F0A94E2F7982F8981892301
:100AF000898389810F900F900F900F900F90CF9165
:100B0000DF910895DF93CF930F92CDB7DEB789833E
:100B1000E7E2F0E08981806C8083A6E2B0E0E6E263
:100B2000F0E0808180648C93E6E2F0E08081882FA1
:100B300090E0807190700097B9F3A6E2B0E0E6E231
:100B4000F0E0808180618C93E4E2F0E0808191812B
:100B50000F90CF91DF910895DF93CF93CDB7DEB79C
:100B600028970FB6F894DEBF0FBECDBF9C838B8352
:100B70007E836D8358874F838B819C819A83898381
:100B80000DC089819A812D813E81B9014FEF0E946C
:100B90002D0989819A8101969A8389832B813C81D1
:100BA0008F819885280F391F89819A8128173907E5
:100BB00040F728960FB6F894DEBF0FBECDBFCF9199
:100BC000DF910895DF93CF93CDB7DEB728970FB6A7
:100BD000F894DEBF0FBECDBF9C838B837E836D8375
:100BE00058874F838D819E819A8389830DC08B8125
:100BF0009C8129813A81B9014FEF0E942D09898199
:100C00009A8101969A8389832D813E818F8198856F
:100C1000280F391F89819A818217930740F32896FC
:100C20000FB6F894DEBF0FBECDBFCF91DF91089510
:100C3000DF93CF93CDB7DEB728970FB6F894DEBF1A
:100C40000FBECDBF9A8389837C836B835E834D8384
:100C500038872F838D819E8101979E838D838F811D
:100C60009885019798878F8389819A812B813C8110
:100C70004D815E81B9010E94AC0589819A812B81E9
:100C80003C814F815885B9010E94E20529813A8152
:100C90008D819E81820F931F2B813C814F815885CE
:100CA000B9010E94E2052B813C818F819885A901C1
:100CB000480F591F89819A812D813E81BA01A9016E
:100CC0000E94AC0528960FB6F894DEBF0FBECDBFCC
:100CD000CF91DF910895DF93CF93CDB7DEB72897FB
:100CE0000FB6F894DEBF0FBECDBF9D838C837F838C
:100CF0006E834887888580528B838B818F3508F07F
:100D000055C01A824FC0198241C08B81282F30E014
:100D1000C901880F991F880F991F280F391F8A81D1
:100D2000882F90E0820F931FFC01E050FF4F8081DD
:100D3000282F30E08981882F90E0A90102C05595C5
:100D400047958A95E2F7CA0181709070882371F007
:100D50008981282F30E08E819F81280F391F8C8157
:100D60009D81B9014FEF0E942D090DC08981282F67
:100D700030E08E819F81280F391F8C819D81B901C0
:100D800040E00E942D0989818F5F898389818730A6
:100D900008F4BBCF8C819D8101969D838C838A81D1
:100DA0008F5F8A838A81853008F4ADCF28960FB68D
:100DB000F894DEBF0FBECDBFCF91DF910895DF93D2
:100DC000CF93CDB7DEB728970FB6F894DEBF0FBE2E
:100DD000CDBF9C838B837E836D8358874F838B81AC
:100DE0009C819A83898337C0EF81F88580818A301E
:100DF00079F489819A819C838B838D819E81089669
:100E00009E838D838F819885019698878F8323C0D9
:100E1000EF81F88540818F819885019698878F832F
:100E20008B819C812D813E81B9010E946B068B8153
:100E30009C8106969C838B838B819C810596813A4D
:100E4000910548F089819A819C838B838D819E8155
:100E500008969E838D83EF81F8858081882321F613
:100E600028960FB6F894DEBF0FBECDBFCF91DF91AD
:100E70000895DF93CF93CDB7DEB7ABE3B0E0EBE3FC
:100E8000F0E0808180648C93000000000000ABE300
:100E9000B0E0EBE3F0E080818F7B8C9300000000FA
:100EA0000000CF91DF910895DF93CF93CDB7DEB7E8
:100EB00068970FB6F894DEBF0FBECDBF80E090E01C
:100EC000A0E4B0E48D8B9E8BAF8BB88F6D897E894B
:100ED0008F89988D25E535E545ED50E40E948D0F0D
:100EE000DC01CB01898B9A8BAB8BBC8B69897A89AE
:100EF0008B899C8920E030E040E85FE30E943F0E50
:100F000088231CF481E0888B91C069897A898B8958
:100F10009C8920E030E04FE753E40E94890F1816C7
:100F20000CF07BC06D897E898F89988D20E030E040
:100F30004AE754E40E94430EDC01CB018C879D8775
:100F4000AE87BF876C857D858E859F8520E030E4E8
:100F50004CE955E40E948D0FDC01CB01888799870D
:100F6000AA87BB87688579858A859B8520E030E0E4
:100F700040E85FE30E943F0E88232CF481E090E07C
:100F80009F838E833FC0688579858A859B8520E015
:100F90003FEF4FE757E40E94890F18164CF56C8518
:100FA0007D858E859F8520E030E040E251E40E94FF
:100FB0008D0FDC01CB01BC01CD010E94AB0EDC0129
:100FC000CB019F838E830FC084EF91E09D838C8340
:100FD0008C819D810197F1F79D838C838E819F8108
:100FE00001979F838E838E819F81009769F724C02C
:100FF000688579858A859B850E94AB0EDC01CB01D3
:101000009F838E838E819F819B838A838A819B812C
:101010000197F1F79B838A830FC069897A898B894D
:101020009C890E94AB0EDC01CB01888B8889898367
:1010300089818A95F1F7898368960FB6F894DEBFA7
:101040000FBECDBFCF91DF910895DF93CF9300D036
:10105000CDB7DEB789836A830E945407ABE3B0E063
:10106000EBE3F0E080818F7D8C93ABE3B0E0EBE3CA
:10107000F0E0808180688C93E5E3F0E089818F70F7
:1010800080830000000000000000000000000E94BB
:101090003907000000000000000000000000ABE382
:1010A000B0E0EBE3F0E080818F7D8C93ABE3B0E0C8
:1010B000EBE3F0E080818F778C93E5E3F0E08A81C9
:1010C00080830000000000000000000000000E947B
:1010D00039070000000000000000000000000F9031
:1010E0000F90CF91DF910895DF93CF930F92CDB7FB
:1010F000DEB7E4E3F0E08FEF8083AAE3B0E0EAE359
:10110000F0E08081806E8C93ABE3B0E0EBE3F0E045
:1011100080818F7D8C93ABE3B0E0EBE3F0E08081E6
:101120008F778C93ABE3B0E0EBE3F0E080818F7BD3
:101130008C9382E3898380E069810E94250887E09F
:10114000898381E069810E94250883E1898382E0A7
:1011500069810E9425088FE7898383E069810E9465
:101160002508198288E069810E94250889E0698143
:101170000E94250819828AE069810E9425088BE077
:1011800069810E9425080F90CF91DF910895DF9328
:10119000CF9300D000D000D0CDB7DEB79C838B8337
:1011A0007E836D832D813E8180EA90E0A901489F76
:1011B0009001499F300D589F300D11248B819C81E7
:1011C000820F931F96958795969587959695879507
:1011D0009A83898399818AE0692F0E9425088981F1
:1011E0009A81892F9927982F8BE0692F0E942508D3
:1011F00026960FB6F894DEBF0FBECDBFCF91DF911C
:101200000895DF93CF930F92CDB7DEB789838CE03B
:1012100069810E9425080F90CF91DF910895DF9397
:10122000CF9300D000D00F92CDB7DEB79A838983D9
:101230007C836B834D8389819A812B813C81B901A9
:101240000E94C7088D810E9401090F900F900F9096
:101250000F900F90CF91DF910895DF93CF9300D03F
:1012600000D000D0CDB7DEB79B838A837D836C83AB
:101270004E838A819B812C813D81B9010E94C708E0
:101280008A81877089838E818F3F29F48FE06981FD
:101290000E94250804C08EE069810E9425082696D8
:1012A0000FB6F894DEBF0FBECDBFCF91DF9108958A
:1012B000DF93CF9300D0CDB7DEB780E090E060E061
:1012C00070E00E94C7081A82198208C080E00E945C
:1012D000010989819A8101969A83898389819A81FA
:1012E00026E08034920790F30F900F90CF91DF911A
:1012F0000895DF93CF93CDB7DEB760970FB6F8941C
:10130000DEBF0FBECDBF988B8F8777C080E090E0A7
:10131000A0E8BFE38B879C87AD87BE876B857C8504
:101320008D859E8520E030E44CE955E40E948D0FC8
:10133000DC01CB018F839887A987BA876F81788575
:1013400089859A8520E030E040E85FE30E943F0E07
:1013500088232CF481E090E09E838D833FC06F81D1
:10136000788589859A8520E03FEF4FE757E40E9412
:10137000890F18164CF56B857C858D859E8520E040
:1013800030E040E251E40E948D0FDC01CB01BC0152
:10139000CD010E94AB0EDC01CB019E838D830FC07B
:1013A00084EF91E09C838B838B819C810197F1F783
:1013B0009C838B838D819E8101979E838D838D81FC
:1013C0009E81009769F714C06F81788589859A8519
:1013D0000E94AB0EDC01CB019E838D838D819E81AB
:1013E0009A83898389819A810197F1F79A83898306
:1013F0008F8598890197988B8F878F85988900971B
:1014000009F084CF60960FB6F894DEBF0FBECDBF53
:10141000CF91DF9108951F920F920FB60F92009017
:101420005B000F9211248F939F93EF93FF93DF93B1
:10143000CF9300D0CDB7DEB71982ECE2F0E0808127
:101440008A838A818F3F21F080912F038931B9F4FB
:1014500010922E030EC080912F03882F90E0FC0184
:10146000E052FD4F80E2808380912F038F5F809355
:101470002F0380912F038A3170F31092F90280912B
:101480002E03882371F080912F03882F90E0FC01B8
:10149000E052FD4F8A81808380912F038F5F80937C
:1014A0002F038A81823029F481E080932E031092E9
:1014B0002F038A818E3F21F0809131038931B9F465
:1014C000109230030EC080913103882F90E0FC0110
:1014D000E650FD4F80E28083809131038F5F8093DF
:1014E0003103809131038A3170F31092130380919C
:1014F0003003882371F080913103882F90E0FC0144
:10150000E650FD4F8A818083809131038F5F809305
:1015100031038A81833029F481E080933003109273
:1015200031038A818D3F21F0809133038931B9F4F1
:10153000109232030EC080913303882F90E0FC019B
:10154000EC5EFC4F80E28083809133038F5F809359
:101550003303809133038A3170F310922D0380910D
:101560003203882371F080913303882F90E0FC01CF
:10157000EC5EFC4F8A818083809133038F5F809380
:1015800033038A81843029F481E0809332031092FE
:1015900033038A818B3F11F410923403809134031A
:1015A000882321F08A818A50809335038A8186308E
:1015B00019F481E08093340380912E03882349F449
:1015C00080913003882329F4ECE2F0E08091360327
:1015D00080830F900F90CF91DF91FF91EF919F91BA
:1015E0008F910F9000925B000F900FBE0F901F9095
:1015F0001895DF93CF93CDB7DEB782E660E00E9407
:101600003D030E94EA04AAE2B0E0EAE2F0E0808151
:1016100080688C93789481E661E00E941B0181E6EA
:1016200062E00E9467000E9474080E9458090E94AC
:10163000150C80912E03882371F580913003882347
:1016400051F580913403882331F58091320388234A
:1016500011F520EE32E083E090E063E070E0A90154
:101660000E94DF062AEF32E083E090E06DE070E058
:10167000A9010E94DF0624E133E083E090E067E106
:1016800070E0A9010E94DF069091350384E066E3D3
:10169000492F0E94520B82E660E00E941905809358
:1016A0003603C7CFEF92FF920F931F93DF93CF9331
:1016B00000D000D0CDB7DEB78A836B834C8319820C
:1016C00081E0898327C08A81282F30E08981882F93
:1016D00090E0820F931FAC018B81282F30E0CA016C
:1016E000B9014FEF0E942D098A81282F30E08981AE
:1016F000882F90E0820F931FAC018B81882F90E0A0
:1017000001969C01CA01B9014FEF0E942D09898100
:101710008F5F89838981882F90E0AA2797FDA09504
:10172000BA2FBC01CD010E94D90E7B018C018C81A6
:10173000882F90E0AA2797FDA095BA2FBC01CD0174
:101740000E94D90EDC01CB01BC01CD0120E030E0CC
:1017500040EC5FE30E948D0FDC01CB019C01AD01E9
:10176000C801B7010E943F0E18160CF0ACCF8C8157
:10177000882F90E0AA2797FDA095BA2FBC01CD0134
:101780000E94D90EDC01CB01BC01CD0120E030E08C
:1017900040EC5FE30E948D0FDC01CB01BC01CD0169
:1017A00020E030E040E85FE30E94DB0DDC01CB018C
:1017B000BC01CD010E94AB0EDC01CB01898327C0A7
:1017C0008A81282F30E08981882F90E0820F931F33
:1017D000AC018B81282F30E0CA01B90140E00E94A2
:1017E0002D098A81282F30E08981882F90E0820F8F
:1017F000931FAC018B81882F90E001969C01CA0158
:10180000B90140E00E942D0989818F5F8983898118
:101810008739B0F20F900F900F900F90CF91DF911A
:101820001F910F91FF90EF900895DF93CF93CDB765
:10183000DEB780E090E060E070E040EA50E020E554
:1018400030E00E94180680E090E06BE370E04CE12D
:1018500050E025E130E00E9418068BE190E06BE358
:1018600070E04CE150E025E130E00E94180683E290
:101870006FE30E94780C86E390E06BE370E04CE14C
:1018800050E025E130E00E94180681E590E06BE32E
:1018900070E04BE150E025E130E00E9418068BE655
:1018A00090E06BE370E04BE150E025E130E00E9416
:1018B000180685E890E06BE370E04BE150E025E12D
:1018C00030E00E94180680E090E062E370E040EAB9
:1018D00050E00E94AC0583E090E064E370E04AE9E8
:1018E00050E026E030E00E941806CF91DF91089585
:1018F000DF93CF9300D0CDB7DEB789836A83898128
:10190000482F50E08A81282F30E0CA01B9014DE00C
:1019100050E00E94E2058981882F90E00196AC0199
:101920008A81882F90E001969C01CA01B9014FEF8E
:101930000E942D098981882F90E00296AC018A814E
:10194000882F90E001969C01CA01B9014FEF0E94D7
:101950002D098981882F90E00396AC018A81882F18
:1019600090E002969C01CA01B9014FEF0E942D0937
:101970008981882F90E00496AC018A81882F90E0BD
:1019800002969C01CA01B9014FEF0E942D0989817D
:10199000882F90E00596AC018A81882F90E003960D
:1019A0009C01CA01B9014FEF0E942D098981882F3E
:1019B00090E00696AC018A81882F90E003969C0106
:1019C000CA01B9014FEF0E942D098981882F90E04B
:1019D0000796AC018A81882F90E004969C01CA0189
:1019E000B9014FEF0E942D098981882F90E0089658
:1019F000AC018A81882F90E004969C01CA01B9014C
:101A00004FEF0E942D098981882F90E00996AC0143
:101A10008A81882F90E005969C01CA01B9014FEF99
:101A20000E942D098981882F90E00A96AC018A8155
:101A3000882F90E005969C01CA01B9014FEF0E94E2
:101A40002D098981882F90E00B96AC018A81882F1F
:101A500090E006969C01CA01B9014FEF0E942D0942
:101A60008981882F90E00C96AC018A81882F90E0C4
:101A700006969C01CA01B9014FEF0E942D09898188
:101A8000882F90E00A96AC018A81882F90E0079613
:101A90009C01CA01B9014FEF0E942D098981882F4D
:101AA00090E00996AC018A81882F90E007969C010E
:101AB000CA01B9014FEF0E942D098981882F90E05A
:101AC0000896AC018A81882F90E008969C01CA0193
:101AD000B9014FEF0E942D098981882F90E0079668
:101AE000AC018A81882F90E008969C01CA01B90157
:101AF0004FEF0E942D098981882F90E00696AC0156
:101B00008A81882F90E009969C01CA01B9014FEFA4
:101B10000E942D098981882F90E00596AC018A8169
:101B2000882F90E009969C01CA01B9014FEF0E94ED
:101B30002D098981882F90E00496AC018A81882F35
:101B400090E00A969C01CA01B9014FEF0E942D094D
:101B50008981882F90E00396AC018A81882F90E0DC
:101B60000A969C01CA01B9014FEF0E942D09898193
:101B7000882F90E00296AC018A81882F90E00B9626
:101B80009C01CA01B9014FEF0E942D098981882F5C
:101B900090E00196AC018A81882F90E00B969C0121
:101BA000CA01B9014FEF0E942D090F900F90CF91FC
:101BB000DF9108955058BB27AA270ED070C161D17C
:101BC00030F066D120F031F49F3F11F41EF456C17D
:101BD0000EF4E095E7FB4CC1E92F72D180F3BA1700
:101BE000620773078407950718F071F49EF58AC1A0
:101BF0000EF4E0950B2EBA2FA02D0B01B901900128
:101C00000C01CA01A0011124FF27591B99F0593F6B
:101C100050F4503E68F11A16F040A22F232F342FB3
:101C20004427585FF3CF469537952795A795F04001
:101C30005395C9F77EF41F16BA0B620B730B840B16
:101C4000BAF09150A1F0FF0FBB1F661F771F881FCE
:101C5000C2F70EC0BA0F621F731F841F48F4879526
:101C600077956795B795F7959E3F08F0B3CF939515
:101C7000880F08F09927EE0F979587950895D4D08F
:101C800008F481E008950CD00AC102D140F0F9D0E7
:101C900030F021F45F3F19F0EBC0511134C1EEC0B8
:101CA0000FD198F39923C9F35523B1F3951B550B25
:101CB000BB27AA2762177307840738F09F5F5F4F1F
:101CC000220F331F441FAA1FA9F333D00E2E3AF060
:101CD000E0E830D091505040E695001CCAF729D07A
:101CE000FE2F27D0660F771F881FBB1F26173707C9
:101CF0004807AB07B0E809F0BB0B802DBF01FF27F9
:101D000093585F4F2AF09E3F510568F0B1C0FBC069
:101D10005F3FECF3983EDCF3869577956795B79532
:101D2000F7959F5FC9F7880F911D9695879597F94D
:101D30000895E1E0660F771F881FBB1F62177307C6
:101D40008407BA0720F0621B730B840BBA0BEE1FDB
:101D500088F7E0950895BCD088F09F5790F0B92F90
:101D60009927B751A0F0D1F0660F771F881F991FF0
:101D70001AF0BA95C9F712C0B13081F0C3D0B1E002
:101D80000895C0C0672F782F8827B85F39F0B93F12
:101D9000CCF3869577956795B395D9F73EF49095F2
:101DA0008095709561957F4F8F4F9F4F0895E89470
:101DB00009C097FB3EF490958095709561957F4F93
:101DC0008F4F9F4F9923A9F0F92F96E9BB27939541
:101DD000F695879577956795B795F111F8CFFAF451
:101DE000BB0F11F460FF1BC06F5F7F4F8F4F9F4F82
:101DF00016C0882311F096E911C0772321F09EE8E0
:101E0000872F762F05C0662371F096E8862F70E045
:101E100060E02AF09A95660F771F881FDAF7880F1F
:101E20009695879597F90895990F0008550FAA0B75
:101E3000E0E8FEEF16161706E807F907C0F01216DD
:101E40001306E407F50798F0621B730B840B950BE0
:101E500039F40A2661F0232B242B252B21F4089535
:101E60000A2609F4A140A6958FEF811D811D0895D2
:101E700097F99F6780E870E060E008959FEF80EC3D
:101E8000089500240A9416161706180609060895E0
:101E900000240A9412161306140605060895092E46
:101EA0000394000C11F4882352F0BB0F40F4BF2BB5
:101EB00011F460FF04C06F5F7F4F8F4F9F4F0895F5
:101EC00057FD9058440F551F59F05F3F71F04795EB
:101ED000880F97FB991F61F09F3F79F087950895D0
:101EE000121613061406551FF2CF4695F1DF08C0EF
:101EF000161617061806991FF1CF8695710561050C
:101F000008940895E894BB2766277727CB0197F9B3
:101F100008958ADF08F48FEF08950BD0C0CFB1DFAA
:101F200028F0B6DF18F0952309F0A2CFA7CF11242F
:101F3000EACFC6DFA0F3959FD1F3950F50E0551F70
:101F4000629FF001729FBB27F00DB11D639FAA270E
:101F5000F00DB11DAA1F649F6627B00DA11D661F5D
:101F6000829F2227B00DA11D621F739FB00DA11D7E
:101F7000621F839FA00D611D221F749F3327A00D38
:101F8000611D231F849F600D211D822F762F6A2FD4
:101F900011249F5750408AF0E1F088234AF0EE0F59
:101FA000FF1FBB1F661F771F881F91505040A9F766
:101FB0009E3F510570F05CCFA6CF5F3FECF3983E9B
:101FC000DCF3869577956795B795F795E7959F5FCD
:101FD000C1F7FE2B880F911D9695879597F9089567
:041FE000F894FFCFA3
:101FE400000000000000005F00000007000700146C
:101FF4007F147F14242A7F2A12231308646236492B
:102004005522500005030000001C2241000041221B
:102014001C00082A1C2A0808083E08080050300042
:102024000008080808080060600000201008040286
:102034003E5149453E00427F40004261514946219C
:1020440041454B311814127F1027454545393C4A08
:102054004949300171090503364949493606494958
:10206400291E0036360000005636000000081422EF
:1020740041141414141441221408000201510906D5
:10208400324979413E7E1111117E7F494949363EDC
:10209400414141227F4141221C7F494949417F09F5
:1020A4000901013E414151327F0808087F00417F08
:1020B40041002040413F017F081422417F404040BD
:1020C400407F0204027F7F0408107F3E4141413E6D
:1020D4007F090909063E4151215E7F0919294646B7
:1020E4004949493101017F01013F4040403F1F20E0
:1020F40040201F7F2018207F631408146303047892
:102104000403615149454300007F41410204081022
:102114002041417F0000040201020440404040404D
:10212400000102040020545454787F484444383851
:1021340044444420384444487F3854545418087E56
:10214400090102081454543C7F0804047800447DB7
:1021540040002040443D00007F10284400417F405F
:10216400007C041804787C08040478384444443817
:102174007C14141408081414187C7C0804040848FB
:1021840054545420043F4440203C4040207C1C20B4
:1021940040201C3C4030403C44281028440C505003
:1021A400503C4464544C44000836410000007F0015
:1021B40000004136080008082A1C08081C2A0808E0
:1021C4004172746973740000000000000000000094
:1021D400000000000000000000005469746C6500F9
:1021E40000000000000000000000000000000000EB
:1021F400000000005469746C65204C656E67746857
:0E2204000000000000000000000000000000CC
:00000001FF
