:100000000C942A000C943F000C943F000C943F0089
:100010000C943F000C943F000C943F000C943F0064
:100020000C943F000C943F000C943F000C943F0054
:100030000C943F000C943F000C943F000C943F0044
:100040000C943F000C943F000C943F000C943F0034
:100050000C943F0011241FBECFE5D8E0DEBFCDBF1A
:1000600010E0A0E6B0E0E0E5F5E002C005900D92FA
:10007000AA37B107D9F70E9441000C94A6020C944C
:100080000000DF93CF93CDB7DEB7C554D0400FB695
:10009000F894DEBF0FBECDBFCE0105969EA78DA7FB
:1000A000A4E7B0E0B8ABAFA7B5E0B9ABEFA5F8A94E
:1000B00000808FA598A9019698AB8FA7ADA5BEA586
:1000C0000C92EDA5FEA53196FEA7EDA7F9A9F1507A
:1000D000F9AB29A9222351F7CE010A969BAB8AAB33
:1000E000AFE6B0E0BDABACABB5E0BEABECA9FDA9F3
:1000F00000808CA99DA901969DAB8CABAAA9BBA938
:100100000C92EAA9FBA93196FBABEAABFEA9F15030
:10011000FEAB2EA9222351F7CE010F9698AF8FABDD
:10012000AAE6B0E0BAAFA9AFB5E0BBAFE9ADFAADB2
:10013000008089AD9AAD01969AAF89AFAFA9B8ADED
:100140000C92EFA9F8AD3196F8AFEFABFBADF150E3
:10015000FBAF2BAD222351F7CE0144969DAF8CAF60
:10016000A5E6B0E0BFAFAEAFB5E02196BFAF219737
:10017000EEADFFAD00808EAD9FAD01969FAF8EAF0F
:10018000ACADBDAD0C92ECADFDAD3196FDAFECAFBD
:100190002196FFAD2197F1502196FFAF219721962F
:1001A0002FAD2197222321F785E0FE017996DF010B
:1001B000282F1D922A95E9F7CE014E9623969FAFE0
:1001C0008EAF2397A0E6B0E02596BFAFAEAF2597E0
:1001D000B5E02696BFAF26972596EEADFFAD2597E5
:1001E000008025968EAD9FAD2597019625969FAFF1
:1001F0008EAF25972396AEADBFAD23970C92239675
:10020000EEADFFAD239731962396FFAFEEAF239768
:100210002696FFAD2697F1502696FFAF2697269695
:100220002FAD26972223C1F685E0FE01B396DF01AC
:10023000282F1D922A95E9F785E0FE01B896DF0187
:10024000282F1D922A95E9F7E0E4F0E01082E9E218
:10025000F0E089E18083EBE2F0E082E68083EAE28D
:10026000F0E088E18083E0E4F0E086E88083ECE27F
:10027000F0E081E080839E01275E3F4F80E8B90176
:100280000E9462029E01265F3F4F81E8B9010E94F1
:10029000620219821A821B821C820BC089819A8198
:1002A000AB81BC810196A11DB11D89839A83AB836B
:1002B000BC8389819A81AB81BC81813AE6E89E0743
:1002C000E1E0AE07E0E0BE0748F39E01265F3F4F46
:1002D00080E8B9010E9462029E012B5F3F4F81E8D6
:1002E000B9010E94620219821A821B821C820BC011
:1002F00089819A81AB81BC810196A11DB11D898341
:100300009A83AB83BC8389819A81AB81BC81813A1A
:10031000F6E89F07F1E0AF07F0E0BF0748F39E0162
:100320002B5F3F4F80E8B9010E9462029E01215F6E
:100330003F4F81E8B9010E94620219821A821B8232
:100340001C820BC089819A81AB81BC810196A11D61
:10035000B11D89839A83AB83BC8389819A81AB81E8
:10036000BC81813A26E8920721E0A20720E0B2078B
:1003700048F39E01215F3F4F80E8B9010E9462026D
:100380009E01215F3F4F81E8B9010E9462021982FC
:100390001A821B821C820BC089819A81AB81BC812D
:1003A0000196A11DB11D89839A83AB83BC8389818A
:1003B0009A81AB81BC81813AE6E89E07E1E0AE0715
:1003C000E0E0BE0748F39E01215F3F4F80E8B9019E
:1003D0000E9462029E012C5E3F4F81E8B9010E949B
:1003E000620219821A821B821C820BC089819A8147
:1003F000AB81BC810196A11DB11D89839A83AB831A
:10040000BC8389819A81AB81BC81813AF6E89F07E0
:10041000F1E0AF07F0E0BF0748F39E012C5E3F4FCD
:1004200080E8B9010E9462029E01225E3F4F81E88E
:10043000B9010E94620219821A821B821C820BC0BF
:1004400089819A81AB81BC810196A11DB11D8983EF
:100450009A83AB83BC8389819A81AB81BC81813AC9
:1004600026E8920721E0A20720E0B20748F39E01A8
:10047000225E3F4F80E8B9010E9462029E01275E22
:100480003F4F81E8B9010E94620219821A821B82E1
:100490001C820BC089819A81AB81BC810196A11D10
:1004A000B11D89839A83AB83BC8389819A81AB8197
:1004B000BC81813AE6E89E07E1E0AE07E0E0BE07D6
:1004C00048F3D9CEDF93CF93CDB7DEB727970FB6DA
:1004D000F894DEBF0FBECDBF8D837F836E83EBE2CA
:1004E000F0E08081882F90E0807290700097B9F3DF
:1004F000ECE2F0E08D8180831C821B8219C0EBE26C
:10050000F0E08081882F90E0807290700097B9F3BE
:10051000ACE2B0E02E813F818B819C81F901E80F34
:10052000F91F80818C938B819C8101969C838B83A6
:100530008B819C818530910510F327960FB6F89436
:10054000DEBF0FBECDBFCF91DF910895F894FFCFEE
:1005500000007D00003E4141413E7F010101017FDD
:0A0560000808087F7F49494941005F
:00000001FF
