:100000000C944A000C9469000C9469000C946900EB
:100010000C9469000C9469000C9469000C946900BC
:100020000C9469000C9469000C9469000C946900AC
:100030000C9469000C9469000C9469000C9469009C
:100040000C9469000C949B4C0C9438500C946900EF
:100050000C9469000C9469000C9469000C9469007C
:100060000C9469000C9469000C9469000C9469006C
:100070000C9469000C9469000C9469000C9469005C
:100080000C9469000C9469000C94DF4C0C9469008A
:100090000C94690011241FBECFEFD0E1DEBFCDBFAD
:1000A00013E0A0E0B1E0E4E9F5EA00E00BBF02C034
:1000B00007900D92A231B107D9F713E0A2E1B3E0A6
:1000C00001C01D92A733B107E1F70E94474D0C9480
:1000D000C8520C940000DF93CF93CDB7DEB72897BA
:1000E0000FB6F894DEBF0FBECDBF9C838B837E839B
:1000F0006D8358874F838B819C819A8389830DC040
:1001000089819A812D813E81B9014FEF0E94EC03D4
:1001100089819A8101969A8389832B813C818F8181
:100120009885280F391F89819A812817390740F748
:1001300028960FB6F894DEBF0FBECDBFCF91DF91EA
:100140000895DF93CF93CDB7DEB728970FB6F89415
:10015000DEBF0FBECDBF9C838B837E836D835887AC
:100160004F838D819E819A8389830DC08B819C8171
:1001700029813A81B9014FEF0E94EC0389819A816C
:1001800001969A8389832D813E818F819885280FDE
:10019000391F89819A818217930740F328960FB6F9
:1001A000F894DEBF0FBECDBFCF91DF910895DF93EE
:1001B000CF93CDB7DEB728970FB6F894DEBF0FBE4A
:1001C000CDBF9A8389837C836B835E834D8338871D
:1001D0002F838D819E8101979E838D838F8198854A
:1001E000019798878F8389819A812B813C814D81EA
:1001F0005E81B9010E946B0089819A812B813C81CB
:100200004F815885B9010E94A10029813A818D81D1
:100210009E81820F931F2B813C814F815885B901AC
:100220000E94A1002B813C818F819885A901480FF4
:10023000591F89819A812D813E81BA01A9010E94AD
:100240006B0028960FB6F894DEBF0FBECDBFCF91DE
:10025000DF910895DF93CF93CDB7DEB728970FB620
:10026000F894DEBF0FBECDBF9D838C837F836E83EA
:100270004887888580528B838B818F3508F055C0E5
:100280001A824FC0198241C08B81282F30E0C901EA
:10029000880F991F880F991F280F391F8A81882F6F
:1002A00090E0820F931FFC01E050FF4F8081282FC8
:1002B00030E08981882F90E0A90102C055954795CB
:1002C0008A95E2F7CA0181709070882371F0898164
:1002D000282F30E08E819F81280F391F8C819D81CE
:1002E000B9014FEF0E94EC030DC08981282F30E047
:1002F0008E819F81280F391F8C819D81B90140E03B
:100300000E94EC0389818F5F89838981873008F49B
:10031000BBCF8C819D8101969D838C838A818F5F69
:100320008A838A81853008F4ADCF28960FB6F89479
:10033000DEBF0FBECDBFCF91DF910895DF93CF9386
:10034000CDB7DEB728970FB6F894DEBF0FBECDBF8E
:100350009C838B837E836D8358874F838B819C81A5
:100360009A83898337C0EF81F88580818A3079F458
:1003700089819A819C838B838D819E8108969E833F
:100380008D838F819885019698878F8323C0EF8115
:10039000F88540818F819885019698878F838B811E
:1003A0009C812D813E81B9010E942A018B819C8113
:1003B00006969C838B838B819C810596813A91055F
:1003C00048F089819A819C838B838D819E810896D8
:1003D0009E838D83EF81F8858081882321F628967E
:1003E0000FB6F894DEBF0FBECDBFCF91DF91089559
:1003F000DF93CF93CDB7DEB7A2E2B0E0E2E2F0E068
:10040000808180648C93000000000000A2E2B0E0D4
:10041000E2E2F0E080818F7B8C930000000000001E
:10042000CF91DF910895DF93CF93CDB7DEB7689773
:100430000FB6F894DEBF0FBECDBF80E090E0A0E421
:10044000B0E48D8B9E8BAF8BB88F6D897E898F8941
:10045000988D2BEA3AEA4AEA50E40E94F151DC0115
:10046000CB01898B9A8BAB8BBC8B69897A898B8901
:100470009C8920E030E040E85FE30E94E050882360
:100480001CF481E0888B91C069897A898B899C8969
:1004900020E030E04FE753E40E94ED5118160CF0D5
:1004A0007BC06D897E898F89988D20E030E04AE796
:1004B00054E40E94E450DC01CB018C879D87AE8719
:1004C000BF876C857D858E859F8520E030E04AE77B
:1004D00055E40E94F151DC01CB0188879987AA87F6
:1004E000BB87688579858A859B8520E030E040E878
:1004F0005FE30E94E05088232CF481E090E09F832A
:100500008E833FC0688579858A859B8520E03FEF93
:100510004FE757E40E94ED5118164CF56C857D8528
:100520008E859F8520E030E040E251E40E94F15149
:10053000DC01CB01BC01CD010E944C51DC01CB019F
:100540009F838E830FC080E991E09D838C838C8193
:100550009D810197F1F79D838C838E819F81019707
:100560009F838E838E819F81009769F724C0688561
:1005700079858A859B850E944C51DC01CB019F8344
:100580008E838E819F819B838A838A819B81019741
:10059000F1F79B838A830FC069897A898B899C894B
:1005A0000E944C51DC01CB01888B88898983898129
:1005B0008A95F1F7898368960FB6F894DEBF0FBE6F
:1005C000CDBFCF91DF910895DF93CF9300D0CDB70A
:1005D000DEB789836A830E941302A2E2B0E0E2E2FE
:1005E000F0E080818F7D8C93A2E2B0E0E2E2F0E067
:1005F000808180688C93E8E2F0E089818F7080834D
:100600000000000000000000000000000E94F8014F
:10061000000000000000000000000000A2E2B0E0C6
:10062000E2E2F0E080818F7D8C93A2E2B0E0E2E232
:10063000F0E080818F778C93E8E2F0E08A8180831C
:100640000000000000000000000000000E94F8010F
:100650000000000000000000000000000F900F905C
:10066000CF91DF910895DF93CF930F92CDB7DEB78F
:10067000E7E2F0E08FEF8083A1E2B0E0E1E2F0E0BA
:100680008081806E8C93A2E2B0E0E2E2F0E08081B3
:100690008F7D8C93A2E2B0E0E2E2F0E080818F7780
:1006A0008C93A2E2B0E0E2E2F0E080818F7B8C9359
:1006B00082E3898380E069810E94E40287E0898384
:1006C00081E069810E94E40283E1898382E069819B
:1006D0000E94E4028FE7898383E069810E94E4023B
:1006E000198288E069810E94E40289E069810E94A0
:1006F000E40219828AE069810E94E4028BE0698148
:100700000E94E4020F90CF91DF910895DF93CF9381
:1007100000D000D000D0CDB7DEB79C838B837E8322
:100720006D832D813E8180EA90E0A901489F900170
:10073000499F300D589F300D11248B819C81820F71
:10074000931F9695879596958795969587959A8305
:10075000898399818AE0692F0E94E40289819A81C4
:10076000892F9927982F8BE0692F0E94E402269603
:100770000FB6F894DEBF0FBECDBFCF91DF910895C5
:10078000DF93CF930F92CDB7DEB789838CE0698179
:100790000E94E4020F90CF91DF910895DF93CF93F1
:1007A00000D000D00F92CDB7DEB79A8389837C83C7
:1007B0006B834D8389819A812B813C81B9010E9491
:1007C00086038D810E94C0030F900F900F900F90B1
:1007D0000F90CF91DF910895DF93CF9300D000D099
:1007E00000D0CDB7DEB79B838A837D836C834E8335
:1007F0008A819B812C813D81B9010E9486038A8177
:10080000877089838E818F3F29F48FE069810E94F0
:10081000E40204C08EE069810E94E40226960FB6CD
:10082000F894DEBF0FBECDBFCF91DF910895DF9367
:10083000CF9300D0CDB7DEB780E090E060E070E00D
:100840000E9486031A82198208C080E00E94C003B9
:1008500089819A8101969A83898389819A8126E088
:100860008034920790F30F900F90CF91DF9108950D
:10087000DF93CF93CDB7DEB760970FB6F894DEBFA6
:100880000FBECDBF988B8F8777C080E090E0A0E847
:10089000BFE38B879C87AD87BE876B857C858D8505
:1008A0009E8520E030E04AE755E40E94F151DC01EA
:1008B000CB018F839887A987BA876F8178858985CF
:1008C0009A8520E030E040E85FE30E94E050882312
:1008D0002CF481E090E09E838D833FC06F8178850A
:1008E00089859A8520E03FEF4FE757E40E94ED515C
:1008F00018164CF56B857C858D859E8520E030E053
:1009000040E251E40E94F151DC01CB01BC01CD0178
:100910000E944C51DC01CB019E838D830FC080E986
:1009200091E09C838B838B819C810197F1F79C8361
:100930008B838D819E8101979E838D838D819E8186
:10094000009769F714C06F81788589859A850E9420
:100950004C51DC01CB019E838D838D819E819A83D6
:10096000898389819A810197F1F79A8389838F8599
:1009700098890197988B8F878F859889009709F0C0
:1009800084CF60960FB6F894DEBF0FBECDBFCF9177
:10099000DF910895DF93CF93CDB7DEB787E090E086
:1009A0006AE170E04FEF0E94EC0387E090E06BE1BA
:1009B00070E04FEF0E94EC0387E090E06CE170E0A4
:1009C0004FEF0E94EC0387E090E06DE170E04FEFA5
:1009D0000E94EC0387E090E06EE170E04FEF0E9430
:1009E000EC0387E090E06FE170E04FEF0E94EC03D2
:1009F00087E090E062E270E04FEF0E94EC0387E056
:100A000090E063E270E04FEF0E94EC0388E090E03A
:100A10006AE170E04FEF0E94EC0388E090E06BE148
:100A200070E04FEF0E94EC0388E090E06CE170E032
:100A30004FEF0E94EC0388E090E06DE170E04FEF33
:100A40000E94EC0388E090E06EE170E04FEF0E94BE
:100A5000EC0388E090E06FE170E04FEF0E94EC0360
:100A600088E090E062E270E04FEF0E94EC0388E0E3
:100A700090E063E270E04FEF0E94EC0389E090E0C9
:100A80006AE170E04FEF0E94EC0389E090E06BE1D7
:100A900070E04FEF0E94EC0389E090E06EE170E0BF
:100AA0004FEF0E94EC0389E090E06FE170E04FEFC0
:100AB0000E94EC0389E090E062E270E04FEF0E9458
:100AC000EC0389E090E063E270E04FEF0E94EC03FA
:100AD0008AE090E06AE170E04FEF0E94EC038AE068
:100AE00090E06BE170E04FEF0E94EC038AE090E051
:100AF0006EE170E04FEF0E94EC038AE090E06FE15E
:100B000070E04FEF0E94EC038AE090E062E270E058
:100B10004FEF0E94EC038AE090E063E270E04FEF59
:100B20000E94EC038BE090E06AE170E04FEF0E94DE
:100B3000EC038BE090E06BE170E04FEF0E94EC0380
:100B40008BE090E06EE170E04FEF0E94EC038BE0F1
:100B500090E06FE170E04FEF0E94EC038BE090E0DB
:100B600062E270E04FEF0E94EC038BE090E063E202
:100B700070E04FEF0E94EC038BE090E06EE270E0DB
:100B80004FEF0E94EC038BE090E06FE270E04FEFDC
:100B90000E94EC038BE090E060E370E04FEF0E9476
:100BA000EC038BE090E061E370E04FEF0E94EC0318
:100BB0008BE090E062E370E04FEF0E94EC038BE08B
:100BC00090E063E370E04FEF0E94EC038BE090E075
:100BD00064E370E04FEF0E94EC038BE090E065E38C
:100BE00070E04FEF0E94EC038BE090E066E370E072
:100BF0004FEF0E94EC038BE090E067E370E04FEF73
:100C00000E94EC038CE090E06AE170E04FEF0E94FC
:100C1000EC038CE090E06BE170E04FEF0E94EC039E
:100C20008CE090E06EE170E04FEF0E94EC038CE00E
:100C300090E06FE170E04FEF0E94EC038CE090E0F9
:100C400062E270E04FEF0E94EC038CE090E063E220
:100C500070E04FEF0E94EC038CE090E06EE270E0F9
:100C60004FEF0E94EC038CE090E06FE270E04FEFFA
:100C70000E94EC038CE090E060E370E04FEF0E9494
:100C8000EC038CE090E061E370E04FEF0E94EC0336
:100C90008CE090E062E370E04FEF0E94EC038CE0A8
:100CA00090E063E370E04FEF0E94EC038CE090E093
:100CB00064E370E04FEF0E94EC038CE090E065E3AA
:100CC00070E04FEF0E94EC038CE090E066E370E090
:100CD0004FEF0E94EC038CE090E067E370E04FEF91
:100CE0000E94EC038DE090E06AE170E04FEF0E941B
:100CF000EC038DE090E06BE170E04FEF0E94EC03BD
:100D00008DE090E06EE170E04FEF0E94EC038DE02B
:100D100090E06FE170E04FEF0E94EC038DE090E017
:100D200060E270E04FEF0E94EC038DE090E061E242
:100D300070E04FEF0E94EC038DE090E062E270E023
:100D40004FEF0E94EC038DE090E063E270E04FEF24
:100D50000E94EC038DE090E06EE270E04FEF0E94A5
:100D6000EC038DE090E06FE270E04FEF0E94EC0347
:100D70008DE090E066E370E04FEF0E94EC038DE0C1
:100D800090E067E370E04FEF0E94EC038EE090E0AC
:100D90006AE170E04FEF0E94EC038EE090E06BE1BF
:100DA00070E04FEF0E94EC038EE090E06EE170E0A7
:100DB0004FEF0E94EC038EE090E06FE170E04FEFA8
:100DC0000E94EC038EE090E060E270E04FEF0E9442
:100DD000EC038EE090E061E270E04FEF0E94EC03E4
:100DE0008EE090E062E270E04FEF0E94EC038EE054
:100DF00090E063E270E04FEF0E94EC038EE090E041
:100E00006EE270E04FEF0E94EC038EE090E06FE244
:100E100070E04FEF0E94EC038EE090E066E370E03C
:100E20004FEF0E94EC038EE090E067E370E04FEF3D
:100E30000E94EC038FE090E066E270E04FEF0E94CA
:100E4000EC038FE090E067E270E04FEF0E94EC036C
:100E50008FE090E06EE270E04FEF0E94EC038FE0D5
:100E600090E06FE270E04FEF0E94EC038FE090E0C3
:100E700062E370E04FEF0E94EC038FE090E063E3E9
:100E800070E04FEF0E94EC038FE090E066E370E0CB
:100E90004FEF0E94EC038FE090E067E370E04FEFCC
:100EA0000E94EC0380E190E065E270E04FEF0E9469
:100EB000EC0380E190E066E270E04FEF0E94EC030B
:100EC00080E190E067E270E04FEF0E94EC0380E188
:100ED00090E06EE270E04FEF0E94EC0380E190E062
:100EE0006FE270E04FEF0E94EC0380E190E062E37C
:100EF00070E04FEF0E94EC0380E190E063E370E06C
:100F00004FEF0E94EC0380E190E066E370E04FEF6A
:100F10000E94EC0380E190E067E370E04FEF0E94F5
:100F2000EC0381E190E067E170E04FEF0E94EC0399
:100F300081E190E068E170E04FEF0E94EC0381E115
:100F400090E06AE170E04FEF0E94EC0381E190E0F5
:100F50006BE170E04FEF0E94EC0381E190E06CE107
:100F600070E04FEF0E94EC0381E190E06DE170E0F2
:100F70004FEF0E94EC0381E190E06EE170E04FEFF3
:100F80000E94EC0381E190E06FE170E04FEF0E947E
:100F9000EC0381E190E060E270E04FEF0E94EC032F
:100FA00081E190E061E270E04FEF0E94EC0381E1AB
:100FB00090E062E270E04FEF0E94EC0381E190E08C
:100FC00063E270E04FEF0E94EC0381E190E065E2A4
:100FD00070E04FEF0E94EC0381E190E066E270E088
:100FE0004FEF0E94EC0381E190E067E270E04FEF89
:100FF0000E94EC0381E190E06EE270E04FEF0E940E
:10100000EC0381E190E06FE270E04FEF0E94EC03AF
:1010100081E190E062E370E04FEF0E94EC0381E138
:1010200090E063E370E04FEF0E94EC0381E190E019
:1010300064E370E04FEF0E94EC0381E190E065E330
:1010400070E04FEF0E94EC0381E190E066E370E016
:101050004FEF0E94EC0381E190E067E370E04FEF17
:101060000E94EC0382E190E062E170E04FEF0E94A9
:10107000EC0382E190E063E170E04FEF0E94EC034B
:1010800082E190E064E170E04FEF0E94EC0382E1C6
:1010900090E065E170E04FEF0E94EC0382E190E0A8
:1010A00066E170E04FEF0E94EC0382E190E067E1BF
:1010B00070E04FEF0E94EC0382E190E068E170E0A5
:1010C0004FEF0E94EC0382E190E06AE170E04FEFA5
:1010D0000E94EC0382E190E06BE170E04FEF0E9430
:1010E000EC0382E190E06CE170E04FEF0E94EC03D2
:1010F00082E190E06DE170E04FEF0E94EC0382E14D
:1011000090E06EE170E04FEF0E94EC0382E190E02E
:101110006FE170E04FEF0E94EC0382E190E060E24B
:1011200070E04FEF0E94EC0382E190E061E270E03A
:101130004FEF0E94EC0382E190E062E270E04FEF3B
:101140000E94EC0382E190E063E270E04FEF0E94C6
:10115000EC0382E190E065E270E04FEF0E94EC0367
:1011600082E190E066E270E04FEF0E94EC0382E1E2
:1011700090E067E270E04FEF0E94EC0382E190E0C4
:101180006EE270E04FEF0E94EC0382E190E06FE2CC
:1011900070E04FEF0E94EC0382E190E062E370E0C8
:1011A0004FEF0E94EC0382E190E063E370E04FEFC9
:1011B0000E94EC0382E190E064E370E04FEF0E9454
:1011C000EC0382E190E065E370E04FEF0E94EC03F6
:1011D00082E190E066E370E04FEF0E94EC0382E171
:1011E00090E067E370E04FEF0E94EC0383E190E052
:1011F0006CE070E04FEF0E94EC0383E190E06DE063
:1012000070E04FEF0E94EC0383E190E06EE070E04D
:101210004FEF0E94EC0383E190E06FE070E04FEF4E
:101220000E94EC0383E190E060E170E04FEF0E94E8
:10123000EC0383E190E061E170E04FEF0E94EC038A
:1012400083E190E062E170E04FEF0E94EC0383E104
:1012500090E063E170E04FEF0E94EC0383E190E0E7
:1012600064E170E04FEF0E94EC0383E190E065E100
:1012700070E04FEF0E94EC0383E190E066E170E0E4
:101280004FEF0E94EC0383E190E067E170E04FEFE5
:101290000E94EC0383E190E068E170E04FEF0E9470
:1012A000EC0383E190E06AE170E04FEF0E94EC0311
:1012B00083E190E06BE170E04FEF0E94EC0383E18B
:1012C00090E065E270E04FEF0E94EC0383E190E074
:1012D00066E270E04FEF0E94EC0383E190E067E28A
:1012E00070E04FEF0E94EC0384E190E067E070E073
:1012F0004FEF0E94EC0384E190E068E070E04FEF74
:101300000E94EC0384E190E069E070E04FEF0E94FE
:10131000EC0384E190E06AE070E04FEF0E94EC03A0
:1013200084E190E06BE070E04FEF0E94EC0384E119
:1013300090E06CE070E04FEF0E94EC0384E190E0FD
:101340006DE070E04FEF0E94EC0384E190E06EE00E
:1013500070E04FEF0E94EC0384E190E06FE070E0FA
:101360004FEF0E94EC0384E190E060E170E04FEF0A
:101370000E94EC0384E190E061E170E04FEF0E9495
:10138000EC0384E190E062E170E04FEF0E94EC0337
:1013900084E190E063E170E04FEF0E94EC0384E1B0
:1013A00090E064E170E04FEF0E94EC0384E190E094
:1013B00065E170E04FEF0E94EC0384E190E066E1AC
:1013C00070E04FEF0E94EC0384E190E067E170E091
:1013D0004FEF0E94EC0384E190E068E170E04FEF92
:1013E0000E94EC0384E190E06AE170E04FEF0E941C
:1013F000EC0384E190E06BE170E04FEF0E94EC03BE
:1014000084E190E06CE170E04FEF0E94EC0384E136
:1014100090E06DE170E04FEF0E94EC0384E190E01A
:101420006EE170E04FEF0E94EC0384E190E06FE129
:1014300070E04FEF0E94EC0384E190E065E270E021
:101440004FEF0E94EC0384E190E066E270E04FEF22
:101450000E94EC0384E190E067E270E04FEF0E94AD
:10146000EC0385E190E063E070E04FEF0E94EC0355
:1014700085E190E064E070E04FEF0E94EC0385E1CD
:1014800090E065E070E04FEF0E94EC0385E190E0B2
:1014900066E070E04FEF0E94EC0385E190E067E0CA
:1014A00070E04FEF0E94EC0385E190E068E070E0AF
:1014B0004FEF0E94EC0385E190E069E070E04FEFB0
:1014C0000E94EC0385E190E06AE070E04FEF0E943B
:1014D000EC0385E190E06BE070E04FEF0E94EC03DD
:1014E00085E190E06CE070E04FEF0E94EC0385E155
:1014F00090E06DE070E04FEF0E94EC0385E190E03A
:101500006EE070E04FEF0E94EC0385E190E06FE049
:1015100070E04FEF0E94EC0385E190E060E170E045
:101520004FEF0E94EC0385E190E061E170E04FEF46
:101530000E94EC0385E190E062E170E04FEF0E94D1
:10154000EC0385E190E063E170E04FEF0E94EC0373
:1015500085E190E064E170E04FEF0E94EC0385E1EB
:1015600090E065E170E04FEF0E94EC0385E190E0D0
:1015700066E170E04FEF0E94EC0385E190E067E1E7
:1015800070E04FEF0E94EC0385E190E068E170E0CD
:101590004FEF0E94EC0385E190E06AE170E04FEFCD
:1015A0000E94EC0385E190E06BE170E04FEF0E9458
:1015B000EC0385E190E06CE170E04FEF0E94EC03FA
:1015C00085E190E06DE170E04FEF0E94EC0385E172
:1015D00090E06EE170E04FEF0E94EC0385E190E057
:1015E0006FE170E04FEF0E94EC0385E190E065E26F
:1015F00070E04FEF0E94EC0385E190E066E270E05E
:101600004FEF0E94EC0385E190E067E270E04FEF5E
:101610000E94EC0385E190E06EE270E04FEF0E94E3
:10162000EC0385E190E06FE270E04FEF0E94EC0385
:1016300085E190E060E370E04FEF0E94EC0385E10C
:1016400090E061E370E04FEF0E94EC0385E190E0F1
:1016500062E370E04FEF0E94EC0385E190E063E30A
:1016600070E04FEF0E94EC0385E190E064E370E0EE
:101670004FEF0E94EC0385E190E065E370E04FEFEF
:101680000E94EC0385E190E066E370E04FEF0E947A
:10169000EC0385E190E067E370E04FEF0E94EC031C
:1016A00086E190E063E070E04FEF0E94EC0386E19A
:1016B00090E064E070E04FEF0E94EC0386E190E080
:1016C00065E070E04FEF0E94EC0386E190E066E099
:1016D00070E04FEF0E94EC0386E190E067E070E07D
:1016E0004FEF0E94EC0386E190E068E070E04FEF7E
:1016F0000E94EC0386E190E069E070E04FEF0E9409
:10170000EC0386E190E06AE070E04FEF0E94EC03AA
:1017100086E190E06BE070E04FEF0E94EC0386E121
:1017200090E06CE070E04FEF0E94EC0386E190E007
:101730006DE070E04FEF0E94EC0386E190E06EE018
:1017400070E04FEF0E94EC0386E190E06FE070E004
:101750004FEF0E94EC0386E190E060E170E04FEF14
:101760000E94EC0386E190E061E170E04FEF0E949F
:10177000EC0386E190E062E170E04FEF0E94EC0341
:1017800086E190E063E170E04FEF0E94EC0386E1B8
:1017900090E064E170E04FEF0E94EC0386E190E09E
:1017A00065E170E04FEF0E94EC0386E190E066E1B6
:1017B00070E04FEF0E94EC0386E190E067E170E09B
:1017C0004FEF0E94EC0386E190E068E170E04FEF9C
:1017D0000E94EC0386E190E06AE170E04FEF0E9426
:1017E000EC0386E190E06BE170E04FEF0E94EC03C8
:1017F00086E190E065E270E04FEF0E94EC0386E145
:1018000090E066E270E04FEF0E94EC0386E190E02A
:1018100067E270E04FEF0E94EC0386E190E06EE239
:1018200070E04FEF0E94EC0386E190E06FE270E021
:101830004FEF0E94EC0386E190E060E370E04FEF31
:101840000E94EC0386E190E061E370E04FEF0E94BC
:10185000EC0386E190E062E370E04FEF0E94EC035E
:1018600086E190E063E370E04FEF0E94EC0386E1D5
:1018700090E064E370E04FEF0E94EC0386E190E0BB
:1018800065E370E04FEF0E94EC0386E190E066E3D1
:1018900070E04FEF0E94EC0386E190E067E370E0B8
:1018A0004FEF0E94EC0387E190E063E070E04FEFC0
:1018B0000E94EC0387E190E064E070E04FEF0E944B
:1018C000EC0387E190E065E070E04FEF0E94EC03ED
:1018D00087E190E066E070E04FEF0E94EC0387E163
:1018E00090E067E070E04FEF0E94EC0387E190E04A
:1018F00068E070E04FEF0E94EC0387E190E069E060
:1019000070E04FEF0E94EC0387E190E06AE070E046
:101910004FEF0E94EC0387E190E06BE070E04FEF47
:101920000E94EC0387E190E06CE070E04FEF0E94D2
:10193000EC0387E190E06DE070E04FEF0E94EC0374
:1019400087E190E06EE070E04FEF0E94EC0387E1EA
:1019500090E06FE070E04FEF0E94EC0387E190E0D1
:1019600060E170E04FEF0E94EC0387E190E061E1FD
:1019700070E04FEF0E94EC0387E190E062E170E0DD
:101980004FEF0E94EC0387E190E063E170E04FEFDE
:101990000E94EC0387E190E064E170E04FEF0E9469
:1019A000EC0387E190E065E170E04FEF0E94EC030B
:1019B00087E190E066E170E04FEF0E94EC0387E181
:1019C00090E067E170E04FEF0E94EC0387E190E068
:1019D00068E170E04FEF0E94EC0387E190E06AE17C
:1019E00070E04FEF0E94EC0387E190E06BE170E064
:1019F0004FEF0E94EC0387E190E06CE170E04FEF65
:101A00000E94EC0387E190E06DE170E04FEF0E94EF
:101A1000EC0387E190E06EE170E04FEF0E94EC0391
:101A200087E190E06FE170E04FEF0E94EC0387E107
:101A300090E060E270E04FEF0E94EC0387E190E0FD
:101A400061E270E04FEF0E94EC0387E190E062E218
:101A500070E04FEF0E94EC0387E190E063E270E0FA
:101A60004FEF0E94EC0387E190E065E270E04FEFFA
:101A70000E94EC0387E190E066E270E04FEF0E9485
:101A8000EC0387E190E067E270E04FEF0E94EC0327
:101A900087E190E06EE270E04FEF0E94EC0387E197
:101AA00090E06FE270E04FEF0E94EC0387E190E07E
:101AB00062E370E04FEF0E94EC0387E190E063E3A4
:101AC00070E04FEF0E94EC0388E190E063E070E08B
:101AD0004FEF0E94EC0388E190E064E070E04FEF8C
:101AE0000E94EC0388E190E065E070E04FEF0E9417
:101AF000EC0388E190E066E070E04FEF0E94EC03B9
:101B000088E190E067E070E04FEF0E94EC0388E12D
:101B100090E068E070E04FEF0E94EC0388E190E015
:101B200069E070E04FEF0E94EC0388E190E06AE02A
:101B300070E04FEF0E94EC0388E190E06BE070E012
:101B40004FEF0E94EC0388E190E06CE070E04FEF13
:101B50000E94EC0388E190E06DE070E04FEF0E949E
:101B6000EC0388E190E06EE070E04FEF0E94EC0340
:101B700088E190E06FE070E04FEF0E94EC0388E1B5
:101B800090E060E170E04FEF0E94EC0388E190E0AC
:101B900061E170E04FEF0E94EC0388E190E062E1C8
:101BA00070E04FEF0E94EC0388E190E063E170E0A9
:101BB0004FEF0E94EC0388E190E064E170E04FEFAA
:101BC0000E94EC0388E190E065E170E04FEF0E9435
:101BD000EC0388E190E066E170E04FEF0E94EC03D7
:101BE00088E190E067E170E04FEF0E94EC0388E14C
:101BF00090E068E170E04FEF0E94EC0388E190E034
:101C00006AE170E04FEF0E94EC0388E190E06BE145
:101C100070E04FEF0E94EC0388E190E06CE170E02F
:101C20004FEF0E94EC0388E190E06DE170E04FEF30
:101C30000E94EC0388E190E06EE170E04FEF0E94BB
:101C4000EC0388E190E06FE170E04FEF0E94EC035D
:101C500088E190E060E270E04FEF0E94EC0388E1E1
:101C600090E061E270E04FEF0E94EC0388E190E0C9
:101C700062E270E04FEF0E94EC0388E190E063E2E3
:101C800070E04FEF0E94EC0388E190E065E270E0C5
:101C90004FEF0E94EC0388E190E066E270E04FEFC6
:101CA0000E94EC0388E190E067E270E04FEF0E9451
:101CB000EC0388E190E06EE270E04FEF0E94EC03ED
:101CC00088E190E06FE270E04FEF0E94EC0388E162
:101CD00090E062E370E04FEF0E94EC0388E190E057
:101CE00063E370E04FEF0E94EC0389E190E063E072
:101CF00070E04FEF0E94EC0389E190E064E070E057
:101D00004FEF0E94EC0389E190E065E070E04FEF57
:101D10000E94EC0389E190E066E070E04FEF0E94E2
:101D2000EC0389E190E067E070E04FEF0E94EC0384
:101D300089E190E068E070E04FEF0E94EC0389E1F8
:101D400090E069E070E04FEF0E94EC0389E190E0E1
:101D50006AE070E04FEF0E94EC0389E190E06BE0F5
:101D600070E04FEF0E94EC0389E190E06CE070E0DE
:101D70004FEF0E94EC0389E190E06DE070E04FEFDF
:101D80000E94EC0389E190E06EE070E04FEF0E946A
:101D9000EC0389E190E06FE070E04FEF0E94EC030C
:101DA00089E190E060E170E04FEF0E94EC0389E18F
:101DB00090E061E170E04FEF0E94EC0389E190E078
:101DC00062E170E04FEF0E94EC0389E190E063E193
:101DD00070E04FEF0E94EC0389E190E064E170E075
:101DE0004FEF0E94EC0389E190E065E170E04FEF76
:101DF0000E94EC0389E190E066E170E04FEF0E9401
:101E0000EC0389E190E067E170E04FEF0E94EC03A2
:101E100089E190E068E170E04FEF0E94EC0389E116
:101E200090E065E270E04FEF0E94EC0389E190E002
:101E300066E270E04FEF0E94EC0389E190E067E218
:101E400070E04FEF0E94EC0389E190E06EE270E0F9
:101E50004FEF0E94EC0389E190E06FE270E04FEFFA
:101E60000E94EC0389E190E062E370E04FEF0E9492
:101E7000EC0389E190E063E370E04FEF0E94EC0334
:101E800089E190E064E370E04FEF0E94EC0389E1A8
:101E900090E065E370E04FEF0E94EC038AE190E090
:101EA00063E070E04FEF0E94EC038AE190E064E0B1
:101EB00070E04FEF0E94EC038AE190E065E070E093
:101EC0004FEF0E94EC038AE190E066E070E04FEF94
:101ED0000E94EC038AE190E067E070E04FEF0E941F
:101EE000EC038AE190E068E070E04FEF0E94EC03C1
:101EF0008AE190E069E070E04FEF0E94EC038AE134
:101F000090E06AE070E04FEF0E94EC038AE190E01D
:101F10006BE070E04FEF0E94EC038AE190E06CE030
:101F200070E04FEF0E94EC038AE190E06DE070E01A
:101F30004FEF0E94EC038AE190E06EE070E04FEF1B
:101F40000E94EC038AE190E06FE070E04FEF0E94A6
:101F5000EC038AE190E060E170E04FEF0E94EC0357
:101F60008AE190E061E170E04FEF0E94EC038AE1CA
:101F700090E062E170E04FEF0E94EC038AE190E0B4
:101F800063E170E04FEF0E94EC038AE190E064E1CE
:101F900070E04FEF0E94EC038AE190E065E170E0B1
:101FA0004FEF0E94EC038AE190E066E170E04FEFB2
:101FB0000E94EC038AE190E067E170E04FEF0E943D
:101FC000EC038AE190E068E170E04FEF0E94EC03DF
:101FD0008AE190E065E270E04FEF0E94EC038AE155
:101FE00090E066E270E04FEF0E94EC038AE190E03F
:101FF00067E270E04FEF0E94EC038AE190E06EE24E
:1020000070E04FEF0E94EC038AE190E06FE270E035
:102010004FEF0E94EC038AE190E062E370E04FEF43
:102020000E94EC038AE190E063E370E04FEF0E94CE
:10203000EC038AE190E064E370E04FEF0E94EC0370
:102040008AE190E065E370E04FEF0E94EC038BE1E2
:1020500090E063E070E04FEF0E94EC038BE190E0D2
:1020600064E070E04FEF0E94EC038BE190E065E0EC
:1020700070E04FEF0E94EC038BE190E066E070E0CF
:102080004FEF0E94EC038BE190E067E070E04FEFD0
:102090000E94EC038BE190E068E070E04FEF0E945B
:1020A000EC038BE190E069E070E04FEF0E94EC03FD
:1020B0008BE190E06AE070E04FEF0E94EC038BE16F
:1020C00090E06BE070E04FEF0E94EC038BE190E05A
:1020D0006CE070E04FEF0E94EC038BE190E06DE06C
:1020E00070E04FEF0E94EC038BE190E06EE070E057
:1020F0004FEF0E94EC038BE190E06FE070E04FEF58
:102100000E94EC038BE190E060E170E04FEF0E94F1
:10211000EC038BE190E061E170E04FEF0E94EC0393
:102120008BE190E062E170E04FEF0E94EC038BE105
:1021300090E063E170E04FEF0E94EC038BE190E0F0
:1021400064E170E04FEF0E94EC038BE190E065E109
:1021500070E04FEF0E94EC038BE190E066E170E0ED
:102160004FEF0E94EC038BE190E067E170E04FEFEE
:102170000E94EC038BE190E068E170E04FEF0E9479
:10218000EC038BE190E06AE170E04FEF0E94EC031A
:102190008BE190E06BE170E04FEF0E94EC038BE18C
:1021A00090E06CE170E04FEF0E94EC038BE190E077
:1021B0006DE170E04FEF0E94EC038BE190E06EE187
:1021C00070E04FEF0E94EC038BE190E06FE170E074
:1021D0004FEF0E94EC038BE190E060E270E04FEF84
:1021E0000E94EC038BE190E061E270E04FEF0E940F
:1021F000EC038BE190E062E270E04FEF0E94EC03B1
:102200008BE190E063E270E04FEF0E94EC038BE122
:1022100090E065E270E04FEF0E94EC038BE190E00C
:1022200066E270E04FEF0E94EC038BE190E067E222
:1022300070E04FEF0E94EC038BE190E068E270E009
:102240004FEF0E94EC038BE190E069E270E04FEF0A
:102250000E94EC038BE190E06AE270E04FEF0E9495
:10226000EC038BE190E06EE270E04FEF0E94EC0334
:102270008BE190E06FE270E04FEF0E94EC038BE1A6
:1022800090E060E370E04FEF0E94EC038BE190E0A0
:1022900061E370E04FEF0E94EC038BE190E062E3BA
:1022A00070E04FEF0E94EC038BE190E063E370E09D
:1022B0004FEF0E94EC038BE190E066E370E04FEF9C
:1022C0000E94EC038BE190E067E370E04FEF0E9427
:1022D000EC038CE190E063E070E04FEF0E94EC03D0
:1022E0008CE190E064E070E04FEF0E94EC038CE141
:1022F00090E065E070E04FEF0E94EC038CE190E02D
:1023000066E070E04FEF0E94EC038CE190E067E044
:1023100070E04FEF0E94EC038CE190E068E070E029
:102320004FEF0E94EC038CE190E069E070E04FEF2A
:102330000E94EC038CE190E06AE070E04FEF0E94B5
:10234000EC038CE190E06BE070E04FEF0E94EC0357
:102350008CE190E06CE070E04FEF0E94EC038CE1C8
:1023600090E06DE070E04FEF0E94EC038CE190E0B4
:102370006EE070E04FEF0E94EC038CE190E06FE0C4
:1023800070E04FEF0E94EC038CE190E060E170E0C0
:102390004FEF0E94EC038CE190E061E170E04FEFC1
:1023A0000E94EC038CE190E062E170E04FEF0E944C
:1023B000EC038CE190E063E170E04FEF0E94EC03EE
:1023C0008CE190E064E170E04FEF0E94EC038CE15F
:1023D00090E065E170E04FEF0E94EC038CE190E04B
:1023E00066E170E04FEF0E94EC038CE190E067E162
:1023F00070E04FEF0E94EC038CE190E068E170E048
:102400004FEF0E94EC038CE190E06AE170E04FEF47
:102410000E94EC038CE190E06BE170E04FEF0E94D2
:10242000EC038CE190E06CE170E04FEF0E94EC0374
:102430008CE190E06DE170E04FEF0E94EC038CE1E5
:1024400090E06EE170E04FEF0E94EC038CE190E0D1
:102450006FE170E04FEF0E94EC038CE190E060E2EE
:1024600070E04FEF0E94EC038CE190E061E270E0DD
:102470004FEF0E94EC038CE190E062E270E04FEFDE
:102480000E94EC038CE190E063E270E04FEF0E9469
:10249000EC038CE190E065E270E04FEF0E94EC030A
:1024A0008CE190E066E270E04FEF0E94EC038CE17B
:1024B00090E067E270E04FEF0E94EC038CE190E067
:1024C00068E270E04FEF0E94EC038CE190E069E27B
:1024D00070E04FEF0E94EC038CE190E06AE270E064
:1024E0004FEF0E94EC038CE190E06BE270E04FEF65
:1024F0000E94EC038CE190E06CE270E04FEF0E94F0
:10250000EC038CE190E06EE270E04FEF0E94EC0390
:102510008CE190E06FE270E04FEF0E94EC038CE101
:1025200090E060E370E04FEF0E94EC038CE190E0FC
:1025300061E370E04FEF0E94EC038CE190E062E316
:1025400070E04FEF0E94EC038CE190E063E370E0F9
:102550004FEF0E94EC038CE190E066E370E04FEFF8
:102560000E94EC038CE190E067E370E04FEF0E9483
:10257000EC038CE190E069E370E04FEF0E94EC0324
:102580008CE190E06AE370E04FEF0E94EC038CE195
:1025900090E06BE370E04FEF0E94EC038CE190E081
:1025A0006CE370E04FEF0E94EC038CE190E06DE390
:1025B00070E04FEF0E94EC038CE190E06EE370E07E
:1025C0004FEF0E94EC038CE190E06FE370E04FEF7F
:1025D0000E94EC038CE190E060E470E04FEF0E9419
:1025E000EC038CE190E061E470E04FEF0E94EC03BB
:1025F0008CE190E062E470E04FEF0E94EC038DE12B
:1026000090E063E070E04FEF0E94EC038DE190E01A
:1026100064E070E04FEF0E94EC038DE190E065E034
:1026200070E04FEF0E94EC038DE190E066E070E017
:102630004FEF0E94EC038DE190E067E070E04FEF18
:102640000E94EC038DE190E068E070E04FEF0E94A3
:10265000EC038DE190E069E070E04FEF0E94EC0345
:102660008DE190E06AE070E04FEF0E94EC038DE1B5
:1026700090E06BE070E04FEF0E94EC038DE190E0A2
:102680006CE070E04FEF0E94EC038DE190E06DE0B4
:1026900070E04FEF0E94EC038DE190E06EE070E09F
:1026A0004FEF0E94EC038DE190E06FE070E04FEFA0
:1026B0000E94EC038DE190E060E170E04FEF0E943A
:1026C000EC038DE190E061E170E04FEF0E94EC03DC
:1026D0008DE190E062E170E04FEF0E94EC038DE14C
:1026E00090E063E170E04FEF0E94EC038DE190E039
:1026F00064E170E04FEF0E94EC038DE190E065E152
:1027000070E04FEF0E94EC038DE190E066E170E035
:102710004FEF0E94EC038DE190E067E170E04FEF36
:102720000E94EC038DE190E068E170E04FEF0E94C1
:10273000EC038DE190E06AE170E04FEF0E94EC0362
:102740008DE190E06BE170E04FEF0E94EC038DE1D2
:1027500090E06EE170E04FEF0E94EC038DE190E0BD
:102760006FE170E04FEF0E94EC038DE190E065E2D5
:1027700070E04FEF0E94EC038DE190E066E270E0C4
:102780004FEF0E94EC038DE190E067E270E04FEFC5
:102790000E94EC038DE190E068E270E04FEF0E9450
:1027A000EC038DE190E069E270E04FEF0E94EC03F2
:1027B0008DE190E06AE270E04FEF0E94EC038DE162
:1027C00090E06BE270E04FEF0E94EC038DE190E04F
:1027D0006CE270E04FEF0E94EC038DE190E069E362
:1027E00070E04FEF0E94EC038DE190E06AE370E04F
:1027F0004FEF0E94EC038DE190E06BE370E04FEF50
:102800000E94EC038DE190E06CE370E04FEF0E94DA
:10281000EC038DE190E06DE370E04FEF0E94EC037C
:102820008DE190E06EE370E04FEF0E94EC038DE1EC
:1028300090E06FE370E04FEF0E94EC038DE190E0D9
:1028400060E470E04FEF0E94EC038DE190E061E402
:1028500070E04FEF0E94EC038DE190E062E470E0E5
:102860004FEF0E94EC038DE190E063E470E04FEFE6
:102870000E94EC038DE190E064E470E04FEF0E9471
:10288000EC038DE190E065E470E04FEF0E94EC0313
:102890008DE190E066E470E04FEF0E94EC038DE183
:1028A00090E067E470E04FEF0E94EC038DE190E070
:1028B00068E470E04FEF0E94EC038DE190E069E482
:1028C00070E04FEF0E94EC038DE190E06AE470E06D
:1028D0004FEF0E94EC038DE190E06BE470E04FEF6E
:1028E0000E94EC038DE190E06CE470E04FEF0E94F9
:1028F000EC038DE190E06DE470E04FEF0E94EC039B
:102900008EE190E063E070E04FEF0E94EC038EE117
:1029100090E064E070E04FEF0E94EC038EE190E005
:1029200065E070E04FEF0E94EC038EE190E066E01E
:1029300070E04FEF0E94EC038EE190E067E070E002
:102940004FEF0E94EC038EE190E068E070E04FEF03
:102950000E94EC038EE190E069E070E04FEF0E948E
:10296000EC038EE190E06AE070E04FEF0E94EC0330
:102970008EE190E06BE070E04FEF0E94EC038EE19F
:1029800090E06CE070E04FEF0E94EC038EE190E08D
:102990006DE070E04FEF0E94EC038EE190E06EE09E
:1029A00070E04FEF0E94EC038EE190E06FE070E08A
:1029B0004FEF0E94EC038EE190E060E170E04FEF9A
:1029C0000E94EC038EE190E061E170E04FEF0E9425
:1029D000EC038EE190E062E170E04FEF0E94EC03C7
:1029E0008EE190E063E170E04FEF0E94EC038EE136
:1029F00090E064E170E04FEF0E94EC038EE190E024
:102A000065E170E04FEF0E94EC038EE190E066E13B
:102A100070E04FEF0E94EC038EE190E067E170E020
:102A20004FEF0E94EC038EE190E068E170E04FEF21
:102A30000E94EC038EE190E06AE170E04FEF0E94AB
:102A4000EC038EE190E06BE170E04FEF0E94EC034D
:102A50008EE190E06EE170E04FEF0E94EC038EE1BA
:102A600090E06FE170E04FEF0E94EC038EE190E0A8
:102A700065E270E04FEF0E94EC038EE190E066E2C9
:102A800070E04FEF0E94EC038EE190E067E270E0AF
:102A90004FEF0E94EC038EE190E068E270E04FEFB0
:102AA0000E94EC038EE190E069E270E04FEF0E943B
:102AB000EC038EE190E06AE270E04FEF0E94EC03DD
:102AC0008EE190E06BE270E04FEF0E94EC038EE14C
:102AD00090E06CE270E04FEF0E94EC038EE190E03A
:102AE00069E370E04FEF0E94EC038EE190E06AE34F
:102AF00070E04FEF0E94EC038EE190E06BE370E03A
:102B00004FEF0E94EC038EE190E06CE370E04FEF3A
:102B10000E94EC038EE190E06DE370E04FEF0E94C5
:102B2000EC038EE190E06EE370E04FEF0E94EC0367
:102B30008EE190E06FE370E04FEF0E94EC038EE1D6
:102B400090E060E470E04FEF0E94EC038EE190E0D3
:102B500061E470E04FEF0E94EC038EE190E062E4EC
:102B600070E04FEF0E94EC038EE190E063E470E0D0
:102B70004FEF0E94EC038EE190E064E470E04FEFD1
:102B80000E94EC038EE190E065E470E04FEF0E945C
:102B9000EC038EE190E066E470E04FEF0E94EC03FE
:102BA0008EE190E067E470E04FEF0E94EC038EE16D
:102BB00090E068E470E04FEF0E94EC038FE190E05A
:102BC00063E070E04FEF0E94EC038FE190E064E07F
:102BD00070E04FEF0E94EC038FE190E065E070E061
:102BE0004FEF0E94EC038FE190E066E070E04FEF62
:102BF0000E94EC038FE190E067E070E04FEF0E94ED
:102C0000EC038FE190E068E070E04FEF0E94EC038E
:102C10008FE190E069E070E04FEF0E94EC038FE1FC
:102C200090E06AE070E04FEF0E94EC038FE190E0EB
:102C30006BE070E04FEF0E94EC038FE190E06CE0FE
:102C400070E04FEF0E94EC038FE190E06DE070E0E8
:102C50004FEF0E94EC038FE190E06EE070E04FEFE9
:102C60000E94EC038FE190E06FE070E04FEF0E9474
:102C7000EC038FE190E060E170E04FEF0E94EC0325
:102C80008FE190E061E170E04FEF0E94EC038FE193
:102C900090E062E170E04FEF0E94EC038FE190E082
:102CA00063E170E04FEF0E94EC038FE190E064E19C
:102CB00070E04FEF0E94EC038FE190E065E170E07F
:102CC0004FEF0E94EC038FE190E066E170E04FEF80
:102CD0000E94EC038FE190E067E170E04FEF0E940B
:102CE000EC038FE190E068E170E04FEF0E94EC03AD
:102CF0008FE190E06AE170E04FEF0E94EC038FE11A
:102D000090E06BE170E04FEF0E94EC038FE190E008
:102D10006EE170E04FEF0E94EC038FE190E06FE115
:102D200070E04FEF0E94EC038FE190E065E270E00D
:102D30004FEF0E94EC038FE190E066E270E04FEF0E
:102D40000E94EC038FE190E067E270E04FEF0E9499
:102D5000EC038FE190E068E270E04FEF0E94EC033B
:102D60008FE190E069E270E04FEF0E94EC038FE1A9
:102D700090E06AE270E04FEF0E94EC038FE190E098
:102D80006BE270E04FEF0E94EC038FE190E06CE2A9
:102D900070E04FEF0E94EC038FE190E06EE270E094
:102DA0004FEF0E94EC038FE190E06FE270E04FEF95
:102DB0000E94EC038FE190E066E370E04FEF0E9429
:102DC000EC038FE190E067E370E04FEF0E94EC03CB
:102DD0008FE190E069E370E04FEF0E94EC038FE138
:102DE00090E06AE370E04FEF0E94EC038FE190E027
:102DF0006BE370E04FEF0E94EC038FE190E06CE337
:102E000070E04FEF0E94EC038FE190E06DE370E023
:102E10004FEF0E94EC038FE190E06EE370E04FEF24
:102E20000E94EC038FE190E06FE370E04FEF0E94AF
:102E3000EC038FE190E060E470E04FEF0E94EC0360
:102E40008FE190E061E470E04FEF0E94EC038FE1CE
:102E500090E062E470E04FEF0E94EC038FE190E0BD
:102E600063E470E04FEF0E94EC038FE190E064E4D4
:102E700070E04FEF0E94EC0380E290E063E070E0CE
:102E80004FEF0E94EC0380E290E064E070E04FEFCF
:102E90000E94EC0380E290E065E070E04FEF0E945A
:102EA000EC0380E290E066E070E04FEF0E94EC03FC
:102EB00080E290E067E070E04FEF0E94EC0380E278
:102EC00090E068E070E04FEF0E94EC0380E290E059
:102ED00069E070E04FEF0E94EC0380E290E06AE06E
:102EE00070E04FEF0E94EC0380E290E06BE070E056
:102EF0004FEF0E94EC0380E290E06CE070E04FEF57
:102F00000E94EC0380E290E06DE070E04FEF0E94E1
:102F1000EC0380E290E06EE070E04FEF0E94EC0383
:102F200080E290E06FE070E04FEF0E94EC0380E2FF
:102F300090E060E170E04FEF0E94EC0380E290E0EF
:102F400061E170E04FEF0E94EC0380E290E062E10B
:102F500070E04FEF0E94EC0380E290E063E170E0EC
:102F60004FEF0E94EC0380E290E064E170E04FEFED
:102F70000E94EC0380E290E065E170E04FEF0E9478
:102F8000EC0380E290E066E170E04FEF0E94EC031A
:102F900080E290E067E170E04FEF0E94EC0380E296
:102FA00090E068E170E04FEF0E94EC0380E290E077
:102FB0006AE170E04FEF0E94EC0380E290E06BE189
:102FC00070E04FEF0E94EC0380E290E06EE170E071
:102FD0004FEF0E94EC0380E290E06FE170E04FEF72
:102FE0000E94EC0380E290E065E270E04FEF0E9407
:102FF000EC0380E290E066E270E04FEF0E94EC03A9
:1030000080E290E067E270E04FEF0E94EC0380E224
:1030100090E068E270E04FEF0E94EC0380E290E005
:1030200069E270E04FEF0E94EC0380E290E06AE218
:1030300070E04FEF0E94EC0380E290E06BE270E002
:103040004FEF0E94EC0380E290E06CE270E04FEF03
:103050000E94EC0380E290E06EE270E04FEF0E948D
:10306000EC0380E290E06FE270E04FEF0E94EC032F
:1030700080E290E066E370E04FEF0E94EC0380E2B4
:1030800090E067E370E04FEF0E94EC0380E290E095
:1030900069E370E04FEF0E94EC0380E290E06AE3A6
:1030A00070E04FEF0E94EC0380E290E06BE370E091
:1030B0004FEF0E94EC0380E290E06CE370E04FEF92
:1030C0000E94EC0380E290E06DE370E04FEF0E941D
:1030D000EC0380E290E06EE370E04FEF0E94EC03BF
:1030E00080E290E06FE370E04FEF0E94EC0380E23B
:1030F00090E060E470E04FEF0E94EC0380E290E02B
:1031000061E470E04FEF0E94EC0381E290E063E045
:1031100070E04FEF0E94EC0381E290E064E070E029
:103120004FEF0E94EC0381E290E065E070E04FEF2A
:103130000E94EC0381E290E066E070E04FEF0E94B5
:10314000EC0381E290E067E070E04FEF0E94EC0357
:1031500081E290E068E070E04FEF0E94EC0381E2D2
:1031600090E069E070E04FEF0E94EC0381E290E0B4
:103170006AE070E04FEF0E94EC0381E290E06BE0C8
:1031800070E04FEF0E94EC0381E290E06CE070E0B1
:103190004FEF0E94EC0381E290E06DE070E04FEFB2
:1031A0000E94EC0381E290E06EE070E04FEF0E943D
:1031B000EC0381E290E06FE070E04FEF0E94EC03DF
:1031C00081E290E060E170E04FEF0E94EC0381E269
:1031D00090E061E170E04FEF0E94EC0381E290E04B
:1031E00062E170E04FEF0E94EC0381E290E063E166
:1031F00070E04FEF0E94EC0381E290E064E170E048
:103200004FEF0E94EC0381E290E065E170E04FEF48
:103210000E94EC0381E290E066E170E04FEF0E94D3
:10322000EC0381E290E067E170E04FEF0E94EC0375
:1032300081E290E068E170E04FEF0E94EC0381E2F0
:1032400090E06AE170E04FEF0E94EC0381E290E0D1
:103250006BE170E04FEF0E94EC0381E290E06CE1E3
:1032600070E04FEF0E94EC0381E290E06DE170E0CE
:103270004FEF0E94EC0381E290E06EE170E04FEFCF
:103280000E94EC0381E290E06FE170E04FEF0E945A
:10329000EC0381E290E060E270E04FEF0E94EC030B
:1032A00081E290E061E270E04FEF0E94EC0381E286
:1032B00090E062E270E04FEF0E94EC0381E290E068
:1032C00063E270E04FEF0E94EC0381E290E065E280
:1032D00070E04FEF0E94EC0381E290E066E270E064
:1032E0004FEF0E94EC0381E290E067E270E04FEF65
:1032F0000E94EC0381E290E068E270E04FEF0E94F0
:10330000EC0381E290E069E270E04FEF0E94EC0391
:1033100081E290E06AE270E04FEF0E94EC0381E20C
:1033200090E06BE270E04FEF0E94EC0381E290E0EE
:103330006CE270E04FEF0E94EC0381E290E06EE2FD
:1033400070E04FEF0E94EC0381E290E06FE270E0EA
:103350004FEF0E94EC0381E290E066E370E04FEFF4
:103360000E94EC0381E290E067E370E04FEF0E947F
:10337000EC0381E290E069E370E04FEF0E94EC0320
:1033800081E290E06AE370E04FEF0E94EC0381E29B
:1033900090E06BE370E04FEF0E94EC0381E290E07D
:1033A0006CE370E04FEF0E94EC0381E290E06DE38C
:1033B00070E04FEF0E94EC0382E290E063E070E087
:1033C0004FEF0E94EC0382E290E064E070E04FEF88
:1033D0000E94EC0382E290E065E070E04FEF0E9413
:1033E000EC0382E290E066E070E04FEF0E94EC03B5
:1033F00082E290E067E070E04FEF0E94EC0382E22F
:1034000090E068E070E04FEF0E94EC0382E290E011
:1034100069E070E04FEF0E94EC0382E290E06AE026
:1034200070E04FEF0E94EC0382E290E06BE070E00E
:103430004FEF0E94EC0382E290E06CE070E04FEF0F
:103440000E94EC0382E290E06DE070E04FEF0E949A
:10345000EC0382E290E06EE070E04FEF0E94EC033C
:1034600082E290E06FE070E04FEF0E94EC0382E2B6
:1034700090E060E170E04FEF0E94EC0382E290E0A8
:1034800061E170E04FEF0E94EC0382E290E062E1C4
:1034900070E04FEF0E94EC0382E290E063E170E0A5
:1034A0004FEF0E94EC0382E290E064E170E04FEFA6
:1034B0000E94EC0382E290E065E170E04FEF0E9431
:1034C000EC0382E290E066E170E04FEF0E94EC03D3
:1034D00082E290E067E170E04FEF0E94EC0382E24D
:1034E00090E068E170E04FEF0E94EC0382E290E030
:1034F0006AE170E04FEF0E94EC0382E290E06BE142
:1035000070E04FEF0E94EC0382E290E06CE170E02B
:103510004FEF0E94EC0382E290E06DE170E04FEF2C
:103520000E94EC0382E290E06EE170E04FEF0E94B7
:10353000EC0382E290E06FE170E04FEF0E94EC0359
:1035400082E290E060E270E04FEF0E94EC0382E2E2
:1035500090E061E270E04FEF0E94EC0382E290E0C5
:1035600062E270E04FEF0E94EC0382E290E063E2DF
:1035700070E04FEF0E94EC0382E290E065E270E0C1
:103580004FEF0E94EC0382E290E066E270E04FEFC2
:103590000E94EC0382E290E067E270E04FEF0E944D
:1035A000EC0382E290E068E270E04FEF0E94EC03EF
:1035B00082E290E069E270E04FEF0E94EC0382E269
:1035C00090E06AE270E04FEF0E94EC0382E290E04C
:1035D0006BE270E04FEF0E94EC0382E290E06CE25D
:1035E00070E04FEF0E94EC0382E290E06EE270E048
:1035F0004FEF0E94EC0382E290E06FE270E04FEF49
:103600000E94EC0382E290E060E370E04FEF0E94E2
:10361000EC0382E290E061E370E04FEF0E94EC0384
:1036200082E290E062E370E04FEF0E94EC0382E2FE
:1036300090E063E370E04FEF0E94EC0382E290E0E1
:1036400064E370E04FEF0E94EC0382E290E065E3F8
:1036500070E04FEF0E94EC0382E290E066E370E0DE
:103660004FEF0E94EC0382E290E067E370E04FEFDF
:103670000E94EC0382E290E069E370E04FEF0E9469
:10368000EC0382E290E06AE370E04FEF0E94EC030B
:1036900083E290E063E070E04FEF0E94EC0383E28E
:1036A00090E064E070E04FEF0E94EC0383E290E072
:1036B00065E070E04FEF0E94EC0383E290E066E08B
:1036C00070E04FEF0E94EC0383E290E067E070E06F
:1036D0004FEF0E94EC0383E290E068E070E04FEF70
:1036E0000E94EC0383E290E069E070E04FEF0E94FB
:1036F000EC0383E290E06AE070E04FEF0E94EC039D
:1037000083E290E06BE070E04FEF0E94EC0383E215
:1037100090E06CE070E04FEF0E94EC0383E290E0F9
:103720006DE070E04FEF0E94EC0383E290E06EE00A
:1037300070E04FEF0E94EC0383E290E06FE070E0F6
:103740004FEF0E94EC0383E290E060E170E04FEF06
:103750000E94EC0383E290E061E170E04FEF0E9491
:10376000EC0383E290E062E170E04FEF0E94EC0333
:1037700083E290E063E170E04FEF0E94EC0383E2AC
:1037800090E064E170E04FEF0E94EC0383E290E090
:1037900066E170E04FEF0E94EC0383E290E067E1A6
:1037A00070E04FEF0E94EC0383E290E068E170E08C
:1037B0004FEF0E94EC0383E290E065E270E04FEF90
:1037C0000E94EC0383E290E066E270E04FEF0E941B
:1037D000EC0383E290E067E270E04FEF0E94EC03BD
:1037E00083E290E068E270E04FEF0E94EC0383E236
:1037F00090E069E270E04FEF0E94EC0383E290E01A
:103800006AE270E04FEF0E94EC0383E290E06BE22B
:1038100070E04FEF0E94EC0383E290E06CE270E016
:103820004FEF0E94EC0383E290E06EE270E04FEF16
:103830000E94EC0383E290E06FE270E04FEF0E94A1
:10384000EC0383E290E060E370E04FEF0E94EC0352
:1038500083E290E061E370E04FEF0E94EC0383E2CB
:1038600090E062E370E04FEF0E94EC0383E290E0AF
:1038700063E370E04FEF0E94EC0383E290E064E3C7
:1038800070E04FEF0E94EC0383E290E065E370E0AC
:103890004FEF0E94EC0383E290E066E370E04FEFAD
:1038A0000E94EC0383E290E067E370E04FEF0E9438
:1038B000EC0384E290E063E070E04FEF0E94EC03E1
:1038C00084E290E064E070E04FEF0E94EC0384E259
:1038D00090E065E070E04FEF0E94EC0384E290E03E
:1038E00066E070E04FEF0E94EC0384E290E067E056
:1038F00070E04FEF0E94EC0384E290E068E070E03B
:103900004FEF0E94EC0384E290E069E070E04FEF3B
:103910000E94EC0384E290E06AE070E04FEF0E94C6
:10392000EC0384E290E06BE070E04FEF0E94EC0368
:1039300084E290E06CE070E04FEF0E94EC0384E2E0
:1039400090E06DE070E04FEF0E94EC0384E290E0C5
:103950006EE070E04FEF0E94EC0384E290E06FE0D5
:1039600070E04FEF0E94EC0384E290E060E170E0D1
:103970004FEF0E94EC0384E290E061E170E04FEFD2
:103980000E94EC0384E290E062E170E04FEF0E945D
:10399000EC0384E290E066E170E04FEF0E94EC03FC
:1039A00084E290E067E170E04FEF0E94EC0384E274
:1039B00090E068E170E04FEF0E94EC0384E290E059
:1039C00065E270E04FEF0E94EC0384E290E066E273
:1039D00070E04FEF0E94EC0384E290E067E270E059
:1039E0004FEF0E94EC0384E290E068E270E04FEF5A
:1039F0000E94EC0384E290E069E270E04FEF0E94E5
:103A0000EC0384E290E06AE270E04FEF0E94EC0386
:103A100084E290E06BE270E04FEF0E94EC0384E2FE
:103A200090E06CE270E04FEF0E94EC0384E290E0E3
:103A30006EE270E04FEF0E94EC0384E290E06FE2F0
:103A400070E04FEF0E94EC0384E290E066E370E0E8
:103A50004FEF0E94EC0384E290E067E370E04FEFE9
:103A60000E94EC0385E290E063E070E04FEF0E947B
:103A7000EC0385E290E064E070E04FEF0E94EC031D
:103A800085E290E065E070E04FEF0E94EC0385E294
:103A900090E066E070E04FEF0E94EC0385E290E07A
:103AA00067E070E04FEF0E94EC0385E290E068E091
:103AB00070E04FEF0E94EC0385E290E069E070E077
:103AC0004FEF0E94EC0385E290E06AE070E04FEF78
:103AD0000E94EC0385E290E06BE070E04FEF0E9403
:103AE000EC0385E290E06CE070E04FEF0E94EC03A5
:103AF00085E290E06DE070E04FEF0E94EC0385E21C
:103B000090E06EE070E04FEF0E94EC0385E290E001
:103B10006FE070E04FEF0E94EC0385E290E066E119
:103B200070E04FEF0E94EC0385E290E067E170E007
:103B30004FEF0E94EC0385E290E068E170E04FEF08
:103B40000E94EC0385E290E06AE170E04FEF0E9492
:103B5000EC0385E290E06BE170E04FEF0E94EC0334
:103B600085E290E06CE170E04FEF0E94EC0385E2AB
:103B700090E06DE170E04FEF0E94EC0385E290E091
:103B80006EE170E04FEF0E94EC0385E290E06FE1A0
:103B900070E04FEF0E94EC0385E290E060E270E09D
:103BA0004FEF0E94EC0385E290E061E270E04FEF9E
:103BB0000E94EC0385E290E062E270E04FEF0E9429
:103BC000EC0385E290E063E270E04FEF0E94EC03CB
:103BD00085E290E065E270E04FEF0E94EC0385E241
:103BE00090E066E270E04FEF0E94EC0385E290E027
:103BF00067E270E04FEF0E94EC0385E290E068E23C
:103C000070E04FEF0E94EC0385E290E069E270E023
:103C10004FEF0E94EC0385E290E06AE270E04FEF24
:103C20000E94EC0385E290E06BE270E04FEF0E94AF
:103C3000EC0385E290E06CE270E04FEF0E94EC0351
:103C400085E290E06EE270E04FEF0E94EC0385E2C7
:103C500090E06FE270E04FEF0E94EC0385E290E0AD
:103C600066E370E04FEF0E94EC0385E290E067E3CB
:103C700070E04FEF0E94EC0386E290E063E070E0BA
:103C80004FEF0E94EC0386E290E064E070E04FEFBB
:103C90000E94EC0386E290E065E070E04FEF0E9446
:103CA000EC0386E290E066E070E04FEF0E94EC03E8
:103CB00086E290E067E070E04FEF0E94EC0386E25E
:103CC00090E068E070E04FEF0E94EC0386E290E045
:103CD00069E070E04FEF0E94EC0386E290E06AE05A
:103CE00070E04FEF0E94EC0386E290E06BE070E042
:103CF0004FEF0E94EC0386E290E06CE070E04FEF43
:103D00000E94EC0386E290E066E170E04FEF0E94D3
:103D1000EC0386E290E067E170E04FEF0E94EC0375
:103D200086E290E068E170E04FEF0E94EC0386E2EB
:103D300090E06AE170E04FEF0E94EC0386E290E0D1
:103D40006BE170E04FEF0E94EC0386E290E06CE1E3
:103D500070E04FEF0E94EC0386E290E06DE170E0CE
:103D60004FEF0E94EC0386E290E06EE170E04FEFCF
:103D70000E94EC0386E290E06FE170E04FEF0E945A
:103D8000EC0386E290E060E270E04FEF0E94EC030B
:103D900086E290E061E270E04FEF0E94EC0386E281
:103DA00090E062E270E04FEF0E94EC0386E290E068
:103DB00063E270E04FEF0E94EC0386E290E065E280
:103DC00070E04FEF0E94EC0386E290E066E270E064
:103DD0004FEF0E94EC0386E290E067E270E04FEF65
:103DE0000E94EC0386E290E068E270E04FEF0E94F0
:103DF000EC0386E290E069E270E04FEF0E94EC0392
:103E000086E290E06AE270E04FEF0E94EC0386E207
:103E100090E06BE270E04FEF0E94EC0386E290E0EE
:103E20006CE270E04FEF0E94EC0386E290E06EE2FD
:103E300070E04FEF0E94EC0386E290E06FE270E0EA
:103E40004FEF0E94EC0386E290E066E370E04FEFF4
:103E50000E94EC0386E290E067E370E04FEF0E947F
:103E6000EC0387E290E063E070E04FEF0E94EC0328
:103E700087E290E064E070E04FEF0E94EC0387E29D
:103E800090E065E070E04FEF0E94EC0387E290E085
:103E900066E070E04FEF0E94EC0387E290E067E09D
:103EA00070E04FEF0E94EC0387E290E068E070E082
:103EB0004FEF0E94EC0387E290E069E070E04FEF83
:103EC0000E94EC0387E290E06AE070E04FEF0E940E
:103ED000EC0387E290E066E170E04FEF0E94EC03B4
:103EE00087E290E067E170E04FEF0E94EC0387E229
:103EF00090E068E170E04FEF0E94EC0387E290E011
:103F00006AE170E04FEF0E94EC0387E290E06BE122
:103F100070E04FEF0E94EC0387E290E06EE170E00A
:103F20004FEF0E94EC0387E290E06FE170E04FEF0B
:103F30000E94EC0387E290E065E270E04FEF0E94A0
:103F4000EC0387E290E066E270E04FEF0E94EC0342
:103F500087E290E067E270E04FEF0E94EC0387E2B7
:103F600090E068E270E04FEF0E94EC0387E290E09F
:103F700069E270E04FEF0E94EC0387E290E06AE2B2
:103F800070E04FEF0E94EC0388E290E063E070E0A5
:103F90004FEF0E94EC0388E290E064E070E04FEFA6
:103FA0000E94EC0388E290E065E070E04FEF0E9431
:103FB000EC0388E290E066E070E04FEF0E94EC03D3
:103FC00088E290E067E070E04FEF0E94EC0388E247
:103FD00090E066E170E04FEF0E94EC0388E290E031
:103FE00067E170E04FEF0E94EC0388E290E068E147
:103FF00070E04FEF0E94EC0388E290E06AE170E02D
:104000004FEF0E94EC0388E290E06BE170E04FEF2D
:104010000E94EC0388E290E06EE170E04FEF0E94B6
:10402000EC0388E290E06FE170E04FEF0E94EC0358
:1040300088E290E065E270E04FEF0E94EC0388E2D6
:1040400090E066E270E04FEF0E94EC0389E290E0BE
:1040500063E070E04FEF0E94EC0389E290E064E0DF
:1040600070E04FEF0E94EC0389E290E065E070E0C1
:104070004FEF0E94EC0389E290E066E170E04FEFC1
:104080000E94EC0389E290E067E170E04FEF0E944C
:10409000EC0389E290E068E170E04FEF0E94EC03EE
:1040A00089E290E06AE170E04FEF0E94EC0389E260
:1040B00090E06BE170E04FEF0E94EC0389E290E04A
:1040C0006EE170E04FEF0E94EC0389E290E06FE157
:1040D00070E04FEF0E94EC0389E290E060E270E054
:1040E0004FEF0E94EC0389E290E061E270E04FEF55
:1040F0000E94EC0389E290E06EE270E04FEF0E94D4
:10410000EC0389E290E06FE270E04FEF0E94EC0375
:1041100089E290E060E370E04FEF0E94EC0389E2F7
:1041200090E061E370E04FEF0E94EC0389E290E0E1
:1041300062E370E04FEF0E94EC0389E290E063E3FA
:1041400070E04FEF0E94EC0389E290E064E370E0DE
:104150004FEF0E94EC0389E290E065E370E04FEFDF
:104160000E94EC0389E290E066E370E04FEF0E946A
:10417000EC0389E290E067E370E04FEF0E94EC030C
:104180008AE290E063E070E04FEF0E94EC038AE285
:1041900090E064E070E04FEF0E94EC038AE290E070
:1041A00066E170E04FEF0E94EC038AE290E067E185
:1041B00070E04FEF0E94EC038AE290E068E170E06B
:1041C0004FEF0E94EC038AE290E06AE170E04FEF6B
:1041D0000E94EC038AE290E06BE170E04FEF0E94F6
:1041E000EC038AE290E06EE170E04FEF0E94EC0396
:1041F0008AE290E06FE170E04FEF0E94EC038AE208
:1042000090E060E270E04FEF0E94EC038AE290E001
:1042100061E270E04FEF0E94EC038AE290E06EE210
:1042200070E04FEF0E94EC038AE290E06FE270E0F2
:104230004FEF0E94EC038AE290E060E370E04FEF02
:104240000E94EC038AE290E061E370E04FEF0E948D
:10425000EC038AE290E062E370E04FEF0E94EC032F
:104260008AE290E063E370E04FEF0E94EC038AE2A1
:1042700090E064E370E04FEF0E94EC038AE290E08C
:1042800065E370E04FEF0E94EC038AE290E066E3A2
:1042900070E04FEF0E94EC038AE290E067E370E089
:1042A0004FEF0E94EC038BE290E066E170E04FEF8D
:1042B0000E94EC038BE290E067E170E04FEF0E9418
:1042C000EC038BE290E068E170E04FEF0E94EC03BA
:1042D0008BE290E06AE170E04FEF0E94EC038BE22A
:1042E00090E06BE170E04FEF0E94EC038BE290E016
:1042F0006CE170E04FEF0E94EC038BE290E06DE127
:1043000070E04FEF0E94EC038BE290E06EE170E012
:104310004FEF0E94EC038BE290E06FE170E04FEF13
:104320000E94EC038BE290E062E270E04FEF0E94AB
:10433000EC038BE290E063E270E04FEF0E94EC034D
:104340008BE290E06EE270E04FEF0E94EC038BE2B4
:1043500090E06FE270E04FEF0E94EC038BE290E0A0
:1043600066E370E04FEF0E94EC038BE290E067E3BE
:1043700070E04FEF0E94EC038CE290E066E170E0A9
:104380004FEF0E94EC038CE290E067E170E04FEFAA
:104390000E94EC038CE290E06AE170E04FEF0E9433
:1043A000EC038CE290E06BE170E04FEF0E94EC03D5
:1043B0008CE290E06CE170E04FEF0E94EC038CE245
:1043C00090E06DE170E04FEF0E94EC038CE290E032
:1043D0006EE170E04FEF0E94EC038CE290E06FE141
:1043E00070E04FEF0E94EC038CE290E062E270E03C
:1043F0004FEF0E94EC038CE290E063E270E04FEF3D
:104400000E94EC038CE290E06EE270E04FEF0E94BD
:10441000EC038CE290E06FE270E04FEF0E94EC035F
:104420008CE290E066E370E04FEF0E94EC038CE2D8
:1044300090E067E370E04FEF0E94EC038DE290E0C4
:1044400066E170E04FEF0E94EC038DE290E06EE2D7
:1044500070E04FEF0E94EC038DE290E06FE270E0BD
:104460004FEF0E94EC038DE290E066E370E04FEFC7
:104470000E94EC038DE290E067E370E04FEF0E9452
:10448000EC038EE290E06EE270E04FEF0E94EC03EE
:104490008EE290E06FE270E04FEF0E94EC038EE25C
:1044A00090E066E370E04FEF0E94EC038EE290E054
:1044B00067E370E04FEF0E94EC038FE290E06AE167
:1044C00070E04FEF0E94EC038FE290E06BE170E050
:1044D0004FEF0E94EC038FE290E060E370E04FEF5B
:1044E0000E94EC038FE290E061E370E04FEF0E94E6
:1044F000EC038FE290E062E370E04FEF0E94EC0388
:104500008FE290E063E370E04FEF0E94EC038FE2F4
:1045100090E064E370E04FEF0E94EC038FE290E0E4
:1045200065E370E04FEF0E94EC0380E390E06AE106
:1045300070E04FEF0E94EC0380E390E06BE170E0ED
:104540004FEF0E94EC0380E390E060E370E04FEFF8
:104550000E94EC0380E390E061E370E04FEF0E9483
:10456000EC0380E390E062E370E04FEF0E94EC0325
:1045700080E390E063E370E04FEF0E94EC0380E3A0
:1045800090E064E370E04FEF0E94EC0380E390E082
:1045900065E370E04FEF0E94EC0381E390E06AE195
:1045A00070E04FEF0E94EC0381E390E06BE170E07C
:1045B0004FEF0E94EC0382E390E06AE170E04FEF7E
:1045C0000E94EC0382E390E06BE170E04FEF0E9409
:1045D000EC0382E390E06CE170E04FEF0E94EC03AB
:1045E00082E390E06DE170E04FEF0E94EC0382E324
:1045F00090E06EE170E04FEF0E94EC0382E390E008
:104600006FE170E04FEF0E94EC0382E390E060E224
:1046100070E04FEF0E94EC0382E390E061E270E013
:104620004FEF0E94EC0382E390E062E270E04FEF14
:104630000E94EC0382E390E063E270E04FEF0E949F
:10464000EC0383E390E06AE170E04FEF0E94EC033B
:1046500083E390E06BE170E04FEF0E94EC0383E3B3
:1046600090E06CE170E04FEF0E94EC0383E390E098
:104670006DE170E04FEF0E94EC0383E390E06EE1A8
:1046800070E04FEF0E94EC0383E390E06FE170E095
:104690004FEF0E94EC0383E390E060E270E04FEFA5
:1046A0000E94EC0383E390E061E270E04FEF0E9430
:1046B000EC0383E390E062E270E04FEF0E94EC03D2
:1046C00083E390E063E270E04FEF0E94EC0384E349
:1046D00090E06AE170E04FEF0E94EC0384E390E029
:1046E0006BE170E04FEF0E94EC0385E390E06AE13C
:1046F00070E04FEF0E94EC0385E390E06BE170E027
:104700004FEF0E94EC0386E390E06AE170E04FEF28
:104710000E94EC0386E390E06BE170E04FEF0E94B3
:10472000EC038DE390E06BE070E04FEF0E94EC0350
:104730008DE390E06CE070E04FEF0E94EC038DE3BE
:1047400090E06DE070E04FEF0E94EC038DE390E0AD
:104750006EE070E04FEF0E94EC038DE390E06FE0BD
:1047600070E04FEF0E94EC038DE390E060E170E0B9
:104770004FEF0E94EC038DE390E061E170E04FEFBA
:104780000E94EC038DE390E062E170E04FEF0E9445
:10479000EC038DE390E063E170E04FEF0E94EC03E7
:1047A0008DE390E064E170E04FEF0E94EC038DE355
:1047B00090E065E170E04FEF0E94EC038DE390E044
:1047C00066E170E04FEF0E94EC038DE390E067E15B
:1047D00070E04FEF0E94EC038DE390E068E170E041
:1047E0004FEF0E94EC038DE390E069E170E04FEF42
:1047F0000E94EC038DE390E06AE170E04FEF0E94CD
:10480000EC038DE390E06BE170E04FEF0E94EC036E
:104810008DE390E06CE170E04FEF0E94EC038DE3DC
:1048200090E06DE170E04FEF0E94EC038DE390E0CB
:104830006EE170E04FEF0E94EC038DE390E06FE1DA
:1048400070E04FEF0E94EC038DE390E060E270E0D7
:104850004FEF0E94EC038DE390E061E270E04FEFD8
:104860000E94EC038DE390E062E270E04FEF0E9463
:10487000EC038DE390E063E270E04FEF0E94EC0305
:104880008DE390E064E270E04FEF0E94EC038DE373
:1048900090E065E270E04FEF0E94EC038DE390E062
:1048A00066E270E04FEF0E94EC038DE390E067E278
:1048B00070E04FEF0E94EC038DE390E068E270E05F
:1048C0004FEF0E94EC038DE390E069E270E04FEF60
:1048D0000E94EC038DE390E06AE270E04FEF0E94EB
:1048E000EC038DE390E06BE270E04FEF0E94EC038D
:1048F0008DE390E06CE270E04FEF0E94EC038DE3FB
:1049000090E06DE270E04FEF0E94EC038DE390E0E9
:104910006EE270E04FEF0E94EC038DE390E06FE2F7
:1049200070E04FEF0E94EC038DE390E060E370E0F5
:104930004FEF0E94EC038DE390E061E370E04FEFF6
:104940000E94EC038DE390E062E370E04FEF0E9481
:10495000EC038DE390E063E370E04FEF0E94EC0323
:104960008DE390E064E370E04FEF0E94EC038DE391
:1049700090E065E370E04FEF0E94EC038DE390E080
:1049800066E370E04FEF0E94EC038DE390E067E395
:1049900070E04FEF0E94EC038DE390E068E370E07D
:1049A0004FEF0E94EC038DE390E069E370E04FEF7E
:1049B0000E94EC038DE390E06AE370E04FEF0E9409
:1049C000EC038DE390E06BE370E04FEF0E94EC03AB
:1049D0008DE390E06CE370E04FEF0E94EC038DE319
:1049E00090E06DE370E04FEF0E94EC038DE390E008
:1049F0006EE370E04FEF0E94EC038DE390E06FE315
:104A000070E04FEF0E94EC038DE390E060E470E013
:104A10004FEF0E94EC038DE390E061E470E04FEF14
:104A20000E94EC038DE390E062E470E04FEF0E949F
:104A3000EC038DE390E063E470E04FEF0E94EC0341
:104A40008DE390E064E470E04FEF0E94EC038DE3AF
:104A500090E065E470E04FEF0E94EC038DE390E09E
:104A600066E470E04FEF0E94EC038DE390E067E4B2
:104A700070E04FEF0E94EC038DE390E068E470E09B
:104A80004FEF0E94EC038EE390E06AE070E04FEF9E
:104A90000E94EC038EE390E06BE070E04FEF0E9429
:104AA000EC038EE390E06CE070E04FEF0E94EC03CB
:104AB0008EE390E06DE070E04FEF0E94EC038EE338
:104AC00090E06EE070E04FEF0E94EC038EE390E028
:104AD0006FE070E04FEF0E94EC038EE390E060E146
:104AE00070E04FEF0E94EC038EE390E061E170E034
:104AF0004FEF0E94EC038EE390E062E170E04FEF35
:104B00000E94EC038EE390E063E170E04FEF0E94BF
:104B1000EC038EE390E064E170E04FEF0E94EC0361
:104B20008EE390E065E170E04FEF0E94EC038EE3CE
:104B300090E066E170E04FEF0E94EC038EE390E0BE
:104B400067E170E04FEF0E94EC038EE390E068E1D4
:104B500070E04FEF0E94EC038EE390E069E170E0BB
:104B60004FEF0E94EC038EE390E06AE170E04FEFBC
:104B70000E94EC038EE390E06BE170E04FEF0E9447
:104B8000EC038EE390E06CE170E04FEF0E94EC03E9
:104B90008EE390E06DE170E04FEF0E94EC038EE356
:104BA00090E06EE170E04FEF0E94EC038EE390E046
:104BB0006FE170E04FEF0E94EC038EE390E060E263
:104BC00070E04FEF0E94EC038EE390E061E270E052
:104BD0004FEF0E94EC038EE390E062E270E04FEF53
:104BE0000E94EC038EE390E063E270E04FEF0E94DE
:104BF000EC038EE390E064E270E04FEF0E94EC0380
:104C00008EE390E065E270E04FEF0E94EC038EE3EC
:104C100090E066E270E04FEF0E94EC038EE390E0DC
:104C200067E270E04FEF0E94EC038EE390E068E2F1
:104C300070E04FEF0E94EC038EE390E069E270E0D9
:104C40004FEF0E94EC038EE390E06AE270E04FEFDA
:104C50000E94EC038EE390E06BE270E04FEF0E9465
:104C6000EC038EE390E06CE270E04FEF0E94EC0307
:104C70008EE390E06DE270E04FEF0E94EC038EE374
:104C800090E06EE270E04FEF0E94EC038EE390E064
:104C90006FE270E04FEF0E94EC038EE390E060E380
:104CA00070E04FEF0E94EC038EE390E061E370E070
:104CB0004FEF0E94EC038EE390E062E370E04FEF71
:104CC0000E94EC038EE390E063E370E04FEF0E94FC
:104CD000EC038EE390E064E370E04FEF0E94EC039E
:104CE0008EE390E065E370E04FEF0E94EC038EE30B
:104CF00090E066E370E04FEF0E94EC038EE390E0FB
:104D000067E370E04FEF0E94EC038EE390E068E30E
:104D100070E04FEF0E94EC038EE390E069E370E0F7
:104D20004FEF0E94EC038EE390E06AE370E04FEFF8
:104D30000E94EC038EE390E06BE370E04FEF0E9483
:104D4000EC038EE390E06CE370E04FEF0E94EC0325
:104D50008EE390E06DE370E04FEF0E94EC038EE392
:104D600090E06EE370E04FEF0E94EC038EE390E082
:104D70006FE370E04FEF0E94EC038EE390E060E49D
:104D800070E04FEF0E94EC038EE390E061E470E08E
:104D90004FEF0E94EC038EE390E062E470E04FEF8F
:104DA0000E94EC038EE390E063E470E04FEF0E941A
:104DB000EC038EE390E064E470E04FEF0E94EC03BC
:104DC0008EE390E065E470E04FEF0E94EC038EE329
:104DD00090E066E470E04FEF0E94EC038EE390E019
:104DE00067E470E04FEF0E94EC038EE390E068E42C
:104DF00070E04FEF0E94EC038EE390E069E470E016
:104E00004FEF0E94EC038EE390E06AE470E04FEF16
:104E10000E94EC038FE390E069E070E04FEF0E94A6
:104E2000EC038FE390E06AE070E04FEF0E94EC0348
:104E30008FE390E06BE070E04FEF0E94EC038FE3B4
:104E400090E06CE070E04FEF0E94EC038FE390E0A5
:104E50006DE070E04FEF0E94EC038FE390E06EE0B6
:104E600070E04FEF0E94EC038FE390E06FE070E0A2
:104E70004FEF0E94EC038FE390E060E170E04FEFB2
:104E80000E94EC038FE390E061E170E04FEF0E943D
:104E9000EC038FE390E062E170E04FEF0E94EC03DF
:104EA0008FE390E063E170E04FEF0E94EC038FE34B
:104EB00090E064E170E04FEF0E94EC038FE390E03C
:104EC00065E170E04FEF0E94EC038FE390E066E154
:104ED00070E04FEF0E94EC038FE390E067E170E039
:104EE0004FEF0E94EC038FE390E068E170E04FEF3A
:104EF0000E94EC038FE390E069E170E04FEF0E94C5
:104F0000EC038FE390E06AE170E04FEF0E94EC0366
:104F10008FE390E06BE170E04FEF0E94EC038FE3D2
:104F200090E06CE170E04FEF0E94EC038FE390E0C3
:104F30006DE170E04FEF0E94EC038FE390E06EE1D3
:104F400070E04FEF0E94EC038FE390E06FE170E0C0
:104F50004FEF0E94EC038FE390E060E270E04FEFD0
:104F60000E94EC038FE390E061E270E04FEF0E945B
:104F7000EC038FE390E062E270E04FEF0E94EC03FD
:104F80008FE390E063E270E04FEF0E94EC038FE369
:104F900090E064E270E04FEF0E94EC038FE390E05A
:104FA00065E270E04FEF0E94EC038FE390E066E271
:104FB00070E04FEF0E94EC038FE390E067E270E057
:104FC0004FEF0E94EC038FE390E068E270E04FEF58
:104FD0000E94EC038FE390E069E270E04FEF0E94E3
:104FE000EC038FE390E06AE270E04FEF0E94EC0385
:104FF0008FE390E06BE270E04FEF0E94EC038FE3F1
:1050000090E06CE270E04FEF0E94EC038FE390E0E1
:105010006DE270E04FEF0E94EC038FE390E06EE2F0
:1050200070E04FEF0E94EC038FE390E06FE270E0DE
:105030004FEF0E94EC038FE390E060E370E04FEFEE
:105040000E94EC038FE390E061E370E04FEF0E9479
:10505000EC038FE390E062E370E04FEF0E94EC031B
:105060008FE390E063E370E04FEF0E94EC038FE387
:1050700090E064E370E04FEF0E94EC038FE390E078
:1050800065E370E04FEF0E94EC038FE390E066E38E
:1050900070E04FEF0E94EC038FE390E067E370E075
:1050A0004FEF0E94EC038FE390E068E370E04FEF76
:1050B0000E94EC038FE390E069E370E04FEF0E9401
:1050C000EC038FE390E06AE370E04FEF0E94EC03A3
:1050D0008FE390E06BE370E04FEF0E94EC038FE30F
:1050E00090E06CE370E04FEF0E94EC038FE390E000
:1050F0006DE370E04FEF0E94EC038FE390E06EE30E
:1051000070E04FEF0E94EC038FE390E06FE370E0FC
:105110004FEF0E94EC038FE390E060E470E04FEF0C
:105120000E94EC038FE390E061E470E04FEF0E9497
:10513000EC038FE390E062E470E04FEF0E94EC0339
:105140008FE390E063E470E04FEF0E94EC038FE3A5
:1051500090E064E470E04FEF0E94EC038FE390E096
:1051600065E470E04FEF0E94EC038FE390E066E4AB
:1051700070E04FEF0E94EC038FE390E067E470E093
:105180004FEF0E94EC038FE390E068E470E04FEF94
:105190000E94EC038FE390E069E470E04FEF0E941F
:1051A000EC038FE390E06AE470E04FEF0E94EC03C1
:1051B0008FE390E06BE470E04FEF0E94EC0380E43B
:1051C00090E068E070E04FEF0E94EC0380E490E034
:1051D00069E070E04FEF0E94EC0380E490E06AE049
:1051E00070E04FEF0E94EC0380E490E06BE070E031
:1051F0004FEF0E94EC0380E490E06CE070E04FEF32
:105200000E94EC0380E490E06DE070E04FEF0E94BC
:10521000EC0380E490E06EE070E04FEF0E94EC035E
:1052200080E490E06FE070E04FEF0E94EC0380E4D8
:1052300090E060E170E04FEF0E94EC0380E490E0CA
:1052400061E170E04FEF0E94EC0380E490E062E1E6
:1052500070E04FEF0E94EC0380E490E063E170E0C7
:105260004FEF0E94EC0380E490E064E170E04FEFC8
:105270000E94EC0380E490E065E170E04FEF0E9453
:10528000EC0380E490E066E170E04FEF0E94EC03F5
:1052900080E490E067E170E04FEF0E94EC0380E46F
:1052A00090E068E170E04FEF0E94EC0380E490E052
:1052B00069E170E04FEF0E94EC0380E490E06AE166
:1052C00070E04FEF0E94EC0380E490E06BE170E04F
:1052D0004FEF0E94EC0380E490E06CE170E04FEF50
:1052E0000E94EC0380E490E06DE170E04FEF0E94DB
:1052F000EC0380E490E06EE170E04FEF0E94EC037D
:1053000080E490E06FE170E04FEF0E94EC0380E4F6
:1053100090E060E270E04FEF0E94EC0380E490E0E8
:1053200061E270E04FEF0E94EC0380E490E062E203
:1053300070E04FEF0E94EC0380E490E063E270E0E5
:105340004FEF0E94EC0380E490E064E270E04FEFE6
:105350000E94EC0380E490E065E270E04FEF0E9471
:10536000EC0380E490E066E270E04FEF0E94EC0313
:1053700080E490E067E270E04FEF0E94EC0380E48D
:1053800090E068E270E04FEF0E94EC0380E490E070
:1053900069E270E04FEF0E94EC0380E490E06AE283
:1053A00070E04FEF0E94EC0380E490E06BE270E06D
:1053B0004FEF0E94EC0380E490E06CE270E04FEF6E
:1053C0000E94EC0380E490E06DE270E04FEF0E94F9
:1053D000EC0380E490E06EE270E04FEF0E94EC039B
:1053E00080E490E06FE270E04FEF0E94EC0380E415
:1053F00090E060E370E04FEF0E94EC0380E490E007
:1054000061E370E04FEF0E94EC0380E490E062E320
:1054100070E04FEF0E94EC0380E490E063E370E003
:105420004FEF0E94EC0380E490E064E370E04FEF04
:105430000E94EC0380E490E065E370E04FEF0E948F
:10544000EC0380E490E066E370E04FEF0E94EC0331
:1054500080E490E067E370E04FEF0E94EC0380E4AB
:1054600090E068E370E04FEF0E94EC0380E490E08E
:1054700069E370E04FEF0E94EC0380E490E06AE3A0
:1054800070E04FEF0E94EC0380E490E06BE370E08B
:105490004FEF0E94EC0380E490E06CE370E04FEF8C
:1054A0000E94EC0380E490E06DE370E04FEF0E9417
:1054B000EC0380E490E06EE370E04FEF0E94EC03B9
:1054C00080E490E06FE370E04FEF0E94EC0380E433
:1054D00090E060E470E04FEF0E94EC0380E490E025
:1054E00061E470E04FEF0E94EC0380E490E062E43E
:1054F00070E04FEF0E94EC0380E490E063E470E022
:105500004FEF0E94EC0380E490E064E470E04FEF22
:105510000E94EC0380E490E065E470E04FEF0E94AD
:10552000EC0380E490E066E470E04FEF0E94EC034F
:1055300080E490E067E470E04FEF0E94EC0380E4C9
:1055400090E068E470E04FEF0E94EC0380E490E0AC
:1055500069E470E04FEF0E94EC0380E490E06AE4BD
:1055600070E04FEF0E94EC0380E490E06BE470E0A9
:105570004FEF0E94EC0380E490E06CE470E04FEFAA
:105580000E94EC0381E490E068E070E04FEF0E943D
:10559000EC0381E490E069E070E04FEF0E94EC03DF
:1055A00081E490E06AE070E04FEF0E94EC0381E458
:1055B00090E06BE070E04FEF0E94EC0381E490E03C
:1055C0006CE070E04FEF0E94EC0381E490E06DE04E
:1055D00070E04FEF0E94EC0381E490E06EE070E039
:1055E0004FEF0E94EC0381E490E06FE070E04FEF3A
:1055F0000E94EC0381E490E060E170E04FEF0E94D4
:10560000EC0381E490E061E170E04FEF0E94EC0375
:1056100081E490E062E170E04FEF0E94EC0381E4EE
:1056200090E068E470E04FEF0E94EC0381E490E0CA
:1056300069E470E04FEF0E94EC0381E490E06AE4DB
:1056400070E04FEF0E94EC0381E490E06BE470E0C7
:105650004FEF0E94EC0381E490E06CE470E04FEFC8
:105660000E94EC0382E490E067E070E04FEF0E945C
:10567000EC0382E490E068E070E04FEF0E94EC03FE
:1056800082E490E069E070E04FEF0E94EC0382E476
:1056900090E06AE070E04FEF0E94EC0382E490E05B
:1056A0006FE070E04FEF0E94EC0382E490E060E175
:1056B00070E04FEF0E94EC0382E490E061E170E063
:1056C0004FEF0E94EC0382E490E062E170E04FEF64
:1056D0000E94EC0382E490E063E170E04FEF0E94EF
:1056E000EC0382E490E069E470E04FEF0E94EC0389
:1056F00082E490E06AE470E04FEF0E94EC0382E401
:1057000090E06BE470E04FEF0E94EC0382E490E0E5
:105710006CE470E04FEF0E94EC0382E490E06DE4F3
:1057200070E04FEF0E94EC0383E490E067E070E0EC
:105730004FEF0E94EC0383E490E068E070E04FEFED
:105740000E94EC0383E490E069E070E04FEF0E9478
:10575000EC0383E490E060E170E04FEF0E94EC0323
:1057600083E490E061E170E04FEF0E94EC0383E49A
:1057700090E062E170E04FEF0E94EC0383E490E080
:1057800063E170E04FEF0E94EC0383E490E064E19A
:1057900070E04FEF0E94EC0383E490E06AE470E075
:1057A0004FEF0E94EC0383E490E06BE470E04FEF76
:1057B0000E94EC0383E490E06CE470E04FEF0E9401
:1057C000EC0383E490E06DE470E04FEF0E94EC03A3
:1057D00084E490E066E070E04FEF0E94EC0384E424
:1057E00090E067E070E04FEF0E94EC0384E490E00B
:1057F00068E070E04FEF0E94EC0384E490E060E129
:1058000070E04FEF0E94EC0384E490E061E170E00F
:105810004FEF0E94EC0384E490E062E170E04FEF10
:105820000E94EC0384E490E063E170E04FEF0E949B
:10583000EC0384E490E064E170E04FEF0E94EC033D
:1058400084E490E06AE470E04FEF0E94EC0384E4AB
:1058500090E06BE470E04FEF0E94EC0384E490E092
:105860006CE470E04FEF0E94EC0384E490E06DE4A0
:1058700070E04FEF0E94EC0385E490E066E070E09A
:105880004FEF0E94EC0385E490E067E070E04FEF9B
:105890000E94EC0385E490E068E070E04FEF0E9426
:1058A000EC0385E490E061E170E04FEF0E94EC03CF
:1058B00085E490E062E170E04FEF0E94EC0385E444
:1058C00090E063E170E04FEF0E94EC0385E490E02C
:1058D00064E170E04FEF0E94EC0385E490E06BE43C
:1058E00070E04FEF0E94EC0385E490E06CE470E020
:1058F0004FEF0E94EC0385E490E06DE470E04FEF21
:105900000E94EC0385E490E06EE470E04FEF0E94AB
:10591000EC0386E490E061E170E04FEF0E94EC035D
:1059200086E490E062E170E04FEF0E94EC0386E4D1
:1059300090E063E170E04FEF0E94EC0386E490E0BA
:1059400064E170E04FEF0E94EC0386E490E065E1D3
:1059500070E04FEF0E94EC0386E490E06BE470E0AF
:105960004FEF0E94EC0386E490E06CE470E04FEFB0
:105970000E94EC0386E490E06DE470E04FEF0E943B
:10598000EC0386E490E06EE470E04FEF0E94EC03DD
:1059900087E490E066E070E04FEF0E94EC0387E45C
:1059A00090E067E070E04FEF0E94EC0387E490E046
:1059B00068E070E04FEF0E94EC0387E490E069E05C
:1059C00070E04FEF0E94EC0387E490E06AE070E043
:1059D0004FEF0E94EC0387E490E06BE070E04FEF44
:1059E0000E94EC0387E490E06CE070E04FEF0E94CF
:1059F000EC0387E490E06DE070E04FEF0E94EC0371
:105A000087E490E062E170E04FEF0E94EC0387E4EE
:105A100090E063E170E04FEF0E94EC0387E490E0D8
:105A200064E170E04FEF0E94EC0387E490E065E1F1
:105A300070E04FEF0E94EC0387E490E06BE470E0CD
:105A40004FEF0E94EC0387E490E06CE470E04FEFCE
:105A50000E94EC0387E490E06DE470E04FEF0E9459
:105A6000EC0387E490E06EE470E04FEF0E94EC03FB
:105A700088E490E065E070E04FEF0E94EC0388E47A
:105A800090E066E070E04FEF0E94EC0388E490E065
:105A900067E070E04FEF0E94EC0388E490E068E07C
:105AA00070E04FEF0E94EC0388E490E069E070E062
:105AB0004FEF0E94EC0388E490E06AE070E04FEF63
:105AC0000E94EC0388E490E06BE070E04FEF0E94EE
:105AD000EC0388E490E06CE070E04FEF0E94EC0390
