:1000000012C017C016C015C014C013C012C011C052
:1000100010C00FC00EC00DC00CC00BC00AC009C07C
:1000200008C007C006C011241FBECFEDCDBF02D04F
:1000300055C0E6CFDF93CF9300D000D0CDB7DEB769
:100040001A821982A7E3B0E0E7E3F0E080818160E3
:100050008C93A7E3B0E0E7E3F0E080818D7F8C93A1
:10006000A8E3B0E0E8E3F0E0808182608C9324C0F4
:10007000A8E3B0E0E8E3F0E0908181E089278C9389
:100080001C821B8213C01A82198205C089819A8141
:1000900001969A83898389819A818F3F9105B1F373
:1000A000A8F38B819C8101969C838B838B819C819F
:1000B0008F3F910541F338F3E6E3F0E08081882F2C
:1000C00090E082709070009799F680E090E00F9039
:1000D0000F900F900F90CF91DF910895F894FFCF7C
:00000001FF
