:100000000C9446000C9465000C9465000C946500FB
:100010000C9465000C9465000C9465000C946500CC
:100020000C9465000C9465000C9465000C946500BC
:100030000C9465000C9465000C9465000C946500AC
:100040000C9465000C9465000C9465000C9465009C
:100050000C9465000C947C040C9465000C94650071
:100060000C9465000C9465000C9465000C9465007C
:100070000C9465000C9465000C9465000C9465006C
:100080000C9465000C9465000C94650011241FBE4F
:10009000CFEFD0E1DEBFCDBF11E0A0E0B1E0E4E6FC
:1000A000FDE000E00BBF02C007900D92AE30B1073B
:1000B000D9F711E0AEE0B1E001C01D92A031B10767
:1000C000E1F70E94B7040C94B0060C940000BC0148
:1000D00001978459914118F51EBC86B7846086BF8C
:1000E00087B78B7F87BF1FBC10927A0080E090E0BB
:1000F00020E930E040E050E00E94400626EF3FEF6C
:100100004FEF5FEF0E9473063DBD2CBD85E08EBDB5
:1001100006B602FEFDCF1EBC86B7846086BF08957A
:10012000CF93DF93EC0105C088EE93E00E94670057
:1001300021972097C9F7DF91CF910895833631F148
:10014000843630F4813661F0823609F04CC013C039
:10015000853691F1853628F1863609F044C037C0DE
:100160002BB381E090E002C0880F991F6A95E2F7F7
:10017000282B2BBB089528B381E090E002C0880FA4
:10018000991F6A95E2F7282B28BB089525B381E0D3
:1001900090E002C0880F991F6A95E2F7282B25BBD3
:1001A000089522B381E090E002C0880F991F6A95FC
:1001B000E2F7282B22BB089523B181E090E002C032
:1001C000880F991F6A95E2F7282B23B9089520918B
:1001D000620081E090E002C0880F991F6A95E2F703
:1001E000282B209362000895833641F1843630F441
:1001F000813661F0823609F052C014C08536B1F103
:10020000853640F1863609F04AC03CC02BB381E008
:1002100090E002C0880F991F6A95E2F780958223CB
:100220008BBB089528B381E090E002C0880F991F2E
:100230006A95E2F78095822388BB089525B381E013
:1002400090E002C0880F991F6A95E2F7809582239B
:1002500085BB089522B381E090E002C0880F991F0A
:100260006A95E2F78095822382BB089523B181E0ED
:1002700090E002C0880F991F6A95E2F7809582236B
:1002800083B908952091620081E090E002C0880F58
:10029000991F6A95E2F78095822380936200089502
:1002A000833631F1843630F4813661F0823609F0DC
:1002B0004CC013C0853691F1853628F1863609F099
:1002C00044C037C02BB381E090E002C0880F991F73
:1002D0006A95E2F728272BBB089528B381E090E0C8
:1002E00002C0880F991F6A95E2F7282728BB089556
:1002F00025B381E090E002C0880F991F6A95E2F76C
:10030000282725BB089522B381E090E002C0880F22
:10031000991F6A95E2F7282722BB089523B181E04F
:1003200090E002C0880F991F6A95E2F7282723B949
:1003300008952091620081E090E002C0880F991F2B
:100340006A95E2F72827209362000895833631F1F9
:10035000843630F4813661F0823609F04CC013C027
:10036000853691F1853628F1863609F044C037C0CC
:100370002AB381E090E002C0880F991F6A95E2F7E6
:10038000282B2ABB089527B381E090E002C0880F94
:10039000991F6A95E2F7282B27BB089524B381E0C3
:1003A00090E002C0880F991F6A95E2F7282B24BBC2
:1003B000089521B381E090E002C0880F991F6A95EB
:1003C000E2F7282B21BB089522B181E090E002C022
:1003D000880F991F6A95E2F7282B22B9089520917A
:1003E000610081E090E002C0880F991F6A95E2F7F2
:1003F000282B209361000895833641F1843630F430
:10040000813661F0823609F052C014C08536B1F1F0
:10041000853640F1863609F04AC03CC02AB381E0F7
:1004200090E002C0880F991F6A95E2F780958223B9
:100430008ABB089527B381E090E002C0880F991F1E
:100440006A95E2F78095822387BB089524B381E003
:1004500090E002C0880F991F6A95E2F78095822389
:1004600084BB089521B381E090E002C0880F991FFA
:100470006A95E2F78095822381BB089522B181E0DD
:1004800090E002C0880F991F6A95E2F78095822359
:1004900082B908952091610081E090E002C0880F48
:1004A000991F6A95E2F780958223809361000895F1
:1004B0008336B1F0843628F4813651F0823609F55E
:1004C0000BC08536A9F0853678F08636D1F414C095
:1004D0008AB38FEF8ABB089587B38FEF87BB0895E8
:1004E00084B38FEF84BB089581B38FEF81BB0895F0
:1004F00082B18FEF82B90895809161008FEF809370
:10050000610008958336A1F0843628F4813651F0D5
:100510008236D9F40AC0853689F0853660F0863691
:10052000A1F40FC08AB31ABA089587B317BA089511
:1005300084B314BA089581B311BA089582B112B880
:100540000895809161001092610008959093900049
:1005500089B988E18AB98EE08093950008951BB827
:1005600088E18AB986E8809395001092900088E02F
:1005700089B9089580E487B98EE986B986B1806625
:1005800086B90895833699F0843628F4813659F077
:10059000823639F40AC0853671F0853650F08636D9
:1005A00061F020E00BC029B309C026B307C023B314
:1005B00005C020B303C021B101C020B181E090E0AB
:1005C00002C0880F991F6A95E2F782230895806C14
:1005D00087B9369A349BFECF349A24B135B1C9011C
:1005E0000895FC0160830895FC018081089534E042
:1005F00004C00197232F2A95F1F70097D1F70895AA
:1006000054E00BC028EE33E021503040452F4A958E
:10061000F1F721153105C1F70197009799F7089572
:10062000482F407F642F6260609300FF28E030E035
:1006300054E021503040952F9A95F1F7211531055E
:10064000C1F74360409300FF28E030E044E02150D0
:100650003040942F9A95F1F721153105C1F7609339
:1006600000FF28E030E044E021503040942F9A957C
:10067000F1F721153105C1F78295807F582F52601F
:10068000509300FF28E030E044E021503040942FA8
:100690009A95F1F721153105C1F78360809300FF2A
:1006A00088E090E034E00197232F2A95F1F7009736
:1006B000D1F7509300FF88E090E034E00197232FBA
:1006C0002A95F1F70097D1F7109200FF88E090E0AB
:1006D00034E00197232F2A95F1F70097D1F7089579
:1006E000382F582F507F509300FF88E090E044E06F
:1006F0000197242F2A95F1F70097D1F7832F807F58
:100700008160809300FF88E090E044E00197242F0F
:100710002A95F1F70097D1F7509300FF88E090E019
:1007200044E00197242F2A95F1F70097D1F7832F02
:1007300090E024E0880F991F2A95E1F7682F8093B5
:1007400000FF28E030E054E021503040452F4A952A
:10075000F1F721153105C1F78160809300FF88E032
:1007600090E034E00197232F2A95F1F70097D1F715
:10077000609300FF88E090E034E00197232F2A95F2
:10078000F1F70097D1F7109200FF88E090E034E095
:100790000197232F2A95F1F70097D1F708958068E4
:1007A0000E94700322E030E054E02150304088EE97
:1007B00093E00197452F4A95F1F70097D1F721155E
:1007C000310599F7089581E00E94700322E030E03E
:1007D00054E02150304088EE93E00197452F4A9530
:1007E000F1F70097D1F72115310599F7089580E8C1
:1007F00085BF10926D0080936C0083E30E947003AC
:1008000080E2809300FF88E090E034E00197232F9E
:100810002A95F1F70097D1F781E2809300FF88E0F5
:1008200090E034E00197232F2A95F1F70097D1F754
:1008300080E2809300FF88E090E034E00197232F6E
:100840002A95F1F70097D1F7109200FF88E090E029
:1008500034E00197232F2A95F1F70097D1F781E033
:100860000E94700322E030E054E02150304088EED6
:1008700093E00197452F4A95F1F70097D1F721159D
:10088000310599F788E20E94700322E030E054E0DD
:100890002150304088EE93E00197452F4A95F1F7BB
:1008A0000097D1F72115310599F781E00E94700377
:1008B00022E030E054E02150304088EE93E0019790
:1008C000452F4A95F1F70097D1F72115310599F792
:1008D0008CE00E94700322E030E054E02150304070
:1008E00088EE93E00197452F4A95F1F70097D1F7ED
:1008F0002115310599F708951F920F920FB60F92A7
:1009000011242F933F934F938F939F9384B145B1BD
:10091000342F20E090E0282B392B30930F012093C7
:100920000E019F918F914F913F912F910F900FBE8C
:100930000F901F901895FF920F931F93CF93DF9303
:10094000F82E062FEA0110E0812F8F0D0E94CF03B1
:10095000FE01E10FF11D80810E9410031F5F01174E
:1009600098F7DF91CF911F910F91FF9008950F930A
:100970001F93CF93DF93789480E487B98EE986B98B
:1009800086B1806686B90E94F70380E065E040E0AA
:1009900051E00E949B0489E062E046E051E00E9441
:1009A0009B0460910E0170910F0180E090E00E9425
:1009B0004F052AE137E64CE950E40E94B5050E9454
:1009C00023058B019C01CB0168EE73E00E945F065A
:1009D000605D60930901C80168EE73E00E945F06E4
:1009E0009C0164E670E00E945F06605D60930A010E
:1009F000C90164E670E00E945F069C016AE070E055
:100A00000E945F06605D60930B01C9016AE070E0BF
:100A10000E945F06805D80930C01C0E0D0E09E01E3
:100A20002B5F822F0E94CF03FE01E75FFE4F808184
:100A30000E9410032196C430D10589F784EF91E01C
:100A40000E946700AECF70D088F09F5790F0B92F0A
:100A50009927B751A0F0D1F0660F771F881F991F13
:100A60001AF0BA95C9F712C0B13081F077D0B1E071
:100A7000089574C0672F782F8827B85F39F0B93F81
:100A8000CCF3869577956795B395D9F73EF4909515
:100A90008095709561957F4F8F4F9F4F0895E89493
:100AA00009C097FB3EF490958095709561957F4FB6
:100AB0008F4F9F4F9923A9F0F92F96E9BB27939564
:100AC000F695879577956795B795F111F8CFFAF474
:100AD000BB0F11F460FF1BC06F5F7F4F8F4F9F4FA5
:100AE00016C0882311F096E911C0772321F09EE803
:100AF000872F762F05C0662371F096E8862F70E069
:100B000060E02AF09A95660F771F881FDAF7880F42
:100B10009695879597F9089557FD9058440F551F5E
:100B200059F05F3F71F04795880F97FB991F61F06F
:100B30009F3F79F087950895121613061406551FE6
:100B4000F2CF4695F1DF08C0161617061806991F52
:100B5000F1CF86957105610508940895E894BB2747
:100B600066277727CB0197F908950BD078C069D015
:100B700028F06ED018F0952309F05AC05FC01124F8
:100B8000EECFCADFA0F3959FD1F3950F50E0551F2C
:100B9000629FF001729FBB27F00DB11D639FAA27D2
:100BA000F00DB11DAA1F649F6627B00DA11D661F21
:100BB000829F2227B00DA11D621F739FB00DA11D42
:100BC000621F839FA00D611D221F749F3327A00DFC
:100BD000611D231F849F600D211D822F762F6A2F98
:100BE00011249F5750408AF0E1F088234AF0EE0F1D
:100BF000FF1FBB1F661F771F881F91505040A9F72A
:100C00009E3F510570F014C0AACF5F3FECF3983EB1
:100C1000DCF3869577956795B795F795E7959F5F90
:100C2000C1F7FE2B880F911D9695879597F908952A
:100C300097F99F6780E870E060E008959FEF80EC8F
:100C4000089500240A941616170618060906089532
:100C500000240A9412161306140605060895092E98
:100C60000394000C11F4882352F0BB0F40F4BF2B07
:100C700011F460FF04C06F5F7F4F8F4F9F4F089547
:100C8000629FD001739FF001829FE00DF11D649F70
:100C9000E00DF11D929FF00D839FF00D749FF00DFC
:100CA000659FF00D9927729FB00DE11DF91F639F9D
:100CB000B00DE11DF91FBD01CF0111240895AA1B3C
:100CC000BB1B51E107C0AA1FBB1FA617B70710F037
:100CD000A61BB70B881F991F5A95A9F78095909569
:100CE000BC01CD01089597FB092E05260ED057FDB6
:100CF00004D014D00AD0001C38F45095409530959B
:100D000021953F4F4F4F5F4F0895F6F7909580958F
:100D1000709561957F4F8F4F9F4F0895A1E21A2ED6
:100D2000AA1BBB1BFD010DC0AA1FBB1FEE1FFF1F8F
:100D3000A217B307E407F50720F0A21BB30BE40BDF
:100D4000F50B661F771F881F991F1A9469F7609526
:100D50007095809590959B01AC01BD01CF010895E0
:040D6000F894FFCF35
:0E0D6400412F443A20006D56003030303000F0
:00000001FF
