:100000000C944A000C9469000C9469000C946900EB
:100010000C9469000C9469000C9469000C946900BC
:100020000C9469000C9469000C9469000C946900AC
:100030000C9469000C9469000C9469000C9469009C
:100040000C9469000C9415070C94860C0C946900B0
:100050000C9469000C949C070C9469000C9457074D
:100060000C9469000C9469000C9469000C9469006C
:100070000C9469000C9469000C9469000C9469005C
:100080000C9469000C9469000C9469000C9469004C
:100090000C94690011241FBECFEFD0E1DEBFCDBFAD
:1000A00011E0A0E0B1E0ECEEF2E200E00BBF02C034
:1000B00007900D92AE30B107D9F712E0AEE0B1E093
:1000C00001C01D92AE30B107E1F70E94470D0C94BC
:1000D00074110C940000DF93CF9300D000D0CDB703
:1000E000DEB79A83898389819A819C838B838B81F4
:1000F0009C81883C910509F44AC08B819C81893C94
:10010000910568F48B819C818436910509F459C06E
:100110008B819C818D37910509F446C05EC08B812F
:100120009C8121E0843F9207C1F08B819C8123E078
:10013000883E920731F08B819C818A3F9105D1F0F6
:100140004CC0E2EEF0E01082E3EEF0E08CE0808361
:10015000E4EEF0E087E3808340C0E2EEF0E082E08E
:100160008083E3EEF0E08CE08083E4EEF0E087E370
:10017000808333C0E2EEF0E086E08083E3EEF0E0DF
:100180008CE08083E4EEF0E087E3808326C0E2EE3B
:10019000F0E088E08083E3EEF0E08CE08083E4EE42
:1001A000F0E087E3808319C0E2EEF0E08EE0808328
:1001B000E3EEF0E08CE08083E4EEF0E087E3808320
:1001C0000CC0E2EEF0E082E18083E3EEF0E08CE050
:1001D0008083E4EEF0E087E380830F900F900F9030
:1001E0000F90CF91DF910895DF93CF9300D00F92BE
:1001F000CDB7DEB789838981282F30E03B832A83FE
:100200008A819B818130910561F12A813B81223075
:1002100031052CF48A819B81009769F063C02A81A3
:100220003B812230310599F18A819B818330910590
:1002300009F443C057C0ABEDB0E0EBEDF0E08081D6
:100240008F778C93ABEDB0E0EBEDF0E080818F7DAC
:100250008C93ABEDB0E0EBEDF0E080818F7E8C9382
:1002600041C0ABEDB0E0EBEDF0E0808180688C93B5
:10027000ABEDB0E0EBEDF0E080818F7D8C93ABEDEA
:10028000B0E0EBEDF0E0808180618C932BC0ABEDB2
:10029000B0E0EBEDF0E0808180688C93ABEDB0E0F6
:1002A000EBEDF0E0808180628C93ABEDB0E0EBEDA4
:1002B000F0E080818F7E8C9315C0ABEDB0E0EBED6C
:1002C000F0E0808180688C93ABEDB0E0EBEDF0E086
:1002D000808180628C93ABEDB0E0EBEDF0E080814B
:1002E00080618C930F900F900F90CF91DF910895C4
:1002F000DF93CF930F92CDB7DEB78983EDEEF0E0B9
:1003000089818295807F80830F90CF91DF910895BE
:10031000DF93CF9300D000D00F92CDB7DEB76983C3
:100320007A838B839C834D838D81813009F03FC01C
:1003300089819A81AB81BC81880F991FAA1FBB1F3D
:10034000880F991FAA1FBB1F880F991FAA1FBB1FC9
:1003500089839A83AB83BC83E4EFF0E08981808357
:10036000A4EFB0E0E4EFF0E0808185608C93E5EFEE
:10037000F0E089819A81AB81BC81892F9A2FAB2FC4
:10038000BB278083E6EFF0E089819A81AB81BC8155
:10039000CD01AA27BB278083E7EFF0E089819A810E
:1003A000AB81BC818B2F9927AA27BB2780838D81A6
:1003B0008823A9F589819A81AB81BC81880F991F17
:1003C000AA1FBB1F880F991FAA1FBB1F880F991F49
:1003D000AA1FBB1F880F991FAA1FBB1F880F991F39
:1003E000AA1FBB1F89839A83AB83BC83A4EFB0E0B1
:1003F000E4EFF0E0808185708C93E5EFF0E010820F
:10040000E6EFF0E089818083E7EFF0E089819A816F
:10041000AB81BC81892F9A2FAB2FBB2780830F9094
:100420000F900F900F900F90CF91DF910895DF9371
:10043000CF9300D000D00F92CDB7DEB769837A8317
:100440008B839C834D838D81813009F051C08981DC
:100450009A81AB81BC81880F991FAA1FBB1F880F8F
:10046000991FAA1FBB1F880F991FAA1FBB1F898333
:100470009A83AB83BC83E0EFF0E08081882F90E02B
:10048000A0E0B0E09C01AD0127703070407050706A
:1004900089819A81AB81BC81822B932BA42BB52BB4
:1004A00089839A83AB83BC83E0EFF0E0898180830A
:1004B000E1EFF0E089819A81AB81BC81892F9A2F8D
:1004C000AB2FBB278083E2EFF0E089819A81AB817B
:1004D000BC81CD01AA27BB278083E3EFF0E08981AF
:1004E0009A81AB81BC818B2F9927AA27BB27808358
:1004F0008D818823A9F589819A81AB81BC81880F80
:10050000991FAA1FBB1F880F991FAA1FBB1F880F07
:10051000991FAA1FBB1F880F991FAA1FBB1F880FF7
:10052000991FAA1FBB1F89839A83AB83BC83A0EF4B
:10053000B0E0E0EFF0E0808185708C93E1EFF0E0D7
:100540001082E2EFF0E089818083E3EFF0E08981BF
:100550009A81AB81BC81892F9A2FAB2FBB278083D7
:100560000F900F900F900F900F90CF91DF91089503
:10057000DF93CF93CDB7DEB729970FB6F894DEBFE0
:100580000FBECDBF8D8319821A821B821C828D8182
:10059000813009F076C0E3EFF0E08081882F90E0B1
:1005A000A0E0B0E0582F44273327222789819A8181
:1005B000AB81BC81822B932BA42BB52B89839A838F
:1005C000AB83BC83E2EFF0E08081882F90E0A0E075
:1005D000B0E0AC013327222789819A81AB81BC81AD
:1005E000822B932BA42BB52B89839A83AB83BC835B
:1005F000E1EFF0E08081882F90E0A0E0B0E02227DA
:10060000382F492F5A2F89819A81AB81BC81822B47
:10061000932BA42BB52B89839A83AB83BC83E0EF08
:10062000F0E08081882F90E0A0E0B0E09C01AD0177
:10063000287F30704070507089819A81AB81BC8175
:10064000822B932BA42BB52B89839A83AB83BC83FA
:1006500089819A81AB81BC81689412F8B695A7957F
:10066000979587951694D1F789839A83AB83BC833A
:1006700089819A81AB81BC818E839F83A887B9874A
:100680004FC08D81882309F043C0E3EFF0E0808103
:10069000882F90E0A0E0B0E02227382F492F5A2F72
:1006A00089819A81AB81BC81822B932BA42BB52BA2
:1006B00089839A83AB83BC83E2EFF0E08081282FAB
:1006C00030E040E050E089819A81AB81BC81822B8F
:1006D000932BA42BB52B89839A83AB83BC8389810D
:1006E0009A81AB81BC81689414F8B695A7959795CB
:1006F00087951694D1F789839A83AB83BC838981CC
:100700009A81AB81BC818E839F83A887B98708C0FB
:1007100089819A81AB81BC818E839F83A887B987A9
:100720008E819F81A885B985BC01CD0129960FB620
:10073000F894DEBF0FBECDBFCF91DF910895DF9358
:10074000CF9300D000D0CDB7DEB789836A838A818A
:10075000813041F4AFEEB0E0EFEEF0E080818061F7
:100760008C9307C0AFEEB0E0EFEEF0E080818F7EBB
:100770008C938981282F30E03C832B838B819C8153
:100780008230910509F45DC02B813C812330310515
:1007900054F48B819C81009799F02B813C8121300E
:1007A000310591F1A4C08B819C818330910509F4BE
:1007B00065C02B813C812430310509F47CC097C091
:1007C000AFEEB0E0EFEEF0E080818F7B8C93AFEE88
:1007D000B0E0EFEEF0E080818F778C93AFEEB0E089
:1007E000EFEEF0E080818F7D8C93A0EFB0E0E0EF42
:1007F000F0E080818B7F8C93A4EFB0E0E4EFF0E039
:1008000080818B7F8C9373C0AFEEB0E0EFEEF0E0B1
:10081000808180648C93AFEEB0E0EFEEF0E08081F9
:100820008F778C93AFEEB0E0EFEEF0E080818F7DBC
:100830008C93A0EFB0E0E0EFF0E080818B7F8C93B1
:1008400056C0AFEEB0E0EFEEF0E080818F778C9392
:10085000AFEEB0E0EFEEF0E0808180648C93AFEE1D
:10086000B0E0EFEEF0E080818F7D8C93A0EFB0E000
:10087000E0EFF0E0808184608C9339C0AFEEB0E0AF
:10088000EFEEF0E080818F7B8C93AFEEB0E0EFEE87
:10089000F0E0808180688C93AFEEB0E0EFEEF0E0A6
:1008A00080818F7D8C93A0EFB0E0E0EFF0E080815D
:1008B0008B7F8C931CC0AFEEB0E0EFEEF0E0808158
:1008C0008F7B8C93AFEEB0E0EFEEF0E0808180683C
:1008D0008C93AFEEB0E0EFEEF0E0808180628C931D
:1008E000A0EFB0E0E0EFF0E0808184608C930F90A7
:1008F0000F900F900F90CF91DF910895DF93CF93DA
:100900000F92CDB7DEB71982EFEEF0E08081882339
:100910005CF0EFEEF0E08081882F90E080749070C2
:10092000009711F4198270C0EFEEF0E08081882307
:10093000ACF0EFEEF0E08081882F90E08074907052
:10094000009761F0E0EFF0E08081882F90E0847004
:100950009070009719F481E0898356C0EFEEF0E0C3
:1009600080818823ACF0EFEEF0E08081882F90E06A
:1009700080749070009761F0E0EFF0E08081882F44
:1009800090E084709070009719F082E089833CC0F9
:10099000EFEEF0E080818823ACF4EFEEF0E08081B0
:1009A000882F90E080749070009761F4E0EFF0E0A1
:1009B0008081882F90E084709070009719F483E014
:1009C000898322C0EFEEF0E080818823ECF4EFEE23
:1009D000F0E08081882F90E0807490700097A1F4FF
:1009E000EFEEF0E08081882F90E0807290700097A9
:1009F00059F0E0EFF0E08081882F90E084709070F3
:100A0000009711F084E0898389810F90CF91DF9165
:100A10000895DF93CF9300D000D0CDB7DEB79B838E
:100A20008A836C83AFEEB0E0EFEEF0E08081982F28
:100A3000907F8C81892B8C9319820FC0AAEFB0E034
:100A40008981282F30E08A819B81FC01E20FF31F0E
:100A500080818C9389818F5F898399818C8198179C
:100A600068F30F900F900F900F90CF91DF91089542
:100A7000DF93CF93CDB7DEB76A970FB6F894DEBF9A
:100A80000FBECDBF9D8B8C8B19820FC08981282F03
:100A900030E0EAEFF0E04081CE010C96FC01E20F7D
:100AA000F31F408389818F5F89838981883070F348
:100AB0008C899D899F8B8E8BFE013296F98FE88FF2
:100AC000F2E1FA8FE88DF98D0080888D998D01967D
:100AD000998F888FEE89FF8900828E899F89019680
:100AE0009F8B8E8B9A8D91509A8FEA8DEE2351F7C2
:100AF0008C899D896A960FB6F894DEBF0FBECDBF74
:100B0000CF91DF910895DF93CF930F92CDB7DEB7EA
:100B1000898389818830A0F4AEEDB0E0EEEDF0E09D
:100B20008081482F8981282F30E081E090E0022EDB
:100B300002C0880F991F0A94E2F7842B8C931CC083
:100B400089818830C8F089818F30B0F4AFEDB0E092
:100B5000EFEDF0E08081482F8981882F90E09C01A3
:100B60002850304081E090E0022E02C0880F991F8B
:100B70000A94E2F7842B8C930F90CF91DF91089524
:100B8000DF93CF9300D000D0CDB7DEB7E0EEF0E03A
:100B90008081282F30E0E1EEF0E08081882F90E026
:100BA000982F8827822B932B9A83898389819A8116
:100BB000009719F48FEF8C8319C01B8209C08981BB
:100BC0009A81969587959A8389838B818F5F8B8392
:100BD00089819A8181709070009789F38B818F3021
:100BE00018F08FEF8C8302C08B818C838C810F90E7
:100BF0000F900F900F90CF91DF910895DF93CF93D7
:100C00000F92CDB7DEB7898389818830A8F4AEED25
:100C1000B0E0EEEDF0E08081482F8981282F30E0B0
:100C200081E090E0022E02C0880F991F0A94E2F73B
:100C3000809584238C931DC089818830D0F0898170
:100C40008F30B8F4AFEDB0E0EFEDF0E08081482FE9
:100C50008981882F90E09C012850304081E090E00D
:100C6000022E02C0880F991F0A94E2F78095842310
:100C70008C930F90CF91DF910895DF93CF9300D0A5
:100C800000D0CDB7DEB79B838A836C8381E08983F4
:100C9000A8EDB0E0E8EDF0E0808181608C938DE715
:100CA00090E00E946B008C810E94F400A8EDB0E0FF
:100CB000E8EDF0E0808182608C9303C089818F5FD2
:100CC0008983E9EDF0E08081882F90E08470907056
:100CD000009719F48981882389F70F900F900F905E
:100CE0000F90CF91DF910895DF93CF9300D0CDB7D0
:100CF000DEB789836A8389810E94780189810E9495
:100D000083058C859D85AE85BF852F81BC01CD0176
:100D1000422F0E94880188859985AA85BB852F81ED
:100D2000BC01CD01422F0E9417028A81882F90E0DA
:100D30008430910531F42889CE014196622F0E94BA
:100D400009059F818A81692F0E949F030F900F9050
:100D5000CF91DF910895DF93CF930F92CDB7DEB798
:100D6000EFEEF0E08081882F90E080719070009726
:100D700011F4198202C081E0898389810F90CF919B
:100D8000DF910895DF93CF930F92CDB7DEB78983BC
:100D900089810E94780189810E94FE0580E060E0DF
:100DA0000E949F030F90CF91DF910895DF93CF931F
:100DB00000D000D0CDB7DEB78C8381E089838C81F1
:100DC0000E9478010E947E048B830E94AB068A8376
:100DD0002A89CE014396622F0E940905998581E0F8
:100DE000692F0E949F0303C089818F5F8983EEEE84
:100DF000F0E08081882F90E080749070009719F463
:100E00008981882389F7AEEEB0E0EEEEF0E08081D4
:100E10008F7B8C938B816A810E949F030F900F9030
:100E20000F900F90CF91DF9108951F920F920FB600
:100E30000F9200905B000F9211242F933F935F93CA
:100E40006F937F938F939F93AF93BF93EF93FF9392
:100E5000DF93CF93CDB7DEB7E6E4F0E085E08083A3
:100E600080911A0190911B01019690931B01809330
:100E70001A0180911A0190911B0124E630E0B9011A
:100E80000E946011CF91DF91FF91EF91BF91AF91DF
:100E90009F918F917F916F915F913F912F910F90D3
:100EA00000925B000F900FBE0F901F9018951F923D
:100EB0000F920FB60F9200905B000F9211248F9348
:100EC0009F93AF93BF93EF93FF93DF93CF93CDB7F0
:100ED000DEB7809123018130F9F4809122018D30B9
:100EE00088F4A6ECB0E080912201882F90E0FC010C
:100EF000E050FF4F80818C93809122018F5F80931F
:100F000022010AC0809122018D3031F4E6ECF0E03C
:100F10008DE0808310922301CF91DF91FF91EF91BB
:100F2000BF91AF919F918F910F9000925B000F90B6
:100F30000FBE0F901F9018951F920F920FB60F9231
:100F400000905B000F9211242F933F934F935F9378
:100F50006F937F938F939F93AF93BF93EF93FF9381
:100F6000DF93CF93CDB7DEB7E897DEBFCDBF198251
:100F7000E6ECF0E08081898380911C01882351F4A4
:100F80008981803809F0A9C481E080931C01109206
:100F90002101A3C480912101882F90E0FC01E25F30
:100FA000FE4F89818083809121018F5F8093210191
:100FB000809121018C3009F090C410921C01809125
:100FC0000E01882F90E0A0E0B0E0582F442733278F
:100FD000222780910F01882F90E0A0E0B0E0DC0193
:100FE00099278827280F391F4A1F5B1F80911001FE
:100FF000882F90E0A0E0B0E0BA2FA92F982F882783
:10100000280F391F4A1F5B1F80911101882F90E024
:10101000A0E0B0E0820F931FA41FB51F80931D01B5
:1010200090931E01A0931F01B093200180911D0198
:1010300090911E01A0911F01B0912001813121E00A
:10104000920720E0A20720E0B20709F054C0809187
:1010500012018093BE01809113018093BF018091A2
:1010600014018093C001809115018093C10180918A
:1010700016018093C201809117018093C301809172
:1010800018018093C401809119018093C5018DB727
:101090009EB742970FB6F8949EBF0FBE8DBF8DB717
:1010A0009EB701969B838A83E4EBF1E0FD83EC839A
:1010B000F2E1FE83EC81FD8100808C819D810196AF
:1010C0009D838C83EA81FB8100828A819B810196CA
:1010D0009B838A839E8191509E83EE81EE2351F7FC
:1010E00080E00E94D6068DB79EB742960FB6F89460
:1010F0009EBF0FBE8DBF80911D0190911E01A091DA
:101100001F01B09120018231E1E09E07E0E0AE07CF
:10111000E0E0BE0709F054C080911201809388017D
:1011200080911301809389018091140180938A0139
:101130008091150180938B018091160180938C0121
:101140008091170180938D018091180180938E0109
:101150008091190180938F018DB79EB742970FB68A
:10116000F8949EBF0FBE8DBF8DB79EB7019698872E
:101170008F83EEE7F1E0FA87E987F2E1FB87E98503
:10118000FA85008089859A8501969A878987EF81FB
:10119000F88500828F819885019698878F839B853B
:1011A00091509B87EB85EE2351F781E00E94D60694
:1011B0008DB79EB742960FB6F8949EBF0FBE8DBFF7
:1011C00080911D0190911E01A0911F01B0912001FD
:1011D0008033E1E09E07E0E0AE07E0E0BE0709F003
:1011E00054C0809112018093F40180911301809387
:1011F000F501809114018093F6018091150180938F
:10120000F701809116018093F80180911701809376
:10121000F901809118018093FA018091190180935E
:10122000FB018DB79EB742970FB6F8949EBF0FBED5
:101230008DBF8DB79EB701969D878C87EAEEF1E052
:10124000FF87EE87F2E1F88BEE85FF8500808E85C3
:101250009F8501969F878E87EC85FD8500828C8512
:101260009D8501969D878C8798899150988BE889F8
:10127000EE2351F782E00E94D6068DB79EB74296C4
:101280000FB6F8949EBF0FBE8DBF80911D01909147
:101290001E01A0911F01B09120018133E1E09E0762
:1012A000E0E0AE07E0E0BE0709F054C08091120113
:1012B0008093AC01809113018093AD018091140162
:1012C0008093AE01809115018093AF01809116014A
:1012D0008093B001809117018093B1018091180132
:1012E0008093B201809119018093B3018DB79EB7AD
:1012F00042970FB6F8949EBF0FBE8DBF8DB79EB7B5
:1013000001969A8B898BE2EAF1E0FC8BEB8BF2E1A0
:10131000FD8BEB89FC8900808B899C8901969C8BD5
:101320008B8BE989FA89008289899A8901969A8B3F
:10133000898B9D8991509D8BED89EE2351F783E038
:101340000E94D6068DB79EB742960FB6F8949EBF00
:101350000FBE8DBF80911D0190911E01A0911F01B4
:10136000B09120018034E1E09E07E0E0AE07E0E0CC
:10137000BE0709F054C08091120180934001809112
:101380001301809341018091140180934201809167
:10139000150180934301809116018093440180914F
:1013A0001701809345018091180180934601809137
:1013B0001901809347018DB79EB742970FB6F894F5
:1013C0009EBF0FBE8DBF8DB79EB701969F8B8E8B34
:1013D000E6E3F1E0F98FE88FF2E1FA8FE88DF98D1D
:1013E0000080888D998D0196998F888FEE89FF896D
:1013F00000828E899F8901969F8B8E8B9A8D91504A
:101400009A8FEA8DEE2351F784E00E94D6068DB7BD
:101410009EB742960FB6F8949EBF0FBE8DBF8091C7
:101420001D0190911E01A0911F01B09120018134F6
:10143000E1E09E07E0E0AE07E0E0BE0709F054C03F
:101440008091120180939A018091130180939B01F6
:101450008091140180939C018091150180939D01DE
:101460008091160180939E018091170180939F01C6
:10147000809118018093A001809119018093A101AE
:101480008DB79EB742970FB6F8949EBF0FBE8DBF23
:101490008DB79EB701969C8F8B8FE0E9F1E0FE8FB0
:1014A000ED8FF2E1FF8FED8DFE8D00808D8D9E8D95
:1014B00001969E8F8D8FEB8DFC8D00828B8D9C8D88
:1014C00001969C8F8B8F9F8D91509F8FEF8DEE2378
:1014D00051F785E00E94D6068DB79EB742960FB6AB
:1014E000F8949EBF0FBE8DBF80911D0190911E018B
:1014F000A0911F01B09120018035E1E09E07E0E05E
:10150000AE07E0E0BE0709F054C08091120180935D
:101510000602809113018093070280911401809349
:101520000802809115018093090280911601809331
:101530000A028091170180930B0280911801809319
:101540000C028091190180930D028DB79EB74297CE
:101550000FB6F8949EBF0FBE8DBF8DB79EB7019694
:1015600099A388A3ECEFF1E0FBA3EAA3F2E1FCA3CB
:10157000EAA1FBA100808AA19BA101969BA38AA35B
:10158000E8A1F9A1008288A199A1019699A388A355
:101590009CA191509CA3ECA1EE2351F786E00E9400
:1015A000D6068DB79EB742960FB6F8949EBF0FBE73
:1015B0008DBF80911D0190911E01A0911F01B091DE
:1015C00020018135E1E09E07E0E0AE07E0E0BE07E4
:1015D00009F054C08091120180935201809113014F
:1015E00080935301809114018093540180911501DF
:1015F00080935501809116018093560180911701C7
:1016000080935701809118018093580180911901AE
:10161000809359018DB79EB742970FB6F8949EBF3D
:101620000FBE8DBF8DB79EB701969EA38DA3E8E434
:10163000F1E0F8A7EFA3F2E1F9A7EFA1F8A5008088
:101640008FA198A5019698A78FA3EDA1FEA1008276
:101650008DA19EA101969EA38DA399A5915099A7B6
:10166000E9A5EE2351F787E00E94D6068DB79EB715
:1016700042960FB6F8949EBF0FBE8DBF80911D019C
:1016800090911E01A0911F01B09120018130E1E0F5
:101690009E07E0E0AE07E0E0BE0709F054C080918D
:1016A00012018093D001809113018093D101809128
:1016B00014018093D201809115018093D301809110
:1016C00016018093D401809117018093D5018091F8
:1016D00018018093D601809119018093D7018DB7AD
:1016E0009EB742970FB6F8949EBF0FBE8DBF8DB7C1
:1016F0009EB701969BA78AA7E6ECF1E0FDA7ECA7B1
:10170000F2E1FEA7ECA5FDA500808CA59DA50196A4
:101710009DA78CA7EAA5FBA500828AA59BA501969B
:101720009BA78AA79EA591509EA7EEA5EE2351F7F1
:1017300088E00E94D6068DB79EB742960FB6F89401
:101740009EBF0FBE8DBF80911D0190911E01A09183
:101750001F01B09120018036E1E09E07E0E0AE0776
:10176000E0E0BE0709F054C080911201809364014B
:10177000809113018093650180911401809366012B
:101780008091150180936701809116018093680113
:1017900080911701809369018091180180936A01FB
:1017A0008091190180936B018DB79EB742970FB658
:1017B000F8949EBF0FBE8DBF8DB79EB7019698ABB4
:1017C0008FA7EAE5F1E0FAABE9ABF2E1FBABE9A9FF
:1017D000FAA9008089A99AA901969AAB89ABEFA5CD
:1017E000F8A900828FA598A9019698AB8FA79BA90D
:1017F00091509BABEBA9EE2351F789E00E94D606EE
:101800008DB79EB742960FB6F8949EBF0FBE8DBFA0
:1018100080911D0190911E01A0911F01B0912001A6
:101820008136E1E09E07E0E0AE07E0E0BE0709F0A8
:1018300054C0809112018093E20180911301809342
:10184000E301809114018093E4018091150180935C
:10185000E501809116018093E60180911701809344
:10186000E701809118018093E8018091190180932C
:10187000E9018DB79EB742970FB6F8949EBF0FBE91
:101880008DBF8DB79EB701969DAB8CABE8EDF1E0B7
:10189000FFABEEABF2E1F8AFEEA9FFA900808EA995
:1018A0009FA901969FAB8EABECA9FDA900828CA9E4
:1018B0009DA901969DAB8CAB98AD915098AFE8ADCA
:1018C000EE2351F78AE00E94D6068DB79EB7429666
:1018D0000FB6F8949EBF0FBE8DBFE896DEBFCDBF9A
:1018E000CF91DF91FF91EF91BF91AF919F918F9138
:1018F0007F916F915F914F913F912F910F90009247
:101900005B000F900FBE0F901F9018951F920F92C3
:101910000FB60F9200905B000F9211242F933F930C
:101920004F935F936F937F938F939F93AF93BF93E7
:10193000EF93FF93DF93CF93CDB7DEB76997DEBF09
:10194000CDBFEDEEF0E080818A830E94C0058983DF
:1019500089818F3F09F482C089810E947801CE017C
:1019600003960E94380584E291E09E8B8D8BFE01E8
:101970003396F88FEF8BF2E1F98FEF89F88D0080C5
:101980008F89988D0196988F8F8BED89FE890082C3
:101990008D899E8901969E8B8D8B998D9150998F03
:1019A000E98DEE2351F70E94AB060E94B802DC01DC
:1019B000CB018093250190932601A0932701B0933A
:1019C00028018091250190912601A0912701B091D5
:1019D00028018037F1E09F07F0E0AF07F0E0BF0794
:1019E00059F580912E018093050180912F018093FC
:1019F000060180913001809307018091310180932D
:101A00000801809132018093090180913301809314
:101A10000A018091340180930B01809135018093FC
:101A20000C0181E08093220181E080932301E6ECA8
:101A3000F0E0809100018083AEEEB0E0EEEEF0E0E9
:101A400080818F7D8C930E94AB06982F83E0692F55
:101A50000E949F03EDEEF0E08A8180836996DEBFED
:101A6000CDBFCF91DF91FF91EF91BF91AF919F914A
:101A70008F917F916F915F914F913F912F910F9037
:101A800000925B000F900FBE0F901F901895DF9390
:101A9000CF93CDB7DEB7EC970FB6F894DEBF0FBE8D
:101AA000CDBF8DE790E062E00E943D0681E191E0CC
:101AB000A0E0B0E08093B5019093B601A093B70188
:101AC000B093B8018FEF9FE0A0E0B0E08093B90140
:101AD0009093BA01A093BB01B093BC011092B401E2
:101AE00088E08093BD0182E191E0A0E0B0E08093C6
:101AF0007F0190938001A0938101B09382018FEFC9
:101B00009FE0A0E0B0E08093830190938401A093D4
:101B10008501B093860110927E0188E08093870151
:101B200080E391E0A0E0B0E08093EB019093EC01C2
:101B3000A093ED01B093EE018FEF9FE0A0E0B0E045
:101B40008093EF019093F001A093F101B093F20123
:101B50001092EA0188E08093F30181E391E0A0E034
:101B6000B0E08093A3019093A401A093A501B0934A
:101B7000A6018FEF9FE0A0E0B0E08093A7019093D3
:101B8000A801A093A901B093AA011092A20188E034
:101B90008093AB0180E491E0A0E0B0E08093370156
:101BA00090933801A0933901B0933A018FEF9FE0F1
:101BB000A0E0B0E080933B0190933C01A0933D01F5
:101BC000B0933E011092360188E080933F0181E49A
:101BD00091E0A0E0B0E08093910190939201A093F6
:101BE0009301B09394018FEF9FE0A0E0B0E0809369
:101BF000950190939601A0939701B093980110924C
:101C0000900188E08093990180E591E0A0E0B0E048
:101C10008093FD019093FE01A093FF01B093000219
:101C20008FEF9FE0A0E0B0E080930102909302026A
:101C3000A0930302B09304021092FC0188E0809309
:101C4000050281E591E0A0E0B0E080934901909326
:101C50004A01A0934B01B0934C018FEF9FE0A0E0AD
:101C6000B0E080934D0190934E01A0934F01B0934B
:101C700050011092480188E08093510181E091E089
:101C8000A0E0B0E08093C7019093C801A093C90180
:101C9000B093CA018FEF9FE0A0E0B0E08093CB014A
:101CA0009093CC01A093CD01B093CE011092C601C8
:101CB00088E08093CF0180E691E0A0E0B0E08093DF
:101CC0005B0190935C01A0935D01B0935E018FEF87
:101CD0009FE0A0E0B0E080935F0190936001A0934B
:101CE0006101B093620110925A0188E08093630110
:101CF00081E691E0A0E0B0E08093D9019093DA0111
:101D0000A093DB01B093DC018FEF9FE0A0E0B0E097
:101D10008093DD019093DE01A093DF01B093E00199
:101D20001092D80188E08093E10180E791E0A0E083
:101D3000B0E080936D0190936E01A0936F01B0931A
:101D400070018FEF9FE0A0E0B0E08093710190936D
:101D50007201A0937301B093740110926C0188E03A
:101D6000809375018DB79EB742970FB6F8949EBFCA
:101D70000FBE8DBF8DB79EB701969A838983E4EB22
:101D8000F1E0FC83EB83F2E1FD83EB81FC810080D9
:101D90008B819C8101969C838B83E981FA810082EF
:101DA00089819A8101969A8389839D8191509D832F
:101DB000ED81EE2351F780E061E00E9474068DB75B
:101DC0009EB742960FB6F8949EBF0FBE8DBFEDB77B
:101DD000FEB772970FB6F894FEBF0FBEEDBF8DB77A
:101DE0009EB701969F838E838EE791E099878887BF
:101DF00092E19A87E885F985008088859985019622
:101E000099878887EE81FF8100828E819F8101966C
:101E10009F838E839A8591509A87EA85EE2351F7A6
:101E200081E061E00E9474068DB79EB742960FB6BE
:101E3000F8949EBF0FBE8DBFEDB7FEB772970FB679
:101E4000F894FEBF0FBEEDBF8DB79EB701969C877D
:101E50008B878AEE91E09E878D8792E19F87ED8543
:101E6000FE8500808D859E8501969E878D87EB85FA
:101E7000FC8500828B859C8501969C878B879F853E
:101E800091509F87EF85EE2351F782E061E00E9439
:101E900074068DB79EB742960FB6F8949EBF0FBEDC
:101EA0008DBFEDB7FEB772970FB6F894FEBF0FBEA9
:101EB000EDBF8DB79EB70196998B888B82EA91E032
:101EC0009B8B8A8B92E19C8BEA89FB8900808A89B3
:101ED0009B8901969B8B8A8BE889F9890082888986
:101EE00099890196998B888B9C8991509C8BEC8960
:101EF000EE2351F783E061E00E9474068DB79EB730
:101F000042960FB6F8949EBF0FBE8DBFEDB7FEB7D9
:101F100072970FB6F894FEBF0FBEEDBF8DB79EB798
:101F200001969E8B8D8B86E391E0988F8F8B92E14B
:101F3000998FEF89F88D00808F89988D0196988F01
:101F40008F8BED89FE8900828D899E8901969E8BFB
:101F50008D8B998D9150998FE98DEE2351F784E007
:101F600061E00E9474068DB79EB742960FB6F89452
:101F70009EBF0FBE8DBFEDB7FEB772970FB6F89438
:101F8000FEBF0FBEEDBF8DB79EB701969B8F8A8FA8
:101F900080E991E09D8F8C8F92E19E8FEC8DFD8D7D
:101FA00000808C8D9D8D01969D8F8C8FEA8DFB8D91
:101FB00000828A8D9B8D01969B8F8A8F9E8D91507A
:101FC0009E8FEE8DEE2351F785E061E00E9474064E
:101FD0008DB79EB742960FB6F8949EBF0FBE8DBFC9
:101FE000EDB7FEB772970FB6F894FEBF0FBEEDBF08
:101FF0008DB79EB7019698A38F8F8CEF91E09AA32F
:1020000089A392E19BA3E9A1FAA1008089A19AA1E9
:1020100001969AA389A3EF8DF8A100828F8D98A1D4
:10202000019698A38F8F9BA191509BA3EBA1EE23C8
:1020300051F786E061E00E9474068DB79EB7429624
:102040000FB6F8949EBF0FBE8DBFEDB7FEB7729767
:102050000FB6F894FEBF0FBEEDBF8DB79EB70196C9
:102060009DA38CA388E491E09FA38EA392E198A7FF
:10207000EEA1FFA100808EA19FA101969FA38EA338
:10208000ECA1FDA100828CA19DA101969DA38CA332
:1020900098A5915098A7E8A5EE2351F787E061E055
:1020A0000E9474068DB79EB742960FB6F8949EBFF5
:1020B0000FBE8DBFEDB7FEB772970FB6F894FEBF97
:1020C0000FBEEDBF8DB79EB701969AA789A786EC84
:1020D00091E09CA78BA792E19DA7EBA5FCA50080B2
:1020E0008BA59CA501969CA78BA7E9A5FAA50082C4
:1020F00089A59AA501969AA789A79DA591509DA704
:10210000EDA5EE2351F788E061E00E9474068DB7DB
:102110009EB742960FB6F8949EBF0FBE8DBFEDB727
:10212000FEB772970FB6F894FEBF0FBEEDBF8DB726
:102130009EB701969FA78EA78AE591E099AB88ABE1
:1021400092E19AABE8A9F9A9008088A999A901961A
:1021500099AB88ABEEA5FFA500828EA59FA5019641
:102160009FA78EA79AA991509AABEAA9EE2351F79F
:1021700089E061E00E9474068DB79EB742960FB663
:10218000F8949EBF0FBE8DBFEDB7FEB772970FB626
:10219000F894FEBF0FBEEDBF8DB79EB701969CAB06
:1021A0008BAB88ED91E09EAB8DAB92E19FABEDA93F
:1021B000FEA900808DA99EA901969EAB8DABEBA9CF
:1021C000FCA900828BA99CA901969CAB8BAB9FA913
:1021D00091509FABEFA9EE2351F78AE061E00E9496
:1021E00074068DB79EB742960FB6F8949EBF0FBE89
:1021F0008DBFEDB7FEB772970FB6F894FEBF0FBE56
:10220000EDBF8DB79EB7019699AF88AF8CE691E090
:102210009BAF8AAF92E19CAFEAADFBAD00808AAD87
:102220009BAD01969BAF8AAFE8ADF9AD008288AD5A
:1022300099AD019699AF88AF9CAD91509CAFECAD34
:10224000EE2351F78BE063E00E9474068DB79EB7D2
:1022500042960FB6F8949EBF0FBE8DBF78940E9431
:102260004D110E943411FFCFDF93CF93CDB7DEB76E
:10227000E5ECF0E01082E4ECF0E083E08083E2EC57
:10228000F0E086E08083E1ECF0E088ED8083E0EC34
:10229000F0E01082CF91DF910895DF93CF93CDB717
:1022A000DEB7E4E4F0E084E08083EEE6F0E081E095
:1022B0008083E6E4F0E085E08083CF91DF910895AC
:1022C000AA1BBB1B51E107C0AA1FBB1FA617B7075C
:1022D00010F0A61BB70B881F991F5A95A9F7809578
:0C22E0009095BC01CD010895F894FFCF4B
:0E22EC008000000170000000000000000000F3
:00000001FF
