:1000000012C02AC029C028C027C026C00BC15EC0AC
:1000100023C023C021C020C01FC01EC01DC01CC0E3
:100020001BC01AC019C011241FBECFEDCDBF10E0F8
:10003000A0E6B0E0E0E9F4E002C005900D92A6373A
:10004000B107D9F710E0A6E7B0E001C01D92AF37C5
:10005000B107E1F79BD11AC2D3CF1F920F920FB60F
:100060000F9211248F939F93AF93BF93EF93FF93BE
:10007000DF93CF93CDB7DEB780917B008130C9F499
:10008000ACE2B0E080917D00882F90E0FC01E05A66
:10009000FF4F80818C9380917D008F5F80937D00E6
:1000A00080917D00893029F481E080937D00109259
:1000B0007B00CF91DF91FF91EF91BF91AF919F9125
:1000C0008F910F900FBE0F901F9018951F920F9257
:1000D0000FB60F9211242F933F938F939F93EF931B
:1000E000FF93DF93CF930F92CDB7DEB71982ECE287
:1000F000F0E08081898380917C00813009F073C0B9
:1001000080917E00882F90E0FC01E559FF4F8981A6
:10011000808380917E008F5F80937E0080917E003F
:10012000883009F060C080917100282F30E0C9014B
:10013000880F991F880F991F820F931F880F991F8F
:10014000982F80917200890F805180937800809160
:100150006E00282F30E0C901880F991F880F991F62
:10016000820F931F880F991F982F80916F00890F1E
:1001700080518093790080916B00282F30E0C90175
:10018000880F991F880F991F820F931F880F991F3F
:10019000982F80916C00890F805180937A00809114
:1001A0006B008093600080916C008093610080916F
:1001B0006E008093630080916F0080936400809153
:1001C000710080936600809172008093670081E0E7
:1001D00080937B0010927E0010927C00ECE2F0E0B5
:1001E0008091600080838981843741F481E080932D
:1001F0007B00ECE2F0E080916000808389818337AE
:1002000019F481E080937C000F90CF91DF91FF91F2
:10021000EF919F918F913F912F910F900FBE0F9073
:100220001F9018951F920F920FB60F9211242F93C3
:100230003F935F936F937F938F939F93AF93BF93FE
:10024000EF93FF93DF93CF93CDB7DEB7A8E3B0E092
:10025000E8E3F0E0908181E089278C93809176003B
:10026000909177000196909377008093760080912B
:100270007600909177002FE0843B920709F074C0DC
:100280001092770010927600809178008F5F8093B3
:100290007800809178008C3309F04CC0109278007F
:1002A000809179008F5F80937900809179008C3301
:1002B00039F51092790080917A008F5F80937A00EF
:1002C00080917A00883111F410927A0080917A003E
:1002D0009AE0692FCFD0805D8093600080917A0092
:1002E0009AE0692FC7D0882F90E026EF3FEFB90141
:1002F000AFD0982F80917A00890F805D8093610044
:10030000809179009AE0692FB5D0805D8093630079
:10031000809179009AE0692FADD0882F90E026EF88
:100320003FEFB90195D0982F80917900890F805DBA
:1003300080936400809178009AE0692F9BD0805D63
:1003400080936600809178009AE0692F93D0882F7F
:1003500090E026EF3FEFB9017BD0982F8091780095
:10036000890F805D80936700CF91DF91FF91EF91BE
:10037000BF91AF919F918F917F916F915F913F91CD
:100380002F910F900FBE0F901F901895DF93CF9372
:10039000CDB7DEB7A7E3B0E0E7E3F0E080818160AE
:1003A0008C93A8E3B0E0E8E3F0E080818E7F8C934B
:1003B000789439D0E2E2F0E01082E9E2F0E08CE0FB
:1003C0008083ABE2B0E0EBE2F0E0808180628C936E
:1003D000AAE2B0E0EAE2F0E0808180648C93AAE2D5
:1003E000B0E0EAE2F0E0808188608C93AAE2B0E0BD
:1003F000EAE2F0E0808180688C93AAE2B0E0EAE271
:10040000F0E0808180618C93A3E2B0E0E3E2F0E071
:10041000808184608C93A3E2B0E0E3E2F0E080812D
:1004200082608C93FFCFDF93CF93CDB7DEB7E0E54B
:10043000F0E01082E3E5F0E083E08083A9E5B0E03E
:10044000E9E5F0E0808182608C93CF91DF9108959F
:100450005527002480FF02C0060E571F660F771F26
:100460006115710521F096958795009799F7952F5D
:10047000802D0895991B79E004C0991F961708F004
:10048000961B881F7A95C9F780950895F894FFCF39
:1004900030303A30303A30300A000030303A3030C4
:0604A0003A30300A0000B2
:00000001FF
