:100000000C942A000C9447000C9447000C94470071
:100010000C9447000C948B030C9447000C944700FD
:100020000C9447000C9447000C9447000C94B103C7
:100030000C9447000C9447000C9447000C94470024
:100040000C9447000C9447000C9447000C94470014
:100050000C94470011241FBECFE5D8E0DEBFCDBF12
:1000600010E0A0E6B0E0E4E8FCE002C005900D92EC
:10007000A436B107D9F710E0A4E6B0E001C01D92A4
:10008000AE36B107E1F70E941F050C9441060C94AF
:100090000000CF93DF93CDB7DEB7E0E4F0E010824D
:1000A000E9E2F0E08FE08083EBE2F0E082E680833B
:1000B000EAE2F0E088E18083E0E4F0E086E8808333
:1000C000DF91CF910895CF93DF93CDB7DEB7E7E20D
:1000D000F0E080E48083E6E2F0E08EE98083A6E24F
:1000E000B0E0E6E2F0E0808180668C93DF91CF9112
:1000F0000895CF93DF93CDB7DEB7E4E3F0E010824D
:10010000DF91CF910895CF93DF93CDB7DEB72397DB
:100110000FB6F894DEBF0FBECDBF8B831A8281E08D
:1001200089838981282F33278B8199270197A901FA
:1001300002C0440F551F8A95E2F7CA018983E3E3A1
:10014000F0E080818A839A81898189238A838A81E8
:10015000992723960FB6F894DEBF0FBECDBFDF916F
:10016000CF910895CF93DF93CDB7DEB721970FB628
:10017000F894DEBF0FBECDBF1982E3E3F0E08081CB
:1001800089838981992721960FB6F894DEBF0FBE27
:10019000CDBFDF91CF910895CF93DF93CDB7DEB779
:1001A000E7E3F0E08FE08083E1E3F0E080EF80833D
:1001B000E8E3F0E08FEF8083E2E3F0E08FEF80830D
:1001C000DF91CF910895CF93DF93CDB7DEB723971B
:1001D0000FB6F894DEBF0FBECDBF89838981282F6B
:1001E00033273B832A838A819B818430910561F187
:1001F0002A813B812530310584F48A819B818230BC
:10020000910599F12A813B81233031052CF58A81B2
:100210009B818130910591F15DC02A813B8126301F
:10022000310509F446C08A819B81863091050CF422
:1002300049C02A813B812730310591F18A819B8118
:100240008830910521F146C0A2E3B0E0E2E3F0E09E
:1002500080818F778C933EC0A2E3B0E0E2E3F0E0D0
:1002600090818FEB89238C9335C0A2E3B0E0E2E369
:10027000F0E090818FED89238C932CC0A2E3B0E055
:10028000E2E3F0E090818FEE89238C9323C0A8E312
:10029000B0E0E8E3F0E0908187EF89238C931AC007
:1002A000A8E3B0E0E8E3F0E090818BEF89238C9342
:1002B00011C0A8E3B0E0E8E3F0E090818DEF89237E
:1002C0008C9308C0A8E3B0E0E8E3F0E090818EEF03
:1002D00089238C9323960FB6F894DEBF0FBECDBF53
:1002E000DF91CF910895CF93DF93CDB7DEB72397FA
:1002F0000FB6F894DEBF0FBECDBF89838981282F4A
:1003000033273B832A838A819B818430910561F165
:100310002A813B812530310584F48A819B8182309A
:10032000910591F12A813B81233031052CF58A8199
:100330009B818130910581F156C02A813B81263015
:10034000310509F441C08A819B81863091050CF406
:1003500043C02A813B812730310571F18A819B811D
:100360008830910509F13FC0A2E3B0E0E2E3F0E09C
:10037000808180688C9337C0A2E3B0E0E2E3F0E0D4
:10038000808180648C932FC0A2E3B0E0E2E3F0E0D0
:10039000808180628C9327C0A2E3B0E0E2E3F0E0CA
:1003A000808180618C931FC0A8E3B0E0E8E3F0E0B7
:1003B000808188608C9317C0A8E3B0E0E8E3F0E0A8
:1003C000808184608C930FC0A8E3B0E0E8E3F0E0A4
:1003D000808182608C9307C0A8E3B0E0E8E3F0E09E
:1003E000808181608C9323960FB6F894DEBF0FBE98
:1003F000CDBFDF91CF910895CF93DF93CDB7DEB717
:1004000023970FB6F894DEBF0FBECDBF89838981D5
:10041000282F33273B832A838A819B81843091054F
:1004200061F12A813B812530310584F48A819B81E9
:1004300082309105A1F12A813B812330310534F5C9
:100440008A819B818130910599F15EC02A813B812F
:100450002630310509F447C08A819B818630910599
:100460000CF44AC02A813B812730310599F18A81F9
:100470009B818830910529F147C0A2E3B0E0E2E317
:10048000F0E0908180E889278C933EC0A2E3B0E041
:10049000E2E3F0E0908180E489278C9335C0A2E309
:1004A000B0E0E2E3F0E0908180E289278C932CC0F9
:1004B000A2E3B0E0E2E3F0E0908180E189278C9351
:1004C00023C0A8E3B0E0E8E3F0E0908188E089276A
:1004D0008C931AC0A8E3B0E0E8E3F0E0908184E0F8
:1004E00089278C9311C0A8E3B0E0E8E3F0E09081A5
:1004F00082E089278C9308C0A8E3B0E0E8E3F0E04D
:10050000908181E089278C9323960FB6F894DEBF03
:100510000FBECDBFDF91CF910895CF93DF93CDB7BD
:10052000DEB721970FB6F894DEBF0FBECDBF89832B
:100530008981882324F488E00E94E30003C088E0D6
:100540000E9473018981992780749070009721F02F
:1005500087E00E94E30003C087E00E947301898165
:10056000992780729070009721F086E00E94E30046
:1005700003C086E00E947301898199278071907081
:10058000009721F085E00E94E30003C085E00E940F
:1005900073018981992788709070009721F084E019
:1005A0000E94E30003C084E00E94730189819927BF
:1005B00084709070009721F083E00E94E30003C0F4
:1005C00083E00E947301898199278270907000975F
:1005D00021F082E00E94E30003C082E00E947301E8
:1005E0008981992781709070882321F081E00E9491
:1005F000E30003C081E00E94730121960FB6F894D6
:10060000DEBF0FBECDBFDF91CF910895CF93DF93B3
:10061000CDB7DEB723970FB6F894DEBF0FBECDBFC0
:1006200089838981282F33273B832A838A819B8171
:100630008430910509F44FC02A813B812530310572
:10064000D4F48A819B8181309105C9F12A813B8153
:10065000223031052CF48A819B81009761F152C0D0
:100660002A813B812230310571F18A819B8183305F
:10067000910569F147C02A813B8127303105B9F1E5
:100680008A819B81883091055CF42A813B812530E9
:10069000310529F18A819B818630910521F132C093
:1006A0002A813B812830310531F18A819B81893053
:1006B000910529F127C08EEE0E948D0223C080E6AD
:1006C0000E948D021FC08DEC0E948D021BC089EE1E
:1006D0000E948D0217C083E60E948D0213C08BEA30
:1006E0000E948D020FC08FEA0E948D020BC080EE27
:1006F0000E948D0207C08FEE0E948D0203C08BEE18
:100700000E948D0223960FB6F894DEBF0FBECDBFB8
:10071000DF91CF9108951F920F920FB60F9211247F
:100720008F939F93CF93DF93CDB7DEB7809169000E
:1007300090916A00019690936A008093690080917D
:100740006B0090916C00019690936C0080936B000D
:10075000DF91CF919F918F910F900FBE0F901F90BF
:1007600018951F920F920FB60F9211242F933F935B
:100770004F935F936F937F938F939F93AF93BF93A9
:10078000EF93FF93CF93DF93CDB7DEB72497DEBF10
:10079000CDBF88E00E948300882369F080916800C3
:1007A000882349F481E090E090936A008093690087
:1007B00081E0809368008091690090916A008F3099
:1007C0009105A1F480916800882381F090916700E1
:1007D0008EEF89238093670088E00E94830088233E
:1007E00029F08091670081608093670080916900A3
:1007F00090916A0085319105A1F480916800882369
:1008000081F0909167008DEF89238093670088E0E5
:100810000E948300882329F0809167008260809382
:1008200067008091690090916A008B319105A1F475
:1008300080916800882381F0909167008BEF892375
:100840008093670088E00E948300882329F08091CC
:1008500067008460809367008091690090916A00CE
:1008600081329105A1F480916800882381F09091F4
:10087000670087EF89238093670088E00E948300E8
:10088000882329F0809167008860809367008091B9
:10089000690090916A0087329105A1F48091680007
:1008A000882381F0909167008FEE89238093670001
:1008B00088E00E948300882329F08091670080618E
:1008C000809367008091690090916A008D32910554
:1008D00031F480916800882311F0109268008091B3
:1008E000690090916A008436910531F48091680026
:1008F000882311F41092670080916D008F5F8093C0
:100900006D00809164008F5F8093640080916D0022
:10091000282F332780916000909161008217930700
:100920006CF181E00E94E30080916500282F33275D
:100930003C832B838B819C818130910589F02B81B5
:100940003C812230310599F08B819C81009709F020
:1009500018C082E00E94730183E00E94730111C0FD
:1009600082E00E94E30083E00E9473010AC082E0FB
:100970000E94730183E00E94E30003C081E00E94B3
:10098000730180916400282F332780916200909139
:100990006300821793076CF184E00E94E30080916A
:1009A0006600282F33273A83298389819A818130F1
:1009B000910589F029813A812230310599F08981A8
:1009C0009A81009709F018C085E00E94730186E0C3
:1009D0000E94730111C085E00E94E30086E00E943E
:1009E00073010AC085E00E94730186E00E94E30063
:1009F00003C084E00E94730180916D00893C11F472
:100A000010926D0080916400893C11F41092640092
:100A10002496F894DEBFCDBFDF91CF91FF91EF9187
:100A2000BF91AF919F918F917F916F915F914F9106
:100A30003F912F910F900FBE0F901F901895CF935D
:100A4000DF93CDB7DEB70E94CC000E9479000E94F0
:100A50002506789400C0809168008823E1F7809192
:100A60006700992781709070882319F081E0809346
:100A7000650080916700992782709070009719F047
:100A800081E0809366008091670099278470907060
:100A9000009719F082E080936500809167009927A4
:100AA00088709070009719F082E0809366008091C2
:100AB0006700992781709070009749F480916700D2
:100AC000992784709070009711F4109265008091BE
:100AD0006700992782709070009749F480916700B1
:100AE000992788709070009711F410926600809199
:100AF0006700992780719070009769F088EC90E00A
:100B0000909361008093600088EC90E09093630084
:100B1000809362000CC08CE390E09093610080931E
:100B200060008CE390E0909363008093620080917A
:100B30006700992781709070882339F18091670050
:100B4000992782709070009701F58091670099272E
:100B5000847090700097C9F480916700992788701D
:100B60009070009791F481E08093650081E080931C
:100B7000660088EC90E090936100809360008EE1C5
:100B800090E09093630080936200809167009927C2
:100B900081709070009709F05ECF8091670099276F
:100BA00082709070009709F456CF80916700992762
:100BB00084709070009709F04ECF8091670099275C
:100BC00088709070009709F046CF81E080936500AF
:100BD00081E0809366008EE190E0909361008093C5
:100BE000600088EC90E0909363008093620033CFC4
:100BF000CF93DF93CDB7DEB724970FB6F894DEBF5F
:100C00000FBECDBF69837A838B839C8381E090E0A4
:100C100090936C0080936B0080916B0090916C00BE
:100C20009C014427552789819A81AB81BC81821719
:100C30009307A407B50784F724960FB6F894DEBF90
:100C40000FBECDBFDF91CF910895CF93DF93CDB786
:100C5000DEB7E4E4F0E01082E5E4F0E084E08083D5
:100C6000E2E5F0E01082E3E5F0E082E08083A9E5D0
:100C7000B0E0E9E5F0E0808181648C93DF91CF9171
:040C80000895FFCF05
:040C84003C003C00F4
:00000001FF
